:020000040800F2
:1000000000000220754300084142000843420008F6
:10001000454200084742000849420008000000002D
:100020000000000000000000000000004B4200083B
:100030004D420008000000004F42000851420008F5
:10004000C5430008C5430008C5430008C543000870
:10005000C5430008C5430008C5430008C543000860
:10006000C5430008C543000859420008C5430008BD
:1000700065420008C5430008C5430008C5430008A1
:1000800075420008C5430008C5430008C543000881
:10009000C5430008C5430008C5430008C543000820
:1000A000C5430008C5430008C5430008C543000810
:1000B000C5430008C5430008C5430008C543000800
:1000C000C5430008C5430008C54300088542000831
:1000D000C5430008C5430008C5430008C5430008E0
:1000E000C5430008C5430008C5430008C5430008D0
:1000F000C5430008C5430008C5430008C5430008C0
:10010000C5430008C5430008C5430008C5430008AF
:10011000C5430008C5430008C5430008C54300089F
:1001200095420008C5430008C5430008C5430008C0
:10013000C54300080000000000000000C54300089F
:10014000C5430008C5430008C5430008C54300086F
:10015000A5420008C5430008C5430008C543000880
:10016000C5430008C5430008C5430008C54300084F
:10017000C5430008C5430008C5430008000000004F
:1001800000000000C543000800000000000000005F
:10019000C54300080000000000000000C54300083F
:1001A000000000000000000000000000C54300083F
:1001B000C5430008C5430008C5430008C5430008FF
:0401C000C54300082B
:1002000081F0004102E000BF83F0004330B54FEAC7
:1002100041044FEA430594EA050F08BF90EA020F34
:100220001FBF54EA000C55EA020C7FEA645C7FEAC7
:10023000655C00F0E2804FEA5454D4EB5555B8BFEA
:100240006D420CDD2C4480EA020281EA030382EA5B
:10025000000083EA010180EA020281EA0303362DED
:1002600088BF30BD11F0004F4FEA01314FF4801CC0
:100270004CEA113102D0404261EB410113F0004FD2
:100280004FEA03334CEA133302D0524263EB430389
:1002900094EA050F00F0A780A4F10104D5F1200E27
:1002A0000DDB02FA0EFC22FA05F2801841F1000182
:1002B00003FA0EF2801843FA05F359410EE0A5F156
:1002C00020050EF1200E012A03FA0EFC28BF4CF087
:1002D000020C43FA05F3C01851EBE37101F000453D
:1002E00007D54FF0000EDCF1000C7EEB00006EEB4A
:1002F0000101B1F5801F1BD3B1F5001F0CD34908D4
:100300005FEA30004FEA3C0C04F101044FEA44522A
:1003100012F5800F80F09A80BCF1004F08BF5FEAB1
:10032000500C50F1000041EB045141EA050130BD91
:100330005FEA4C0C404141EB0101013C28BFB1F5A3
:10034000801FE9D291F0000F04BF01460020B1FAEE
:1003500081F308BF2033A3F10B03B3F120020CDAC1
:100360000C3208DD02F1140CC2F10C0201FA0CF09F
:1003700021FA02F10CE002F11402D8BFC2F1200C04
:1003800001FA02F120FA0CFCDCBF41EA0C019040BA
:10039000E41AA2BF01EB0451294330BD6FEA040403
:1003A0001F3C1CDA0C340EDC04F11404C4F12002EE
:1003B00020FA04F001FA02F340EA030021FA04F300
:1003C00045EA030130BDC4F10C04C4F1200220FA57
:1003D00002F001FA04F340EA0300294630BD21FA95
:1003E00004F0294630BD94F0000F83F4801306BF5B
:1003F00081F480110134013D4EE77FEA645C18BF4F
:100400007FEA655C29D094EA050F08BF90EA020FE5
:1004100005D054EA000C04BF1946104630BD91EADD
:10042000030F1EBF0021002030BD5FEA545C05D1E0
:100430004000494128BF41F0004130BD14F580041F
:100440003CBF01F5801130BD01F0004545F0FE4193
:1004500041F470014FF0000030BD7FEA645C1ABFC8
:10046000194610467FEA655C1CBF0B46024650EAFF
:10047000013406BF52EA033591EA030F41F400212B
:1004800030BD00BF90F0000F04BF0021704730B5B1
:100490004FF4806404F132044FF000054FF0000186
:1004A00050E700BF90F0000F04BF0021704730B547
:1004B0004FF4806404F1320410F0004548BF40421C
:1004C0004FF000013EE700BF42004FEAE2014FEA71
:1004D00031014FEA02701FBF12F07F4393F07F4F4C
:1004E00081F06051704732F07F4208BF704793F04F
:1004F0007F4F04BF41F40021704730B54FF4607462
:1005000001F0004521F000411CE700BF50EA010264
:1005100008BF704730B54FF000050AE050EA01020D
:1005200008BF704730B511F0004502D5404261EB7D
:1005300041014FF4806404F132045FEA915C3FF4BE
:10054000D8AE4FF003025FEADC0C18BF03325FEA5B
:10055000DC0C18BF033202EBDC02C2F1200300FA0C
:1005600003FC20FA02F001FA03FE40EA0E0021FA31
:1005700002F11444BDE600BF4FF0FF3C06E000BFAF
:100580004FF0010C02E000BF4FF0010C4DF804CD1C
:100590004FEA410C7FEA6C5C4FEA430C18BF7FEADC
:1005A0006C5C1BD001B050EA410C0CBF52EA430C0A
:1005B00091EA030F02BF90EA020F0020704710F18A
:1005C000000F91EA030F58BF994208BF90422CBF19
:1005D000D8176FEAE37040F0010070474FEA410C12
:1005E0007FEA6C5C02D150EA013C07D14FEA430C30
:1005F0007FEA6C5CD6D152EA033CD3D05DF8040BA1
:10060000704700BF8446104662468C4619466346D2
:1006100000E000BF01B5FFF7B7FF002848BF10F1A9
:10062000000F01BD4DF808EDFFF7F4FF0CBF0120EE
:1006300000205DF808FB00BF4DF808EDFFF7EAFF6A
:1006400034BF012000205DF808FB00BF4DF808ED25
:10065000FFF7E0FF94BF012000205DF808FB00BF1A
:100660004DF808EDFFF7CEFF94BF012000205DF8A4
:1006700008FB00BF4DF808EDFFF7C4FF34BF0120B1
:1006800000205DF808FB00BF80F0004002E000BFE2
:1006900081F0004142001FBF5FEA410392EA030F6D
:1006A0007FEA226C7FEA236C6AD04FEA1262D2EBB7
:1006B0001363C1BFD218414048404140B8BF5B42BC
:1006C000192B88BF704710F0004F40F4000020F055
:1006D0007F4018BF404211F0004F41F4000121F06B
:1006E0007F4118BF494292EA030F3FD0A2F10102B5
:1006F00041FA03FC10EB0C00C3F1200301FA03F1F3
:1007000000F0004302D5494260EB4000B0F5000F15
:1007100013D3B0F1807F06D340084FEA310102F1D4
:100720000102FE2A51D2B1F1004F40EBC25008BF86
:1007300020F0010040EA03007047490040EB000050
:10074000013A28BFB0F5000FEDD2B0FA80FCACF151
:10075000080CB2EB0C0200FA0CF0AABF00EBC2507E
:1007600052421843BCBFD0401843704792F0000F6C
:1007700081F4000106BF80F400000132013BB5E7BF
:100780004FEA41037FEA226C18BF7FEA236C21D035
:1007900092EA030F04D092F0000F08BF084670479A
:1007A00090EA010F1CBF0020704712F07F4F04D168
:1007B000400028BF40F00040704712F100723CBF7B
:1007C00000F50000704700F0004343F0FE4040F4A5
:1007D000000070477FEA226216BF08467FEA236363
:1007E0000146420206BF5FEA412390EA010F40F44E
:1007F000800070474FF0000304E000BF10F000439A
:1008000048BF40425FEA000C08BF704743F0964380
:1008100001464FF000001CE050EA010208BF70479B
:100820004FF000030AE000BF50EA010208BF704722
:1008300011F0004302D5404261EB41015FEA010C37
:1008400002BF84460146002043F0B64308BFA3F12F
:100850008053A3F50003BCFA8CF2083AA3EBC25311
:1008600010DB01FA02FC634400FA02FCC2F1200230
:10087000BCF1004F20FA02F243EB020008BF20F067
:100880000100704702F1200201FA02FCC2F12002CD
:1008900050EA4C0021FA02F243EB020008BF20EAC2
:1008A000DC7070474FF0FF0C1CEAD0521EBF1CEAF0
:1008B000D15392EA0C0F93EA0C0F6FD01A4480EADE
:1008C000010C400218BF5FEA41211ED04FF00063C7
:1008D00043EA501043EA5111A0FB01310CF00040F3
:1008E000B1F5000F3EBF490041EAD3715B0040EA19
:1008F000010062F17F02FD2A1DD8B3F1004F40EBE9
:10090000C25008BF20F00100704790F0000F0CF0BB
:10091000004C08BF49024CEA502040EA51207F3A7F
:10092000C2BFD2F1FF0340EAC250704740F400005A
:100930004FF00003013A5DDC12F1190FDCBF00F04B
:1009400000407047C2F10002410021FA02F1C2F1F9
:10095000200200FA02FC5FEA310040F1000053EA95
:100960004C0308BF20EADC70704792F0000F00F0E3
:10097000004C02BF400010F4000F013AF9D040EAE9
:100980000C0093F0000F01F0004C02BF490011F47D
:10099000000F013BF9D041EA0C018FE70CEAD1537B
:1009A00092EA0C0F18BF93EA0C0F0AD030F0004CFB
:1009B00018BF31F0004CD8D180EA010000F00040AF
:1009C000704790F0000F17BF90F0004F084691F06D
:1009D000000F91F0004F14D092EA0C0F01D14202A7
:1009E0000FD193EA0C0F03D14B0218BF084608D170
:1009F00080EA010000F0004040F0FE4040F40000BA
:100A0000704740F0FE4040F4400070474FF0FF0C4C
:100A10001CEAD0521EBF1CEAD15392EA0C0F93EA93
:100A20000C0F69D0A2EB030280EA010C49024FEAE5
:100A3000402037D04FF0805343EA111143EA10139E
:100A40000CF000408B4238BF5B0042F17D024FF456
:100A5000000C8B4224BF5B1A40EA0C00B3EB510F31
:100A600024BFA3EB510340EA5C00B3EB910F24BF1A
:100A7000A3EB910340EA9C00B3EBD10F24BFA3EB9F
:100A8000D10340EADC001B0118BF5FEA1C1CE0D167
:100A9000FD2A3FF650AF8B4240EBC25008BF20F01A
:100AA000010070470CF0004C4CEA50207F32C2BF6E
:100AB000D2F1FF0340EAC250704740F400004FF00B
:100AC0000003013A37E792F0000F00F0004C02BF3C
:100AD000400010F4000F013AF9D040EA0C0093F006
:100AE000000F01F0004C02BF490011F4000F013B60
:100AF000F9D041EA0C0195E70CEAD15392EA0C0FC8
:100B000008D142027FF47DAF93EA0C0F7FF470AFFF
:100B1000084676E793EA0C0F04D14B023FF44CAF42
:100B200008466EE730F0004C18BF31F0004CCAD1D7
:100B300030F000427FF45CAF31F000437FF43CAF13
:100B40005FE700BF4FF0FF3C06E000BF4FF0010C35
:100B500002E000BF4FF0010C4DF804CD4FEA400217
:100B60004FEA41037FEA226C18BF7FEA236C11D061
:100B700001B052EA530C18BF90EA010F58BFB2EB14
:100B8000030088BFC81738BF6FEAE17018BF40F094
:100B9000010070477FEA226C02D15FEA402C05D148
:100BA0007FEA236CE4D15FEA412CE1D05DF8040BCD
:100BB000704700BF844608466146FFE70FB5FFF760
:100BC000C9FF002848BF10F1000F0FBD4DF808ED18
:100BD000FFF7F4FF0CBF012000205DF808FB00BF09
:100BE0004DF808EDFFF7EAFF34BF012000205DF863
:100BF00008FB00BF4DF808EDFFF7E0FF94BF0120B0
:100C000000205DF808FB00BF4DF808EDFFF7D2FFAC
:100C100094BF012000205DF808FB00BF4DF808EDEF
:100C2000FFF7C8FF34BF012000205DF808FB00BFBC
:100C30004FEA4002B2F1FE4F0FD34FF09E03B3EBE9
:100C400012620DD94FEA002343F0004310F0004F29
:100C500023FA02F018BF404270474FF0000070477F
:100C600012F1610F01D1420205D110F0004008BF1E
:100C70006FF0004070474FF00000704742000ED206
:100C8000B2F1FE4F0BD34FF09E03B3EB126209D4C7
:100C90004FEA002343F0004323FA02F070474FF07D
:100CA0000000704712F1610F01D1420202D14FF0F2
:100CB000FF3070474FF00000704700BF53B94AB98A
:100CC000002908BF00281CBF4FF0FF314FF0FF3054
:100CD00000F0E2B8ADF1080C6DE904CE3BF0FEFB8C
:100CE000DDF804E0DDE9022304B0704700F13401CF
:100CF00091E838009C46A6464CF8045D90E8FF0F4A
:100D0000E54600BD90EC210B704700BF80EC210B45
:100D1000704700BF90EC200B704700BF80EC200BA9
:100D2000704700BFD0EC200B704700BFC0EC200B19
:100D3000704700BFF0EC0201F0EC0211F0EC022170
:100D4000F0EC0231F0EC0241F0EC0251F0EC026107
:100D5000F0EC0271F0EC0281F0EC0291F0EC02A1F7
:100D6000F0EC02B1F0EC02C1F0EC02D1F0EC02E1E7
:100D7000F0EC02F1704700BFE0EC0201E0EC021180
:100D8000E0EC0221E0EC0231E0EC0241E0EC025147
:100D9000E0EC0261E0EC0271E0EC0281E0EC029137
:100DA000E0EC02A1E0EC02B1E0EC02C1E0EC02D127
:100DB000E0EC02E1E0EC02F1704700BFB0FC018121
:100DC000B0FC0191B0FC01A1B0FC01B1704700BFC3
:100DD000A0FC0181A0FC0191A0FC01A1A0FC01B13B
:100DE000704700BFEC4600B52DE900502DE9FF1F0C
:100DF0004FF000032DE90C0001A93BF029FEDDF8BE
:100E000040E012B0704700BFEC4600B52DE900503D
:100E10002DE9FF1F4FF000032DE90C0001A93BF065
:100E200053FEDDF840E012B0704700BFEC4600B55D
:100E30002DE900502DE9FF1F4FF000032DE90C00B4
:100E400001A93BF063FEDDF840E012B0704700BF3F
:100E5000EC4600B52DE900502DE9FF1F4FF00003CF
:100E60002DE90C0001AB3BF027FEDDF840E012B0AD
:100E7000704700BFEC4600B52DE900502DE9FF1F7B
:100E80004FF000032DE90C0001AA3BF09FFEDDF8B6
:100E900040E012B0704700BF704700BF0000000084
:100EA00002780B78012A28BF9A4240F0D8806DE979
:100EB000044540EA0104CDE902676FF0000C4FEAF7
:100EC00044721AB380EA010414F0070F6BD100F0EA
:100ED000070420F0070004F0030521F007014FEAA2
:100EE000C505F0E8042314F0040FF1E804670CFAD8
:100EF00005F462EA040266EA04060BD063EA04031E
:100F0000624667EA0407664604E000BFF0E804238F
:100F1000F1E8046782FA4CF582EA0604A4FA8CF43C
:100F20006CBB83FA4CF583EA0705A5FA8CF595B9F5
:100F300050E9022351E9026782FA4CF582EA06047D
:100F4000A4FA8CF483FA4CF583EA0705A5FA8CF52C
:100F50002543DBD09CB92DBAB5FA85F424F00704FB
:100F600027FA04F1DDE9026723FA04F303F0FF0036
:100F700001F0FF01FDE80445A0EB0100704724BA31
:100F8000B4FA84F424F0070426FA04F1DDE90267D8
:100F900022FA04F202F0FF0001F0FF01FDE804452F
:100FA000A0EB0100704714F0030F3CD110F00304D4
:100FB00028D150F8082B51F8083B82FA4CF582EA08
:100FC0000305A5FA8CF55DB950F8042C51F8043CE2
:100FD00082FA4CF582EA0305A5FA8CF5002DE8D0DB
:100FE0002DBAB5FA85F424F0070423FA04F122FAA5
:100FF00004F202F0FF0001F0FF01FDE80445A0EB60
:10100000010070474FEAC40420F0030050F8082B99
:1010100021F0030151F8083B0CFA04F462EA0402DF
:1010200063EA0403C9E710F003041DD0A1EB040137
:1010300020F00300E40750F8042B06D012D28B787E
:101040005FFAA2F4E41A06D12BB1CB785FFAB2F4BE
:10105000E41A00D133B920465DF8104B7047A2EB7B
:101060000300704701F1040150F8042BCC0721F074
:10107000030151F8043B48D824D222F07F4482FA7D
:101080004CF594EA1325A5FA8CF50AD165B951F807
:10109000043B84EA0204B4EB036F0ED150F8042B36
:1010A000EBE74FEA132355E035F07F454DD1087843
:1010B000FDE80445C0F1000070474FEA126203F0FA
:1010C000FF0347E002EA1C4482FA4CF594EA134518
:1010D000A5FA8CF50AD165B951F8043B84EA0204FB
:1010E000B4EB034F0CD150F8042BEBE74FEA13435A
:1010F00030E015EA1C4528D10B884FEA124229E05E
:101100004FEA124203EA1C4324E002F0FF0482FA91
:101110004CF594EA1365A5FA8CF50AD165B951F836
:10112000043B84EA0204B4EB032F09D150F8042BEA
:10113000EBE74FEA13630DE015F0FF0F05D10B68E5
:101140004FEA122223F07F4304E04FF00000FDE855
:101150000445704712BA1BBA82FA4CF482EA0304BF
:10116000A4FA8CF5B5FA85F402FA04F203FA04F352
:101170004FEA1260FDE80445A0EB1360704700BF22
:1011800001F0FF01102A2BDB10F0070F08D010F838
:10119000013B013A8B422DD010F0070F42B3F6D13C
:1011A000F0B441EA012141EA014122F007047FF055
:1011B00000070023F0E80256083C85EA010586EAAC
:1011C000010685FA47F5A3FA87F586FA47F6A5FAE8
:1011D00087F68EB9EED1F0BC01F0FF0102F00702F4
:1011E00032B110F8013B013A83EA010313B1F8D19F
:1011F0000020704701387047002D06BF3546033880
:10120000073815F0010F07D1013015F4807F02BFB8
:10121000013015F4C03F0130F0BC0138704700BF09
:10122000844641EA000313F003036DD1403A41D3F1
:1012300051F8043B40F8043B51F8043B40F8043BB0
:1012400051F8043B40F8043B51F8043B40F8043BA0
:1012500051F8043B40F8043B51F8043B40F8043B90
:1012600051F8043B40F8043B51F8043B40F8043B80
:1012700051F8043B40F8043B51F8043B40F8043B70
:1012800051F8043B40F8043B51F8043B40F8043B60
:1012900051F8043B40F8043B51F8043B40F8043B50
:1012A00051F8043B40F8043B51F8043B40F8043B40
:1012B000403ABDD2303211D351F8043B40F8043BE0
:1012C00051F8043B40F8043B51F8043B40F8043B20
:1012D00051F8043B40F8043B103AEDD20C3205D3F0
:1012E00051F8043B40F8043B043AF9D2043208D0E8
:1012F000D2071CBF11F8013B00F8013B01D30B885A
:1013000003806046704700BF082A13D38B078DD037
:1013100010F003038AD0C3F10403D21ADB071CBF09
:1013200011F8013B00F8013B80D331F8023B20F873
:10133000023B7BE7043AD9D3013A11F8013B00F8AC
:10134000013BF9D20B7803704B7843708B78837034
:101350006046704700000000000000000000000030
:10136000000000000000000000000000000000007D
:10137000000000000000000000000000000000006D
:1013800030B490F800F020F007016FF0000C10F07E
:10139000070491F820F040F048804FF000046FF00F
:1013A0000700D1E9002391F840F000F1080082FA2B
:1013B0004CF2A4FA8CF283FA4CF3A2FA8CF34BBBF6
:1013C000D1E9022382FA4CF200F10800A4FA8CF26F
:1013D00083FA4CF3A2FA8CF3E3B9D1E9042382FA3D
:1013E0004CF200F10800A4FA8CF283FA4CF3A2FA52
:1013F0008CF37BB9D1E9062301F1200182FA4CF28A
:1014000000F10800A4FA8CF283FA4CF3A2FA8CF3F0
:10141000002BC6D0002A04BF04301A4612BAB2FA12
:1014200082F200EBD20030BC7047D1E9002304F017
:101430000305C4F100004FEAC50514F0040F91F84C
:1014400040F00CFA05F562EA05021CBF63EA0503E9
:1014500062464FF00004AAE770B54FF0FF0C4CF461
:10146000E06C1CEA11541DBF1CEA135594EA0C0FE2
:1014700095EA0C0F00F0DEF82C4481EA030621EA1D
:101480004C5123EA4C5350EA013518BF52EA033558
:1014900041F4801143F4801338D0A0FB02CE4FF00A
:1014A0000005E1FB02E506F00042E0FB03E54FF03A
:1014B0000006E1FB03569CF0000F18BF4EF0010E32
:1014C000A4F1FF04B6F5007F64F5407404D25FEA2E
:1014D0004E0E6D4146EB060642EAC62141EA5551E1
:1014E0004FEAC52040EA5E504FEACE2EB4F1FD0C23
:1014F00088BFBCF5E06F1ED8BEF1004F08BF5FEAA1
:10150000500E50F1000041EB045170BD06F0004652
:1015100046EA010140EA020081EA0301B4EB5C04FF
:10152000C2BFD4EB0C0541EA045170BD41F48011F7
:101530004FF0000E013C00F3AB8014F1360FDEBF1C
:10154000002001F0004170BDC4F10004203C35DAF8
:101550000C341BDC04F11404C4F1200500FA05F37B
:1015600020FA04F001FA05F240EA020001F000421C
:1015700021F0004110EBD37021FA04F642EB060192
:101580005EEA430E08BF20EAD37070BDC4F10C04BC
:10159000C4F1200500FA04F320FA05F001FA04F280
:1015A00040EA020001F0004110EBD37041F100016C
:1015B0005EEA430E08BF20EAD37070BDC4F1200577
:1015C00000FA05F24EEA020E20FA04F301FA05F2DF
:1015D00043EA020321FA04F001F0004121FA04F287
:1015E00020EA020000EBD3705EEA430E08BF20EA57
:1015F000D37070BD94F0000F0FD101F00046400091
:1016000041EB010111F4801F08BF013CF7D041EA12
:10161000060195F0000F18BF704703F00046520016
:1016200043EB030313F4801F08BF013DF7D043EAE7
:101630000603704794EA0C0F0CEA135518BF95EA9D
:101640000C0F0CD050EA410618BF52EA4306D1D124
:1016500081EA030101F000414FF0000070BD50EA43
:10166000410606BF1046194652EA430619D094EACD
:101670000C0F02D150EA013613D195EA0C0F05D1B7
:1016800052EA03361CBF104619460AD181EA03010B
:1016900001F0004141F0FE4141F470014FF00000C3
:1016A00070BD41F0FE4141F4780170BD70B54FF05E
:1016B000FF0C4CF4E06C1CEA11541DBF1CEA1355DE
:1016C00094EA0C0F95EA0C0F00F0A7F8A4EB0504C0
:1016D00081EA030E52EA03354FEA013100F08880B7
:1016E0004FEA03334FF0805545EA131343EA126380
:1016F0004FEA022245EA111545EA10654FEA002635
:101700000EF000419D4208BF964244F1FD0404F5ED
:10171000407402D25B084FEA3202B61A65EB030549
:101720005B084FEA32024FF480104FF4002CB6EB06
:10173000020E75EB030E22BFB61A754640EA0C0086
:101740005B084FEA3202B6EB020E75EB030E22BFC6
:10175000B61A754640EA5C005B084FEA3202B6EB07
:10176000020E75EB030E22BFB61A754640EA9C00C6
:101770005B084FEA3202B6EB020E75EB030E22BF96
:10178000B61A754640EADC0055EA060E18D04FEA54
:10179000051545EA16754FEA06164FEAC30343EAF4
:1017A00052734FEAC2025FEA1C1CC0D111F4801FC1
:1017B0000BD141EA00014FF000004FF0004CB6E7BA
:1017C00011F4801F04BF01430020B4F1FD0C88BF59
:1017D000BCF5E06F3FF6AFAEB5EB030C04BFB6EB64
:1017E000020C5FEA500C50F1000041EB045170BD57
:1017F0000EF0004E4EEA113114EB5C04C2BFD4EB84
:101800000C0541EA045170BD41F480114FF0000E07
:10181000013C90E645EA060E8DE60CEA135594EA83
:101820000C0F08BF95EA0C0F3FF43BAF94EA0C0F86
:101830000AD150EA01347FF434AF95EA0C0F7FF4FB
:1018400025AF104619462CE795EA0C0F06D152EA4F
:1018500003353FF4FDAE1046194622E750EA410633
:1018600018BF52EA43067FF4C5AE50EA41047FF444
:101870000DAF52EA43057FF4EBAE12E74FEA410C9D
:101880007FEA6C5C02D150EA013C0AD14FEA430C7A
:101890007FEA6C5C02D152EA033C02D14FF00000B7
:1018A00070474FF0010070474FEA410212F50012F5
:1018B00015D211D56FF47873B3EB625212D94FEA97
:1018C000C12343F0004343EA505311F0004F23FA81
:1018D00002F018BF404270474FF00000704750EAD6
:1018E000013005D111F0004008BF6FF00040704793
:1018F0004FF00000704700BF4A0011D212F50012ED
:1019000011D20DD56FF47873B3EB62520ED44FEA57
:10191000C12343F0004343EA505323FA02F07047D7
:101920004FF00000704750EA013002D14FF0FF3015
:1019300070474FF0000070474FEA4102B2F1E043B8
:1019400024BFB3F5001CDCF1FE5C0DD901F0004CA6
:101950004FEAC0024CEA5070B2F1004F40EB8300F6
:1019600008BF20F00100704711F0804F21D113F122
:101970003872BCBF01F00040704741F480114FEA5B
:101980005252C2F11802C2F1200C10FA0CF320FAE4
:1019900002F018BF40F001004FEAC1234FEAD32301
:1019A00003FA0CFC40EA0C0023FA02F34FEA43036B
:1019B000CCE77FEA625307D150EA01331EBF4FF0F4
:1019C000FE4040F44000704701F0004040F0FE400F
:1019D00040F40000704700BF4FEA40024FEA410365
:1019E0007FEA226C02D15FEA402C08D17FEA236CA7
:1019F00002D15FEA412C02D14FF0000070474FF056
:101A0000010070470348044B834202D0034B03B1EB
:101A10001847704778100020781000200000000060
:101A20000548064B1B1AD90F01EBA301491002D040
:101A3000034B03B11847704778100020781000203E
:101A40000000000010B5064C237843B9FFF7DAFF19
:101A5000044B13B10448AFF300800123237010BD81
:101A60007810002000000000A80F050808B5054BFD
:101A70001BB105490548AFF30080BDE80840FFF7FA
:101A8000CFBF00BF000000007C100020A80F050899
:101A9000016042607047000010B5094C01221146F8
:101AA000204603F0C3F80A2001F0CAFC00220121FD
:101AB000204603F0BBF84FF4FA7001F0C1FC10BDF2
:101AC000000802402DE9F04184B006460D4600248E
:101AD0008DF80C400194CDF80740584F22464FF442
:101AE0008051384603F0A2F850238DF80C30C823FB
:101AF000012203A9306804F0CEFB4B2001F0A0FCCA
:101B0000C823072201A9306804F0BDFD01224FF46B
:101B10008051384603F08AF88DF800408DF8014076
:101B20009DF90430A34208DB00232B606B609DF815
:101B300007302B7204B0BDE8F0817468E378002BA5
:101B40003DD09DF906004042FEF758FE0146FEF7E3
:101B5000A1FD074694F800804046FEF74FFE06467A
:101B600001463846FEF79EFE3549FEF74FFF074611
:101B70006078FEF73FFE04464046FEF73BFE014616
:101B80002046FEF743FF39F0ABFD044601463846D8
:101B9000FEF788FE07469DF90500FEF72FFE014679
:101BA000FEF778FD01463046FEF77CFE2449FEF73D
:101BB0002DFF2146FEF776FE2F606860B7E79DF99E
:101BC00006004042FEF71AFE0146FEF763FD074697
:101BD00094F800804046FEF711FE0646014638465E
:101BE000FEF760FE1749FEF711FF07466078FEF723
:101BF00001FE04464046FEF7FDFD01462046FEF785
:101C000005FF39F06DFD044601463846FEF74AFEF1
:101C100007469DF90500FEF7F1FD0146FEF73AFD86
:101C200001463046FEF73EFE0649FEF7EFFE21462E
:101C3000FEF738FE2F60686079E700BF00040240BD
:101C400000803B4700803B4610B582B0044641F01F
:101C500080018DF804108DF8052000224FF480518A
:101C60000D4802F0E3FFC823022201A9206804F016
:101C700012FB50B901224FF48051074802F0D6FF01
:101C8000322001F0DDFB02B010BD0449044825F00C
:101C900021FE25F0B7FCEDE700040240DC0F05084B
:101CA0009C1C002008B500221221FFF7CDFF08BDC3
:101CB00010B582B004468DF8041000228DF8002083
:101CC0004FF48051154802F0B1FFC823012201A949
:101CD000206804F0E0FA98B94B2001F0B1FBC8236A
:101CE00001226946206804F0CEFC80B901224FF43D
:101CF00080510A4802F09AFF9DF8000002B010BD22
:101D00000749084825F0E6FD25F07CFCE4E7064994
:101D1000044825F0DFFD25F075FCE7E700040240EC
:101D20000C1005089C1C00203C10050808B500217B
:101D3000FFF7BEFF172801D0002008BD0120FCE7F7
:101D400010B50446FFF7A8FE2046FFF7EFFF08B9DD
:101D5000012010BD636893F902301A0142EA831230
:101D600002F0F0020A212046FFF76EFF2046FFF73F
:101D700099FF0020EDE700230370437083707047E4
:101D80000170427083707047C170704710B504468F
:101D9000FFF7F1FF64212046FFF7F6FF204610BD54
:101DA00082B00068019000209DF8043063F30700C2
:101DB0009DF8053063F30F209DF8063063F317405C
:101DC0009DF8073063F31F6002B070472DE9F041C2
:101DD0000F4616461D460468D0F8048006E02B46E0
:101DE0003246394654F8040BFFF7CAFFA045F6D136
:101DF000BDE8F08170B50D460468466804E02946E8
:101E000054F8040BFFF7C0FFA642F8D170BD10B51F
:101E100004460021006805F063FD0023237610BD11
:101E200008B5436802689B1AB1EBA30F00D208BD46
:101E30009A1001481BF0DCF86C10050838B5044610
:101E40000D460C30FFF7ECFFE36853F8250038BD72
:101E500040680438704703684268934200D043608A
:101E6000704740680438704708B50846910006F08E
:101E700053F808BD10B5044601688268521A11B1C2
:101E80009210FFF7F1FF204610BD10B50446FFF792
:101E9000F1FF204610BD10B584B08446019144681E
:101EA0000368E31A98106FF0604EAEEBA3038B4209
:101EB00010D30390814210D803AB1B681844DCF8A0
:101EC0000030E41AB0EBA40F09D3B0F1005F09D2DF
:101ED00004B010BD10461BF073F801ABEDE76FF0D6
:101EE0006040F5E76FF06040F2E708B50846910002
:101EF00006F012F808BD10B5044601688268521A4F
:101F000011B19210FFF7F1FF204610BD10B5044645
:101F1000FFF7F1FF204610BD10B584B08446019153
:101F200044680368E31A98106FF0604EAEEBA303A9
:101F30008B4210D30390814210D803AB1B68184426
:101F4000DCF80030E41AB0EBA40F09D3B0F1005F65
:101F500009D204B010BD10461BF032F801ABEDE71A
:101F60006FF06040F5E76FF06040F2E708B5B1F15F
:101F7000005F03D2880006F0CFFB08BDB1F1804FAF
:101F800001D31AF0E5FF1AF0D3FF00002DE9F84F56
:101F900005468A4693461E4A0121FFF77CFFD5F885
:101FA00000806F68AAEB0804814618B3002201463E
:101FB0002846FFF7DBFF0646DBF800303351002CE4
:101FC0001ADC04343444A7EB0A07002F1ADC3C4423
:101FD000AA68A2EB08029210B8F1000F03D04146A4
:101FE0002846FFF741FF2E606C6006EB8906AE6065
:101FF000BDE8F88F0026DFE72246414630463EF036
:10200000FDFCDEE73A46514620463EF0F7FCDEE7AF
:10201000B810050810B5044643688268934208D09A
:102020000A681A604368043343602046FFF710FFD4
:1020300010BD0A461946FFF7A9FFF6E7F0B583B0D1
:1020400005460F461E460023036043608360144626
:1020500005E0019001A92846FFF7DCFF0134A64204
:1020600009DDE1B23846FFF7E9FEF2E72846FFF75F
:102070000CFF05F053FF284603B0F0BD2DE9F041F9
:1020800084B00646684680E806009DF8288003C8AC
:1020900086E8050033720024F4603461746134769C
:1020A000F4613462746208E00546FFF76FFE039541
:1020B00003A93846FFF7AEFF0134A0450EDD06F157
:1020C0000C07042006F028FBEEE706F11C00FFF7E2
:1020D0001DFF3846FFF7D9FE05F020FF304604B05B
:1020E000BDE8F08108B5B1F1005F03D2880006F0C9
:1020F00013FB08BDB1F1804F01D31AF029FF1AF08C
:1021000017FF00002DE9F84F05468A4693461E4A00
:102110000121FFF701FFD5F800806F68AAEB0804E2
:10212000814618B3002201462846FFF7DBFF06462A
:10213000DBF800303351002C1ADC04343444A7EBB4
:102140000A07002F1ADC3C44AA68A2EB080292108E
:10215000B8F1000F03D041462846FFF7C6FE2E60B7
:102160006C6006EB8906AE60BDE8F88F0026DFE7FD
:102170002246414630463EF041FCDEE73A465146B3
:1021800020463EF03BFCDEE7B810050810B50446DB
:1021900043688268934208D00A681A60436804332F
:1021A00043602046FFF75DFE10BD0A461946FFF763
:1021B000A9FFF6E72DE9F04F89B007463B7E002BDB
:1021C000FCD107F11C063046FFF745FEFB68D7F847
:1021D000109010E01923069306A93046FFF7D6FFAA
:1021E000013C002C05DB0123A3401D42F2D0332328
:1021F000F1E708F10403984699453CD0D3F800A0D4
:102200005046FFF7CDFD00909DF801505046FFF776
:10221000C7FD01909DF8073003FB05F5DFF880B09E
:102220008BFB05356D112D045046FFF7B9FD02906B
:102230009DF808405046FFF7B3FD03909DF80F301E
:1022400004FB03F38BFB03235B1145EA0325504694
:10225000FFF7A6FD04909DF812405046FFF7A0FD41
:1022600005909DF8173003FB04F48BFB04B445EA9A
:1022700064151724B5E70023079307A93046FFF735
:1022800085FFFA693B6A9B1AC3F38F033979386873
:1022900005F0DAF901233B7609B0BDE8F08F00BF05
:1022A0001F85EB51016002718360704770B5044671
:1022B0000846FEF7A3FA0546A668B6F90000FEF741
:1022C0009DFA01462846FEF7E5F90546B6F90200F3
:1022D000FEF794FA01462846FEF798FB4FF07F512F
:1022E000FEF7D8F9054623681E68F06AFEF782FA01
:1022F0002946FEF7D7FA0549FEF788FBFEF7BEFC34
:1023000070632179206805F01DF970BD0000A041BF
:1023100070B5044690F91830002B25DD0122818824
:10232000006802F083FC0022A189A06802F07EFC14
:1023300094F918000028B8BF4042C0B2FEF75EFA18
:102340000F49FEF763FB054623691E68F06AFEF736
:1023500051FA2946FEF7A6FAFEF790FC7063A18AAF
:10236000206905F0EFF870BD00228188006802F056
:102370005DFC0122A189A06802F058FCD8E700BFEB
:102380000000C84208B50176FFF7C2FF08BD10B5CE
:1023900004460021FFF7F6FF0022A188206802F022
:1023A00045FC0022A189A06802F040FC10BD84B069
:1023B00000B50DF1080C8CE80E008646BCE80F0055
:1023C000AEE80F009CE803008EE803005DF804EB24
:1023D00004B0704710B590B0044681638287002234
:1023E00080F83E200493BDF84830ADF81430139BBC
:1023F0000693BDF85030ADF81C30199B0893BDF81A
:102400006830ADF82430159B0A93BDF85830ADF80C
:102410002C30179B0C93BDF86030ADF834301B9B0B
:102420000E93BDF87030ADF83C3007AB93E8070071
:102430008DE8070004AB0ECB2046FFF7B8FF10ABCA
:1024400013E907008DE807000AAB0ECB04F11C006E
:10245000FFF7ADFF204610B010BD10B504460021B7
:10246000FFF790FF002104F11C00FFF78BFF012212
:10247000A18FA06B02F0DAFB10BD10B50446FFF788
:1024800086FF04F11C00FFF782FF0022A18FA06BE2
:1024900002F0CCFB10BD0160002242608260C2608D
:1024A0007047000008B542680368D21A914200D212
:1024B00008BD01481AF09CFD6C10050803684268CD
:1024C000934200D04360704740680138704710B5B0
:1024D00084B08446019144680368E31A6FF00040B9
:1024E000C01A88420ED3039399420ED803AA1068EB
:1024F0001844DCF80030E41A844208D8002809DBCC
:1025000004B010BD10461AF05BFD01AAEFE76FF0B2
:102510000040F5E76FF00040F2E708B508461146C5
:1025200005F0FAFC08BD10B5044601688268521A2D
:1025300009B1FFF7F2FF204610BD10B50446FFF7C2
:10254000F2FF204610BD08B5081E02DB06F0E4F8D5
:1025500008BD1AF0EDFC00002DE9F84F05468A464B
:1025600093461D4A0121FFF7B2FFD5F800806F683E
:10257000AAEB0804814608B3002201462846FFF76B
:10258000E2FF06469BF800303355002C18DC01347E
:102590003444A7EB0A07002F18DC3C44AA68A2EBDE
:1025A0000802B8F1000F03D041462846FFF7B5FFF7
:1025B0002E606C604E44AE60BDE8F88F0026E1E707
:1025C0002246414630463EF019FAE0E73A46514687
:1025D00020463EF013FAE0E7B810050810B50446AF
:1025E00043688268934208D00A781A7043680133BE
:1025F00043602046FFF768FF10BD0A461946FFF703
:10260000ABFFF6E72DE9F84F05468A4693461D4A8B
:102610000121FFF75CFFD5F800806F68AAEB080482
:10262000814608B3002201462846FFF78CFF064684
:102630009BF800303355002C18DC01343444A7EBF0
:102640000A07002F18DC3C44AA68A2EB0802B8F184
:10265000000F03D041462846FFF75FFF2E606C60F5
:102660004E44AE60BDE8F88F0026E1E722464146C1
:1026700030463EF0C3F9E0E73A46514620463EF088
:10268000BDF9E0E7B810050808B5436882689342D1
:1026900005D00A781A7043680133436008BD0A46C2
:1026A0001946FFF7AFFFF9E7F0B589B007462022DA
:1026B000002168463EF022FA3E1D3046FFF7FEFE3E
:1026C0004FF0FF3304226946386805F02EFB0024E2
:1026D000032C06DC0DEB04013046FFF7D5FF013477
:1026E000F6E79DF803500135EDB24FF0FF332A466F
:1026F00001A9386805F019FB002405E0211D694493
:102700003046FFF7C1FF0134A542F7DC09B0F0BD48
:1027100038B515460C1A012C06DD2246014628461E
:102720003EF06CF9281938BD012CFBD103781370E9
:10273000F8E70000F8B5571A11D404460D461646BE
:1027400087B100223946FFF7FEFE02462260174499
:10275000A76031462846FFF7DBFF6060F8BD0248FE
:102760001AF02EFC0022F1E7D410050810B582B053
:10277000044602AB03E90600002303604360836064
:102780000A44FFF7D7FF04E02046FFF7CCFE05F030
:10279000C5FB204602B010BD30B589B004460D46D9
:1027A0001D4B1B88ADF8183006AB0493022305932C
:1027B00007AB04AA06CA01A8FFF7D8FF8DF81D5081
:1027C0000DF11D0101A8FFF709FF00238DF81E3050
:1027D0000DF11E0101A8FFF701FFFA238DF81F304C
:1027E0000DF11F0101A8FFF7F9FE0199029A521A93
:1027F0004FF0FF3392B2206805F02BFA2046FFF726
:1028000053FF01A8FFF799FE09B030BD01A8FFF7FB
:1028100094FE05F083FB00BFC00F050808B58421B6
:10282000FFF7BAFF642001F021FE08BD08B5FFF7ED
:10283000F5FF08BDF8B504460D468121FFF7ACFF52
:10284000261D04213046FFF72DFE63681F79052100
:102850003046FFF727FE63685B7943EA07232B8046
:10286000F8BD0020704700002DE9F04385B0044614
:102870004068B0F8015005F0030E8DF808E0C5F38C
:10288000810C8DF809C0C5F301178DF80A70C5F3E6
:1028900081168DF80B60C5F301258DF80C50021DD3
:1028A0000023984605E0D15C41445FFA81F801338A
:1028B0009BB2A32BF7D90378AA2B02D1C378434547
:1028C00026D09049904825F005F863681B78AA2B1C
:1028D0000AD16368DB7843450BD18B4824F092FE24
:1028E000012005B0BDE8F0838849874824F0F2FF55
:1028F000EFE78749844824F0EDFF414625F0AAF828
:10290000844924F0E7FF6368D97825F0A3F8E4E769
:1029100000230193AA238DF80430B30143EA052371
:1029200043EA071343EA8C034EEA0303ADF805308C
:10293000BEF1010F70D0BEF1020F75D1A368E2683D
:1029400012889A804FF000094FF00208BCF1010F85
:102950006ED0BCF1020F0BD1A3684344E16844225E
:102960000431181DFEF75CFC08F144081FFA88F8D2
:10297000012F6AD0022F18D1A3684344E268916CFA
:10298000D2F84CC0176D506D5960C3F808C0DF60B5
:102990001861916D5961B2F85C1092F85E2019834C
:1029A0009A7608F117081FFA88F8012E67D0022ED0
:1029B0001CD1A3684344E16801F15F0204338F3105
:1029C000D2F800C057689668D068C3F800C05F604E
:1029D0009E60D860103210338A42F1D1116852687B
:1029E00019605A6008F138081FFA88F8012D63D081
:1029F000022D0FD1A3684344E268D2F89700D2F8C1
:102A00009B1058609960B2F89F209A8108F10A08DB
:102A10001FFA88F8434661E0E36882881A804FF025
:102A200002094FF0000891E74FF00009C8468DE712
:102A3000E06863684B444422191D0430FEF7F0FB44
:102A400009F144091FFA89F992E7E26863684B4487
:102A50005968D3F808C0DF6818699164C2F84CC09F
:102A60001765506559699165198B9B7EA2F85C10BA
:102A700082F85E3009F117091FFA89F995E7E268D3
:102A8000616849440B1D5F323431D3F800C05F6880
:102A90009E68D868C2F800C057609660D060103356
:102AA00010328B42F1D119685B681160536009F1F3
:102AB00038091FFA89F999E7E26863684B44586856
:102AC0009968C2F89700C2F89B109B89A2F89F30C2
:102AD000A0E7A2681A44002111710133A32BF8D991
:102AE000A468201D00231A4604E0C15C0A44D2B247
:102AF00001339BB29845F8D88DF80720019B2360DD
:102B00000020EEE6081105089C1C00202411050891
:102B100038110508541105080160426083600023E4
:102B20001370704710B586B00446642302930123E6
:102B300001930DF1170200921B22D0211A4802F0D6
:102B400067FC68BB9DF8173003F0E0038DF8173081
:102B500022681288B2F57A7F18D0B2F5FA6F1AD0CF
:102B6000B2F5FA7F03D143F008038DF817306423E0
:102B70000293012301930DF1170200921B22D02131
:102B8000094802F093FB68B906B010BD43F010038A
:102B90008DF81730EBE743F018038DF81730E6E7B0
:102BA0000120F1E70120EFE7DC17002000B587B036
:102BB00003689B788DF817306423029301230193F7
:102BC0000DF1170200921B22D021044802F06EFB87
:102BD00010B907B05DF804FB0120FAE7DC1700200C
:102BE00010B586B0044664230293012301930DF1CE
:102BF000170200921C22D021194802F009FC50BB98
:102C00009DF8173003F070038DF817302268D278E2
:102C1000082A16D0102A19D0042A03D143F0080339
:102C20008DF8173064230293012301930DF11702ED
:102C300000921C22D0210A4802F038FB68B906B085
:102C400010BD43F010038DF81730EBE743F0180385
:102C50008DF81730E6E70120F1E70120EFE700BF2C
:102C6000DC17002010B586B004460A466423D02144
:102C7000164802F03FFD10B1012006B010BD626899
:102C8000012313708DF817306422029201930DF125
:102C9000170200926B22D0210C4802F007FB08B10A
:102CA0000120EAE72046FFF781FF08B10120E4E7B1
:102CB0002046FFF737FF08B10120DEE72046FFF787
:102CC0008FFF0028D9D00120D7E700BFDC170020F4
:102CD0002DE9F04F8FB004460D46642302930E2376
:102CE00001930AAB009301233B22D021614802F0FB
:102CF0008FFB0490002840F0BA809DF828309DF8A2
:102D0000290040EA032000B2ADF820009DF82A30E7
:102D10009DF82BA04AEA032A0FFA8AFAADF822A0FE
:102D20009DF82C309DF82D9049EA03290FFA89F976
:102D3000ADF824909DF82E301B021BB29DF82F2079
:102D400043EA020B9DF830309DF8318048EA0328B1
:102D50000FFA88F8ADF818809DF832309DF833707E
:102D600047EA03273FB2ADF81A709DF834309DF85A
:102D7000356046EA032636B2ADF81C60FDF73EFD2D
:102D80003D49FDF743FE05902368D878FDF732FDF5
:102D900001460598FDF786FD68605046FDF72EFD5B
:102DA0003549FDF733FE82462368D878FDF722FDCA
:102DB00001465046FDF776FDA8604846FDF71EFD2A
:102DC0002D49FDF723FE81462368D878FDF712FDD3
:102DD00001464846FDF766FDE8605846FDF70EFDE2
:102DE0002649FDF713FE2649FDF754FC28604046AE
:102DF000FDF704FD2049FDF709FE80462368188889
:102E0000FDF7F8FC01464046FDF74CFDA368196844
:102E1000FDF73EFC28613846FDF7F0FC1649FDF74A
:102E2000F5FD074623681888FDF7E4FC014638469F
:102E3000FDF738FDA3685968FDF72AFC6861304644
:102E4000FDF7DCFC0C49FDF7E1FD06462368188818
:102E5000FDF7D0FC01463046FDF724FDA3689968D4
:102E6000FDF716FCA86104980FB0BDE8F08F0123B0
:102E70000493F8E7DC17002000FEFF460000AA4399
:102E8000B81E124230B58BB005460024039404945A
:102E9000059406940794089409940094019402946C
:102EA000436802221A7017E003A92846FFF710FFB3
:102EB00007990098FDF7EEFB009008990198FDF73F
:102EC000E9FB019009990298FDF7E4FB02901420B8
:102ED00001F0CCFA0134E4B22B681879A042E3D8AF
:102EE000FDF788FC01460098FDF790FDAC6821686D
:102EF000FDF7D0FB20602B681879FDF77BFC0146BD
:102F00000198FDF783FDAC686168FDF7C3FB606065
:102F10002B681879FDF76EFC01460298FDF776FDE7
:102F2000AC68A168FDF7B6FBA0606B6803221A705D
:102F30000BB030BD01607B2280F83C207047000060
:102F400010B50346016800226FF01F0008704A7038
:102F500019689220887019683D20C87019686FF050
:102F60000B0008714FF0010E81F805E019688A71B5
:102F700018680421C1711868642404721868122446
:102F8000447218688172196881F80BE0196881F839
:102F90000CE01C682C490868C4F80D0018684274DD
:102FA000827418687024C4741724047518686FF04C
:102FB0003B0444750924847548681C68C4F81B00E8
:102FC00088681C68C4F81F00C8681968C1F81F0029
:102FD00019686FF0780081F8230081F824201968BF
:102FE000322081F8250081F8262019686E2081F8AA
:102FF000270081F8282081F82920196881F82A20E3
:1030000081F82B2081F82C20196881F82D2081F877
:103010002E2081F82F20196881F8302081F8312086
:1030200081F8322019686FF0370081F8330081F899
:1030300034201A6882F835E01B682C2283F8362089
:1030400083F837E010BD00BFC40F05082DE9F04F2D
:1030500089B0002403940494059406940794009482
:103060005E4B1A6B42F004021A631A6B02F0040200
:103070000092009A01941A6B42F001021A631A6BD3
:1030800002F001020192019A02941A6B42F00202CC
:103090001A631B6B03F002030293029B504F012241
:1030A0001146384601F0C2FD22464FF49C71384665
:1030B00001F0BCFD4B4E224640F60C11304601F0AB
:1030C000B5FDDFF8248101224FF48051404601F024
:1030D000ADFD012503954FF01109CDF81090059530
:1030E000069403A9384601F0ADFC4FF48C730393AA
:1030F00004950594069403A9384601F0A3FC4FF00B
:10310000030BCDF80CB004944FF0020ACDF814A0D4
:1031100003A9304601F096FC0C2303930495CDF8E7
:1031200014A006940DEB0301304601F08BFC102334
:1031300003934FF488130493059503A9304601F0D7
:1031400081FC2023039304950594CDF818A003A9CE
:10315000384601F077FC072303930494059403A9F0
:10316000404601F06FFC4FF480530393CDF810906C
:103170000595CDF818B003A9404601F063FC4FF463
:10318000404303930494059503A9404601F05AFC7B
:103190004FF4905303930494059403A9384601F027
:1031A00051FC4FF48073039304950594069403A98E
:1031B000304601F047FC4FF400630393CDF81090C4
:1031C0000595069403A9304601F03CFC22462146B1
:1031D0000A2001F0A5F909B0BDE8F08F00380240DF
:1031E00000080240000002400004024010B582B016
:1031F000002400941A4B1A6B42F480021A631A6B73
:1032000002F480020092009A01941A6B42F40012B8
:103210001A631B6B03F400130193019B22462146A2
:103220000C2001F07DF90C2001F08AF9224621469C
:10323000102001F075F9102001F082F92246214694
:10324000382001F06DF9382001F07AF92246214644
:10325000442001F065F9442001F072F902B010BD7C
:10326000003802402DE9F04F91B04F4C21464F48B5
:10327000FFF760FE4E4D4F492846FFF70CF94E4EC2
:1032800032464E49284604F0C3FDA4F11703A4F1C9
:103290005E02211D4A48FFF73FFC04F1090249493B
:1032A0004948FEF7F5FB494A1346494943F8101BC4
:1032B000536002F1B80393605F3CD460454B1360E8
:1032C000454B0C9300258DF83450444F4FF00909BD
:1032D000CDF800902B460CAA06CA3846FEF7CEFE63
:1032E000DFF8FCB032465946384604F091FD3D4BBC
:1032F0000EAA93E8030082E80300DFF8ECA04FF089
:103300000408CDF80080012306CA5046FEF7B6FE39
:1033100032465946504604F07BFDDFF8D0A0012329
:103320002A4639465046FEF789FEDFF8C4B03246D9
:103330005946504604F06CFDDFF8B8A04B46012218
:1033400039465046FEF77AFE32465946504604F05A
:103350005FFD7034284E23462A4631462748FEF743
:10336000A1FF2346424631462548FEF79BFF2549EB
:10337000CDF82880244B0993089507934FF40073E8
:10338000069305914FF480730493039110230293E5
:103390000191082300930B4620221C48FFF71AF8DE
:1033A00011B0BDE8F08F00BF7B130020DC120020BD
:1033B000CC1200204814002000000020693C0008C6
:1033C000C01200202C170020B81200205411002039
:1033D000A42C0508B02C0508DC1500202C110020B9
:1033E000833C0008D40F050804110020F8100020C9
:1033F000773C0008EC1000204C150020E010002065
:10340000D4100020000802409415002094100020E1
:1034100000B583B001904FF6FF73012201A9064861
:1034200004F017FC054B1B68002198683AF0B0FDCA
:10343000019803B05DF804FB04140020400700204D
:10344000034B1A6800235362536A8342FCD37047CC
:103450002416002008B5044B834200D008BD034861
:10346000FEF7D5FCFAE700BFDC1500202C11002088
:103470000C4B984200D0704710B504460A48FFF73D
:10348000F3F928B1A8220949204603F0D5FA10BD66
:10349000204603F04FFBA8220549204603F0B4F96B
:1034A000F5E700BF841700205411002064110020AC
:1034B0000C12002008B5044B984200D008BDA82289
:1034C000024903F0B9FAF9E78417002064110020DB
:1034D00008B50B490B4824F0FDF924F093F80023BC
:1034E0001A46FF210848FEF771FC0848FEF762FE05
:1034F00000220421064801F099FB72B6FEE700BFE6
:10350000601105089C1C0020F81000202C110020E0
:103510000000024008B50A480A4B03604FF4E1334B
:10352000436000238360C36003610C2242618361B6
:10353000C36104F05FFB00B908BDFFF7C9FF00BF1E
:10354000041400200010014008B50B480B4B036029
:10355000002343608360C360036143614FF40072E2
:1035600082610362436283620A23C36202F034FE13
:1035700000B908BDFFF7ACFF841700200030014000
:1035800000B58FB000230A930B930C930D9308930F
:10359000099301930293039304930593069307936E
:1035A00021484FF080420260436083606422C26021
:1035B0000361836103F02EFE50BB4FF480530A93E6
:1035C0000AA9194803F030FF20BB174803F04EFE4C
:1035D00010BB00230893099308A9134804F0FAF9D3
:1035E000E0B960230193002202920392059201A99F
:1035F0000D4803F09FFE98B9082201A90A4803F07C
:1036000099FE78B9084800F005FD0FB05DF804FB9D
:10361000FFF75EFFFFF75CFFFFF75AFFFFF758FF6A
:10362000FFF756FFFFF754FFDC15002000B58FB001
:1036300000230A930B930C930D9308930993019322
:103640000293039304930593069307932248234A16
:103650000260436083604FF6FF72C2600361836162
:1036600003F0D8FD58BB4FF480530A930AA91A48B7
:1036700003F0DAFE28BB184803F0F8FD18BB00235E
:103680000893099308A9144804F0A4F9E8B9602341
:103690000193002202920392059201A90E4803F0C1
:1036A00049FEA0B904220DEB02010B4803F042FED3
:1036B00078B9094800F0AEFC0FB05DF804FBFFF7E5
:1036C00007FFFFF705FFFFF703FFFFF701FFFFF716
:1036D000FFFEFFF7FDFE00BF941500200004004030
:1036E00000B58FB000230A930B930C930D930893AE
:1036F000099301930293039304930593069307930D
:103700002248234A02601922426083604FF6E75242
:10371000C2600361836103F07DFD58BB4FF48053A9
:103720000A930AA9194803F07FFE28BB174803F043
:103730009DFD18BB00230893099308A9134804F0C2
:1037400049F9E8B96023019300220292039205929D
:1037500001A90E4803F0EEFDA0B904220DEB020111
:103760000A4803F0E7FD78B9084800F053FC0FB0B1
:103770005DF804FBFFF7ACFEFFF7AAFEFFF7A8FE1B
:10378000FFF7A6FEFFF7A4FEFFF7A2FE4C150020F0
:103790000008004008B50A480A4B03604FF4E133C3
:1037A000436000238360C36003610C224261836134
:1037B000C36104F01FFA00B908BDFFF789FE00BF1E
:1037C00048140020004C004008B50A480A4B03602A
:1037D0000A4B436000238360C3604FF48042026160
:1037E00043618361C361036201F082FC00B908BDDB
:1037F000FFF76EFEDC17002000540040801A060020
:1038000008B50E480E4B03604FF4827343600023EB
:103810008360C36002220261012242614FF40072A0
:1038200082613822C2610362436283620A23C362F7
:1038300002F0D2FC00B908BDFFF74AFE2C170020A9
:103840000038004000B587B000230293039304932F
:103850000593009301931448144A02605922426070
:1038600083604FF6FF72C26003614361836103F0BE
:10387000D1FC90B94FF48053029302A90A4803F097
:10388000D3FD60B90023009301936946064804F014
:10389000A1F830B907B05DF804FBFFF719FEFFF798
:1038A00017FEFFF715FE00BF2416002000000140A0
:1038B00008B50A480A4B03604FF4E1334360002324
:1038C0008360C36003610C2242618361C36104F0C1
:1038D00091F900B908BDFFF7FBFD00BFC013002040
:1038E0000014014000B595B03422002107A83DF036
:1038F00005F9002302930393049305930693009321
:10390000224A116C41F080511164126C02F0805215
:103910000092009A01931E4A116841F440411160DF
:10392000126802F440420192019A02220792012198
:103930000A9110210B910D920E9308230F93B4233B
:10394000109311921292139207A802F045F9B0B9A0
:1039500001F09AFFA8B90F230293022303930023D7
:1039600004934FF4A05305934FF48053069305211D
:1039700002A801F0C7FF30B915B05DF804FBFFF7EE
:10398000A7FDFFF7A5FDFFF7A3FD00BF003802402C
:103990000070004070B500F03DFDFFF7A3FFFFF79A
:1039A00055FBFFF723FCFFF7B5FDFFF7CDFDFFF754
:1039B000E7FDFFF73BFEFFF793FEFFF7EBFEFFF798
:1039C00003FFFFF71DFFFFF73DFFFFF771FF914971
:1039D000914823F07FFF23F015FE904C05212046EF
:1039E000FEF708FAFF23002211462046FEF7EEF903
:1039F0008B48FEF7DFFB8B48FFF7A2FA8A4803F0FB
:103A0000DFFA8A48FEF712FF8948FEF799F908B1F4
:103A1000FFF75EFD03218748FFF724F908B1FFF7A0
:103A200057FD642000F022FD834D01224FF4006118
:103A3000284601F0FBF80A2000F018FD00224FF4A0
:103A40000061284601F0F2F800217C48FEF72EFCC8
:103A50000023FF2219467148FEF7B8F9784C794ED9
:103A600094F86F103046FEF7C5F994F86E3094F86C
:103A70006D2094F86C103046FEF7A8F96848FEF700
:103A800099FB7149644823F025FF23F0BBFDA82270
:103A90006E496F4802F0D0FF01220421284601F050
:103AA000C5F836E0664C674D94F86F102846FEF76F
:103AB000A1F994F86E3094F86D2094F86C102846B3
:103AC000FEF784F95648FEF775FB27E0524C614932
:103AD000204623F0FFFE23F095FD5648FFF7D2F96C
:103AE0005D49204623F0F6FE23F08CFD1BE05B4988
:103AF000494823F0EFFE23F085FD0022C4F856204C
:103B0000C4F85A203CE05648FEF7A7FC4C4B012273
:103B10001A704B4B93F89930002BC3D1484B93F854
:103B20009A30002BD2D14F4D29464248FFF7D0F8AA
:103B300005F142013D48FEF77DFE05F11C013C48C0
:103B4000FDF7C0FF2C1FB5F8422095F985309BB2D8
:103B5000B5F87E105B1A1344A5F85030D5F8520022
:103B6000E969FCF797FDC5F85200D5F85600296AB7
:103B7000FCF790FDC5F8560095F89930002BB6D1AA
:103B80002F4B1B78012B04D0022B37D0002BC0D138
:103B9000B9E72B4B93F89730C3B1022B21D1284BB7
:103BA000B3F85410B3F8922093F89430D01A8142AD
:103BB00002DB1A4491421DDD214BB3F89530994246
:103BC0000FD80A212648FEF7DDFB0AE01C4CB4F9A9
:103BD0009F101A48FEF76AFB94F99E102048FEF7E2
:103BE000D1FB174B93F89B30002B92D0144B022241
:103BF0001A708EE71A48FEF7CAFBF2E71848FEF77C
:103C00003CFC0F4B93F89B30002B82D10C4B0022D5
:103C10001A707EE77C1105089C1C0020F81000201B
:103C20002C110020DC12002024160020CC120020D1
:103C3000B8120020C012002000000240E010002056
:103C40001C130020EC1000209811050864110020BE
:103C500084170020B0110508D8110508FC110508CB
:103C6000941000202013002010B504460430FEF705
:103C700064FC204610BD10B50446FEF706F9204648
:103C800010BD10B504461C30FEF740F904F10C00DD
:103C9000FEF7FBF8204610BD08B5FFF7E3FA08BDB4
:103CA00082B0002100910B4B5A6C42F480425A645E
:103CB0005A6C02F480420092009A01911A6C42F010
:103CC00080521A641B6C03F080530193019B02B075
:103CD000704700BF0038024030B589B0002303931D
:103CE00004930593069307930268144B9A4201D0FC
:103CF00009B030BD00250195114C236B43F0020340
:103D00002363236B03F002030193019B4FF4407381
:103D1000039312230493032306930423079303A915
:103D2000084800F08FFE0295236C43F400132364CF
:103D3000236C03F400130293029BD9E70054004064
:103D400000380240000402402DE9F0418AB000230F
:103D5000059306930793089309930368594A93427E
:103D600005D0594A934268D00AB0BDE8F0810446B4
:103D700000250095554B5A6C42F480525A645A6C97
:103D800002F480520092009A01951A6B42F00102EF
:103D90001A631B6B03F001030193019BE02305935E
:103DA00002230693032308930523099305A9484892
:103DB00000F048FE4748484B03604FF0C063436043
:103DC0008560C5604FF480630361456185614FF490
:103DD0008073C3614FF480330362456200F04CFC92
:103DE00028BB3C4BE3649C633C483D4B03604FF075
:103DF000C0634360402383600023C3604FF480624C
:103E0000026143618361C3614FF4803202624362A5
:103E100000F032FC70B9314BA3649C630022114660
:103E2000232000F07DFB232000F08AFB9CE7FFF7B6
:103E30004FFBD6E7FFF74CFBEDE700240294234B42
:103E40001A6C42F480421A641A6C02F480420292A4
:103E5000029A03941A6B42F004021A631A6B02F07E
:103E600004020392039A04941A6B42F002021A634A
:103E70001B6B03F002030493049B02250595069532
:103E80000326089607230993DFF8588005A94046C2
:103E900000F0D8FD0423059306950794089605279E
:103EA000099705A9404600F0CDFD4FF40053059356
:103EB000069507940896099705A90B4800F0C2FDDE
:103EC00052E700BF00300140003800400038024097
:103ED00000000240CC160020106402406C16002046
:103EE00088640240000802400004024010B584B01B
:103EF0000368404A934216D00446B3F1804F20D065
:103F00003D4A934269D03D4A934218D1002303931E
:103F10003B4B1A6C42F004021A641B6C03F004035E
:103F20000393039B0BE000230093354B5A6C42F044
:103F300001025A645B6C03F001030093009B04B020
:103F400010BD002301932E4A116C41F00101116450
:103F5000126C02F001020192019A2A482A4A026078
:103F60004FF0C062426040228260C3604FF48062C2
:103F700002614FF4805242614FF480428261C3611A
:103F80000362436200F078FB08BB1E4B63629C63D4
:103F90001E481F4B03604FF0C063436040238360A3
:103FA0000023C3604FF4806202614FF4805242618B
:103FB0004FF480428261C3610362436200F05CFBA4
:103FC00040B9124B23629C63E3629C63B7E7FFF73F
:103FD0007FFADAE7FFF77CFAF3E700230293084B56
:103FE0001A6C42F002021A641B6C03F00203029383
:103FF000029BA4E7000001400004004000080040CC
:1040000000380240EC140020886002408C1400202C
:1040100028600240F0B58BB0002305930693079308
:10402000089309930368B3F1804F07D0394A93424C
:1040300034D0394A934254D00BB0F0BD00240194DF
:1040400003F50E331A6B42F002021A631A6B02F088
:1040500002020192019A02941A6B42F001021A6361
:104060001B6B03F001030293029B4FF480630593E3
:1040700002270697032608960125099505A92748D2
:1040800000F0E0FC4FF40043059306970794089670
:10409000099505A9224800F0D5FCCDE70025039538
:1040A000204B1A6B42F002021A631B6B03F00203EF
:1040B0000393039B10230593022406940323089380
:1040C0000994164E05A9304600F0BCFC2023059348
:1040D000069407950895099405A9304600F0B2FCAE
:1040E000AAE7002304930F4B1A6B42F002021A63F3
:1040F0001B6B03F002030493049BC023059302236C
:10410000069303220892099305A9044800F09AFC3B
:1041100092E700BF00040040000800400004024095
:10412000000002400038024000B58DB00023079324
:10413000089309930A930B9303683B4A934208D070
:104140003A4A934229D03A4A93424AD00DB05DF898
:1041500004FB00210191374B1A6C42F400221A64CF
:104160001A6C02F400220192019A02911A6B42F039
:1041700004021A631B6B03F004030293029B4FF4C7
:10418000406307930223089303230A9308230B93A6
:1041900007A9294800F056FCD8E700210391254BD8
:1041A0005A6C42F010025A645A6C02F010020392E8
:1041B000039A04911A6B42F001021A631B6B03F01D
:1041C00001030493049B4FF4C063079302230893F5
:1041D00003230A9307230B9307A9184800F032FC26
:1041E000B4E700210591134B5A6C42F020025A6447
:1041F0005A6C02F020020592059A06911A6B42F061
:1042000004021A631B6B03F004030693069BC0238E
:1042100007930223089303230A9308230B9307A908
:10422000054800F00FFC91E7004C004000100140F1
:104230000014014000380240000802400000024023
:10424000FEE7FEE7FEE7FEE7FEE7704770477047D0
:1042500008B500F0F9F808BD08B5102000F0EEFC34
:1042600008BD000008B5024800F0FEFA08BD00BF16
:104270008C14002008B5024800F0F6FA08BD00BF13
:10428000EC14002008B5024802F03AFD08BD00BF5A
:104290008417002008B5024800F0E6FA08BD00BF08
:1042A000CC16002008B5024800F0DEFA08BD00BFB9
:1042B0006C1600200120704708B53FF059FD162309
:1042C00003604FF0FF3008BD08B54FF0FF31FFF736
:1042D000F3FFFEE770B50C461646002506E0AFF387
:1042E0000080214601F8010B01350C46B542F6DB92
:1042F000304670BD70B50C461646002504E014F833
:10430000010BFFF785F80135B542F8DB304670BD8B
:104310004FF0FF3070474FF400534B600020704760
:10432000012070470020704710B503460C4A0D4924
:104330000D48006840B10C4800680344521A93428B
:1043400006D8094A136010BD0748084C0460F2E71C
:104350003FF00EFD0C2303604FF0FF30F3E700BF8A
:10436000000002200004000034180020A8330020C0
:1043700070470000DFF834D00D480E490E4A002384
:1043800002E0D458C4500433C4188C42F9D30B4A09
:104390000B4C002301E013600432A242FBD3FFF771
:1043A000E7FF3FF057FDFFF7F5FA704700000220E6
:1043B0000000002078100020C01F060878100020A0
:1043C000A4330020FEE7000010B504460E4B1A7817
:1043D0004FF47A73B3FBF2F30C4A1068B0FBF3F0BE
:1043E00000F0BCF868B90F2C01D901200AE00022C6
:1043F00021464FF0FF3000F093F8054B1C60002081
:1044000000E0012010BD00BF0C00002008000020CB
:104410001000002008B50B4B1A6842F400721A60B5
:104420001A6842F480621A601A6842F480721A6054
:10443000032000F063F80F20FFF7C6FFFFF730FC02
:10444000002008BD003C0240034A1168034B1B7862
:104450000B441360704700BF381800200C00002088
:10446000014B1868704700BF3818002038B5044663
:10447000FFF7F6FF0546B4F1FF3F02D0044B1B786F
:104480001C44FFF7EDFF401BA042FAD338BD00BF2C
:104490000C000020002808DB0901C9B200F16040CF
:1044A00000F5614080F80013704700F00F0009012B
:1044B000C9B2014B1954704714ED00E000B500F08B
:1044C0000700C0F1070CBCF1040F28BF4FF0040C2B
:1044D000031D062B0FD9C31E4FF0FF3E0EFA0CF042
:1044E00021EA000199400EFA03FE22EA0E0241EA97
:1044F00002005DF804FB0023EEE70000074AD368E2
:1045000023F4E0631B041B0C000200F4E06003438F
:1045100043F0BF6343F40033D360704700ED00E025
:1045200010B50446054BD868C0F30220FFF7C6FF5C
:1045300001462046FFF7AEFF10BD00BF00ED00E0D2
:10454000002807DB00F01F02400901239340024AC4
:1045500042F82030704700BF00E100E00138B0F1C0
:10456000807F0BD24FF0E0235861054AF02182F89A
:1045700023100020986107221A61704701207047BC
:1045800000ED00E030B405682C6824F480242C6031
:10459000046863608368402B05D0036899600368F2
:1045A000DA6030BC704703689A600368D960F8E746
:1045B00010B40368D9B21039094AA2FB01421209AA
:1045C000084CA25CC2655F2906D96FF30903043366
:1045D0008365806D10BC70476FF309038365F8E74E
:1045E000ABAAAAAACC2C0508836A826992B9012BCE
:1045F0000AD0022B02D00BB100207047C36A13F01F
:10460000807F28D100207047C36AB3F1C07F24D0D7
:1046100000207047B2F5005F09D0022B25D9032B8B
:1046200025D1C36A13F0807F23D100207047032B6C
:1046300003D8DFE803F01404140A00207047C36AAB
:1046400013F0807F0DD100207047C36AB3F1C07FA3
:1046500009D00020704701207047012070470120D9
:1046600070470120704701207047012070470020EB
:10467000704701207047000070B50446FFF7F0FE58
:10468000002C5BD00546022384F83530002384F8E3
:1046900034302268136823F00103136023681A681A
:1046A00012F0010F0AD0FFF7DBFE431B052BF5D9F3
:1046B00020236365032084F8350070BD1A68204903
:1046C00011406268A0680243E06802432069024327
:1046D00060690243A0690243E0690243206A024321
:1046E0000A43616A04291ED01A602668756925F09C
:1046F0000705636A1D43042B07D1A36A1D43E36AC0
:104700001BB12046FFF770FF90B975612046FFF797
:104710004FFFE26D3F2393408360002060650123DB
:1047200084F83530C9E7E16A206B01430A43DBE7CF
:1047300040236365012084F83500BEE70120BCE713
:104740003F8010F038B50446856D90F8340001289C
:104750002BD0012084F8340094F83500C0B2012831
:1047600004D0002384F83430022038BD022084F8BD
:104770003500002060652046FFF704FFE26D3F230F
:104780009340AB602268136843F016031360236CF8
:1047900023B12268136843F008031360226813688A
:1047A00043F0010313600020DFE70220DDE770B56E
:1047B0000446866DFFF754FE94F83530DBB2022BC9
:1047C00006D080236365002384F83430012070BD57
:1047D00005462268136823F01603136022685369A4
:1047E00023F080035361236CE3B12268136823F044
:1047F000080313602268136823F001031360236821
:104800001B6813F0010F11D0FFF72AFE431B052B85
:10481000F5D920236365032084F83500002384F84C
:104820003430D4E7A36C002BDFD1E3E7E26D3F2304
:104830009340B360012384F83530002084F83400BD
:10484000C5E790F83530DBB2022B03D080234365F7
:1048500001207047052380F835300268136823F083
:104860000103136000207047F0B583B004460023B5
:104870000193724B1D68724BA3FB0535AD0A876D22
:104880003E68C26D08239340334210D003681A6813
:1048900012F0040F0BD01A6822F004021A60C26DE5
:1048A00008239340BB60436D43F001034365E26D11
:1048B00001239340334209D02268526912F0800FDD
:1048C00004D0BB60636D43F002036365E26D0423B3
:1048D0009340334209D02268126812F0020F04D0CC
:1048E000BB60636D43F004036365E26D1023934086
:1048F000334224D02268126812F0080F1FD0BB6028
:1049000023681A6812F4802F0DD01B6813F4002F4F
:1049100004D1236C9BB12046984710E0A36C73B17F
:10492000204698470BE01A6812F4807F03D11A687A
:1049300022F008021A60236C0BB120469847E26D02
:1049400020239340334255D02268126812F0100F92
:1049500050D0BB6094F83530DBB2052B0ED0236805
:104960001A6812F4802F33D01B6813F4002F2AD159
:10497000636C002B3ED0204698473BE022681368CA
:1049800023F0160313602268536923F080035361F8
:10499000236CA3B12268136823F008031360E26D4F
:1049A0003F239340BB60012384F83530002384F813
:1049B0003430236D002B3FD0204698473CE0A36C59
:1049C000002BE7D1EBE7E36BA3B12046984711E05A
:1049D0001A6812F4807F09D11A6822F010021A6056
:1049E000012384F83530002384F83430E36B0BB1B5
:1049F00020469847636DFBB1636D13F0010F17D02C
:104A0000052384F835302268136823F0010313600E
:104A1000019B01330193AB4204D823681B6813F058
:104A2000010FF5D1012384F83530002384F83430A8
:104A3000E36C0BB12046984703B0F0BD080000209E
:104A4000B5814E1B00230F2B00F2E68030B583B0FA
:104A500068E085684FEA430E032404FA0EF425EA61
:104A60000405CC6804FA0EF42C438460446824EAFC
:104A700002044A68C2F300129A40224342605FE097
:104A8000DC08083450F8242003F00705AD004FF08F
:104A90000F0E0EFA05FE22EA0E0E0A69AA4042EA3D
:104AA0000E0240F824205FE0062200E0002202FA15
:104AB0000EF22A430234594D45F82420584A94688E
:104AC0006FEA0C0224EA0C05D1F804E01EF4801F02
:104AD00001D04CEA0405524CA560E46802EA0405E2
:104AE000D1F804E01EF4001F01D04CEA04054C4C40
:104AF000E560646802EA0405D1F804E01EF4003FB2
:104B000001D04CEA0405464C6560246822404D689B
:104B100015F4803F01D04CEA0402414C226001337D
:104B20000F2B77D801229A400C6804EA020C32EA73
:104B30000404F4D14C6804F00304013C012C88D92E
:104B40004A6802F00302032A09D0C4685D00032208
:104B5000AA4024EA02048A68AA402243C2604A6842
:104B600002F00302022A8BD004684FEA430E0322AC
:104B700002FA0EF224EA02044A6802F0030202FA80
:104B80000EF2224302604A6812F4403FC7D000226E
:104B90000192244A546C44F480445464526C02F4EC
:104BA00080420192019A9C08A51C1C4A52F825508B
:104BB00003F0030E4FEA8E0E0F2202FA0EF225EAE0
:104BC0000205194A90423FF471AF02F580629042AB
:104BD00016D002F58062904214D002F580629042B5
:104BE00012D002F58062904210D002F580629042AD
:104BF0000ED002F5806290423FF456AF072256E78E
:104C0000012254E7022252E7032250E704224EE732
:104C100005224CE703B030BD704700BF00380140AB
:104C2000003C014000380240000002400AB18161AE
:104C300070470904816170477047000008B5054B53
:104C40005B69034200D108BD024B5861FFF7F4FFD6
:104C5000F9E700BF003C014003685A6912F4806F15
:104C600001D1002070476FF480625A610023036312
:104C7000202280F83D2080F83E30026C42F0040291
:104C8000026480F83C30012070472DE9F04107466E
:104C90000D4690461E4624E0FFF7E2FB069BC01A35
:104CA000B04200D8EEB900233B63202287F83D20B4
:104CB00087F83E303A6C42F020023A6487F83C3084
:104CC00001201EE03B689C6925EA040C1FFA8CFC5D
:104CD000BCFA8CFC4FEA5C1CE04511D1B6F1FF3FF9
:104CE000DAD1C5F30743012BECD13B685B6925EAB8
:104CF000030C1FFA8CFCBCFA8CFC4FEA5C1CEBE743
:104D00000020BDE8F0812DE9F04105460E4617462A
:104D100098463DE01A6842F400721A602B686FF4FE
:104D200080625A6100232B63202285F83D2085F89C
:104D30003E302A6C42F004022A6485F83C3001209F
:104D400034E0FFF78DFBA0EB0800B84200D8FFB9B4
:104D500000232B63202285F83D2085F83E302A6C05
:104D600042F020022A6485F83C3001201EE02B68C6
:104D70009C6926EA0404A4B2003C18BF0124A4B133
:104D80002B685A6912F4806FC4D1B7F1FF3FD8D1B4
:104D9000C6F30743012BEAD12B685C6926EA0404B9
:104DA000A4B2003C18BF0124E9E70020BDE8F0816F
:104DB00070B504460D46164623685B6913F0800FF4
:104DC0001CD12046FFF748FFD0B9B5F1FF3FF3D023
:104DD000FFF746FB801BA84201D8002DECD1002331
:104DE0002363202284F83D2084F83E30226C42F078
:104DF0002002226484F83C30012000E0002070BDD5
:104E00000120FCE72DE9F04385B004460D469146AC
:104E10001F46DDF830800D9E0368196841F48071EB
:104E200019600096434600224FF00111FFF72DFF55
:104E300060B9236805F0FE051D61334642462649E8
:104E40002046FFF760FF68B1012008E023681B6877
:104E500013F4807F02D04FF400732364032005B065
:104E6000BDE8F0830023039323685A6903929B698A
:104E70000393039B324641462046FFF799FF30B922
:104E8000012F0FD123685FFA89F61E61E7E7236CD3
:104E9000042B01D00120E2E72268136843F4007379
:104EA0001360F7E723684FEA19221A613246414638
:104EB0002046FFF77DFF20B923685FFA89F61E615F
:104EC000CDE7236C042B01D00120C8E722681368CA
:104ED00043F400731360F7E7020001002DE9F04787
:104EE00084B004460D46164699460C9FDDF8348082
:104EF0000268136843F4806313600368196841F41F
:104F000080711960CDF800803B4600224FF00111FE
:104F1000FFF7BBFE70B95FFA85FA236805F0FE055E
:104F20001D6143463A4641492046FFF7ECFE68B111
:104F3000012008E023681B6813F4807F02D04FF43F
:104F400000732364032004B0BDE8F08700230393BB
:104F500023685A6903929B690393039B424639462F
:104F60002046FFF725FF80B9B9F1010F18D123685A
:104F7000F6B21E61424639462046FFF719FF68B374
:104F8000236C042B24D00120DDE7236C042B01D0FB
:104F90000120D8E72268136843F400731360F7E731
:104FA0002368320A1A61424639462046FFF700FF5D
:104FB00018B92368F6B21E61DCE7236C042B01D01C
:104FC0000120C0E72268136843F400731360F7E719
:104FD0002268136843F400731360D4E722681368EF
:104FE00043F480731360CDF800803B4600224FF0FD
:104FF00001112046FFF749FE68B922684AF0010313
:10500000136143463A4609492046FFF77CFE0028D3
:1050100099D0012097E723681B6813F4807F02D0A2
:105020004FF40073236403208DE700BF02000100EA
:1050300070B504460D46164623685B6913F0040FED
:105040001CD12046FFF708FED0B9B5F1FF3FF3D0E1
:10505000FFF706FA801BA84201D8002DECD10023EF
:105060002363202284F83D2084F83E30226C42F0F5
:105070002002226484F83C30012000E0002070BD52
:105080000120FCE770B505460C4616462B685969A9
:1050900011F0400F29D1596911F0100F15D1FFF708
:1050A000DFF9801BA04201D8002CEFD100232B6335
:1050B000202285F83D2085F83E302A6C42F02002FF
:1050C0002A6485F83C30012070BD6FF010025A61EF
:1050D00000232B63202285F83D2085F83E302A6C82
:1050E0002A6485F83C300120EEE70020ECE7000060
:1050F000002800F0CC8070B5044690F83D30002BBD
:1051000077D0242384F83D302268136823F001030C
:1051100013602268136843F4004313602268136825
:1051200023F40043136000F0A3FC62685A4B9A42D8
:1051300064D85A4B98428CBF00230123002B40F0C7
:10514000A8805749A1FB00318B0C25686A6822F0C2
:105150003F0242EA91426A6021680A6A22F03F02F5
:1051600066684D4DAE424FD8013313430B62216840
:10517000CA6922F44F4222F0FF026568464B9D4205
:105180004CD8431E6D00B3FBF5F3013340F6FC70C1
:10519000034278D0C3F30B031A43CA6121680B683A
:1051A00023F0C003E269206A024313430B602168C5
:1051B0008B6823F4034323F0FF032269E068024372
:1051C00013438B602168CB6823F0FF036269A069F9
:1051D00002431343CB602268136843F0010313605A
:1051E00000202064202384F83D30206384F83E00B2
:1051F00070BD80F83C30FEF76FFD82E7294B984286
:105200008CBF0023012399E74FF4967505FB03F348
:10521000254DA5FB03539B090133A6E7A668BEB93C
:10522000431E05EB450CB3FBFCF30133C3F30B0347
:10523000B3FA83F35B0943BBC6B9431E05EB4505CF
:10524000B3FBF5F30133C3F30B0343F40043A3E7CC
:10525000431E05EB850C0CEB8C0CB3FBFCF301330C
:10526000C3F30B03B3FA83F35B09E4E7431E05EBD7
:10527000850505EB8505B3FBF5F30133C3F30B039C
:1052800043F4404388E7042386E7012384E70120B1
:1052900070470120ACE700BFA08601007F841E009C
:1052A00083DE1B43FF083D00D34D62102DE9F04320
:1052B00083B004460F46904699460C9EFFF7D0F8FF
:1052C000054694F83D00C0B2202803D0022003B068
:1052D000BDE8F0830095192301224B492046FFF7D2
:1052E000D4FC002840F0898094F83C30012B00F079
:1052F0008680012384F83C3023681A6812F0010F7D
:1053000003D11A6842F001021A602268136823F47C
:1053100000631360212384F83D30402384F83E303D
:10532000002323640A9B6362BDF82C306385638D80
:105330002385364BE362019500964B46424639463B
:105340002046FFF75FFD00285BD1238D002B35D071
:105350002A4631462046FFF72BFD20BB626A2368B0
:1053600012781A61626A531C6362218D013989B215
:105370002185638D9BB2013B9BB26385236858698D
:1053800010F0040FE1D00029DFD052781A61636A6F
:1053900001336362238D013B2385638D9BB2013B07
:1053A0009BB26385D1E7236C042B01D001208EE7EB
:1053B0002268136843F400731360F7E72A46314606
:1053C0002046FFF735FE50B1236C042B01D001209D
:1053D0007DE72268136843F400731360F7E72268DF
:1053E000136843F400731360202384F83D300023D6
:1053F00084F83E3084F83C3069E7022067E70220F9
:1054000065E7012063E700BF020010000000FFFF16
:105410002DE9F04387B004460F4690469946109E0A
:10542000FFF71EF8054694F83D00C0B2202804D0CE
:105430000227384607B0BDE8F08300951923012202
:1054400088492046FFF721FC002840F0438194F86A
:105450003C30012B00F04081012384F83C3023686C
:105460001A6812F0010F03D11A6842F001021A60A3
:105470002268136823F400631360222384F83D300C
:10548000402384F83E30002323640E9B6362BDF802
:105490003C306385638D2385734BE36201950096F1
:1054A0004B46424639462046FFF718FD074600287E
:1054B00040F01481238D5BB9029323685A690292EC
:1054C0009A690292029A1A6842F400721A6075E0B0
:1054D000012B0AD0022B1AD00023059323685A69A6
:1054E00005929B690593059B68E02268136823F485
:1054F000806313600023039323685A6903929A69B7
:105500000392039A1A6842F400721A6056E0226805
:10551000136823F4806313602268136843F4006304
:1055200013600023049323685A6904929B690493CF
:10553000049B43E02A4631462046FFF7A3FD00289E
:1055400040F0CE8023681A69636A1A70636A013377
:105550006362238D013B2385638D9BB2013B9BB22C
:1055600063852BE000953346002240492046FFF733
:105570008CFB002840F0B6802268136843F4007367
:10558000136023681A69636A1A70626A531C636243
:10559000238D013B2385638D9BB2013B9BB26385C9
:1055A00023681B695370636A01336362238D013B77
:1055B0002385638D9BB2013B9BB26385238D002BBA
:1055C0007FD0032B54D8012BB4D0022BCAD0009526
:1055D0003346002225492046FFF757FB002840F0BC
:1055E00083802268136823F48063136023681A6938
:1055F000636A1A70636A01336362238D013B2385FA
:10560000638D9BB2013B9BB26385009533460022BC
:1056100016492046FFF739FB002867D12268136836
:1056200043F40073136023681A69636A1A70626A2C
:10563000531C6362238D013B2385638D9BB2013B29
:105640009BB2638523681B695370636A013363628D
:10565000238D013B2385638D9BB2013B9BB2638508
:10566000ACE700BF020010000000FFFF04000100D3
:105670002A4631462046FFF705FD002838D1236829
:105680001A69636A1A70626A531C6362238D013B54
:105690002385638D9BB2013B9BB263852368596967
:1056A00011F0040F8AD01B695370636A013363627F
:1056B000238D013B2385638D9BB2013B9BB26385A8
:1056C0007CE7202384F83D30002384F83E3084F8C2
:1056D0003C30AEE60227ACE60227AAE60127A8E6A0
:1056E0000127A6E60127A4E60127A2E60127A0E6F6
:1056F00001279EE62DE9F04385B004468846914691
:105700001D46FEF7ADFE94F83D30DBB2202B03D0F2
:10571000022005B0BDE8F08306460090192301225F
:1057200057492046FFF7B1FA002840F0A08094F8CE
:105730003C30012B00F09D80012384F83C3023682D
:105740001A6812F0010F03D11A6842F001021A60C0
:105750002268136823F400631360242384F83D3027
:1057600000272764474BE36240E023681B6813F47B
:10577000807F02D04FF4007323640320C9E7A02385
:1057800084F83D3022685369C3F340035269C2F381
:10579000802294F83DC05FFA8CFCBCF1A00F09D0C8
:1057A00043B93AB9FEF75CFE801BA842E7D8002D4A
:1057B000E8D1E4E7202384F83D3023685A6912F0E9
:1057C000020F31D11A6842F400721A6023686FF434
:1057D00080625A6100961923012229492046FFF769
:1057E00054FA002849D101374F4538D2226813684E
:1057F00043F48073136000962B4600224FF0011192
:105800002046FFF742FA0028AFD1236808F0FE02D5
:105810001A61FEF725FE064622685369C3F340036A
:105820005269C2F38022B4E71A6842F400721A6027
:105830000023039323685A6903929B690393039B94
:105840000096192301220E492046FFF71EFA90B94F
:10585000202384F83D30002384F83C3059E720238E
:1058600084F83D30002384F83C30012051E70220C9
:105870004FE702204DE701204BE7012049E700BF39
:10588000020010000000FFFF10B582B0002301935A
:10589000194B1A6C42F080521A641B6C03F080534F
:1058A0000193019B154B01221A64FEF7D9FD0446B2
:1058B000134B5B6813F4803F08D1FEF7D1FD001B4A
:1058C000B0F57A7FF4D9032002B010BD0B4B012252
:1058D0005A64FEF7C5FD0446094B5B6813F4003FAC
:1058E00007D1FEF7BDFD001BB0F57A7FF4D9032088
:1058F000EAE70020E8E700BF0038024000000E425F
:1059000000700040002800F09B8070B50D460446F2
:105910004F4B1B6803F00F038B4208D2CBB24C4AAB
:105920001370136803F00F038B4240F08B802368E1
:1059300013F0020F17D013F0040F04D0454A9368F8
:1059400043F4E0539360236813F0080F04D0414AF6
:10595000936843F4604393603E4A936823F0F003F6
:10596000A1680B439360236813F0010F32D0636882
:10597000012B21D09A1E012A25D9364A126812F02D
:10598000020F61D033498A6822F0030213438B600F
:10599000FEF766FD06462F4B9B6803F00C0362681A
:1059A000B3EB820F16D0FEF75BFD801B41F288330C
:1059B0009842F0D9032042E0264A126812F4003FD0
:1059C000E0D101203BE0234A126812F0007FD9D1D8
:1059D000012034E01E4B1B6803F00F03AB4207D9D4
:1059E000EAB21B4B1A701B6803F00F03AB422DD1B8
:1059F000236813F0040F06D0164A936823F4E0538B
:105A0000E1680B439360236813F0080F07D0114A35
:105A1000936823F46043216943EAC103936000F073
:105A200047F80C4B9B68C3F303130B4AD35CD84075
:105A30000A4B18600A4B1868FEF7C6FC002070BDC0
:105A4000012070470120FAE70120F8E70120F6E77E
:105A5000003C024000380240BC2C05080800002031
:105A600010000020014B1868704700BF080000209C
:105A700008B5FFF7F7FF044B9B68C3F38223034A83
:105A8000D35CD84008BD00BF00380240B42C0508E4
:105A900008B5FFF7E7FF044B9B68C3F34233034AA3
:105AA000D35CD84008BD00BF00380240B42C0508C4
:105AB00008B5464B9B6803F00C03082B05D00C2B54
:105AC00043D0042B7FD1424819E0404B5A6802F082
:105AD0003F025B6813F4800F12D03C4B5968C1F34E
:105AE00088113B480023A1FB0001FBF7E7F8374B87
:105AF0005B68C3F3014301335B00B0FBF3F008BD07
:105B0000324B5868C0F388104FEA401CBCEB000CC5
