:020000040800F2
:100000000000022025460008F1440008F3440008DF
:10001000F5440008F7440008F94400080000000017
:10002000000000000000000000000000FB44000889
:10003000FD44000800000000FF44000801450008DE
:1000400075460008754600087546000875460008A4
:100050007546000875460008754600087546000894
:1000600075460008754600080945000875460008F1
:1000700015450008754600087546000875460008D5
:1000800025450008754600087546000875460008B5
:100090007546000875460008754600087546000854
:1000A0007546000875460008754600087546000844
:1000B0007546000875460008754600087546000834
:1000C0007546000875460008754600083545000865
:1000D0007546000875460008754600087546000814
:1000E0007546000875460008754600087546000804
:1000F00075460008754600087546000875460008F4
:1001000075460008754600087546000875460008E3
:1001100075460008754600087546000875460008D3
:1001200045450008754600087546000875460008F4
:100130007546000800000000000000007546000839
:1001400075460008754600087546000875460008A3
:1001500055450008754600087546000875460008B4
:100160007546000875460008754600087546000883
:100170007546000875460008754600080000000036
:1001800000000000754600080000000000000000AC
:1001900075460008000000000000000075460008D9
:1001A000000000000000000000000000754600088C
:1001B0007546000875460008754600087546000833
:0401C0007546000878
:1002000081F0004102E000BF83F0004330B54FEAC7
:1002100041044FEA430594EA050F08BF90EA020F34
:100220001FBF54EA000C55EA020C7FEA645C7FEAC7
:10023000655C00F0E2804FEA5454D4EB5555B8BFEA
:100240006D420CDD2C4480EA020281EA030382EA5B
:10025000000083EA010180EA020281EA0303362DED
:1002600088BF30BD11F0004F4FEA01314FF4801CC0
:100270004CEA113102D0404261EB410113F0004FD2
:100280004FEA03334CEA133302D0524263EB430389
:1002900094EA050F00F0A780A4F10104D5F1200E27
:1002A0000DDB02FA0EFC22FA05F2801841F1000182
:1002B00003FA0EF2801843FA05F359410EE0A5F156
:1002C00020050EF1200E012A03FA0EFC28BF4CF087
:1002D000020C43FA05F3C01851EBE37101F000453D
:1002E00007D54FF0000EDCF1000C7EEB00006EEB4A
:1002F0000101B1F5801F1BD3B1F5001F0CD34908D4
:100300005FEA30004FEA3C0C04F101044FEA44522A
:1003100012F5800F80F09A80BCF1004F08BF5FEAB1
:10032000500C50F1000041EB045141EA050130BD91
:100330005FEA4C0C404141EB0101013C28BFB1F5A3
:10034000801FE9D291F0000F04BF01460020B1FAEE
:1003500081F308BF2033A3F10B03B3F120020CDAC1
:100360000C3208DD02F1140CC2F10C0201FA0CF09F
:1003700021FA02F10CE002F11402D8BFC2F1200C04
:1003800001FA02F120FA0CFCDCBF41EA0C019040BA
:10039000E41AA2BF01EB0451294330BD6FEA040403
:1003A0001F3C1CDA0C340EDC04F11404C4F12002EE
:1003B00020FA04F001FA02F340EA030021FA04F300
:1003C00045EA030130BDC4F10C04C4F1200220FA57
:1003D00002F001FA04F340EA0300294630BD21FA95
:1003E00004F0294630BD94F0000F83F4801306BF5B
:1003F00081F480110134013D4EE77FEA645C18BF4F
:100400007FEA655C29D094EA050F08BF90EA020FE5
:1004100005D054EA000C04BF1946104630BD91EADD
:10042000030F1EBF0021002030BD5FEA545C05D1E0
:100430004000494128BF41F0004130BD14F580041F
:100440003CBF01F5801130BD01F0004545F0FE4193
:1004500041F470014FF0000030BD7FEA645C1ABFC8
:10046000194610467FEA655C1CBF0B46024650EAFF
:10047000013406BF52EA033591EA030F41F400212B
:1004800030BD00BF90F0000F04BF0021704730B5B1
:100490004FF4806404F132044FF000054FF0000186
:1004A00050E700BF90F0000F04BF0021704730B547
:1004B0004FF4806404F1320410F0004548BF40421C
:1004C0004FF000013EE700BF42004FEAE2014FEA71
:1004D00031014FEA02701FBF12F07F4393F07F4F4C
:1004E00081F06051704732F07F4208BF704793F04F
:1004F0007F4F04BF41F40021704730B54FF4607462
:1005000001F0004521F000411CE700BF50EA010264
:1005100008BF704730B54FF000050AE050EA01020D
:1005200008BF704730B511F0004502D5404261EB7D
:1005300041014FF4806404F132045FEA915C3FF4BE
:10054000D8AE4FF003025FEADC0C18BF03325FEA5B
:10055000DC0C18BF033202EBDC02C2F1200300FA0C
:1005600003FC20FA02F001FA03FE40EA0E0021FA31
:1005700002F11444BDE600BF4FF0FF3C06E000BFAF
:100580004FF0010C02E000BF4FF0010C4DF804CD1C
:100590004FEA410C7FEA6C5C4FEA430C18BF7FEADC
:1005A0006C5C1BD001B050EA410C0CBF52EA430C0A
:1005B00091EA030F02BF90EA020F0020704710F18A
:1005C000000F91EA030F58BF994208BF90422CBF19
:1005D000D8176FEAE37040F0010070474FEA410C12
:1005E0007FEA6C5C02D150EA013C07D14FEA430C30
:1005F0007FEA6C5CD6D152EA033CD3D05DF8040BA1
:10060000704700BF8446104662468C4619466346D2
:1006100000E000BF01B5FFF7B7FF002848BF10F1A9
:10062000000F01BD4DF808EDFFF7F4FF0CBF0120EE
:1006300000205DF808FB00BF4DF808EDFFF7EAFF6A
:1006400034BF012000205DF808FB00BF4DF808ED25
:10065000FFF7E0FF94BF012000205DF808FB00BF1A
:100660004DF808EDFFF7CEFF94BF012000205DF8A4
:1006700008FB00BF4DF808EDFFF7C4FF34BF0120B1
:1006800000205DF808FB00BF80F0004002E000BFE2
:1006900081F0004142001FBF5FEA410392EA030F6D
:1006A0007FEA226C7FEA236C6AD04FEA1262D2EBB7
:1006B0001363C1BFD218414048404140B8BF5B42BC
:1006C000192B88BF704710F0004F40F4000020F055
:1006D0007F4018BF404211F0004F41F4000121F06B
:1006E0007F4118BF494292EA030F3FD0A2F10102B5
:1006F00041FA03FC10EB0C00C3F1200301FA03F1F3
:1007000000F0004302D5494260EB4000B0F5000F15
:1007100013D3B0F1807F06D340084FEA310102F1D4
:100720000102FE2A51D2B1F1004F40EBC25008BF86
:1007300020F0010040EA03007047490040EB000050
:10074000013A28BFB0F5000FEDD2B0FA80FCACF151
:10075000080CB2EB0C0200FA0CF0AABF00EBC2507E
:1007600052421843BCBFD0401843704792F0000F6C
:1007700081F4000106BF80F400000132013BB5E7BF
:100780004FEA41037FEA226C18BF7FEA236C21D035
:1007900092EA030F04D092F0000F08BF084670479A
:1007A00090EA010F1CBF0020704712F07F4F04D168
:1007B000400028BF40F00040704712F100723CBF7B
:1007C00000F50000704700F0004343F0FE4040F4A5
:1007D000000070477FEA226216BF08467FEA236363
:1007E0000146420206BF5FEA412390EA010F40F44E
:1007F000800070474FF0000304E000BF10F000439A
:1008000048BF40425FEA000C08BF704743F0964380
:1008100001464FF000001CE050EA010208BF70479B
:100820004FF000030AE000BF50EA010208BF704722
:1008300011F0004302D5404261EB41015FEA010C37
:1008400002BF84460146002043F0B64308BFA3F12F
:100850008053A3F50003BCFA8CF2083AA3EBC25311
:1008600010DB01FA02FC634400FA02FCC2F1200230
:10087000BCF1004F20FA02F243EB020008BF20F067
:100880000100704702F1200201FA02FCC2F12002CD
:1008900050EA4C0021FA02F243EB020008BF20EAC2
:1008A000DC7070474FF0FF0C1CEAD0521EBF1CEAF0
:1008B000D15392EA0C0F93EA0C0F6FD01A4480EADE
:1008C000010C400218BF5FEA41211ED04FF00063C7
:1008D00043EA501043EA5111A0FB01310CF00040F3
:1008E000B1F5000F3EBF490041EAD3715B0040EA19
:1008F000010062F17F02FD2A1DD8B3F1004F40EBE9
:10090000C25008BF20F00100704790F0000F0CF0BB
:10091000004C08BF49024CEA502040EA51207F3A7F
:10092000C2BFD2F1FF0340EAC250704740F400005A
:100930004FF00003013A5DDC12F1190FDCBF00F04B
:1009400000407047C2F10002410021FA02F1C2F1F9
:10095000200200FA02FC5FEA310040F1000053EA95
:100960004C0308BF20EADC70704792F0000F00F0E3
:10097000004C02BF400010F4000F013AF9D040EAE9
:100980000C0093F0000F01F0004C02BF490011F47D
:10099000000F013BF9D041EA0C018FE70CEAD1537B
:1009A00092EA0C0F18BF93EA0C0F0AD030F0004CFB
:1009B00018BF31F0004CD8D180EA010000F00040AF
:1009C000704790F0000F17BF90F0004F084691F06D
:1009D000000F91F0004F14D092EA0C0F01D14202A7
:1009E0000FD193EA0C0F03D14B0218BF084608D170
:1009F00080EA010000F0004040F0FE4040F40000BA
:100A0000704740F0FE4040F4400070474FF0FF0C4C
:100A10001CEAD0521EBF1CEAD15392EA0C0F93EA93
:100A20000C0F69D0A2EB030280EA010C49024FEAE5
:100A3000402037D04FF0805343EA111143EA10139E
:100A40000CF000408B4238BF5B0042F17D024FF456
:100A5000000C8B4224BF5B1A40EA0C00B3EB510F31
:100A600024BFA3EB510340EA5C00B3EB910F24BF1A
:100A7000A3EB910340EA9C00B3EBD10F24BFA3EB9F
:100A8000D10340EADC001B0118BF5FEA1C1CE0D167
:100A9000FD2A3FF650AF8B4240EBC25008BF20F01A
:100AA000010070470CF0004C4CEA50207F32C2BF6E
:100AB000D2F1FF0340EAC250704740F400004FF00B
:100AC0000003013A37E792F0000F00F0004C02BF3C
:100AD000400010F4000F013AF9D040EA0C0093F006
:100AE000000F01F0004C02BF490011F4000F013B60
:100AF000F9D041EA0C0195E70CEAD15392EA0C0FC8
:100B000008D142027FF47DAF93EA0C0F7FF470AFFF
:100B1000084676E793EA0C0F04D14B023FF44CAF42
:100B200008466EE730F0004C18BF31F0004CCAD1D7
:100B300030F000427FF45CAF31F000437FF43CAF13
:100B40005FE700BF4FF0FF3C06E000BF4FF0010C35
:100B500002E000BF4FF0010C4DF804CD4FEA400217
:100B60004FEA41037FEA226C18BF7FEA236C11D061
:100B700001B052EA530C18BF90EA010F58BFB2EB14
:100B8000030088BFC81738BF6FEAE17018BF40F094
:100B9000010070477FEA226C02D15FEA402C05D148
:100BA0007FEA236CE4D15FEA412CE1D05DF8040BCD
:100BB000704700BF844608466146FFE70FB5FFF760
:100BC000C9FF002848BF10F1000F0FBD4DF808ED18
:100BD000FFF7F4FF0CBF012000205DF808FB00BF09
:100BE0004DF808EDFFF7EAFF34BF012000205DF863
:100BF00008FB00BF4DF808EDFFF7E0FF94BF0120B0
:100C000000205DF808FB00BF4DF808EDFFF7D2FFAC
:100C100094BF012000205DF808FB00BF4DF808EDEF
:100C2000FFF7C8FF34BF012000205DF808FB00BFBC
:100C30004FEA4002B2F1FE4F0FD34FF09E03B3EBE9
:100C400012620DD94FEA002343F0004310F0004F29
:100C500023FA02F018BF404270474FF0000070477F
:100C600012F1610F01D1420205D110F0004008BF1E
:100C70006FF0004070474FF00000704742000ED206
:100C8000B2F1FE4F0BD34FF09E03B3EB126209D4C7
:100C90004FEA002343F0004323FA02F070474FF07D
:100CA0000000704712F1610F01D1420202D14FF0F2
:100CB000FF3070474FF00000704700BF53B94AB98A
:100CC000002908BF00281CBF4FF0FF314FF0FF3054
:100CD00000F0E2B8ADF1080C6DE904CE3BF090FAFB
:100CE000DDF804E0DDE9022304B0704700F13401CF
:100CF00091E838009C46A6464CF8045D90E8FF0F4A
:100D0000E54600BD90EC210B704700BF80EC210B45
:100D1000704700BF90EC200B704700BF80EC200BA9
:100D2000704700BFD0EC200B704700BFC0EC200B19
:100D3000704700BFF0EC0201F0EC0211F0EC022170
:100D4000F0EC0231F0EC0241F0EC0251F0EC026107
:100D5000F0EC0271F0EC0281F0EC0291F0EC02A1F7
:100D6000F0EC02B1F0EC02C1F0EC02D1F0EC02E1E7
:100D7000F0EC02F1704700BFE0EC0201E0EC021180
:100D8000E0EC0221E0EC0231E0EC0241E0EC025147
:100D9000E0EC0261E0EC0271E0EC0281E0EC029137
:100DA000E0EC02A1E0EC02B1E0EC02C1E0EC02D127
:100DB000E0EC02E1E0EC02F1704700BFB0FC018121
:100DC000B0FC0191B0FC01A1B0FC01B1704700BFC3
:100DD000A0FC0181A0FC0191A0FC01A1A0FC01B13B
:100DE000704700BFEC4600B52DE900502DE9FF1F0C
:100DF0004FF000032DE90C0001A93BF0BBFCDDF82E
:100E000040E012B0704700BFEC4600B52DE900503D
:100E10002DE9FF1F4FF000032DE90C0001A93BF065
:100E2000E5FCDDF840E012B0704700BFEC4600B5CD
:100E30002DE900502DE9FF1F4FF000032DE90C00B4
:100E400001A93BF0F5FCDDF840E012B0704700BFAF
:100E5000EC4600B52DE900502DE9FF1F4FF00003CF
:100E60002DE90C0001AB3BF0B9FCDDF840E012B01D
:100E7000704700BFEC4600B52DE900502DE9FF1F7B
:100E80004FF000032DE90C0001AA3BF031FDDDF825
:100E900040E012B0704700BF704700BF0000000084
:100EA00002780B78012A28BF9A4240F0D8806DE979
:100EB000044540EA0104CDE902676FF0000C4FEAF7
:100EC00044721AB380EA010414F0070F6BD100F0EA
:100ED000070420F0070004F0030521F007014FEAA2
:100EE000C505F0E8042314F0040FF1E804670CFAD8
:100EF00005F462EA040266EA04060BD063EA04031E
:100F0000624667EA0407664604E000BFF0E804238F
:100F1000F1E8046782FA4CF582EA0604A4FA8CF43C
:100F20006CBB83FA4CF583EA0705A5FA8CF595B9F5
:100F300050E9022351E9026782FA4CF582EA06047D
:100F4000A4FA8CF483FA4CF583EA0705A5FA8CF52C
:100F50002543DBD09CB92DBAB5FA85F424F00704FB
:100F600027FA04F1DDE9026723FA04F303F0FF0036
:100F700001F0FF01FDE80445A0EB0100704724BA31
:100F8000B4FA84F424F0070426FA04F1DDE90267D8
:100F900022FA04F202F0FF0001F0FF01FDE804452F
:100FA000A0EB0100704714F0030F3CD110F00304D4
:100FB00028D150F8082B51F8083B82FA4CF582EA08
:100FC0000305A5FA8CF55DB950F8042C51F8043CE2
:100FD00082FA4CF582EA0305A5FA8CF5002DE8D0DB
:100FE0002DBAB5FA85F424F0070423FA04F122FAA5
:100FF00004F202F0FF0001F0FF01FDE80445A0EB60
:10100000010070474FEAC40420F0030050F8082B99
:1010100021F0030151F8083B0CFA04F462EA0402DF
:1010200063EA0403C9E710F003041DD0A1EB040137
:1010300020F00300E40750F8042B06D012D28B787E
:101040005FFAA2F4E41A06D12BB1CB785FFAB2F4BE
:10105000E41A00D133B920465DF8104B7047A2EB7B
:101060000300704701F1040150F8042BCC0721F074
:10107000030151F8043B48D824D222F07F4482FA7D
:101080004CF594EA1325A5FA8CF50AD165B951F807
:10109000043B84EA0204B4EB036F0ED150F8042B36
:1010A000EBE74FEA132355E035F07F454DD1087843
:1010B000FDE80445C0F1000070474FEA126203F0FA
:1010C000FF0347E002EA1C4482FA4CF594EA134518
:1010D000A5FA8CF50AD165B951F8043B84EA0204FB
:1010E000B4EB034F0CD150F8042BEBE74FEA13435A
:1010F00030E015EA1C4528D10B884FEA124229E05E
:101100004FEA124203EA1C4324E002F0FF0482FA91
:101110004CF594EA1365A5FA8CF50AD165B951F836
:10112000043B84EA0204B4EB032F09D150F8042BEA
:10113000EBE74FEA13630DE015F0FF0F05D10B68E5
:101140004FEA122223F07F4304E04FF00000FDE855
:101150000445704712BA1BBA82FA4CF482EA0304BF
:10116000A4FA8CF5B5FA85F402FA04F203FA04F352
:101170004FEA1260FDE80445A0EB1360704700BF22
:1011800001F0FF01102A2BDB10F0070F08D010F838
:10119000013B013A8B422DD010F0070F42B3F6D13C
:1011A000F0B441EA012141EA014122F007047FF055
:1011B00000070023F0E80256083C85EA010586EAAC
:1011C000010685FA47F5A3FA87F586FA47F6A5FAE8
:1011D00087F68EB9EED1F0BC01F0FF0102F00702F4
:1011E00032B110F8013B013A83EA010313B1F8D19F
:1011F0000020704701387047002D06BF3546033880
:10120000073815F0010F07D1013015F4807F02BFB8
:10121000013015F4C03F0130F0BC0138704700BF09
:10122000844641EA000313F003036DD1403A41D3F1
:1012300051F8043B40F8043B51F8043B40F8043BB0
:1012400051F8043B40F8043B51F8043B40F8043BA0
:1012500051F8043B40F8043B51F8043B40F8043B90
:1012600051F8043B40F8043B51F8043B40F8043B80
:1012700051F8043B40F8043B51F8043B40F8043B70
:1012800051F8043B40F8043B51F8043B40F8043B60
:1012900051F8043B40F8043B51F8043B40F8043B50
:1012A00051F8043B40F8043B51F8043B40F8043B40
:1012B000403ABDD2303211D351F8043B40F8043BE0
:1012C00051F8043B40F8043B51F8043B40F8043B20
:1012D00051F8043B40F8043B103AEDD20C3205D3F0
:1012E00051F8043B40F8043B043AF9D2043208D0E8
:1012F000D2071CBF11F8013B00F8013B01D30B885A
:1013000003806046704700BF082A13D38B078DD037
:1013100010F003038AD0C3F10403D21ADB071CBF09
:1013200011F8013B00F8013B80D331F8023B20F873
:10133000023B7BE7043AD9D3013A11F8013B00F8AC
:10134000013BF9D20B7803704B7843708B78837034
:101350006046704700000000000000000000000030
:10136000000000000000000000000000000000007D
:10137000000000000000000000000000000000006D
:1013800030B490F800F020F007016FF0000C10F07E
:10139000070491F820F040F048804FF000046FF00F
:1013A0000700D1E9002391F840F000F1080082FA2B
:1013B0004CF2A4FA8CF283FA4CF3A2FA8CF34BBBF6
:1013C000D1E9022382FA4CF200F10800A4FA8CF26F
:1013D00083FA4CF3A2FA8CF3E3B9D1E9042382FA3D
:1013E0004CF200F10800A4FA8CF283FA4CF3A2FA52
:1013F0008CF37BB9D1E9062301F1200182FA4CF28A
:1014000000F10800A4FA8CF283FA4CF3A2FA8CF3F0
:10141000002BC6D0002A04BF04301A4612BAB2FA12
:1014200082F200EBD20030BC7047D1E9002304F017
:101430000305C4F100004FEAC50514F0040F91F84C
:1014400040F00CFA05F562EA05021CBF63EA0503E9
:1014500062464FF00004AAE770B54FF0FF0C4CF461
:10146000E06C1CEA11541DBF1CEA135594EA0C0FE2
:1014700095EA0C0F00F0DEF82C4481EA030621EA1D
:101480004C5123EA4C5350EA013518BF52EA033558
:1014900041F4801143F4801338D0A0FB02CE4FF00A
:1014A0000005E1FB02E506F00042E0FB03E54FF03A
:1014B0000006E1FB03569CF0000F18BF4EF0010E32
:1014C000A4F1FF04B6F5007F64F5407404D25FEA2E
:1014D0004E0E6D4146EB060642EAC62141EA5551E1
:1014E0004FEAC52040EA5E504FEACE2EB4F1FD0C23
:1014F00088BFBCF5E06F1ED8BEF1004F08BF5FEAA1
:10150000500E50F1000041EB045170BD06F0004652
:1015100046EA010140EA020081EA0301B4EB5C04FF
:10152000C2BFD4EB0C0541EA045170BD41F48011F7
:101530004FF0000E013C00F3AB8014F1360FDEBF1C
:10154000002001F0004170BDC4F10004203C35DAF8
:101550000C341BDC04F11404C4F1200500FA05F37B
:1015600020FA04F001FA05F240EA020001F000421C
:1015700021F0004110EBD37021FA04F642EB060192
:101580005EEA430E08BF20EAD37070BDC4F10C04BC
:10159000C4F1200500FA04F320FA05F001FA04F280
:1015A00040EA020001F0004110EBD37041F100016C
:1015B0005EEA430E08BF20EAD37070BDC4F1200577
:1015C00000FA05F24EEA020E20FA04F301FA05F2DF
:1015D00043EA020321FA04F001F0004121FA04F287
:1015E00020EA020000EBD3705EEA430E08BF20EA57
:1015F000D37070BD94F0000F0FD101F00046400091
:1016000041EB010111F4801F08BF013CF7D041EA12
:10161000060195F0000F18BF704703F00046520016
:1016200043EB030313F4801F08BF013DF7D043EAE7
:101630000603704794EA0C0F0CEA135518BF95EA9D
:101640000C0F0CD050EA410618BF52EA4306D1D124
:1016500081EA030101F000414FF0000070BD50EA43
:10166000410606BF1046194652EA430619D094EACD
:101670000C0F02D150EA013613D195EA0C0F05D1B7
:1016800052EA03361CBF104619460AD181EA03010B
:1016900001F0004141F0FE4141F470014FF00000C3
:1016A00070BD41F0FE4141F4780170BD70B54FF05E
:1016B000FF0C4CF4E06C1CEA11541DBF1CEA1355DE
:1016C00094EA0C0F95EA0C0F00F0A7F8A4EB0504C0
:1016D00081EA030E52EA03354FEA013100F08880B7
:1016E0004FEA03334FF0805545EA131343EA126380
:1016F0004FEA022245EA111545EA10654FEA002635
:101700000EF000419D4208BF964244F1FD0404F5ED
:10171000407402D25B084FEA3202B61A65EB030549
:101720005B084FEA32024FF480104FF4002CB6EB06
:10173000020E75EB030E22BFB61A754640EA0C0086
:101740005B084FEA3202B6EB020E75EB030E22BFC6
:10175000B61A754640EA5C005B084FEA3202B6EB07
:10176000020E75EB030E22BFB61A754640EA9C00C6
:101770005B084FEA3202B6EB020E75EB030E22BF96
:10178000B61A754640EADC0055EA060E18D04FEA54
:10179000051545EA16754FEA06164FEAC30343EAF4
:1017A00052734FEAC2025FEA1C1CC0D111F4801FC1
:1017B0000BD141EA00014FF000004FF0004CB6E7BA
:1017C00011F4801F04BF01430020B4F1FD0C88BF59
:1017D000BCF5E06F3FF6AFAEB5EB030C04BFB6EB64
:1017E000020C5FEA500C50F1000041EB045170BD57
:1017F0000EF0004E4EEA113114EB5C04C2BFD4EB84
:101800000C0541EA045170BD41F480114FF0000E07
:10181000013C90E645EA060E8DE60CEA135594EA83
:101820000C0F08BF95EA0C0F3FF43BAF94EA0C0F86
:101830000AD150EA01347FF434AF95EA0C0F7FF4FB
:1018400025AF104619462CE795EA0C0F06D152EA4F
:1018500003353FF4FDAE1046194622E750EA410633
:1018600018BF52EA43067FF4C5AE50EA41047FF444
:101870000DAF52EA43057FF4EBAE12E74FEA410C9D
:101880007FEA6C5C02D150EA013C0AD14FEA430C7A
:101890007FEA6C5C02D152EA033C02D14FF00000B7
:1018A00070474FF0010070474FEA410212F50012F5
:1018B00015D211D56FF47873B3EB625212D94FEA97
:1018C000C12343F0004343EA505311F0004F23FA81
:1018D00002F018BF404270474FF00000704750EAD6
:1018E000013005D111F0004008BF6FF00040704793
:1018F0004FF00000704700BF4A0011D212F50012ED
:1019000011D20DD56FF47873B3EB62520ED44FEA57
:10191000C12343F0004343EA505323FA02F07047D7
:101920004FF00000704750EA013002D14FF0FF3015
:1019300070474FF0000070474FEA4102B2F1E043B8
:1019400024BFB3F5001CDCF1FE5C0DD901F0004CA6
:101950004FEAC0024CEA5070B2F1004F40EB8300F6
:1019600008BF20F00100704711F0804F21D113F122
:101970003872BCBF01F00040704741F480114FEA5B
:101980005252C2F11802C2F1200C10FA0CF320FAE4
:1019900002F018BF40F001004FEAC1234FEAD32301
:1019A00003FA0CFC40EA0C0023FA02F34FEA43036B
:1019B000CCE77FEA625307D150EA01331EBF4FF0F4
:1019C000FE4040F44000704701F0004040F0FE400F
:1019D00040F40000704700BF4FEA40024FEA410365
:1019E0007FEA226C02D15FEA402C08D17FEA236CA7
:1019F00002D15FEA412C02D14FF0000070474FF056
:101A0000010070470348044B834202D0034B03B1EB
:101A10001847704778100020781000200000000060
:101A20000548064B1B1AD90F01EBA301491002D040
:101A3000034B03B11847704778100020781000203E
:101A40000000000010B5064C237843B9FFF7DAFF19
:101A5000044B13B10448AFF300800123237010BD81
:101A60007810002000000000D00C050808B5054BD8
:101A70001BB105490548AFF30080BDE80840FFF7FA
:101A8000CFBF00BF000000007C100020D00C050874
:101A9000C36823F04A03C36043F00803C360704780
:101AA0000160002242608260C2607047704700009F
:101AB00008B542680368D21A914200D208BD0148B5
:101AC0001BF028F9800F050803684268934200D094
:101AD0004360704710B584B0844601914468036840
:101AE000E31A6FF00040C01A88420ED30393994264
:101AF0000ED803AA10681844DCF80030E41A8442B7
:101B000008D8002809DB04B010BD10461BF0EAF825
:101B100001AAEFE76FF00040F5E76FF00040F2E751
:101B200008B50846114606F089F808BD08B5081E34
:101B300002DB06F083FC08BD1BF08CF82DE9F84FA2
:101B400005468A4693461D4A0121FFF7C3FFD5F893
:101B500000806F68AAEB0804814608B300220146A2
:101B60002846FFF7E3FF06469BF800303355002C6C
:101B700018DC01343444A7EB0A07002F18DC3C447E
:101B8000AA68A2EB0802B8F1000F03D0414628462C
:101B9000FFF7C6FF2E606C604E44AE60BDE8F88F64
:101BA0000026E1E72246414630463EF0BBFDE0E735
:101BB0003A46514620463EF0B5FDE0E7CC0F050819
:101BC00008B543688268934205D00A781A70436862
:101BD0000133436008BD0A461946FFF7AFFFF9E736
:101BE0002DE9F041ADF5227D06460F4640F28522F3
:101BF0003F496846FFF714FB0AE09DF801308DF875
:101C00000030642301220DEB0201306805F01FFF54
:101C10009DF80030002BF0D19DF80130FF2BECD166
:101C200006F104084046FFF74FFF642302220DEB44
:101C30000201306805F00BFF0224032C0FDCB4F521
:101C4000217F06D80DEB04014046FFF7B9FF0134B0
:101C5000F3E740F28522214626481BF05BF89DF809
:101C600002309DF8035045EA032564232A4601A962
:101C7000306805F0ECFE0024A5420EDD211DB1F513
:101C8000217F05D869444046FFF79AFF0134F3E706
:101C900040F2852217481BF03DF814214046FFF71B
:101CA00007FF716840F2712214313846FFF7B8FA25
:101CB0001149124825F0A0FC7568B7680FE015F8C7
:101CC000016B0E4C236853F80C0C2044FFF7E0FE28
:101CD0003146204625F050FD094925F08DFCAF42E4
:101CE000EDD1064825F020FB0DF5227DBDE8F08101
:101CF000E80C0508E80F05081C100508042400205E
:101D000000190508016042607047000010B5094CD9
:101D100001221146204603F097F80A2001F02AFD1F
:101D200000220121204603F08FF84FF4FA7001F0F1
:101D300021FD10BD000802402DE9F04184B00646A7
:101D40000D4600248DF80C400194CDF80740584F03
:101D500022464FF48051384603F076F850238DF830
:101D60000C30C823012203A9306804F0A2FB4B20E9
:101D700001F000FDC823072201A9306804F091FD9D
:101D800001224FF48051384603F05EF88DF8004090
:101D90008DF801409DF90430A34208DB00232B603D
:101DA0006B609DF807302B7204B0BDE8F081746859
:101DB000E378002B3DD09DF906004042FEF71EFD62
:101DC0000146FEF767FC074694F800804046FEF7A0
:101DD00015FD064601463846FEF764FD3549FEF717
:101DE00015FE07466078FEF705FD04464046FEF7FF
:101DF00001FD01462046FEF709FE39F003FB0446CB
:101E000001463846FEF74EFD07469DF90500FEF7F0
:101E1000F5FC0146FEF73EFC01463046FEF742FD6A
:101E20002449FEF7F3FD2146FEF73CFD2F60686074
:101E3000B7E79DF906004042FEF7E0FC0146FEF7D9
:101E400029FC074694F800804046FEF7D7FC06467A
:101E500001463846FEF726FD1749FEF7D7FD07462F
:101E60006078FEF7C7FC04464046FEF7C3FC014617
:101E70002046FEF7CBFD39F0C5FA04460146384648
:101E8000FEF710FD07469DF90500FEF7B7FC014679
:101E9000FEF700FC01463046FEF704FD0649FEF75A
:101EA000B5FD2146FEF7FEFC2F60686079E700BFB4
:101EB0000004024000803B4700803B4610B582B0E2
:101EC000044641F080018DF804108DF805200022B1
:101ED0004FF480510D4802F0B7FFC823022201A938
:101EE000206804F0E6FA50B901224FF48051074807
:101EF00002F0AAFF322001F03DFC02B010BD0449FF
:101F0000044825F079FB25F00FFAEDE700040240C4
:101F1000281005080424002008B500221221FFF72C
:101F2000CDFF08BD10B582B004468DF80410002224
:101F30008DF800204FF48051154802F085FFC8232A
:101F4000012201A9206804F0B4FA98B94B2001F0ED
:101F500011FCC82301226946206804F0A2FC80B964
:101F600001224FF480510A4802F06EFF9DF80000F4
:101F700002B010BD0749084825F03EFB25F0D4F912
:101F8000E4E70649044825F037FB25F0CDF9E7E7FB
:101F90000004024058100508042400208810050899
:101FA00008B50021FFF7BEFF172801D0002008BDAB
:101FB0000120FCE710B50446FFF7A8FE2046FFF716
:101FC000EFFF08B9012010BD636893F902301A01D0
:101FD00042EA831202F0F0020A212046FFF76EFF68
:101FE0002046FFF799FF0020EDE7002303704370C0
:101FF000837070470170427083707047C170704782
:1020000010B50446FFF7F1FF64212046FFF7F6FF05
:10201000204610BD82B00068019000209DF8043079
:1020200063F307009DF8053063F30F209DF8063039
:1020300063F317409DF8073063F31F6002B07047E9
:102040002DE9F0410F4616461D460468D0F804807D
:1020500006E02B463246394654F8040BFFF7CAFF18
:10206000A045F6D1BDE8F08170B50D46046846681C
:1020700004E0294654F8040BFFF7C0FFA642F8D14C
:1020800070BD10B504460021006805F0BBFA0023BE
:10209000237610BD08B5436802689B1AB1EBA30F05
:1020A00000D208BD9A1001481AF034FE800F0508CE
:1020B00038B504460D460C30FFF7ECFFE36853F8E3
:1020C000250038BD40680438704703684268934271
:1020D00000D04360704740680438704708B5084630
:1020E000910005F0ABFD08BD10B50446016882689B
:1020F000521A11B19210FFF7F1FF204610BD10B532
:102100000446FFF7F1FF204610BD10B584B08446A9
:10211000019144680368E31A98106FF0604EAEEBCB
:10212000A3038B4210D30390814210D803AB1B68EA
:102130001844DCF80030E41AB0EBA40F09D3B0F176
:10214000005F09D204B010BD10461AF0CBFD01AB00
:10215000EDE76FF06040F5E76FF06040F2E708B53B
:102160000846910005F06AFD08BD10B504460168F7
:102170008268521A11B19210FFF7F1FF204610BD8C
:1021800010B50446FFF7F1FF204610BD10B584B02E
:102190008446019144680368E31A98106FF0604E1A
:1021A000AEEBA3038B4210D30390814210D803AB54
:1021B0001B681844DCF80030E41AB0EBA40F09D314
:1021C000B0F1005F09D204B010BD10461AF08AFDCC
:1021D00001ABEDE76FF06040F5E76FF06040F2E7CC
:1021E00008B5B1F1005F03D2880006F027F908BDF9
:1021F000B1F1804F01D31AF03DFD1AF02BFD000024
:102200002DE9F84F05468A4693461E4A0121FFF7FD
:102210007CFFD5F800806F68AAEB0804814618B3EC
:10222000002201462846FFF7DBFF0646DBF80030B8
:102230003351002C1ADC04343444A7EB0A07002F76
:102240001ADC3C44AA68A2EB08029210B8F1000F15
:1022500003D041462846FFF741FF2E606C6006EB35
:102260008906AE60BDE8F88F0026DFE722464146CA
:1022700030463EF057FADEE73A46514620463EF0F9
:1022800051FADEE7CC0F050810B5044643688268B2
:10229000934208D00A681A604368043343602046BA
:1022A000FFF710FF10BD0A461946FFF7A9FFF6E732
:1022B000F0B583B005460F461E4600230360436019
:1022C0008360144605E0019001A92846FFF7DCFF72
:1022D0000134A64209DDE1B23846FFF7E9FEF2E734
:1022E0002846FFF70CFF05F0ABFC284603B0F0BD15
:1022F0002DE9F04184B00646684680E806009DF866
:10230000288003C886E8050033720024F460346135
:1023100074613476F4613462746208E00546FFF754
:102320006FFE039503A93846FFF7AEFF0134A045C1
:102330000EDD06F10C07042006F080F8EEE706F14A
:102340001C00FFF71DFF3846FFF7D9FE05F078FCAB
:10235000304604B0BDE8F08108B5B1F1005F03D2AA
:10236000880006F06BF808BDB1F1804F01D31AF078
:1023700081FC1AF06FFC00002DE9F84F05468A46F3
:1023800093461E4A0121FFF701FFD5F800806F68D0
:10239000AAEB0804814618B3002201462846FFF73D
:1023A000DBFF0646DBF800303351002C1ADC043426
:1023B0003444A7EB0A07002F1ADC3C44AA68A2EBBE
:1023C00008029210B8F1000F03D041462846FFF7EB
:1023D000C6FE2E606C6006EB8906AE60BDE8F88F25
:1023E0000026DFE72246414630463EF09BF9DEE715
:1023F0003A46514620463EF095F9DEE7CC0F0508F7
:1024000010B5044643688268934208D00A681A608F
:102410004368043343602046FFF75DFE10BD0A4663
:102420001946FFF7A9FFF6E72DE9F04F89B00746F7
:102430003B7E002BFCD107F11C063046FFF745FE22
:10244000FB68D7F8109010E01923069306A93046D0
:10245000FFF7D6FF013C002C05DB0123A3401D4202
:10246000F2D03323F1E708F10403984699453CD0B4
:10247000D3F800A05046FFF7CDFD00909DF8015025
:102480005046FFF7C7FD01909DF8073003FB05F5A7
:10249000DFF880B08BFB05356D112D045046FFF73A
:1024A000B9FD02909DF808405046FFF7B3FD039038
:1024B0009DF80F3004FB03F38BFB03235B1145EA0C
:1024C00003255046FFF7A6FD04909DF812405046A4
:1024D000FFF7A0FD05909DF8173003FB04F48BFB7C
:1024E00004B445EA64151724B5E70023079307A948
:1024F0003046FFF785FFFA693B6A9B1AC3F38F03E7
:102500003979386804F032FF01233B7609B0BDE821
:10251000F08F00BF1F85EB51016042608360009B1C
:10252000C360002303614361704700002DE9F0415F
:1025300004464368B3F89A22C368B3F8231093F9AA
:102540002A3011FA83F39BB28168D31A8B81856894
:10255000D5F80E006368D969FEF79CF8C5F80E003F
:10256000A568D5F812006368196AFEF793F8C5F8F4
:102570001200A76866682169F069FEF789F81949B1
:10258000FEF790F905462368D3F80080D8F82400B8
:10259000FEF730F901462846FEF738FA054661692C
:1025A000306AFEF775F80F49FEF77CF90646D8F851
:1025B0002400FEF71FF901463046FEF727FAC7F858
:1025C0001650C7F81A00636804F110021C3393E830
:1025D000030082E8030023681B6801225A62BDE8F9
:1025E000F08100BF8096184B83680022C3F80E204C
:1025F000C3F8122003681B6801225A627047016009
:10260000027183607047000070B504460846FEF70B
:10261000F5F80546A668B6F90000FEF7EFF80146A2
:102620002846FEF737F80546B6F90200FEF7E6F849
:1026300001462846FEF7EAF94FF07F51FEF72AF8E7
:10264000054623681E68F06AFEF7D4F82946FEF7AF
:1026500029F90549FEF7DAF9FEF710FB70632179D5
:10266000206804F001FE70BD0000A04170B5044672
:1026700090F91830002B25DD01228188006802F0D6
:10268000E3FB0022A189A06802F0DEFB94F91800A8
:102690000028B8BF4042C0B2FEF7B0F80F49FEF7BD
:1026A000B5F9054623691E68F06AFEF7A3F82946C6
:1026B000FEF7F8F8FEF7E2FA7063A18A206904F0E9
:1026C000D3FD70BD00228188006802F0BDFB0122AD
:1026D000A189A06802F0B8FBD8E700BF0000C8429B
:1026E00008B50176FFF7C2FF08BD10B5044600210A
:1026F000FFF7F6FF0022A188206802F0A5FB002268
:10270000A189A06802F0A0FB10BD84B000B50DF156
:10271000080C8CE80E008646BCE80F00AEE80F00FF
:102720009CE803008EE803005DF804EB04B07047FA
:1027300010B590B0044681638287002280F83E2065
:102740000493BDF84830ADF81430139B0693BDF8E0
:102750005030ADF81C30199B0893BDF86830ADF8C7
:102760002430159B0A93BDF85830ADF82C30179BD8
:102770000C93BDF86030ADF834301B9B0E93BDF860
:102780007030ADF83C3007AB93E807008DE80700E8
:1027900004AB0ECB2046FFF7B8FF10AB13E90700E0
:1027A0008DE807000AAB0ECB04F11C00FFF7ADFF6C
:1027B000204610B010BD10B504460021FFF790FF71
:1027C000002104F11C00FFF78BFF0122A18FA06BF9
:1027D00002F03AFB10BD10B50446FFF786FF04F186
:1027E0001C00FFF782FF0022A18FA06B02F02CFBE0
:1027F00010BD016000228260C2600261704710B5A6
:10280000044601688268521A09B1FFF789F9204627
:1028100010BD10B50446FFF7F2FF204610BD70470B
:10282000704738B505460C46FFF7FAFF201A2844D2
:1028300038BD38B504460D4639B10022FFF776F9A8
:10284000206060602844A06038BD0020F8E710B523
:1028500004460023036043608360FFF7EAFF2046DD
:1028600010BD38B515460C1A012C06DD224601466E
:1028700028463DF057FF281938BD012CFBD10378BD
:102880001370F8E770B50E461446FFF7C8FF05460B
:102890003046FFF7C4FF06462046FFF7C1FF024659
:1028A00031462846FFF7DDFF01462046FFF7B9FF16
:1028B00070BD08B5FFF7E6FF08BD0000F8B5571A70
:1028C00011D404460D46164687B100223946FFF75B
:1028D0002DF9024622601744A76031462846FFF7CB
:1028E000C0FF6060F8BD02481AF0FCF90022F1E771
:1028F000B810050810B582B0044602AB03E9060023
:1029000000230360436083600A44FFF7D7FF04E0BD
:102910002046FFF774FF05F093F9204602B010BD82
:1029200010B588B0044655238DF81430AA238DF8CD
:1029300015308DF8161000238DF81730FA238DF816
:10294000183005AB03930523049307AB03AA06CA0B
:102950006846FFF7CFFF0099019A521A642392B29A
:10296000206805F008F86846FFF753FF08B010BD6F
:102970006846FFF74EFF05F063F908B58421FFF7BD
:10298000CFFF08BD08B5FFF7F8FF08BD38B51546FD
:102990000C1A012C06DD2246014628463DF0C2FEF7
:1029A000281938BD012CFBD103781370F8E770B5F6
:1029B0000E461546FFF733FF04463046FFF72FFF5C
:1029C00001462A462046FFF74CFF70BD08B5FFF7C9
:1029D000EEFF08BD08B5FFF7F9FF08BD70B5154655
:1029E0001E4651B10022FFF7A1F8044622463146A7
:1029F0002846FFF7EFFF204670BD0024F6E770B5CC
:102A00000446814213D00D46496828680E1A226890
:102A1000A368A3EB020C66450BD86368A3EB020C1A
:102A2000664518D8FFF745FF2368334463602046A6
:102A300070BD0B46024631462046FFF7CFFF0546E4
:102A40002168A268521A11B12046FFF769F8256083
:102A50003544A560E8E700EB0C01FFF797FF286815
:102A600062682368D31A69681844FFF78FFFDBE7B1
:102A700008B513780A1A00D108BD19463DF0D2FEF8
:102A8000FAE781B1844600220CF8012B012901D11B
:102A90006046704710B54418024621466046FFF76D
:102AA000E7FF204610BD704738B50D1E0ADB04460F
:102AB0002946FFF7CCFE29462068FFF7E2FF606059
:102AC000204638BD01481AF00DF900BFB8100508BE
:102AD00010B584B00446014651F8040B6423042267
:102AE00004F0B5FF03AAE1796846FFF7DDFF00991E
:102AF000019A521A642392B2206804F0A8FF694632
:102B000004F10800FFF77BFF214651F8140B642302
:102B1000012204F09CFF2379552B07D16379AA2B5E
:102B20000BD1237DFA2B0AD1002400E00124684652
:102B3000FFF76FFE204604B010BD0124F7E7012423
:102B4000F5E76846FFF765FE05F07AF8F8B5044644
:102B50000D468121FFF7E4FE2046FFF7B9FF00B1E3
:102B6000F8BD04F1080600213046FEF7A1FFA36876
:102B70001F7801213046FEF79BFFA3685B7843EA8C
:102B800007232B8002213046FEF792FFA3689B7833
:102B9000AB70E5E7002070472DE9F04385B00446AF
:102BA0004068B0F8015005F0030E8DF808E0C5F359
:102BB000810C8DF809C0C5F301178DF80A70C5F3B3
:102BC00081168DF80B60C5F301258DF80C50021DA0
:102BD0000023984605E0D15C41445FFA81F8013357
:102BE0009BB2B3F5407FF6D30378AA2B02D1C3780A
:102BF000434526D09649974824F0FEFC63681B782D
:102C0000AA2B0AD16368DB7843450BD1914824F0A5
:102C10008BFB012005B0BDE8F0838F498D4824F07F
:102C2000EBFCEFE78D498B4824F0E6FC414624F0AD
:102C3000A3FD8B4924F0E0FC6368D97824F09CFD67
:102C4000E4E700230193AA238DF80430B30143EA9B
:102C5000052343EA071343EA8C034EEA0303ADF866
:102C60000530BEF1010F76D0BEF1020F7BD1A36813
:102C7000E26812889A804FF000094FF00208BCF118
:102C8000010F74D0BCF1020F0CD1A3684344E1687A
:102C90004FF428720431181DFEF7C2FA08F528789F
:102CA0001FFA88F8012F70D0022F1FD1A368434468
:102CB000E268D2F8A472D2F8A802D2F8AC12D2F824
:102CC000B0C25F609860D960C3F810C0D2F8B47227
:102CD000D2F8B802D2F8BC125F619861D961B2F83B
:102CE000C0221A8408F11E081FFA88F8012E6DD040
:102CF000022E1DD1A3684344E16801F2C2220433CD
:102D000001F2F221D2F800C057689668D068C3F883
:102D100000C05F609E60D860103210338A42F1D1EB
:102D20001168526819605A6008F138081FFA88F86B
:102D3000012D69D0022D0CD1A3684344E268D2F87A
:102D4000FA125960B2F8FE221A8108F106081FFA39
:102D500088F8434667E0E36882881A804FF00209EA
:102D60004FF000088BE74FF00009C84687E7E0689E
:102D700063684B444FF42872191D0430FEF750FA73
:102D800009F528791FFA89F98CE7E26863684B44F2
:102D90005F689868D968D3F810C0C2F8A472C2F806
:102DA000A802C2F8AC12C2F8B0C25F699869D969CA
:102DB000C2F8B472C2F8B802C2F8BC121B8CA2F8F6
:102DC000C03209F11E091FFA89F98FE7E2686168CC
:102DD00049440B1D02F2C2223431D3F800C05F68AF
:102DE0009E68D868C2F800C057609660D060103303
:102DF00010328B42F1D119685B681160536009F1A0
:102E000038091FFA89F993E7E26863684B44596807
:102E1000C2F8FA121B89A2F8FE329AE7A2681A4495
:102E2000002111710133B3F5407FF7D3A468201D51
:102E300000231A4604E0C15C0A44D2B201339BB2BB
:102E40009845F8D88DF80720019B23600020E1E623
:102E5000EC10050804240020081105081C110508C1
:102E600038110508016042608360009AC260002248
:102E70001A70704710B586B004466423029301238C
:102E800001930DF1170200921B22D021006802F07D
:102E9000CDFB68BB9DF8173003F0E0038DF81730C9
:102EA00062681288B2F57A7F18D0B2F5FA6F1AD03C
:102EB000B2F5FA7F03D143F008038DF8173064238D
:102EC0000293012301930DF1170200921B22D021DE
:102ED000206802F0F9FA68B906B010BD43F010039B
:102EE0008DF81730EBE743F018038DF81730E6E75D
:102EF0000120F1E70120EFE700B587B043689B7838
:102F00008DF8173064230293012301930DF117020A
:102F100000921B22D021006802F0D6FA10B907B047
:102F20005DF804FB0120FAE710B586B0044664237F
:102F30000293012301930DF1170200921C22D0216C
:102F4000006802F073FB50BB9DF8173003F070036C
:102F50008DF817306268D278082A16D0102A19D056
:102F6000042A03D143F008038DF817306423029339
:102F7000012301930DF1170200921C22D021206839
:102F800002F0A2FA68B906B010BD43F010038DF844
:102F90001730EBE743F018038DF81730E6E7012010
:102FA000F1E70120EFE710B586B004460A46642336
:102FB000D021006802F0ACFC10B1012006B010BDB9
:102FC000A268012313708DF81730642202920193D6
:102FD0000DF1170200926B22D021206802F074FAE2
:102FE00008B10120EAE72046FFF786FF08B101207B
:102FF000E4E72046FFF73EFF08B10120DEE7204668
:10300000FFF792FF0028D9D00120D7E72DE9F04F34
:1030100091B004460D460CAB00220C920D920E921C
:10302000ADF83C20642202920E220192009301230B
:103030003B22D021006802F0F9FA0490002840F009
:10304000AC809DF830309DF8310040EA032000B29A
:10305000FDF7D4FB834609909DF832309DF833008C
:1030600040EA032000B2FDF7C9FB82460A909DF8B2
:1030700034309DF8350040EA032000B2FDF7BEFB76
:1030800081460B909DF836309DF8370040EA0320CA
:1030900000B2FDF7B3FB05909DF838309DF839007C
:1030A00040EA032000B2FDF7A9FB804606909DF898
:1030B0003A309DF83B0040EA032000B2FDF79EFB4A
:1030C000074607909DF83C309DF83D0040EA0320FC
:1030D00000B2FDF793FB064608906368D878FDF7C9
:1030E00089FB01465846FDF7DDFB2D49FDF78EFCB7
:1030F00068606368D878FDF77DFB01465046FDF7B0
:10310000D1FB2749FDF782FCA8606368D878FDF7FA
:1031100071FB01464846FDF7C5FB2149FDF776FCEA
:10312000E86020490598FDF771FC1F49FDF7B2FAE8
:10313000286063681888FDF75DFBE3681968FDF790
:10314000A7FA01464046FDF7ADFB1549FDF75EFCC9
:10315000286163681888FDF74DFBE3685968FDF73F
:1031600097FA01463846FDF79DFB0D49FDF74EFCE9
:10317000686163681888FDF73DFBE3689968FDF7AF
:1031800087FA01463046FDF78DFB0549FDF73EFC09
:10319000A861049811B0BDE8F08F01230493F8E70B
:1031A00000FEFF460000AA43B81E124230B58BB0A5
:1031B0000546002403940494059406940794089407
:1031C0000994009401940294836802221A7017E013
:1031D00003A92846FFF71AFF07990098FDF75AFA46
:1031E000009008990198FDF755FA01900999029805
:1031F000FDF750FA02900A2001F090FA0134E4B28F
:103200006B681879A042E3D8FDF7F4FAEC682168FE
:10321000FDF740FA01460098FDF7F8FB20606B6867
:103220001879FDF7E7FAEC686168FDF733FA0146B3
:103230000198FDF7EBFB60606B681879FDF7DAFA2F
:10324000EC68A168FDF726FA01460298FDF7DEFB5F
:10325000A060AB6803221A700BB030BD01607B2206
:1032600080F83C207047000010B50346016800223A
:103270006FF01F0008704A701968922088701968F2
:103280003D20C87019686FF00B0008714FF0010EF7
:1032900081F805E019688A7118680421C1711868FD
:1032A00064240472186812244472186881721968C0
:1032B00081F80BE0196881F80CE01C682C4908685B
:1032C000C4F80D0018684274827418687024C474BD
:1032D0001724047518686FF03B044475092484753D
:1032E00048681C68C4F81B0088681C68C4F81F0084
:1032F000C8681968C1F81F0019686FF0780081F874
:10330000230081F824201968322081F8250081F8F3
:10331000262019686E2081F8270081F8282081F87E
:103320002920196881F82A2081F82B2081F82C2087
:10333000196881F82D2081F82E2081F82F20196836
:1033400081F8302081F8312081F8322019686FF03F
:10335000370081F8330081F834201A6882F835E0AC
:103360001B682C2283F8362083F837E010BD00BF9D
:10337000700F05082DE9F04F89B0002403940494E0
:1033800005940694079400945E4B1A6B42F0040275
:103390001A631A6B02F004020092009A01941A6BED
:1033A00042F001021A631A6B02F001020192019AC3
:1033B00002941A6B42F002021A631B6B03F00203C1
:1033C0000293029B504F01221146384601F03CFD0A
:1033D00022464FF49C71384601F036FD4B4E224692
:1033E00040F60C11304601F02FFDDFF82481012258
:1033F0004FF48051404601F027FD012503954FF021
:103400001109CDF810900595069403A9384601F0EE
:1034100027FC4FF48C73039304950594069403A939
:10342000384601F01DFC4FF0030BCDF80CB00494AE
:103430004FF0020ACDF814A003A9304601F010FCA9
:103440000C2303930495CDF814A006940DEB03010F
:10345000304601F005FC102303934FF488130493C6
:10346000059503A9304601F0FBFB20230393049547
:103470000594CDF818A003A9384601F0F1FB072305
:1034800003930494059403A9404601F0E9FB4FF42B
:1034900080530393CDF810900595CDF818B003A98B
:1034A000404601F0DDFB4FF440430393049405953F
:1034B00003A9404601F0D4FB4FF4905303930494C6
:1034C000059403A9384601F0CBFB4FF480730393B6
:1034D00004950594069403A9304601F0C1FB4FF40E
:1034E00000630393CDF810900595069403A9304628
:1034F00001F0B6FB224621460A2001F069F909B025
:10350000BDE8F08F00380240000802400000024091
:103510000004024010B582B0002400941A4B1A6BCC
:1035200042F480021A631A6B02F480020092009A3D
:1035300001941A6B42F400121A631B6B03F400131C
:103540000193019B224621460C2001F041F90C20F9
:1035500001F04EF922462146102001F039F91020E1
:1035600001F046F922462146382001F031F9382091
:1035700001F03EF922462146442001F029F9442079
:1035800001F036F902B010BD003802402DE9F047D5
:103590008EB04E4C21464E48FFF760FEA4F11E054A
:1035A00000942B46A4F2BE224A494B48FEF7B4FFD2
:1035B0004A4F4B493846FFF71CF94A4E32464A49B2
:1035C000384604F0B7FA0095A4F2C123221D4749FA
:1035D0004748FFF747FC04F1090246494648FEF711
:1035E00091FB464D46492846FEF75AFA3246454970
:1035F000284604F09FFA444A1346444943F8101BF6
:10360000536002F545739360A4F2C224D460404B2A
:103610001360404B0C9300258DF834503E4F4FF013
:10362000090ACDF800A02B460EAA12E9060038467A
:10363000FEF75EFE32463949384604F07BFADFF881
:10364000E08001232A4639464046FEF731FEDFF886
:10365000D49032464946404604F06CFADFF8C88000
:103660005346012239464046FEF722FE324649467D
:10367000404604F05FFA04F2D3242C4E23462A4637
:1036800031462B48FEF7BBFF23460422314629482A
:10369000FEF7B5FF284904230A93284B09930895A0
:1036A00007934FF40073069305914FF480730493CE
:1036B0000391102302930191082300930B462022CB
:1036C0001F48FFF735F80EB0BDE8F087A21A0020BA
:1036D000A01700206C1C0020881700207017002005
:1036E000681B002000000020F33E0008441F00205B
:1036F00060170020941E0020581700204817002053
:10370000E01A0020E53E00082C110020FC2B0508E3
:10371000082C05088C1D0020041100200D3F000816
:10372000F8100020013F0008EC100020FC1C0020D5
:10373000E0100020D410002000080240441D0020AA
:103740009410002000B583B001904FF6FF73012262
:1037500001A9064804F00FF9054B1B680021986881
:103760003AF0A8FA019803B05DF804FB241B00208E
:1037700040070020034B1A6800235362536A8342B8
:10378000FCD37047B41C002008B5044B834200D022
:1037900008BD0348FEF775FCFAE700BF8C1D00204A
:1037A0000411002008B50B490B4823F025FF23F036
:1037B000BBFD00231A46FF210848FEF741FC0848DC
:1037C000FEF732FE00220421064801F03DFB72B6EE
:1037D000FEE700BF4411050804240020F810002073
:1037E000041100200000024008B50A480A4B03609B
:1037F0004FF4E133436000238360C36003610C2214
:1038000042618361C36104F087F800B908BDFFF726
:10381000C9FF00BF241B00200010014008B50B4861
:103820000B4B0360002343608360C360036143610B
:103830004FF4007282610362436283620A23C362AF
:1038400002F0D8FD00B908BDFFF7ACFFEC1E002068
:103850000030014000B58FB000230A930B930C9306
:103860000D93089309930193029303930493059393
:103870000693079321484FF08042026043608360C3
:103880006422C2600361836103F056FB50BB4FF4B6
:1038900080530A930AA9194803F058FC20BB174823
:1038A00003F076FB10BB00230893099308A9134883
:1038B00003F022FFE0B960230193002202920392F9
:1038C000059201A90D4803F0C7FB98B9082201A988
:1038D0000A4803F0C1FB78B9084800F0F3FC0FB0C8
:1038E0005DF804FBFFF75EFFFFF75CFFFFF75AFF91
:1038F000FFF758FFFFF756FFFFF754FF8C1D00201E
:1039000000B58FB000230A930B930C930D9308938B
:1039100009930193029303930493059306930793EA
:103920002248234A0260436083604FF6FF72C26000
:103930000361836103F000FB58BB4FF480530A938B
:103940000AA91A4803F002FC28BB184803F020FB20
:1039500018BB00230893099308A9144803F0CCFE70
:10396000E8B960230193002202920392059201A913
:103970000E4803F071FBA0B904220DEB02010B48C5
:1039800003F06AFB78B9094800F09CFC0FB05DF8C1
:1039900004FBFFF707FFFFF705FFFFF703FFFFF744
:1039A00001FFFFF7FFFEFFF7FDFE00BF441D0020F3
:1039B0000004004000B58FB000230A930B930C93D2
:1039C0000D93089309930193029303930493059332
:1039D000069307932248234A0260192242608360BB
:1039E0004FF6E752C2600361836103F0A5FA58BB4A
:1039F0004FF480530A930AA9194803F0A7FB28BB88
:103A0000174803F0C5FA18BB00230893099308A9C7
:103A1000134803F071FEE8B960230193002202927B
:103A20000392059201A90E4803F016FBA0B90422E7
:103A30000DEB02010A4803F00FFB78B9084800F0CB
:103A400041FC0FB05DF804FBFFF7ACFEFFF7AAFEE8
:103A5000FFF7A8FEFFF7A6FEFFF7A4FEFFF7A2FE02
:103A6000FC1C00200008004008B50A480A4B03600F
:103A70004FF4E133436000238360C36003610C2291
:103A800042618361C36103F047FF00B908BDFFF7DE
:103A900089FE00BF681B0020004C004008B50A48A2
:103AA0000A4B03600A4B436000238360C3604FF4FA
:103AB0008042026143618361C361036201F026FCBD
:103AC00000B908BDFFF76EFE441F002000540040FF
:103AD000801A060008B50E480E4B03604FF482733F
:103AE000436000238360C3600222026101224261BD
:103AF0004FF4007282613822C261036243628362C2
:103B00000A23C36202F076FC00B908BDFFF74AFE43
:103B1000941E00200038004008B50A480A4B036094
:103B20004FF4E133436000238360C36003610C22E0
:103B300042618361C36103F0EFFE00B908BDFFF786
:103B400031FE00BFE01A00200014014008B509480A
:103B5000094B036059234360002383604FF6FF72D3
:103B6000C2600361836103F0E7F900B908BDFFF7A4
:103B700019FE00BFB41C00200044014008B50948EC
:103B8000094B036059234360002383604FF6FF72A3
:103B9000C2600361836103F0CFF900B908BDFFF78C
:103BA00001FE00BF6C1C00200048014000B595B02C
:103BB0003422002107A83CF035FE00230293039332
:103BC0000493059306930093224A116C41F08051AF
:103BD0001164126C02F080520092009A01931E4A06
:103BE000116841F440411160126802F440420192B0
:103BF000019A0222079201210A9110210B910D9244
:103C00000E9308230F93B4231093119212921392E0
:103C100007A802F0EFF8B0B901F044FFA8B90F23EC
:103C2000029302230393002304934FF4A0530593BC
:103C30004FF480530693052102A801F071FF30B9BB
:103C400015B05DF804FBFFF7ADFDFFF7ABFDFFF727
:103C5000A9FD00BF003802400070004070B500F0C0
:103C600031FDFFF7A3FFFFF785FBFFF753FCFFF7DD
:103C7000BBFDFFF7D3FDFFF7EDFDFFF741FEFFF7BB
:103C800099FEFFF7F1FEFFF709FFFFF723FFFFF7AC
:103C900043FFFFF75BFFFFF771FF8049804823F088
:103CA000ABFC23F041FB7F4C05212046FEF7DCF9FD
:103CB000FF23002211462046FEF7C2F97A48FEF79C
:103CC000B3FB7A48FFF7D0FA794803F00BF879484C
:103CD000FEF758FE7848FDF7E9FE7848FEF76AF9E6
:103CE00008B1FFF75FFD03217548FFF75CF908B1E4
:103CF000FFF758FD642000F011FD724D01224FF4D2
:103D00000061284601F0A0F80A2000F007FD00221B
:103D10004FF40061284601F097F800216A48FEF749
:103D200073FC0023FF2219465E48FEF789F9674CB1
:103D3000674E94F8D2123046FEF796F994F8D132D5
:103D400094F8D02294F8CF123046FEF779F956480D
:103D5000FEF76AFB5F49524823F04EFC23F0E4FA79
:103D600001220421284601F06FF821E0574C584DFC
:103D700094F8D2122846FEF777F994F8D13294F8E5
:103D8000D02294F8CF122846FEF75AF94648FEF79B
:103D90004BFB13E05048FEF727FC15E04848FFF7BF
:103DA00005FA17E04D48FEF706FD231F01221A70A1
:103DB000464B93F8FC3213F0010FD7D1434B93F8E5
:103DC000FC3213F0100FE5D1404B93F8FC3213F0A6
:103DD000020FE3D1424C21463948FFF717F904F2AC
:103DE0009A213448FEF7B2FE04F11C013348FDF776
:103DF000A3FF04F128013048FDF7F2FE3648FEF734
:103E000095FB14F8043C012B04D0022B38D0002B76
:103E1000CED1C7E72D4B93F8FA32C3B1022B21D193
:103E20002A4BB3F9B012B3F8F52293F8F732D01A4F
:103E3000814202DB1A4491421EDD244BB3F8F83272
:103E400099420FDC0F212548FEF74AFC0AE01F4C7F
:103E5000B4F9FE121C48FEF7D7FB94F9FD121F4877
:103E6000FEF73EFC194B93F8FC3213F0040F9FD081
:103E7000164B02221A709BE71848FEF736FCF1E752
:103E80001648FEF7A8FC114B93F8FC3213F0040F10
:103E90008ED10E4B00221A708AE700BF6011050810
:103EA00004240020F810002004110020A017002096
:103EB000B41C00207017002048170020581700205D
:103EC0006017002000000240E0100020E0170020F2
:103ED000EC1000207C1105088817002094100020A9
:103EE000E417002010B504460430FEF792FC20468B
:103EF00010BD10B504460830FEF78BFC204610BDFF
:103F000010B50446FEF7FBF8204610BD10B5044678
:103F10001C30FEF735F904F10C00FEF7F0F82046EE
:103F200010BD08B5FFF732FB08BD000082B00021CC
:103F300000910B4B5A6C42F480425A645A6C02F462
:103F400080420092009A01911A6C42F080521A64E9
:103F50001B6C03F080530193019B02B0704700BFBC
:103F60000038024030B589B00023039304930593D1
:103F7000069307930268144B9A4201D009B030BDF2
:103F800000250195114C236B43F002032363236B3F
:103F900003F002030193019B4FF440730393122338
:103FA0000493032306930423079303A9084800F00E
:103FB00057FE0295236C43F400132364236C03F42F
:103FC00000130293029BD9E70054004000380240DE
:103FD000000402402DE9F0418AB0002305930693C6
:103FE0000793089309930368594A934205D0594AA5
:103FF000934268D00AB0BDE8F081044600250095E0
:10400000554B5A6C42F480525A645A6C02F48052F6
:104010000092009A01951A6B42F001021A631B6B21
:1040200003F001030193019BE02305930223069310
:10403000032308930523099305A9484800F010FEBF
:104040004748484B03604FF0C06343608560C560DC
:104050004FF480630361456185614FF48073C361F0
:104060004FF480330362456200F05EFC28BB3C4B9A
:10407000E3649C633C483D4B03604FF0C063436086
:10408000402383600023C3604FF480620261436178
:104090008361C3614FF480320262436200F044FCEA
:1040A00070B9314BA3649C6300221146232000F0B9
:1040B0008FFB232000F09CFB9CE7FFF773FBD6E708
:1040C000FFF770FBEDE700240294234B1A6C42F4D7
:1040D00080421A641A6C02F480420292029A03949B
:1040E0001A6B42F004021A631A6B02F00402039284
:1040F000039A04941A6B42F002021A631B6B03F0DA
:1041000002030493049B0225059506950326089651
:1041100007230993DFF8588005A9404600F0A0FD69
:10412000042305930695079408960527099705A982
:10413000404600F095FD4FF4005305930695079413
:104140000896099705A90B4800F08AFD52E700BFC1
:1041500000300140003800400038024000000240BA
:10416000341E002010640240D41D002088640240E8
:10417000000802400004024010B586B00368B3F1A5
:10418000804F18D0464A934262D0464A93426DD03F
:10419000454A934277D0454A934265D1002305931F
:1041A000434B5A6C42F480225A645B6C03F48023C4
:1041B0000593059B58E00446002301933C4A116C8B
:1041C00041F001011164126C02F001020192019AA6
:1041D0003848394A02604FF0C06242604022826033
:1041E000C3604FF4806202614FF4805242614FF429
:1041F00080428261C3610362436200F095FB08BBA9
:104200002C4B63629C632D482D4B03604FF0C063C1
:104210004360402383600023C3604FF480620261E7
:104220004FF4805242614FF480428261C361036265
:10423000436200F079FB40B9204B23629C63E36248
:104240009C6311E0FFF7AEFADAE7FFF7ABFAF3E7AA
:1042500000230293164B1A6C42F002021A641B6C84
:1042600003F002030293029B06B010BD00230393E8
:104270000F4B1A6C42F004021A641B6C03F0040327
:104280000393039BF0E700230493094B5A6C42F419
:1042900000325A645B6C03F400330493049BE3E73D
:1042A0000004004000080040004401400048014074
:1042B000003802400C1C002088600240AC1B00202B
:1042C00028600240F0B58BB0002305930693079356
:1042D000089309930368B3F1804F07D0394A93429A
:1042E00034D0394A934254D00BB0F0BD002401942D
:1042F00003F50E331A6B42F002021A631A6B02F0D6
:1043000002020192019A02941A6B42F001021A63AE
:104310001B6B03F001030293029B4FF48063059330
:1043200002270697032608960125099505A927481F
:1043300000F096FC4FF40043059306970794089607
:10434000099505A9224800F08BFCCDE700250395CF
:10435000204B1A6B42F002021A631B6B03F002033C
:104360000393039B102305930224069403230893CD
:104370000994164E05A9304600F072FC20230593DF
:10438000069407950895099405A9304600F068FC45
:10439000AAE7002304930F4B1A6B42F002021A6340
:1043A0001B6B03F002030493049BC02305930223B9
:1043B000069303220892099305A9044800F050FCD3
:1043C00092E700BF000400400008004000040240E3
:1043D000000002400038024000B58DB00023079372
:1043E000089309930A930B9303683B4A934208D0BE
:1043F0003A4A934229D03A4A93424AD00DB05DF8E6
:1044000004FB00210191374B1A6C42F400221A641C
:104410001A6C02F400220192019A02911A6B42F086
:1044200004021A631B6B03F004030293029B4FF414
:10443000406307930223089303230A9308230B93F3
:1044400007A9294800F00CFCD8E700210391254B6F
:104450005A6C42F010025A645A6C02F01002039235
:10446000039A04911A6B42F001021A631B6B03F06A
:1044700001030493049B4FF4C06307930223089342
:1044800003230A9307230B9307A9184800F0E8FBBE
:10449000B4E700210591134B5A6C42F020025A6494
:1044A0005A6C02F020020592059A06911A6B42F0AE
:1044B00004021A631B6B03F004030693069BC023DC
:1044C00007930223089303230A9308230B9307A956
:1044D000054800F0C5FB91E7004C0040001001408A
:1044E0000014014000380240000802400000024071
:1044F000FEE7FEE7FEE7FEE7FEE77047704770471E
:1045000008B500F0F9F808BD08B5102000F0A4FCCB
:1045100008BD000008B5024800F0B4FA08BD00BFAD
:10452000AC1B002008B5024800F0ACFA08BD00BF83
:104530000C1C002008B5024802F074FA08BD00BF48
:10454000EC1E002008B5024800F09CFA08BD00BF30
:10455000341E002008B5024800F094FA08BD00BFE0
:10456000D41D00200120704708B53FF095FA1623AE
:1045700003604FF0FF3008BD08B54FF0FF31FFF783
:10458000F3FFFEE770B50C461646002506E0AFF3D4
:104590000080214601F8010B01350C46B542F6DBDF
:1045A000304670BD70B50C461646002504E014F880
:1045B000010BFFF7C7F80135B542F8DB304670BD97
:1045C0004FF0FF3070474FF400534B6000207047AE
:1045D000012070470020704710B503460C4A0D4972
:1045E0000D48006840B10C4800680344521A9342D9
:1045F00006D8094A136010BD0748084C0460F2E76A
:104600003FF04AFA0C2303604FF0FF30F3E700BF9E
:1046100000000220000400009C1F0020103B00202E
:1046200070470000DFF834D00D480E490E4A0023D1
:1046300002E0D458C4500433C4188C42F9D30B4A56
:104640000B4C002301E013600432A242FBD3FFF7BE
:10465000E7FF3FF093FAFFF701FB704700000220ED
:104660000000002078100020641F06087810002049
:104670000C3B0020FEE7000010B504460E4B1A78F4
:104680004FF47A73B3FBF2F30C4A1068B0FBF3F00B
:1046900000F0BCF868B90F2C01D901200AE0002213
:1046A00021464FF0FF3000F093F8054B1C600020CE
:1046B00000E0012010BD00BF0C0000200800002019
:1046C0001000002008B50B4B1A6842F400721A6003
:1046D0001A6842F480621A601A6842F480721A60A2
:1046E000032000F063F80F20FFF7C6FFFFF71EFC62
:1046F000002008BD003C0240034A1168034B1B78B0
:104700000B441360704700BFA01F00200C00002066
:10471000014B1868704700BFA01F002038B5044641
:10472000FFF7F6FF0546B4F1FF3F02D0044B1B78BC
:104730001C44FFF7EDFF401BA042FAD338BD00BF79
:104740000C000020002808DB0901C9B200F160401C
:1047500000F5614080F80013704700F00F00090178
:10476000C9B2014B1954704714ED00E000B500F0D8
:104770000700C0F1070CBCF1040F28BF4FF0040C78
:10478000031D062B0FD9C31E4FF0FF3E0EFA0CF08F
:1047900021EA000199400EFA03FE22EA0E0241EAE4
:1047A00002005DF804FB0023EEE70000074AD3682F
:1047B00023F4E0631B041B0C000200F4E0600343DD
:1047C00043F0BF6343F40033D360704700ED00E073
:1047D00010B50446054BD868C0F30220FFF7C6FFAA
:1047E00001462046FFF7AEFF10BD00BF00ED00E020
:1047F000002807DB00F01F02400901239340024A12
:1048000042F82030704700BF00E100E00138B0F10D
:10481000807F0BD24FF0E0235861054AF02182F8E7
:1048200023100020986107221A6170470120704709
:1048300000ED00E030B405682C6824F480242C607E
:10484000046863608368402B05D00368996003683F
:10485000DA6030BC704703689A600368D960F8E793
:1048600010B40368D9B21039094AA2FB01421209F7
:10487000084CA25CC2655F2906D96FF309030433B3
:104880008365806D10BC70476FF309038365F8E79B
:10489000ABAAAAAA242C0508836A826992B9012BC3
:1048A0000AD0022B02D00BB100207047C36A13F06C
:1048B000807F28D100207047C36AB3F1C07F24D025
:1048C00000207047B2F5005F09D0022B25D9032BD9
:1048D00025D1C36A13F0807F23D100207047032BBA
:1048E00003D8DFE803F01404140A00207047C36AF9
:1048F00013F0807F0DD100207047C36AB3F1C07FF1
:1049000009D0002070470120704701207047012026
:104910007047012070470120704701207047002038
:10492000704701207047000070B50446FFF7F0FEA5
:10493000002C5BD00546022384F83530002384F830
:1049400034302268136823F00103136023681A6867
:1049500012F0010F0AD0FFF7DBFE431B052BF5D940
:1049600020236365032084F8350070BD1A68204950
:1049700011406268A0680243E06802432069024374
:1049800060690243A0690243E0690243206A02436E
:104990000A43616A04291ED01A602668756925F0E9
:1049A0000705636A1D43042B07D1A36A1D43E36A0D
:1049B0001BB12046FFF770FF90B975612046FFF7E5
:1049C0004FFFE26D3F239340836000206065012329
:1049D00084F83530C9E7E16A206B01430A43DBE71D
:1049E00040236365012084F83500BEE70120BCE761
:1049F0003F8010F038B50446856D90F834000128EA
:104A00002BD0012084F8340094F83500C0B201287E
:104A100004D0002384F83430022038BD022084F80A
:104A20003500002060652046FFF704FFE26D3F235C
:104A30009340AB602268136843F016031360236C45
:104A400023B12268136843F00803136022681368D7
:104A500043F0010313600020DFE70220DDE790F858
:104A60003530DBB2022B03D0802343650120704731
:104A7000052380F835300268136823F001031360C2
:104A800000207047F0B583B0044600230193724BB9
:104A90001D68724BA3FB0535AD0A876D3E68C26D7C
:104AA00008239340334210D003681A6812F0040FB1
:104AB0000BD01A6822F004021A60C26D08239340DA
:104AC000BB60436D43F001034365E26D01239340F6
:104AD000334209D02268526912F0800F04D0BB60C3
:104AE000636D43F002036365E26D04239340334238
:104AF00009D02268126812F0020F04D0BB60636D07
:104B000043F004036365E26D10239340334224D0E5
:104B10002268126812F0080F1FD0BB6023681A6861
:104B200012F4802F0DD01B6813F4002F04D1236CD6
:104B30009BB12046984710E0A36C73B1204698477C
:104B40000BE01A6812F4807F03D11A6822F0080281
:104B50001A60236C0BB120469847E26D20239340E6
:104B6000334255D02268126812F0100F50D0BB604B
:104B700094F83530DBB2052B0ED023681A6812F496
:104B8000802F33D01B6813F4002F2AD1636C002BC5
:104B90003ED0204698473BE02268136823F0160376
:104BA00013602268536923F080035361236CA3B11F
:104BB0002268136823F008031360E26D3F239340DB
:104BC000BB60012384F83530002384F83430236D32
:104BD000002B3FD0204698473CE0A36C002BE7D148
:104BE000EBE7E36BA3B12046984711E01A6812F493
:104BF000807F09D11A6822F010021A60012384F81C
:104C00003530002384F83430E36B0BB120469847ED
:104C1000636DFBB1636D13F0010F17D0052384F8AA
:104C200035302268136823F001031360019B0133C0
:104C30000193AB4204D823681B6813F0010FF5D130
:104C4000012384F83530002384F83430E36C0BB151
:104C50002046984703B0F0BD08000020B5814E1BE8
:104C600000230F2B00F2E68030B583B068E0856842
:104C70004FEA430E032404FA0EF425EA0405CC6837
:104C800004FA0EF42C438460446824EA02044A685F
:104C9000C2F300129A40224342605FE0DC0808340D
:104CA00050F8242003F00705AD004FF00F0E0EFA68
:104CB00005FE22EA0E0E0A69AA4042EA0E0240F8F8
:104CC00024205FE0062200E0002202FA0EF22A43CE
:104CD0000234594D45F82420584A94686FEA0C0272
:104CE00024EA0C05D1F804E01EF4801F01D04CEA40
:104CF0000405524CA560E46802EA0405D1F804E01A
:104D00001EF4001F01D04CEA04054C4CE5606468B9
:104D100002EA0405D1F804E01EF4003F01D04CEA99
:104D20000405464C6560246822404D6815F4803FB8
:104D300001D04CEA0402414C226001330F2B77D89A
:104D400001229A400C6804EA020C32EA0404F4D10D
:104D50004C6804F00304013C012C88D94A6802F035
:104D60000302032A09D0C4685D000322AA4024EA92
:104D700002048A68AA402243C2604A6802F0030221
:104D8000022A8BD004684FEA430E032202FA0EF285
:104D900024EA02044A6802F0030202FA0EF22243F5
:104DA00002604A6812F4403FC7D000220192244AB0
:104DB000546C44F480445464526C02F48042019276
:104DC000019A9C08A51C1C4A52F8255003F0030EBA
:104DD0004FEA8E0E0F2202FA0EF225EA0205194A58
:104DE00090423FF471AF02F58062904216D002F516
:104DF0008062904214D002F58062904212D002F597
:104E00008062904210D002F5806290420ED002F58E
:104E1000806290423FF456AF072256E7012254E7E2
:104E2000022252E7032250E704224EE705224CE714
:104E300003B030BD704700BF00380140003C014066
:104E400000380240000002400AB181617047090445
:104E5000816170477047000008B5054B5B690342EC
:104E600000D108BD024B5861FFF7F4FFF9E700BF1E
:104E7000003C014003685A6912F4806F01D10020A0
:104E800070476FF480625A6100230363202280F828
:104E90003D2080F83E30026C42F00402026480F84B
:104EA0003C30012070472DE9F04107460D46904601
:104EB0001E4624E0FFF72CFC069BC01AB04200D827
:104EC000EEB900233B63202287F83D2087F83E306F
:104ED0003A6C42F020023A6487F83C3001201EE030
:104EE0003B689C6925EA040C1FFA8CFCBCFA8CFC1C
:104EF0004FEA5C1CE04511D1B6F1FF3FDAD1C5F3B2
:104F00000743012BECD13B685B6925EA030C1FFAD0
:104F10008CFCBCFA8CFC4FEA5C1CEBE70020BDE883
:104F2000F0812DE9F04105460E46174698463DE0D2
:104F30001A6842F400721A602B686FF480625A613A
:104F400000232B63202285F83D2085F83E302A6C13
:104F500042F004022A6485F83C30012034E0FFF777
:104F6000D7FBA0EB0800B84200D8FFB900232B63A1
:104F7000202285F83D2085F83E302A6C42F0200240
:104F80002A6485F83C3001201EE02B689C6926EAE3
:104F90000404A4B2003C18BF0124A4B12B685A69D0
:104FA00012F4806FC4D1B7F1FF3FD8D1C6F30743E5
:104FB000012BEAD12B685C6926EA0404A4B2003C08
:104FC00018BF0124E9E70020BDE8F08170B5044670
:104FD0000D46164623685B6913F0800F1CD12046EE
:104FE000FFF748FFD0B9B5F1FF3FF3D0FFF790FBD3
:104FF000801BA84201D8002DECD10023236320227E
:1050000084F83D2084F83E30226C42F02002226475
:1050100084F83C30012000E0002070BD0120FCE756
:105020002DE9F04385B004460D4691461F46DDF854
:1050300030800D9E0368196841F4807119600096F4
:10504000434600224FF00111FFF72DFF60B923689E
:1050500005F0FE051D613346424626492046FFF70E
:1050600060FF68B1012008E023681B6813F4807FAB
:1050700002D04FF400732364032005B0BDE8F08331
:105080000023039323685A6903929B690393039B4C
:10509000324641462046FFF799FF30B9012F0FD124
:1050A00023685FFA89F61E61E7E7236C042B01D0C1
:1050B0000120E2E72268136843F400731360F7E706
:1050C00023684FEA19221A61324641462046FFF70B
:1050D0007DFF20B923685FFA89F61E61CDE7236C56
:1050E000042B01D00120C8E72268136843F4007341
:1050F0001360F7E7020001002DE9F04784B0044691
:105100000D46164699460C9FDDF8348002681368F8
:1051100043F4806313600368196841F48071196077
:10512000CDF800803B4600224FF00111FFF7BBFE97
:1051300070B95FFA85FA236805F0FE051D614346E4
:105140003A4641492046FFF7ECFE68B1012008E0ED
:1051500023681B6813F4807F02D04FF4007323642C
:10516000032004B0BDE8F0870023039323685A6945
:1051700003929B690393039B424639462046FFF7FF
:1051800025FF80B9B9F1010F18D12368F6B21E616D
:10519000424639462046FFF719FF68B3236C042BBB
:1051A00024D00120DDE7236C042B01D00120D8E7B7
:1051B0002268136843F400731360F7E72368320A28
:1051C0001A61424639462046FFF700FF18B92368A6
:1051D000F6B21E61DCE7236C042B01D00120C0E78E
:1051E0002268136843F400731360F7E722681368BA
:1051F00043F400731360D4E72268136843F48073A8
:105200001360CDF800803B4600224FF0011120468C
:10521000FFF749FE68B922684AF00103136143466B
:105220003A4609492046FFF77CFE002899D0012024
:1052300097E723681B6813F4807F02D04FF4007354
:10524000236403208DE700BF0200010070B504460F
:105250000D46164623685B6913F0040F1CD12046E7
:10526000FFF708FED0B9B5F1FF3FF3D0FFF750FAD2
:10527000801BA84201D8002DECD1002323632022FB
:1052800084F83D2084F83E30226C42F020022264F3
:1052900084F83C30012000E0002070BD0120FCE7D4
:1052A00070B505460C4616462B68596911F0400F3B
:1052B00029D1596911F0100F15D1FFF729FA801B78
:1052C000A04201D8002CEFD100232B63202285F8C7
:1052D0003D2085F83E302A6C42F020022A6485F891
:1052E0003C30012070BD6FF010025A6100232B6327
:1052F000202285F83D2085F83E302A6C2A6485F806
:105300003C300120EEE70020ECE70000002800F030
:10531000CC8070B5044690F83D30002B77D0242324
:1053200084F83D302268136823F00103136022687B
:10533000136843F4004313602268136823F40043A6
:10534000136000F0A3FC62685A4B9A4264D85A4B2F
:1053500098428CBF00230123002B40F0A8805749BE
:10536000A1FB00318B0C25686A6822F03F0242EAFB
:1053700091426A6021680A6A22F03F0266684D4DD8
:10538000AE424FD8013313430B622168CA6922F43D
:105390004F4222F0FF026568464B9D424CD8431EA7
:1053A0006D00B3FBF5F3013340F6FC70034278D097
:1053B000C3F30B031A43CA6121680B6823F0C003CF
:1053C000E269206A024313430B6021688B6823F46F
:1053D000034323F0FF032269E068024313438B6019
:1053E0002168CB6823F0FF036269A069024313437D
:1053F000CB602268136843F001031360002020642F
:10540000202384F83D30206384F83E0070BD80F88E
:105410003C30FEF7A7FD82E7294B98428CBF002362
:10542000012399E74FF4967505FB03F3254DA5FB82
:1054300003539B090133A6E7A668BEB9431E05EBDB
:10544000450CB3FBFCF30133C3F30B03B3FA83F353
:105450005B0943BBC6B9431E05EB4505B3FBF5F33A
:105460000133C3F30B0343F40043A3E7431E05EBEF
:10547000850C0CEB8C0CB3FBFCF30133C3F30B0377
:10548000B3FA83F35B09E4E7431E05EB850505EBFF
:105490008505B3FBF5F30133C3F30B0343F440433A
:1054A00088E7042386E7012384E701207047012071
:1054B000ACE700BFA08601007F841E0083DE1B4393
:1054C000FF083D00D34D62102DE9F04383B0044640
:1054D0000F46904699460C9EFFF71AF9054694F838
:1054E0003D00C0B2202803D0022003B0BDE8F08305
:1054F0000095192301224B492046FFF7D4FC0028D0
:1055000040F0898094F83C30012B00F08680012324
:1055100084F83C3023681A6812F0010F03D11A682E
:1055200042F001021A602268136823F400631360DA
:10553000212384F83D30402384F83E300023236447
:105540000A9B6362BDF82C306385638D2385364BDF
:10555000E362019500964B46424639462046FFF7E6
:105560005FFD00285BD1238D002B35D02A463146C4
:105570002046FFF72BFD20BB626A236812781A6170
:10558000626A531C6362218D013989B22185638D62
:105590009BB2013B9BB263852368586910F0040FEE
:1055A000E1D00029DFD052781A61636A0133636267
:1055B000238D013B2385638D9BB2013B9BB26385A9
:1055C000D1E7236C042B01D001208EE722681368F9
:1055D00043F400731360F7E72A4631462046FFF78D
:1055E00035FE50B1236C042B01D001207DE72268E9
:1055F000136843F400731360F7E72268136843F4F9
:1056000000731360202384F83D30002384F83E307B
:1056100084F83C3069E7022067E7022065E7012053
:1056200063E700BF020010000000FFFF2DE9F04318
:1056300087B004460F4690469946109EFFF768F8DB
:10564000054694F83D00C0B2202804D00227384611
:1056500007B0BDE8F0830095192301228849204650
:10566000FFF721FC002840F0438194F83C30012BE7
:1056700000F04081012384F83C3023681A6812F05E
:10568000010F03D11A6842F001021A602268136800
:1056900023F400631360222384F83D30402384F810
:1056A0003E30002323640E9B6362BDF83C3063856B
:1056B000638D2385734BE362019500964B4642460A
:1056C00039462046FFF718FD0746002840F01481B0
:1056D000238D5BB9029323685A6902929A690292F8
:1056E000029A1A6842F400721A6075E0012B0AD01F
:1056F000022B1AD00023059323685A6905929B69EF
:105700000593059B68E02268136823F480631360A7
:105710000023039323685A6903929A690392039AB8
:105720001A6842F400721A6056E02268136823F483
:10573000806313602268136843F4006313600023DE
:10574000049323685A6904929B690493049B43E081
:105750002A4631462046FFF7A3FD002840F0CE80C0
:1057600023681A69636A1A70636A01336362238D5E
:10577000013B2385638D9BB2013B9BB263852BE08C
:1057800000953346002240492046FFF78CFB002855
:1057900040F0B6802268136843F4007313602368F6
:1057A0001A69636A1A70626A531C6362238D013B33
:1057B0002385638D9BB2013B9BB2638523681B6984
:1057C0005370636A01336362238D013B2385638DCC
:1057D0009BB2013B9BB26385238D002B7FD0032BB3
:1057E00054D8012BB4D0022BCAD0009533460022E6
:1057F00025492046FFF757FB002840F083802268A8
:10580000136823F48063136023681A69636A1A704B
:10581000636A01336362238D013B2385638D9BB2F1
:10582000013B9BB263850095334600221649204612
:10583000FFF739FB002867D12268136843F400732F
:10584000136023681A69636A1A70626A531C636280
:10585000238D013B2385638D9BB2013B9BB2638506
:1058600023681B695370636A01336362238D013BB4
:105870002385638D9BB2013B9BB26385ACE700BF80
:10588000020010000000FFFF040001002A4631461C
:105890002046FFF705FD002838D123681A69636A9E
:1058A0001A70626A531C6362238D013B2385638DEA
:1058B0009BB2013B9BB263852368596911F0040FC9
:1058C0008AD01B695370636A01336362238D013B85
:1058D0002385638D9BB2013B9BB263857CE72023CC
:1058E00084F83D30002384F83E3084F83C30AEE646
:1058F0000227ACE60227AAE60127A8E60127A6E6CA
:105900000127A4E60127A2E60127A0E601279EE6DB
:105910002DE9F04385B00446884691461D46FEF7C2
:10592000F7FE94F83D30DBB2202B03D0022005B007
:10593000BDE8F0830646009019230122574920460E
:10594000FFF7B1FA002840F0A08094F83C30012B1A
:1059500000F09D80012384F83C3023681A6812F01F
:10596000010F03D11A6842F001021A60226813681D
:1059700023F400631360242384F83D300027276458
:10598000474BE36240E023681B6813F4807F02D03A
:105990004FF4007323640320C9E7A02384F83D304B
:1059A00022685369C3F340035269C2F3802294F81A
:1059B0003DC05FFA8CFCBCF1A00F09D043B93AB9E5
:1059C000FEF7A6FE801BA842E7D8002DE8D1E4E749
:1059D000202384F83D3023685A6912F0020F31D138
:1059E0001A6842F400721A6023686FF480625A6188
:1059F00000961923012229492046FFF754FA00286E
:105A000049D101374F4538D22268136843F4807377
:105A1000136000962B4600224FF001112046FFF73D
:105A200042FA0028AFD1236808F0FE021A61FEF79F
:105A30006FFE064622685369C3F340035269C2F3FE
:105A40008022B4E71A6842F400721A6000230393BC
:105A500023685A6903929B690393039B0096192359
:105A600001220E492046FFF71EFA90B9202384F840
:105A70003D30002384F83C3059E7202384F83D3042
:105A8000002384F83C30012051E702204FE7022038
:105A90004DE701204BE7012049E700BF020010005D
:105AA0000000FFFF10B582B000230193194B1A6C60
:105AB00042F080521A641B6C03F080530193019BE7
:105AC000154B01221A64FEF723FE0446134B5B6854
:105AD00013F4803F08D1FEF71BFE001BB0F57A7F60
:105AE000F4D9032002B010BD0B4B01225A64FEF71B
:105AF0000FFE0446094B5B6813F4003F07D1FEF725
:105B000007FE001BB0F57A7FF4D90320EAE70020F6
