:020000040800F2
:1000000000000220B1390008893800088B38000848
:100010008D3800088F380008913800080000000073
:1000200000000000000000000000000093380008FD
:10003000953800080000000097380008993800083B
:10004000013A0008013A0008013A0008013A0008A4
:10005000013A0008013A0008013A0008013A000894
:10006000013A0008013A0008013A0008013A000884
:10007000A1380008013A0008013A0008013A0008D6
:10008000B1380008013A0008013A0008013A0008B6
:10009000013A0008013A0008013A0008013A000854
:1000A000013A0008013A0008013A0008013A000844
:1000B000013A0008013A0008013A0008013A000834
:1000C000013A0008013A0008013A0008C138000866
:1000D000013A0008013A0008013A0008013A000814
:1000E000013A0008013A0008013A0008013A000804
:1000F000013A0008013A0008013A0008013A0008F4
:10010000013A0008013A0008013A0008013A0008E3
:10011000013A0008013A0008013A0008013A0008D3
:10012000013A0008013A0008D1380008E138000817
:10013000013A00080000000000000000013A000839
:10014000013A0008013A0008013A0008013A0008A3
:10015000013A0008013A0008013A0008013A000893
:10016000013A0008013A0008013A0008013A000883
:10017000013A0008013A0008013A000800000000B6
:1001800000000000013A000800000000000000002C
:10019000013A00080000000000000000013A0008D9
:1001A000000000000000000000000000013A00080C
:1001B000013A0008013A0008013A0008013A000833
:0401C000013A0008F8
:1002000081F0004102E000BF83F0004330B54FEAC7
:1002100041044FEA430594EA050F08BF90EA020F34
:100220001FBF54EA000C55EA020C7FEA645C7FEAC7
:10023000655C00F0E2804FEA5454D4EB5555B8BFEA
:100240006D420CDD2C4480EA020281EA030382EA5B
:10025000000083EA010180EA020281EA0303362DED
:1002600088BF30BD11F0004F4FEA01314FF4801CC0
:100270004CEA113102D0404261EB410113F0004FD2
:100280004FEA03334CEA133302D0524263EB430389
:1002900094EA050F00F0A780A4F10104D5F1200E27
:1002A0000DDB02FA0EFC22FA05F2801841F1000182
:1002B00003FA0EF2801843FA05F359410EE0A5F156
:1002C00020050EF1200E012A03FA0EFC28BF4CF087
:1002D000020C43FA05F3C01851EBE37101F000453D
:1002E00007D54FF0000EDCF1000C7EEB00006EEB4A
:1002F0000101B1F5801F1BD3B1F5001F0CD34908D4
:100300005FEA30004FEA3C0C04F101044FEA44522A
:1003100012F5800F80F09A80BCF1004F08BF5FEAB1
:10032000500C50F1000041EB045141EA050130BD91
:100330005FEA4C0C404141EB0101013C28BFB1F5A3
:10034000801FE9D291F0000F04BF01460020B1FAEE
:1003500081F308BF2033A3F10B03B3F120020CDAC1
:100360000C3208DD02F1140CC2F10C0201FA0CF09F
:1003700021FA02F10CE002F11402D8BFC2F1200C04
:1003800001FA02F120FA0CFCDCBF41EA0C019040BA
:10039000E41AA2BF01EB0451294330BD6FEA040403
:1003A0001F3C1CDA0C340EDC04F11404C4F12002EE
:1003B00020FA04F001FA02F340EA030021FA04F300
:1003C00045EA030130BDC4F10C04C4F1200220FA57
:1003D00002F001FA04F340EA0300294630BD21FA95
:1003E00004F0294630BD94F0000F83F4801306BF5B
:1003F00081F480110134013D4EE77FEA645C18BF4F
:100400007FEA655C29D094EA050F08BF90EA020FE5
:1004100005D054EA000C04BF1946104630BD91EADD
:10042000030F1EBF0021002030BD5FEA545C05D1E0
:100430004000494128BF41F0004130BD14F580041F
:100440003CBF01F5801130BD01F0004545F0FE4193
:1004500041F470014FF0000030BD7FEA645C1ABFC8
:10046000194610467FEA655C1CBF0B46024650EAFF
:10047000013406BF52EA033591EA030F41F400212B
:1004800030BD00BF90F0000F04BF0021704730B5B1
:100490004FF4806404F132044FF000054FF0000186
:1004A00050E700BF90F0000F04BF0021704730B547
:1004B0004FF4806404F1320410F0004548BF40421C
:1004C0004FF000013EE700BF42004FEAE2014FEA71
:1004D00031014FEA02701FBF12F07F4393F07F4F4C
:1004E00081F06051704732F07F4208BF704793F04F
:1004F0007F4F04BF41F40021704730B54FF4607462
:1005000001F0004521F000411CE700BF50EA010264
:1005100008BF704730B54FF000050AE050EA01020D
:1005200008BF704730B511F0004502D5404261EB7D
:1005300041014FF4806404F132045FEA915C3FF4BE
:10054000D8AE4FF003025FEADC0C18BF03325FEA5B
:10055000DC0C18BF033202EBDC02C2F1200300FA0C
:1005600003FC20FA02F001FA03FE40EA0E0021FA31
:1005700002F11444BDE600BF4FF0FF3C06E000BFAF
:100580004FF0010C02E000BF4FF0010C4DF804CD1C
:100590004FEA410C7FEA6C5C4FEA430C18BF7FEADC
:1005A0006C5C1BD001B050EA410C0CBF52EA430C0A
:1005B00091EA030F02BF90EA020F0020704710F18A
:1005C000000F91EA030F58BF994208BF90422CBF19
:1005D000D8176FEAE37040F0010070474FEA410C12
:1005E0007FEA6C5C02D150EA013C07D14FEA430C30
:1005F0007FEA6C5CD6D152EA033CD3D05DF8040BA1
:10060000704700BF8446104662468C4619466346D2
:1006100000E000BF01B5FFF7B7FF002848BF10F1A9
:10062000000F01BD4DF808EDFFF7F4FF0CBF0120EE
:1006300000205DF808FB00BF4DF808EDFFF7EAFF6A
:1006400034BF012000205DF808FB00BF4DF808ED25
:10065000FFF7E0FF94BF012000205DF808FB00BF1A
:100660004DF808EDFFF7CEFF94BF012000205DF8A4
:1006700008FB00BF4DF808EDFFF7C4FF34BF0120B1
:1006800000205DF808FB00BF80F0004002E000BFE2
:1006900081F0004142001FBF5FEA410392EA030F6D
:1006A0007FEA226C7FEA236C6AD04FEA1262D2EBB7
:1006B0001363C1BFD218414048404140B8BF5B42BC
:1006C000192B88BF704710F0004F40F4000020F055
:1006D0007F4018BF404211F0004F41F4000121F06B
:1006E0007F4118BF494292EA030F3FD0A2F10102B5
:1006F00041FA03FC10EB0C00C3F1200301FA03F1F3
:1007000000F0004302D5494260EB4000B0F5000F15
:1007100013D3B0F1807F06D340084FEA310102F1D4
:100720000102FE2A51D2B1F1004F40EBC25008BF86
:1007300020F0010040EA03007047490040EB000050
:10074000013A28BFB0F5000FEDD2B0FA80FCACF151
:10075000080CB2EB0C0200FA0CF0AABF00EBC2507E
:1007600052421843BCBFD0401843704792F0000F6C
:1007700081F4000106BF80F400000132013BB5E7BF
:100780004FEA41037FEA226C18BF7FEA236C21D035
:1007900092EA030F04D092F0000F08BF084670479A
:1007A00090EA010F1CBF0020704712F07F4F04D168
:1007B000400028BF40F00040704712F100723CBF7B
:1007C00000F50000704700F0004343F0FE4040F4A5
:1007D000000070477FEA226216BF08467FEA236363
:1007E0000146420206BF5FEA412390EA010F40F44E
:1007F000800070474FF0000304E000BF10F000439A
:1008000048BF40425FEA000C08BF704743F0964380
:1008100001464FF000001CE050EA010208BF70479B
:100820004FF000030AE000BF50EA010208BF704722
:1008300011F0004302D5404261EB41015FEA010C37
:1008400002BF84460146002043F0B64308BFA3F12F
:100850008053A3F50003BCFA8CF2083AA3EBC25311
:1008600010DB01FA02FC634400FA02FCC2F1200230
:10087000BCF1004F20FA02F243EB020008BF20F067
:100880000100704702F1200201FA02FCC2F12002CD
:1008900050EA4C0021FA02F243EB020008BF20EAC2
:1008A000DC7070474FF0FF0C1CEAD0521EBF1CEAF0
:1008B000D15392EA0C0F93EA0C0F6FD01A4480EADE
:1008C000010C400218BF5FEA41211ED04FF00063C7
:1008D00043EA501043EA5111A0FB01310CF00040F3
:1008E000B1F5000F3EBF490041EAD3715B0040EA19
:1008F000010062F17F02FD2A1DD8B3F1004F40EBE9
:10090000C25008BF20F00100704790F0000F0CF0BB
:10091000004C08BF49024CEA502040EA51207F3A7F
:10092000C2BFD2F1FF0340EAC250704740F400005A
:100930004FF00003013A5DDC12F1190FDCBF00F04B
:1009400000407047C2F10002410021FA02F1C2F1F9
:10095000200200FA02FC5FEA310040F1000053EA95
:100960004C0308BF20EADC70704792F0000F00F0E3
:10097000004C02BF400010F4000F013AF9D040EAE9
:100980000C0093F0000F01F0004C02BF490011F47D
:10099000000F013BF9D041EA0C018FE70CEAD1537B
:1009A00092EA0C0F18BF93EA0C0F0AD030F0004CFB
:1009B00018BF31F0004CD8D180EA010000F00040AF
:1009C000704790F0000F17BF90F0004F084691F06D
:1009D000000F91F0004F14D092EA0C0F01D14202A7
:1009E0000FD193EA0C0F03D14B0218BF084608D170
:1009F00080EA010000F0004040F0FE4040F40000BA
:100A0000704740F0FE4040F4400070474FF0FF0C4C
:100A10001CEAD0521EBF1CEAD15392EA0C0F93EA93
:100A20000C0F69D0A2EB030280EA010C49024FEAE5
:100A3000402037D04FF0805343EA111143EA10139E
:100A40000CF000408B4238BF5B0042F17D024FF456
:100A5000000C8B4224BF5B1A40EA0C00B3EB510F31
:100A600024BFA3EB510340EA5C00B3EB910F24BF1A
:100A7000A3EB910340EA9C00B3EBD10F24BFA3EB9F
:100A8000D10340EADC001B0118BF5FEA1C1CE0D167
:100A9000FD2A3FF650AF8B4240EBC25008BF20F01A
:100AA000010070470CF0004C4CEA50207F32C2BF6E
:100AB000D2F1FF0340EAC250704740F400004FF00B
:100AC0000003013A37E792F0000F00F0004C02BF3C
:100AD000400010F4000F013AF9D040EA0C0093F006
:100AE000000F01F0004C02BF490011F4000F013B60
:100AF000F9D041EA0C0195E70CEAD15392EA0C0FC8
:100B000008D142027FF47DAF93EA0C0F7FF470AFFF
:100B1000084676E793EA0C0F04D14B023FF44CAF42
:100B200008466EE730F0004C18BF31F0004CCAD1D7
:100B300030F000427FF45CAF31F000437FF43CAF13
:100B40005FE700BF4FF0FF3C06E000BF4FF0010C35
:100B500002E000BF4FF0010C4DF804CD4FEA400217
:100B60004FEA41037FEA226C18BF7FEA236C11D061
:100B700001B052EA530C18BF90EA010F58BFB2EB14
:100B8000030088BFC81738BF6FEAE17018BF40F094
:100B9000010070477FEA226C02D15FEA402C05D148
:100BA0007FEA236CE4D15FEA412CE1D05DF8040BCD
:100BB000704700BF844608466146FFE70FB5FFF760
:100BC000C9FF002848BF10F1000F0FBD4DF808ED18
:100BD000FFF7F4FF0CBF012000205DF808FB00BF09
:100BE0004DF808EDFFF7EAFF34BF012000205DF863
:100BF00008FB00BF4DF808EDFFF7E0FF94BF0120B0
:100C000000205DF808FB00BF4DF808EDFFF7D2FFAC
:100C100094BF012000205DF808FB00BF4DF808EDEF
:100C2000FFF7C8FF34BF012000205DF808FB00BFBC
:100C300042000ED2B2F1FE4F0BD34FF09E03B3EB46
:100C4000126209D44FEA002343F0004323FA02F072
:100C500070474FF00000704712F1610F01D142025E
:100C600002D14FF0FF3070474FF00000704700BFD7
:100C700053B94AB9002908BF00281CBF4FF0FF3103
:100C80004FF0FF3000F0E2B8ADF1080C6DE904CE92
:100C900039F0ACFADDF804E0DDE9022304B0704776
:100CA00000F1340191E838009C46A6464CF8045DFA
:100CB00090E8FF0FE54600BD90EC210B704700BFA8
:100CC00080EC210B704700BF90EC200B704700BFF9
:100CD00080EC200B704700BFD0EC200B704700BFAA
:100CE000C0EC200B704700BFF0EC0201F0EC0211E9
:100CF000F0EC0221F0EC0231F0EC0241F0EC025198
:100D0000F0EC0261F0EC0271F0EC0281F0EC029187
:100D1000F0EC02A1F0EC02B1F0EC02C1F0EC02D177
:100D2000F0EC02E1F0EC02F1704700BFE0EC0201F0
:100D3000E0EC0211E0EC0221E0EC0231E0EC0241D7
:100D4000E0EC0251E0EC0261E0EC0271E0EC0281C7
:100D5000E0EC0291E0EC02A1E0EC02B1E0EC02C1B7
:100D6000E0EC02D1E0EC02E1E0EC02F1704700BF00
:100D7000B0FC0181B0FC0191B0FC01A1B0FC01B15B
:100D8000704700BFA0FC0181A0FC0191A0FC01A163
:100D9000A0FC01B1704700BFEC4600B52DE9005042
:100DA0002DE9FF1F4FF000032DE90C0001A939F0D8
:100DB000D7FCDDF840E012B0704700BFEC4600B54C
:100DC0002DE900502DE9FF1F4FF000032DE90C0025
:100DD00001A939F001FDDDF840E012B0704700BF15
:100DE000EC4600B52DE900502DE9FF1F4FF0000340
:100DF0002DE90C0001A939F011FDDDF840E012B039
:100E0000704700BFEC4600B52DE900502DE9FF1FEB
:100E10004FF000032DE90C0001AB39F0D5FCDDF8F3
:100E200040E012B0704700BFEC4600B52DE900501D
:100E30002DE9FF1F4FF000032DE90C0001AA39F046
:100E40004DFDDDF840E012B0704700BF704700BFB5
:100E50000000000000000000000000000000000092
:100E600002780B78012A28BF9A4240F0D8806DE9B9
:100E7000044540EA0104CDE902676FF0000C4FEA37
:100E800044721AB380EA010414F0070F6BD100F02A
:100E9000070420F0070004F0030521F007014FEAE2
:100EA000C505F0E8042314F0040FF1E804670CFA18
:100EB00005F462EA040266EA04060BD063EA04035E
:100EC000624667EA0407664604E000BFF0E80423D0
:100ED000F1E8046782FA4CF582EA0604A4FA8CF47D
:100EE0006CBB83FA4CF583EA0705A5FA8CF595B936
:100EF00050E9022351E9026782FA4CF582EA0604BE
:100F0000A4FA8CF483FA4CF583EA0705A5FA8CF56C
:100F10002543DBD09CB92DBAB5FA85F424F007043B
:100F200027FA04F1DDE9026723FA04F303F0FF0076
:100F300001F0FF01FDE80445A0EB0100704724BA71
:100F4000B4FA84F424F0070426FA04F1DDE9026718
:100F500022FA04F202F0FF0001F0FF01FDE804456F
:100F6000A0EB0100704714F0030F3CD110F0030414
:100F700028D150F8082B51F8083B82FA4CF582EA48
:100F80000305A5FA8CF55DB950F8042C51F8043C22
:100F900082FA4CF582EA0305A5FA8CF5002DE8D01B
:100FA0002DBAB5FA85F424F0070423FA04F122FAE5
:100FB00004F202F0FF0001F0FF01FDE80445A0EBA0
:100FC000010070474FEAC40420F0030050F8082BDA
:100FD00021F0030151F8083B0CFA04F462EA040220
:100FE00063EA0403C9E710F003041DD0A1EB040178
:100FF00020F00300E40750F8042B06D012D28B78BF
:101000005FFAA2F4E41A06D12BB1CB785FFAB2F4FE
:10101000E41A00D133B920465DF8104B7047A2EBBB
:101020000300704701F1040150F8042BCC0721F0B4
:10103000030151F8043B48D824D222F07F4482FABD
:101040004CF594EA1325A5FA8CF50AD165B951F847
:10105000043B84EA0204B4EB036F0ED150F8042B76
:10106000EBE74FEA132355E035F07F454DD1087883
:10107000FDE80445C0F1000070474FEA126203F03A
:10108000FF0347E002EA1C4482FA4CF594EA134558
:10109000A5FA8CF50AD165B951F8043B84EA02043B
:1010A000B4EB034F0CD150F8042BEBE74FEA13439A
:1010B00030E015EA1C4528D10B884FEA124229E09E
:1010C0004FEA124203EA1C4324E002F0FF0482FAD2
:1010D0004CF594EA1365A5FA8CF50AD165B951F877
:1010E000043B84EA0204B4EB032F09D150F8042B2B
:1010F000EBE74FEA13630DE015F0FF0F05D10B6826
:101100004FEA122223F07F4304E04FF00000FDE895
:101110000445704712BA1BBA82FA4CF482EA0304FF
:10112000A4FA8CF5B5FA85F402FA04F203FA04F392
:101130004FEA1260FDE80445A0EB1360704700BF62
:1011400001F0FF01102A2BDB10F0070F08D010F878
:10115000013B013A8B422DD010F0070F42B3F6D17C
:10116000F0B441EA012141EA014122F007047FF095
:1011700000070023F0E80256083C85EA010586EAEC
:10118000010685FA47F5A3FA87F586FA47F6A5FA28
:1011900087F68EB9EED1F0BC01F0FF0102F0070234
:1011A00032B110F8013B013A83EA010313B1F8D1DF
:1011B0000020704701387047002D06BF35460338C0
:1011C000073815F0010F07D1013015F4807F02BFF9
:1011D000013015F4C03F0130F0BC0138704700BF4A
:1011E000844641EA000313F003036DD1403A41D332
:1011F00051F8043B40F8043B51F8043B40F8043BF1
:1012000051F8043B40F8043B51F8043B40F8043BE0
:1012100051F8043B40F8043B51F8043B40F8043BD0
:1012200051F8043B40F8043B51F8043B40F8043BC0
:1012300051F8043B40F8043B51F8043B40F8043BB0
:1012400051F8043B40F8043B51F8043B40F8043BA0
:1012500051F8043B40F8043B51F8043B40F8043B90
:1012600051F8043B40F8043B51F8043B40F8043B80
:10127000403ABDD2303211D351F8043B40F8043B20
:1012800051F8043B40F8043B51F8043B40F8043B60
:1012900051F8043B40F8043B103AEDD20C3205D330
:1012A00051F8043B40F8043B043AF9D2043208D028
:1012B000D2071CBF11F8013B00F8013B01D30B889A
:1012C00003806046704700BF082A13D38B078DD078
:1012D00010F003038AD0C3F10403D21ADB071CBF4A
:1012E00011F8013B00F8013B80D331F8023B20F8B4
:1012F000023B7BE7043AD9D3013A11F8013B00F8ED
:10130000013BF9D20B7803704B7843708B78837074
:101310006046704700000000000000000000000070
:1013200000000000000000000000000000000000BD
:1013300000000000000000000000000000000000AD
:1013400030B490F800F020F007016FF0000C10F0BE
:10135000070491F820F040F048804FF000046FF04F
:101360000700D1E9002391F840F000F1080082FA6B
:101370004CF2A4FA8CF283FA4CF3A2FA8CF34BBB36
:10138000D1E9022382FA4CF200F10800A4FA8CF2AF
:1013900083FA4CF3A2FA8CF3E3B9D1E9042382FA7D
:1013A0004CF200F10800A4FA8CF283FA4CF3A2FA92
:1013B0008CF37BB9D1E9062301F1200182FA4CF2CA
:1013C00000F10800A4FA8CF283FA4CF3A2FA8CF331
:1013D000002BC6D0002A04BF04301A4612BAB2FA53
:1013E00082F200EBD20030BC7047D1E9002304F058
:1013F0000305C4F100004FEAC50514F0040F91F88D
:1014000040F00CFA05F562EA05021CBF63EA050329
:1014100062464FF00004AAE770B54FF0FF0C4CF4A1
:10142000E06C1CEA11541DBF1CEA135594EA0C0F22
:1014300095EA0C0F00F0DEF82C4481EA030621EA5D
:101440004C5123EA4C5350EA013518BF52EA033598
:1014500041F4801143F4801338D0A0FB02CE4FF04A
:101460000005E1FB02E506F00042E0FB03E54FF07A
:101470000006E1FB03569CF0000F18BF4EF0010E72
:10148000A4F1FF04B6F5007F64F5407404D25FEA6E
:101490004E0E6D4146EB060642EAC62141EA555121
:1014A0004FEAC52040EA5E504FEACE2EB4F1FD0C63
:1014B00088BFBCF5E06F1ED8BEF1004F08BF5FEAE1
:1014C000500E50F1000041EB045170BD06F0004693
:1014D00046EA010140EA020081EA0301B4EB5C0440
:1014E000C2BFD4EB0C0541EA045170BD41F4801138
:1014F0004FF0000E013C00F3AB8014F1360FDEBF5D
:10150000002001F0004170BDC4F10004203C35DA38
:101510000C341BDC04F11404C4F1200500FA05F3BB
:1015200020FA04F001FA05F240EA020001F000425C
:1015300021F0004110EBD37021FA04F642EB0601D2
:101540005EEA430E08BF20EAD37070BDC4F10C04FC
:10155000C4F1200500FA04F320FA05F001FA04F2C0
:1015600040EA020001F0004110EBD37041F10001AC
:101570005EEA430E08BF20EAD37070BDC4F12005B7
:1015800000FA05F24EEA020E20FA04F301FA05F21F
:1015900043EA020321FA04F001F0004121FA04F2C7
:1015A00020EA020000EBD3705EEA430E08BF20EA97
:1015B000D37070BD94F0000F0FD101F000464000D1
:1015C00041EB010111F4801F08BF013CF7D041EA53
:1015D000060195F0000F18BF704703F00046520057
:1015E00043EB030313F4801F08BF013DF7D043EA28
:1015F0000603704794EA0C0F0CEA135518BF95EADE
:101600000C0F0CD050EA410618BF52EA4306D1D164
:1016100081EA030101F000414FF0000070BD50EA83
:10162000410606BF1046194652EA430619D094EA0D
:101630000C0F02D150EA013613D195EA0C0F05D1F7
:1016400052EA03361CBF104619460AD181EA03014B
:1016500001F0004141F0FE4141F470014FF0000003
:1016600070BD41F0FE4141F4780170BD70B54FF09E
:10167000FF0C4CF4E06C1CEA11541DBF1CEA13551E
:1016800094EA0C0F95EA0C0F00F0A7F8A4EB050400
:1016900081EA030E52EA03354FEA013100F08880F7
:1016A0004FEA03334FF0805545EA131343EA1263C0
:1016B0004FEA022245EA111545EA10654FEA002675
:1016C0000EF000419D4208BF964244F1FD0404F52E
:1016D000407402D25B084FEA3202B61A65EB03058A
:1016E0005B084FEA32024FF480104FF4002CB6EB47
:1016F000020E75EB030E22BFB61A754640EA0C00C7
:101700005B084FEA3202B6EB020E75EB030E22BF06
:10171000B61A754640EA5C005B084FEA3202B6EB47
:10172000020E75EB030E22BFB61A754640EA9C0006
:101730005B084FEA3202B6EB020E75EB030E22BFD6
:10174000B61A754640EADC0055EA060E18D04FEA94
:10175000051545EA16754FEA06164FEAC30343EA34
:1017600052734FEAC2025FEA1C1CC0D111F4801F01
:101770000BD141EA00014FF000004FF0004CB6E7FA
:1017800011F4801F04BF01430020B4F1FD0C88BF99
:10179000BCF5E06F3FF6AFAEB5EB030C04BFB6EBA4
:1017A000020C5FEA500C50F1000041EB045170BD97
:1017B0000EF0004E4EEA113114EB5C04C2BFD4EBC4
:1017C0000C0541EA045170BD41F480114FF0000E48
:1017D000013C90E645EA060E8DE60CEA135594EAC4
:1017E0000C0F08BF95EA0C0F3FF43BAF94EA0C0FC7
:1017F0000AD150EA01347FF434AF95EA0C0F7FF43C
:1018000025AF104619462CE795EA0C0F06D152EA8F
:1018100003353FF4FDAE1046194622E750EA410673
:1018200018BF52EA43067FF4C5AE50EA41047FF484
:101830000DAF52EA43057FF4EBAE12E74FEA410CDD
:101840007FEA6C5C02D150EA013C0AD14FEA430CBA
:101850007FEA6C5C02D152EA033C02D14FF00000F7
:1018600070474FF0010070474FEA410212F5001235
:1018700015D211D56FF47873B3EB625212D94FEAD7
:10188000C12343F0004343EA505311F0004F23FAC1
:1018900002F018BF404270474FF00000704750EA16
:1018A000013005D111F0004008BF6FF000407047D3
:1018B0004FF00000704700BF4A0011D212F500122D
:1018C00011D20DD56FF47873B3EB62520ED44FEA98
:1018D000C12343F0004343EA505323FA02F0704718
:1018E0004FF00000704750EA013002D14FF0FF3056
:1018F00070474FF0000070474FEA4102B2F1E043F9
:1019000024BFB3F5001CDCF1FE5C0DD901F0004CE6
:101910004FEAC0024CEA5070B2F1004F40EB830036
:1019200008BF20F00100704711F0804F21D113F162
:101930003872BCBF01F00040704741F480114FEA9B
:101940005252C2F11802C2F1200C10FA0CF320FA24
:1019500002F018BF40F001004FEAC1234FEAD32341
:1019600003FA0CFC40EA0C0023FA02F34FEA4303AB
:10197000CCE77FEA625307D150EA01331EBF4FF034
:10198000FE4040F44000704701F0004040F0FE404F
:1019900040F40000704700BF4FEA40024FEA4103A5
:1019A0007FEA226C02D15FEA402C08D17FEA236CE7
:1019B00002D15FEA412C02D14FF0000070474FF096
:1019C000010070470348044B834202D0034B03B12C
:1019D0001847704780100020801000200000000091
:1019E0000548064B1B1AD90F01EBA301491002D081
:1019F000034B03B11847704780100020801000206F
:101A00000000000010B5064C237843B9FFF7DAFF59
:101A1000044B13B10448AFF300800123237010BDC1
:101A20008010002000000000B8EC040808B5054B49
:101A30001BB105490548AFF30080BDE80840FFF73A
:101A4000CFBF00BF0000000084100020B8EC0408E5
:101A5000002303704370837070470170427083707D
:101A60007047C170704710B50446FFF7F1FF64215D
:101A70002046FFF7F6FF204610BD82B000680190B7
:101A800000209DF8043063F307009DF8053063F3F0
:101A90000F209DF8063063F317409DF8073063F37D
:101AA0001F6002B070472DE9F0410F4616461D46F3
:101AB0000468D0F8048006E02B463246394654F8D4
:101AC000040BFFF7CAFFA045F6D1BDE8F08170B561
:101AD0000D460468466804E0294654F8040BFFF7F5
:101AE000C0FFA642F8D170BD10B5044600210068C1
:101AF00004F09AFC0023237610BD000008B543686B
:101B000002689B1AB1EBA30F00D208BD9A100148DE
:101B10001AF06EFAE0EC040838B504460D460C30B5
:101B2000FFF7ECFFE36853F8250038BD4068043840
:101B3000704703684268934200D043607047406832
:101B40000438704708B50846910004F017FF08BD37
:101B500010B5044601688268521A11B19210FFF75D
:101B6000F1FF204610BD10B50446FFF7F1FF2046F7
:101B700010BD10B584B08446019144680368E31A2F
:101B800098106FF0604EAEEBA3038B4210D303901E
:101B9000814210D803AB1B681844DCF80030E41A0B
:101BA000B0EBA40F09D3B0F1005F09D204B010BDAF
:101BB00010461AF005FA01ABEDE76FF06040F5E76B
:101BC0006FF06040F2E708B50846910004F0D6FED9
:101BD00008BD10B5044601688268521A11B192100E
:101BE000FFF7F1FF204610BD10B50446FFF7F1FFE7
:101BF000204610BD10B584B0844601914468036846
:101C0000E31A98106FF0604EAEEBA3038B4210D333
:101C10000390814210D803AB1B681844DCF80030F5
:101C2000E41AB0EBA40F09D3B0F1005F09D204B0FD
:101C300010BD10461AF0C4F901ABEDE76FF060403B
:101C4000F5E76FF06040F2E708B5B1F1005F03D24D
:101C5000880005F03DFC08BDB1F1804F01D31AF0BA
:101C600077F91AF065F900002DE9F84F05468A4624
:101C700093461E4A0121FFF77CFFD5F800806F686C
:101C8000AAEB0804814618B3002201462846FFF754
:101C9000DBFF0646DBF800303351002C1ADC04343D
:101CA0003444A7EB0A07002F1ADC3C44AA68A2EBD5
:101CB00008029210B8F1000F03D041462846FFF702
:101CC00041FF2E606C6006EB8906AE60BDE8F88FC0
:101CD0000026DFE72246414630463CF017FDDEE7AE
:101CE0003A46514620463CF011FDDEE72CED040853
:101CF00010B5044643688268934208D00A681A60A7
:101D00004368043343602046FFF710FF10BD0A46C6
:101D10001946FFF7A9FFF6E7F0B585B005460F466F
:101D2000694681E80C000023036043608360144629
:101D3000019E164400E00134B4420DD0237807EB35
:101D40000313039303A92846FFF7D2FFF3E72846BE
:101D5000FFF709FF04F028FF284605B0F0BDF0B5F5
:101D600083B005460F461646002404604460846034
:101D700000E00134A6420CDD07EB0413019301A936
:101D80002846FFF7B5FFF4E72846FFF7ECFE04F01E
:101D90000BFF284603B0F0BD2DE9F04184B00646A4
:101DA000684680E806009DF8288003C886E805009C
:101DB00033720024F460346174613476F461346207
:101DC000746208E00546FFF74EFE039503A9384606
:101DD000FFF78EFF0134A0450EDD06F10C0704204D
:101DE00005F076FBEEE706F11C00FFF7FDFE384636
:101DF000FFF7B9FE04F0D8FE304604B0BDE8F0812C
:101E000008B5B1F1005F03D2880005F061FB08BDA1
:101E1000B1F1804F01D31AF09BF81AF089F8000055
:101E20002DE9F84F05468A4693461E4A0121FFF7E1
:101E3000E1FED5F800806F68AAEB0804814618B36C
:101E4000002201462846FFF7DBFF0646DBF800309C
:101E50003351002C1ADC04343444A7EB0A07002F5A
:101E60001ADC3C44AA68A2EB08029210B8F1000FF9
:101E700003D041462846FFF7A6FE2E606C6006EBB5
:101E80008906AE60BDE8F88F0026DFE722464146AE
:101E900030463CF03BFCDEE73A46514620463CF0FB
:101EA00035FCDEE72CED040810B504464368826873
:101EB000934208D00A681A6043680433436020469E
:101EC000FFF73DFE10BD0A461946FFF7A9FFF6E7EA
:101ED0002DE9F04F89B007463B7E002BFCD107F17E
:101EE0001C063046FFF725FEFB68D7F8109010E07F
:101EF0001923069306A93046FFF7D6FF013C002CB4
:101F000005DB0123A3401D42F2D03323F1E708F1A2
:101F10000403984699453CD0D3F800A05046FFF7FB
:101F2000ACFD00909DF801505046FFF7A6FD0190D2
:101F30009DF8073003FB05F5DFF880B08BFB053516
:101F40006D112D045046FFF798FD02909DF8084052
:101F50005046FFF792FD03909DF80F3004FB03F30A
:101F60008BFB03235B1145EA03255046FFF785FDF4
:101F700004909DF812405046FFF77FFD05909DF8B4
:101F8000173003FB04F48BFB04B445EA64151724F3
:101F9000B5E70023079307A93046FFF785FFFA69E5
:101FA0003B6A9B1AC3F38F033979386804F0F0F861
:101FB00001233B7609B0BDE8F08F00BF1F85EB51D0
:101FC000016002718360704770B504460D468668F3
:101FD000B6F90000FEF712FC2946FEF75BFB05464A
:101FE000B6F90200FEF70AFC01462846FEF70EFD90
:101FF0004FF07F51FEF74EFB054623681E68F06ADE
:10200000FEF7F8FB2946FEF74DFC0549FEF7FEFCFE
:10201000FEF70EFE70632179206804F037F870BD7A
:102020000000A04110B5044600228188006802F03B
:102030001BF90022A189A06802F016F910BD00006A
:1020400070B5044690F91830002B25DD01228188F7
:10205000006802F009F90022A189A06802F004F9E1
:1020600094F918000028B8BF4042C0B2FEF7C6FB82
:102070000F49FEF7CBFC054623691E68F06AFEF7A0
:10208000B9FB2946FEF70EFCFEF7D2FD7063A18A6C
:10209000206903F0FBFF70BD00228188006802F018
:1020A000E3F80122A189A06802F0DEF8D8E700BFBA
:1020B0000000C84208B50176FFF7C2FF08BD84B032
:1020C00000B50DF1080C8CE80E008646BCE80F0048
:1020D000AEE80F009CE803008EE803005DF804EB17
:1020E00004B0704770B590B00446816382870022C7
:1020F00080F83E200493BDF85030ADF81430159BA5
:102100000693BDF85830ADF81C301B9B0893BDF802
:102110007030ADF82430179B0A93BDF86030ADF8ED
:102120002C30199B0C93BDF86830ADF834301D9BF2
:102130000E93BDF87830ADF83C3007AE96E8070056
:102140008DE8070004AD95E80E002046FFF7B7FFC5
:1021500096E807008DE8070095E80E0004F11C00E2
:10216000FFF7ADFF204610B070BD08B50122818F8A
:10217000806B02F079F808BD016000224260826045
:10218000C260704708B50846114604F0F7FB08BD69
:1021900010B5044601688268521A09B1FFF7F2FFD0
:1021A000204610BD10B50446FFF7F2FF204610BDD3
:1021B000002070472DE9F04784B00646D0F804C0EF
:1021C000BCF8015005F0030A8DF808A0C5F3810999
:1021D0008DF80990C5F301188DF80A80C5F38117B1
:1021E0008DF80B70C5F301258DF80C500CF108002B
:1021F000BCF8051000231C4604E0C25C2244D4B2A3
:1022000001339BB29942F8D89CF80030AA2B03D135
:102210009CF80730A34226D0AD49AE4824F05AFBC3
:1022200073681B78AA2B0AD17368DB79A3420BD1A0
:10223000A84824F0E7F9012004B0BDE8F087A649DA
:10224000A44824F047FBEFE7A449A24824F042FB4E
:10225000214624F0FFFBA24924F03CFB7368D979A6
:1022600024F0F8FBE4E7002300930193AA238DF800
:102270000030BB0143EA052343EA081343EA89031C
:102280004AEA0303ADF80130D6F8F00003F076FA1D
:10229000944B5A6A42F480525A625A6A22F480522B
:1022A0005A62BAF1010F00F09180BAF1020F0BD11E
:1022B000B368F2681188927819819A7203238DF8B5
:1022C000053000238DF80630B9F1010F00F08B8046
:1022D000B9F1020F22D1B268BDF8059009F10800EA
:1022E000F1680B1D02443431D3F800E0D3F804C088
:1022F0009C68D868C2F800E0C2F804C09460D0605E
:10230000103310328B42EFD1186859689B68106007
:102310005160936009F13C09ADF80590B8F1010FE7
:1023200000F08480B8F1020F0AD1B268BDF8053020
:10233000F16891F840101A4411720133ADF805307C
:10234000012F7FD0022F25D1D6F80880BDF80510C7
:1023500001F1080E08EB0E02F368D3F842C0D3F87F
:102360004670D3F84A40D3F84E0048F80EC0576084
:102370009460D060D3F852C0D3F85670D3F85A4066
:10238000D3F85E00C2F810C057619461D06120316B
:10239000ADF80510012D7AD0022D0FD1B068BDF82F
:1023A000053003F108014418F268D2F86250455034
:1023B000B2F86620A2800633ADF80530B56805F1A5
:1023C0000804BDF8050000231A4676E0F368726839
:1023D0001189927A19809A7003238DF803300023B3
:1023E0008DF8043070E7F2687368BDF803E00EF111
:1023F00008010B44043203F13009D3F800C05C68D3
:102400009868D968C2F800C054609060D1601033F9
:1024100010324B45F1D1186859689B6810605160C3
:1024200093600EF13C0EADF803E077E7F168726857
:10243000BDF803301A44127A81F840200133ADF818
:1024400003307DE7F3687468BDF8031001F10800FC
:10245000221854F800C057689468D068C3F842C086
:10246000C3F84670C3F84A40C3F84E00D2F810C013
:1024700057699469D069C3F852C0C3F85670C3F85D
:102480005A40C3F85E002031ADF8031082E7F268CD
:102490007068BDF8033003F1080144184158C2F8D0
:1024A0006210A188A2F866100633ADF8033085E704
:1024B000E15C0A44D2B201339BB29842F8D88DF85D
:1024C00007206B4603CB286069600020B4E600BF9C
:1024D00050ED0408101B002084ED04089CED040856
:1024E000B8ED0408003802400160426000218160BC
:1024F000C16001611170704710B586B00446642355
:102500000293012301930DF1170200921B22D021A7
:102510001A4802F08BFA68BB9DF8173003F0E0030D
:102520008DF8173022681288B2F57A7F18D0B2F58C
:10253000FA6F1AD0B2F5FA7F03D143F008038DF891
:10254000173064230293012301930DF117020092C7
:102550001B22D021094802F0B7F968B906B010BDB6
:1025600043F010038DF81730EBE743F018038DF8B4
:102570001730E6E70120F1E70120EFE740160020E1
:1025800000B587B003689B788DF8173064230293F9
:10259000012301930DF1170200921B22D021044860
:1025A00002F092F910B907B05DF804FB0120FAE7D8
:1025B0004016002010B586B0044664230293012320
:1025C00001930DF1170200921C22D021194802F04C
:1025D0002DFA50BB9DF8173003F070038DF81730BB
:1025E0002268D278082A16D0102A19D0042A03D1DA
:1025F00043F008038DF817306423029301230193FD
:102600000DF1170200921C22D0210A4802F05CF959
:1026100068B906B010BD43F010038DF81730EBE732
:1026200043F018038DF81730E6E70120F1E70120A9
:10263000EFE700BF4016002000B5034601FB01FC98
:102640000CFB01FE0EFB01F2012099420AD8634502
:1026500007D3734508D3934208D3B3FBF2F3043096
:10266000F3E701305DF804FB0230FBE70330F9E7E4
:1026700070B5B4B005460E461446C922194901A8E2
:10268000FEF7AEFD711E15E0174AA2FB0432530996
:10269000642000FB13435B00540903F1D1026A4438
:1026A00012F8CC2C6A544A1ED0336B4413F8CC3C3D
:1026B000AB540239632CE7D8092C0FD9640004F11C
:1026C000D1036B4413F8CC3C6B7004F1D0030DEBD9
:1026D000030414F8CC3C2B7034B070BD30342C7033
:1026E000FAE700BFC4ED04081F85EB5170B582B056
:1026F0000446084694464D68526802EB050E51F8B0
:10270000083B994216D081688E4508D9614651F838
:10271000086B8E4210D0DCF808108E450ED9DCF81C
:10272000001024F06DFF0146204624F0A3FD204652
:1027300002B070BD0F21E7E70F21EEE70095002200
:102740001146604624F016FF0146204624F092FD13
:10275000EDE710B5044600F10803036024F0E0FC47
:10276000204610BDF0B583B00546CF0F002914DB1D
:102770000C460A212046FFF75FFF064601AB2D22DB
:1027800039182846FFF7E5FF2868224631463844C5
:10279000FFF76EFF284603B0F0BD4C42E9E770B585
:1027A00082B004460E46551A01950F2D0DD800949F
:1027B0002A463146206824F0DBFC00220092019B6F
:1027C00063602168CA5402B070BD002201A924F0E0
:1027D00077FC2060019BA360E9E7000038B500F1B9
:1027E0000803036069B104460D460846FEF7A8FDDC
:1027F0004FF000032A1829462046FFF7D0FF204655
:1028000038BD014819F0C4FB90EE040810B5A0B023
:1028100004460A466423D0213D4802F079FAC0B943
:102820006268012313708DF81730642202920193BD
:102830000DF1170200926B22D021354802F044F8C6
:1028400058BB2046FFF79CFE00283BD0012020B05B
:1028500010BD082004F000F9044612AA2D490CA866
:10286000FFF7BCFFD02113A8FFF77CFF13AA0CA928
:1028700006A8FFF73BFF06A9204614F09BF806A820
:1028800024F046FC13A824F043FC0CA824F040FCE0
:10289000214A2249204604F0C9FD082004F0DCF852
:1028A00004461FAA1E4919A8FFF798FF19A9204638
:1028B00014F080F819A824F02BFC174A1749204679
:1028C00004F0B4FD2046FFF717FE08B10120BEE773
:1028D0002046FFF76FFE0028B9D00120B7E706A811
:1028E00024F016FC13A824F013FC0CA824F010FC10
:1028F000204604F0C9F804F057F9F3E7F8E719A8FF
:1029000024F006FC204604F0BFF804F04DF9F9E786
:1029100040160020C4EE0408B99700089814050872
:10292000ECEE040801607B22027170470368E0222C
:102930001A80036892229A7003683D22DA70036855
:102940004FF4FA729A80026800239371026804219E
:10295000D1710268642111720268012191720168CB
:10296000FF22CA7201680B7301684B7301684FF054
:10297000050C81F80EC001680B82016841F2707C81
:10298000A1F812C0016840F6B83CA1F814C0016873
:102990004A7601688A760168CA7601680A77026811
:1029A0005377026893770268BF21917502683F21CF
:1029B000D1750268137670470F4B1A7803799A42E3
:1029C00017D102680C4B5978D171026899789171CE
:1029D0000268D97811720268197991700268597980
:1029E000D1700268D988118002685B8993800020C9
:1029F00070470120704700BF000006082DE9F04134
:102A000088B00024039404940594069407940094D9
:102A10003F4B1A6B42F004021A631A6B02F0040275
:102A20000092009A01941A6B42F001021A631A6B29
:102A300002F001020192019A02941A6B42F0020222
:102A40001A631B6B03F002030293029B314F224671
:102A50004FF49C71384601F007FC2F4E22464FF48C
:102A60000061304601F000FC4FF48C7303930125A4
:102A700004950594069403A9384601F001FB03234D
:102A8000039304944FF00208CDF8148003A9304654
:102A900001F0F6FA102303934FF48813049305957D
:102AA00003A9304601F0ECFA202303930495059422
:102AB000CDF8188003A9384601F0E2FA0723039302
:102AC00004940594DFF8548003A9404601F0D8FA35
:102AD0004FF4404303930494059503A9404601F045
:102AE000CFFA4FF4007303930494059403A9384676
:102AF00001F0C6FA4FF40063039311230493059584
:102B0000069403A9304601F0BBFA08B0BDE8F08195
:102B10000038024000080240000002400004024069
:102B200010B582B0002400941A4B1A6B42F4800254
:102B30001A631A6B02F480020092009A01941A6BD5
:102B400042F400121A631B6B03F400130193019B00
:102B5000224621460C2001F001F80C2001F00EF86D
:102B600022462146102000F0F9FF102001F006F85F
:102B7000224621463A2000F0F1FF3A2000F0FEFF05
:102B8000224621463B2000F0E9FF3B2000F0F6FF03
:102B900002B010BD003802402DE9F04F9DB0784CD6
:102BA00021467848FFF7BEFE774E78493046FFF75A
:102BB000E3FA774D2A467749304603F05BFEA4F1ED
:102BC00042063246211D7448FFF78EFC734B1A46AD
:102BD000734942F8101B5A6003F180029A60DE606C
:102BE000704A1A60704B0C9300248DF834406F4F7C
:102BF0000923009323460CAA06CA3846FFF7CCF8EF
:102C0000DFF8AC812A464146384603F033FEDFF850
:102C1000A4910EAA99E8030082E80300664E4FF0E3
:102C2000040ACDF800A0012306CA3046FFF7B4F825
:102C30002A464146304603F01DFE21463846FEF73F
:102C40006BFF0146DFF8748101224046FFF787F8E9
:102C50005B4F2A463946404603F00CFE214630467B
:102C6000FEF75AFF01468DF8484003238DF849309E
:102C700012AB10934FF00208CDF84480DFF844B156
:102C800010AB0CCB5846FFF747F82A463946584652
:102C900003F0F0FD21463046FEF73EFF0146B9F84D
:102CA0000830ADF8543015AB1393CDF85080DFF8F1
:102CB00018B113AB0CCB5846FFF72EF82A4639460D
:102CC000584603F0D7FD21463046FEF725FF014662
:102CD0008DF8604001238DF8613018AB1693CDF864
:102CE0005C80DFF8E8B016AB0CCB5846FFF714F861
:102CF0002A463946584603F0BDFD21463046FEF7C8
:102D00000BFF0146B9F80C30ADF86C301BAB1993D2
:102D1000CDF868802E4E19AB0CCB3046FEF7FCFF89
:102D20002A463946304603F0A5FD2A4E2A4D334641
:102D3000224629462948FFF743F933465246294699
:102D40002748FFF73DF92749CDF828A0164B0993EE
:102D5000089407934FF40073069305914FF4807322
:102D600004930391102302930191082300930B46CF
:102D700020221D48FFF7B6F91DB0BDE8F08F00BF57
:102D8000E212002098120020881200204C1300202C
:102D900000000020C53300087412002080110020BC
:102DA0000C0A0508180A0508E01400205811002034
:102DB000DF330008D0EC040830110020241100207B
:102DC000D3330008181100200C110020001100203E
:102DD000F41000200400002050140020E81000200F
:102DE000DC100020000802409C10002000B583B0D9
:102DF00001904FF6FF73012201A9064803F0CDFCB4
:102E0000054B1B680021986838F04AFF019803B011
:102E10005DF804FB081300204807002008B5044BA8
:102E2000834200D008BD0348FEF75EFEFAE700BF0C
:102E3000E01400205811002072B6FEE708B50A48D9
:102E40000A4B03604FF4E133436000238360C360A7
:102E500003610C2242618361C36103F06FFC00B91E
:102E600008BDFFF7E9FF00BF081300200010014074
:102E700008B50B480B4B0360002343608360C360BD
:102E8000036143614FF400728261036243628362B3
:102E90000A23C36202F012FC00B908BDFFF7CCFFA1
:102EA000E81500200030014000B58FB000230A93E0
:102EB0000B930C930D93089309930193029303933F
:102EC000049305930693079321484FF080420260D4
:102ED000436083606422C2600361836102F03EFF4D
:102EE00050BB4FF480530A930AA9194803F040F8E5
:102EF00020BB174802F05EFF10BB00230893099324
:102F000008A9134803F00AFBE0B9602301930022EB
:102F100002920392059201A90D4802F0AFFF98B901
:102F2000082201A90A4802F0A9FF78B9084800F070
:102F3000BDFB0FB05DF804FBFFF77EFFFFF77CFFE2
:102F4000FFF77AFFFFF778FFFFF776FFFFF774FFD1
:102F5000E014002000B58FB000230A930B930C936C
:102F60000D9308930993019302930393049305939C
:102F7000069307932248234A02604360836042F22B
:102F8000CF02C2600361836102F0E8FE58BB4FF4D8
:102F900080530A930AA91A4802F0EAFF28BB18488E
:102FA00002F008FF18BB00230893099308A91448EE
:102FB00003F0B4FAE8B9602301930022029203926D
:102FC000059201A90E4802F059FFA0B904220DEBA9
:102FD00002010B4802F052FF78B9094800F066FB85
:102FE0000FB05DF804FBFFF727FFFFF725FFFFF7A2
:102FF00023FFFFF721FFFFF71FFFFFF71DFF00BFB4
:10300000981400200004004000B58FB000230A93FC
:103010000B930C930D9308930993019302930393DD
:1030200004930593069307932248234A02601922CA
:10303000426083604FF6E752C2600361836102F031
:103040008DFE58BB4FF480530A930AA9194802F029
:103050008FFF28BB174802F0ADFE18BB0023089372
:10306000099308A9134803F059FAE8B960230193BA
:10307000002202920392059201A90E4802F0FEFE80
:10308000A0B904220DEB02010A4802F0F7FE78B95C
:10309000084800F00BFB0FB05DF804FBFFF7CCFE17
:1030A000FFF7CAFEFFF7C8FEFFF7C6FEFFF7C4FE34
:1030B000FFF7C2FE501400200008004008B50A487F
:1030C0000A4B03604FF4E133436000238360C36025
:1030D00003610C2242618361C36103F02FFB00B9DD
:1030E00008BDFFF7A9FE00BF4C130020004C0040B4
:1030F00008B50A480A4B03600A4B4360002383600B
:10310000C3604FF48042026143618361C361036223
:1031100001F0FCFA00B908BDFFF78EFE4016002052
:1031200000540040801A060000B595B034220021FA
:1031300007A83BF06BFB00230293039304930593D2
:1031400006930093224A116C41F080511164126C75
:1031500002F080520092009A01931E4A116841F4D5
:1031600040411160126802F440420192019A022229
:10317000079201210A9110210B910D920E930823C1
:103180000F93B423109311921292139207A802F096
:1031900031F8B0B901F086FEA8B90F2302930223DB
:1031A0000393002304934FF4A05305934FF48053EB
:1031B0000693052102A801F0B3FE30B915B05DF801
:1031C00004FBFFF739FEFFF737FEFFF735FE00BFC0
:1031D000003802400070004070B500F039FCFFF785
:1031E000A3FFFFF70BFCFFF79BFCFFF727FEFFF7A2
:1031F0003FFEFFF759FEFFF7ADFEFFF705FFFFF7B4
:103200005DFFFFF775FF624D6249284623F062FBC0
:1032100023F0F8F9604C2046FFF788FB5F49284609
:1032200023F058FB23F0EEF92046FFF7C5FB38B139
:103230005B49284623F04EFB23F0E4F9FFF7FCFD41
:103240005849534823F046FB23F0DCF90321564844
:10325000FFF7DCFA08B1FFF7EFFD544C05212046DB
:10326000FEF735FCFF23002211462046FEF71BFC2B
:103270004F4D2846FEF72CFE4E48FEF776FF002104
:103280004D48FEF7A1FE4FF47A7000F00DFC4B4E56
:1032900001224FF40061304600F0E6FF0A2000F002
:1032A00003FC00224FF40061304600F0DDFF0023F4
:1032B000FF2219462046FEF7F6FB2846FEF708FED9
:1032C0005EE061B23B48FEF7F5FE322000F0ECFB19
:1032D0000134632CF5DD642000F0E6FB002409E0F6
:1032E000C4F1640149B23348FEF7E4FE322000F035
:1032F000DBFB0134632CF3DD002408E0614249B2BA
:103300002C48FEF7D7FE322000F0CEFB0134632CB0
:10331000F4DD642000F0C8FB002409E0A4F164019E
:1033200049B22448FEF7C6FE322000F0BDFB01344E
:10333000632CF3DD002407E061B21E48FEF7BAFEFD
:10334000322000F0B1FB0134632CF5DD1948FEF7A3
:1033500069FE4FF47A7000F0A7FB002407E061B229
:103360001448FEF7A7FE322000F09EFB0134632CC8
:10337000F5DD1048FEF756FE4FF47A7000F094FB2E
:103380000F49034823F0A6FA23F03CF90024A0E7F4
:10339000101B002008EF04089812002024EF0408F6
:1033A0004CEF040880EF0408741200202411002060
:1033B000581100209C100020E8100020000002405E
:1033C000B4EF040810B504460430FEF7EBFE2046C7
:1033D00010BD10B50446FEF7C6FB204610BD10B563
:1033E00004461C30FEF700FC04F10C00FEF7BBFBAA
:1033F000204610BD08B5FFF7CFFB08BD82B0002105
:1034000000910B4B5A6C42F480425A645A6C02F49D
:1034100080420092009A01911A6C42F080521A6424
:103420001B6C03F080530193019B02B0704700BFF7
:103430000038024030B589B000230393049305930C
:10344000069307930268144B9A4201D009B030BD2D
:1034500000250195114C236B43F002032363236B7A
:1034600003F002030193019B4FF440730393122373
:103470000493032306930423079303A9084800F049
:10348000FFFD0295236C43F400132364236C03F4C3
:1034900000130293029BD9E7005400400038024019
:1034A0000004024030B589B00023039304930593D0
:1034B000069307930268354B9A4201D009B030BD9C
:1034C00004460025019503F584335A6C42F480527A
:1034D0005A645A6C02F480520192019A02951A6B56
:1034E00042F001021A631B6B03F001030293029B7B
:1034F000E0230393022304930323069305230793F6
:1035000003A9234800F0BCFD2248234B03604FF081
:10351000C06343608560C5604FF4806303614561AB
:103520008561C5614FF480330362456200F0C2FBE0
:1035300028BB184BE3649C631848194B03604FF099
:10354000C0634360402383600023C3604FF4806204
:10355000026143618361C3614FF48032026243625E
:1035600000F0A8FB70B90D4BA3649C6300221146C8
:10357000232000F0F3FA232000F000FB9EE7FFF782
:103580005BFCD6E7FFF758FCEDE700BF00300140D9
:1035900000000240881500204064024028150020E9
:1035A0005864024010B584B00368B3F1804F07D06F
:1035B000374A934251D0374A93425BD004B010BD92
:1035C000044600230193344A116C41F00101116457
:1035D000126C02F001020192019A3048304A0260F6
:1035E0004FF0C062426040228260C3604FF480624C
:1035F00002614FF4805242614FF480428261C361A4
:103600000362436200F056FB08BB244B63629C6379
:103610002448254B03604FF0C06343604023836020
:103620000023C3604FF4806202614FF48052426114
:103630004FF480428261C3610362436200F03AFB4F
:1036400040B9184B23629C63E3629C63B6E7FFF7C3
:10365000F3FBDAE7FFF7F0FBF3E7002302930E4BEF
:103660001A6C42F002021A641B6C03F0020302930C
:10367000029BA3E700230393074B1A6C42F004025A
:103680001A641B6C03F004030393039B96E700BFCB
:10369000000400400008004000380240F013002001
:1036A000886002409013002028600240F0B58BB083
:1036B0000023059306930793089309930368B3F1D6
:1036C000804F07D0394A934234D0394A934254D07C
:1036D0000BB0F0BD0024019403F50E331A6B42F0D9
:1036E00002021A631A6B02F002020192019A02941A
:1036F0001A6B42F001021A631B6B03F00103029381
:10370000029B4FF4806305930227069703260896D1
:103710000125099505A9274800F0B2FC4FF40043A4
:103720000593069707940896099505A9224800F085
:10373000A7FCCDE700250395204B1A6B42F002024F
:103740001A631B6B03F002030393039B102305937F
:1037500002240694032308930994164E05A93046C3
:1037600000F08EFC20230593069407950895099494
:1037700005A9304600F084FCAAE7002304930F4B10
:103780001A6B42F002021A631B6B03F002030493EC
:10379000049BC023059302230693032208920993F6
:1037A00005A9044800F06CFC92E700BF000400404B
:1037B00000080040000402400000024000380240BF
:1037C00000B58BB0002305930693079308930993E4
:1037D0000368284A934205D0274A934226D00BB06B
:1037E0005DF804FB00210191244B1A6C42F4002285
:1037F0001A641A6C02F400220192019A02911A6B67
:1038000042F004021A631B6B03F004030293029B51
:103810004FF4406305930223069303230893082380
:10382000099305A9164800F02BFCD8E70021039165
:10383000124B5A6C42F010025A645A6C02F0100299
:103840000392039A04911A6B42F001021A631B6BF4
:1038500003F001030493049B4FF4C0630593022318
:103860000693032308930723099305A9054800F04D
:1038700007FCB4E7004C0040001001400038024053
:103880000008024000000240FEE7FEE7FEE7FEE718
:10389000FEE770477047704708B500F0F3F808BDC1
:1038A00008B5024800F0FEFA08BD00BF90130020E2
:1038B00008B5024800F0F6FA08BD00BFF01300207A
:1038C00008B5024801F0FEFF08BD00BFE815002062
:1038D00008B5024800F0E6FA08BD00BF88150020D0
:1038E00008B5024800F0DEFA08BD00BF2815002028
:1038F0000120704708B53EF0C3F8162303604FF06F
:10390000FF3008BD08B54FF0FF31FFF7F3FFFEE7CA
:1039100070B50C461646002506E0AFF30080214640
:1039200001F8010B01350C46B542F6DB304670BD9F
:1039300070B50C461646002504E014F8010BFFF79D
:1039400055FA0135B542F8DB304670BD4FF0FF3017
:1039500070474FF400534B600020704701207047C0
:103960000020704710B503460C4A0D490D48006809
:1039700040B10C4800680344521A934206D8094AE1
:10398000136010BD0748084C0460F2E73EF078F879
:103990000C2303604FF0FF30F3E700BF000002206C
:1039A000000400009816002000320020704700003C
:1039B000DFF834D00D480E490E4A002302E0D458F7
:1039C000C4500433C4188C42F9D30B4A0B4C002367
:1039D00001E013600432A242FBD3FFF7E7FF3EF0A1
:1039E000C1F8FFF7F9FB704700000220000000203B
:1039F0008010002034F805088010002000320020DC
:103A0000FEE7000010B504460E4B1A784FF47A73A7
:103A1000B3FBF2F30C4A1068B0FBF3F000F0BCF813
:103A200068B90F2C01D901200AE0002221464FF08D
:103A3000FF3000F093F8054B1C60002000E00120EF
:103A400010BD00BF1400002010000020180000204E
:103A500008B50B4B1A6842F400721A601A6842F4F7
:103A600080621A601A6842F480721A60032000F0C3
:103A700063F80F20FFF7C6FFFFF7C0FC002008BD6A
:103A8000003C0240034A1168034B1B780B4413604F
:103A9000704700BF9C16002014000020014B1868DE
:103AA000704700BF9C16002038B50446FFF7F6FFAC
:103AB0000546B4F1FF3F02D0044B1B781C44FFF7CE
:103AC000EDFF401BA042FAD338BD00BF1400002018
:103AD000002808DB0901C9B200F1604000F561402F
:103AE00080F80013704700F00F000901C9B2014BC4
:103AF0001954704714ED00E000B500F00700C0F164
:103B0000070CBCF1040F28BF4FF0040C031D062B5B
:103B10000FD9C31E4FF0FF3E0EFA0CF021EA000150
:103B200099400EFA03FE22EA0E0241EA02005DF815
:103B300004FB0023EEE70000074AD36823F4E063A8
:103B40001B041B0C000200F4E060034343F0BF635E
:103B500043F40033D360704700ED00E010B5044635
:103B6000054BD868C0F30220FFF7C6FF0146204688
:103B7000FFF7AEFF10BD00BF00ED00E0002807DB3F
:103B800000F01F02400901239340024A42F820300E
:103B9000704700BF00E100E00138B0F1807F0BD238
:103BA0004FF0E0235861054AF02182F823100020ED
:103BB000986107221A6170470120704700ED00E00C
:103BC00030B405682C6824F480242C600468636099
:103BD0008368402B05D0036899600368DA6030BCC5
:103BE000704703689A600368D960F8E710B4036807
:103BF000D9B21039094AA2FB01421209084CA25C51
:103C0000C2655F2906D96FF3090304338365806DAC
:103C100010BC70476FF309038365F8E7ABAAAAAA43
:103C2000340A0508836A826992B9012B0AD0022BF3
:103C300002D00BB100207047C36A13F0807F28D1F7
:103C400000207047C36AB3F1C07F24D000207047C2
:103C5000B2F5005F09D0022B25D9032B25D1C36A09
:103C600013F0807F23D100207047032B03D8DFE8B7
:103C700003F01404140A00207047C36A13F0807F15
:103C80000DD100207047C36AB3F1C07F09D0002076
:103C900070470120704701207047012070470120C4
:103CA00070470120704701207047002070470120B5
:103CB0007047000070B50446FFF7F0FE002C5BD0A3
:103CC0000546022384F83530002384F83430226816
:103CD000136823F00103136023681A6812F0010FC0
:103CE0000AD0FFF7DBFE431B052BF5D920236365C4
:103CF000032084F8350070BD1A68204911406268BD
:103D0000A0680243E06802432069024360690243FD
:103D1000A0690243E0690243206A02430A43616AE0
:103D200004291ED01A602668756925F00705636AA4
:103D30001D43042B07D1A36A1D43E36A1BB1204630
:103D4000FFF770FF90B975612046FFF74FFFE26DF6
:103D50003F239340836000206065012384F8353061
:103D6000C9E7E16A206B01430A43DBE7402363654F
:103D7000012084F83500BEE70120BCE73F8010F049
:103D800038B50446856D90F8340001282BD0012009
:103D900084F8340094F83500C0B2012804D0002320
:103DA00084F83430022038BD022084F83500002029
:103DB00060652046FFF704FFE26D3F239340AB6050
:103DC0002268136843F016031360236C23B1226842
:103DD000136843F0080313602268136843F001037B
:103DE00013600020DFE70220DDE770B50446866D32
:103DF000FFF754FE94F83530DBB2022B06D0802357
:103E00006365002384F83430012070BD05462268C4
:103E1000136823F0160313602268536923F08003AC
:103E20005361236CE3B12268136823F00803136025
:103E30002268136823F00103136023681B6813F0E2
:103E4000010F11D0FFF72AFE431B052BF5D92023C4
:103E50006365032084F83500002384F83430D4E708
:103E6000A36C002BDFD1E3E7E26D3F239340B36007
:103E7000012384F83530002084F83400C5E790F839
:103E80003530DBB2022B03D080234365012070471D
:103E9000052380F835300268136823F001031360AE
:103EA00000207047F0B583B0044600230193724BA5
:103EB0001D68724BA3FB0535AD0A876D3E68C26D68
:103EC00008239340334210D003681A6812F0040F9D
:103ED0000BD01A6822F004021A60C26D08239340C6
:103EE000BB60436D43F001034365E26D01239340E2
:103EF000334209D02268526912F0800F04D0BB60AF
:103F0000636D43F002036365E26D04239340334223
:103F100009D02268126812F0020F04D0BB60636DF2
:103F200043F004036365E26D10239340334224D0D1
:103F30002268126812F0080F1FD0BB6023681A684D
:103F400012F4802F0DD01B6813F4002F04D1236CC2
:103F50009BB12046984710E0A36C73B12046984768
:103F60000BE01A6812F4807F03D11A6822F008026D
:103F70001A60236C0BB120469847E26D20239340D2
:103F8000334255D02268126812F0100F50D0BB6037
:103F900094F83530DBB2052B0ED023681A6812F482
:103FA000802F33D01B6813F4002F2AD1636C002BB1
:103FB0003ED0204698473BE02268136823F0160362
:103FC00013602268536923F080035361236CA3B10B
:103FD0002268136823F008031360E26D3F239340C7
:103FE000BB60012384F83530002384F83430236D1E
:103FF000002B3FD0204698473CE0A36C002BE7D134
:10400000EBE7E36BA3B12046984711E01A6812F47E
:10401000807F09D11A6822F010021A60012384F807
:104020003530002384F83430E36B0BB120469847D9
:10403000636DFBB1636D13F0010F17D0052384F896
:1040400035302268136823F001031360019B0133AC
:104050000193AB4204D823681B6813F0010FF5D11C
:10406000012384F83530002384F83430E36C0BB13D
:104070002046984703B0F0BD10000020B5814E1BCC
:1040800000230F2B00F2E68030B583B068E085682E
:104090004FEA430E032404FA0EF425EA0405CC6823
:1040A00004FA0EF42C438460446824EA02044A684B
:1040B000C2F300129A40224342605FE0DC080834F9
:1040C00050F8242003F00705AD004FF00F0E0EFA54
:1040D00005FE22EA0E0E0A69AA4042EA0E0240F8E4
:1040E00024205FE0062200E0002202FA0EF22A43BA
:1040F0000234594D45F82420584A94686FEA0C025E
:1041000024EA0C05D1F804E01EF4801F01D04CEA2B
:104110000405524CA560E46802EA0405D1F804E005
:104120001EF4001F01D04CEA04054C4CE5606468A5
:1041300002EA0405D1F804E01EF4003F01D04CEA85
:104140000405464C6560246822404D6815F4803FA4
:1041500001D04CEA0402414C226001330F2B77D886
:1041600001229A400C6804EA020C32EA0404F4D1F9
:104170004C6804F00304013C012C88D94A6802F021
:104180000302032A09D0C4685D000322AA4024EA7E
:1041900002048A68AA402243C2604A6802F003020D
:1041A000022A8BD004684FEA430E032202FA0EF271
:1041B00024EA02044A6802F0030202FA0EF22243E1
:1041C00002604A6812F4403FC7D000220192244A9C
:1041D000546C44F480445464526C02F48042019262
:1041E000019A9C08A51C1C4A52F8255003F0030EA6
:1041F0004FEA8E0E0F2202FA0EF225EA0205194A44
:1042000090423FF471AF02F58062904216D002F501
:104210008062904214D002F58062904212D002F582
:104220008062904210D002F5806290420ED002F57A
:10423000806290423FF456AF072256E7012254E7CE
:10424000022252E7032250E704224EE705224CE700
:1042500003B030BD704700BF00380140003C014052
:1042600000380240000002400AB181617047090431
:104270008161704703685A6912F4806F01D1002090
:1042800070476FF480625A6100230363202280F834
:104290003D2080F83E30026C42F00402026480F857
:1042A0003C30012070472DE9F04107460D4690460D
:1042B0001E4624E0FFF7F2FB069BC01AB04200D86E
:1042C000EEB900233B63202287F83D2087F83E307B
:1042D0003A6C42F020023A6487F83C3001201EE03C
:1042E0003B689C6925EA040C1FFA8CFCBCFA8CFC28
:1042F0004FEA5C1CE04511D1B6F1FF3FDAD1C5F3BE
:104300000743012BECD13B685B6925EA030C1FFADC
:104310008CFCBCFA8CFC4FEA5C1CEBE70020BDE88F
:10432000F0812DE9F04105460E46174698463DE0DE
:104330001A6842F400721A602B686FF480625A6146
:1043400000232B63202285F83D2085F83E302A6C1F
:1043500042F004022A6485F83C30012034E0FFF783
:104360009DFBA0EB0800B84200D8FFB900232B63E7
:10437000202285F83D2085F83E302A6C42F020024C
:104380002A6485F83C3001201EE02B689C6926EAEF
:104390000404A4B2003C18BF0124A4B12B685A69DC
:1043A00012F4806FC4D1B7F1FF3FD8D1C6F30743F1
:1043B000012BEAD12B685C6926EA0404A4B2003C14
:1043C00018BF0124E9E70020BDE8F08170B504467C
:1043D0000D46164623685B6913F0800F1CD12046FA
:1043E000FFF748FFD0B9B5F1FF3FF3D0FFF756FB19
:1043F000801BA84201D8002DECD10023236320228A
:1044000084F83D2084F83E30226C42F02002226481
:1044100084F83C30012000E0002070BD0120FCE762
:104420002DE9F04385B004460D4691461F46DDF860
:1044300030800D9E0368196841F480711960009600
:10444000434600224FF00111FFF72DFF60B92368AA
:1044500005F0FE051D613346424626492046FFF71A
:1044600060FF68B1012008E023681B6813F4807FB7
:1044700002D04FF400732364032005B0BDE8F0833D
:104480000023039323685A6903929B690393039B58
:10449000324641462046FFF799FF30B9012F0FD130
:1044A00023685FFA89F61E61E7E7236C042B01D0CD
:1044B0000120E2E72268136843F400731360F7E712
:1044C00023684FEA19221A61324641462046FFF717
:1044D0007DFF20B923685FFA89F61E61CDE7236C62
:1044E000042B01D00120C8E72268136843F400734D
:1044F0001360F7E7020001002DE9F04784B004469D
:104500000D46164699460C9FDDF834800268136804
:1045100043F4806313600368196841F48071196083
:10452000CDF800803B4600224FF00111FFF7BBFEA3
:1045300070B95FFA85FA236805F0FE051D614346F0
:104540003A4641492046FFF7ECFE68B1012008E0F9
:1045500023681B6813F4807F02D04FF40073236438
:10456000032004B0BDE8F0870023039323685A6951
:1045700003929B690393039B424639462046FFF70B
:1045800025FF80B9B9F1010F18D12368F6B21E6179
:10459000424639462046FFF719FF68B3236C042BC7
:1045A00024D00120DDE7236C042B01D00120D8E7C3
:1045B0002268136843F400731360F7E72368320A34
:1045C0001A61424639462046FFF700FF18B92368B2
:1045D000F6B21E61DCE7236C042B01D00120C0E79A
:1045E0002268136843F400731360F7E722681368C6
:1045F00043F400731360D4E72268136843F48073B4
:104600001360CDF800803B4600224FF00111204698
:10461000FFF749FE68B922684AF001031361434677
:104620003A4609492046FFF77CFE002899D0012030
:1046300097E723681B6813F4807F02D04FF4007360
:10464000236403208DE700BF0200010070B504461B
:104650000D46164623685B6913F0040F1CD12046F3
:10466000FFF708FED0B9B5F1FF3FF3D0FFF716FA18
:10467000801BA84201D8002DECD100232363202207
:1046800084F83D2084F83E30226C42F020022264FF
:1046900084F83C30012000E0002070BD0120FCE7E0
:1046A00070B505460C4616462B68596911F0400F47
:1046B00029D1596911F0100F15D1FFF7EFF9801BBF
:1046C000A04201D8002CEFD100232B63202285F8D3
:1046D0003D2085F83E302A6C42F020022A6485F89D
:1046E0003C30012070BD6FF010025A6100232B6333
:1046F000202285F83D2085F83E302A6C2A6485F812
:104700003C300120EEE70020ECE70000002800F03C
:10471000CC8070B5044690F83D30002B77D0242330
:1047200084F83D302268136823F001031360226887
:10473000136843F4004313602268136823F40043B2
:10474000136000F0A3FC62685A4B9A4264D85A4B3B
:1047500098428CBF00230123002B40F0A8805749CA
:10476000A1FB00318B0C25686A6822F03F0242EA07
:1047700091426A6021680A6A22F03F0266684D4DE4
:10478000AE424FD8013313430B622168CA6922F449
:104790004F4222F0FF026568464B9D424CD8431EB3
:1047A0006D00B3FBF5F3013340F6FC70034278D0A3
:1047B000C3F30B031A43CA6121680B6823F0C003DB
:1047C000E269206A024313430B6021688B6823F47B
:1047D000034323F0FF032269E068024313438B6025
:1047E0002168CB6823F0FF036269A0690243134389
:1047F000CB602268136843F001031360002020643B
:10480000202384F83D30206384F83E0070BD80F89A
:104810003C30FEF70FFE82E7294B98428CBF002305
:10482000012399E74FF4967505FB03F3254DA5FB8E
:1048300003539B090133A6E7A668BEB9431E05EBE7
:10484000450CB3FBFCF30133C3F30B03B3FA83F35F
:104850005B0943BBC6B9431E05EB4505B3FBF5F346
:104860000133C3F30B0343F40043A3E7431E05EBFB
:10487000850C0CEB8C0CB3FBFCF30133C3F30B0383
:10488000B3FA83F35B09E4E7431E05EB850505EB0B
:104890008505B3FBF5F30133C3F30B0343F4404346
:1048A00088E7042386E7012384E70120704701207D
:1048B000ACE700BFA08601007F841E0083DE1B439F
:1048C000FF083D00D34D62102DE9F04383B004464C
:1048D0000F46904699460C9EFFF7E0F8054694F87F
:1048E0003D00C0B2202803D0022003B0BDE8F08311
:1048F0000095192301224B492046FFF7D4FC0028DC
:1049000040F0898094F83C30012B00F08680012330
:1049100084F83C3023681A6812F0010F03D11A683A
:1049200042F001021A602268136823F400631360E6
:10493000212384F83D30402384F83E300023236453
:104940000A9B6362BDF82C306385638D2385364BEB
:10495000E362019500964B46424639462046FFF7F2
:104960005FFD00285BD1238D002B35D02A463146D0
:104970002046FFF72BFD20BB626A236812781A617C
:10498000626A531C6362218D013989B22185638D6E
:104990009BB2013B9BB263852368586910F0040FFA
:1049A000E1D00029DFD052781A61636A0133636273
:1049B000238D013B2385638D9BB2013B9BB26385B5
:1049C000D1E7236C042B01D001208EE72268136805
:1049D00043F400731360F7E72A4631462046FFF799
:1049E00035FE50B1236C042B01D001207DE72268F5
:1049F000136843F400731360F7E72268136843F405
:104A000000731360202384F83D30002384F83E3087
:104A100084F83C3069E7022067E7022065E701205F
:104A200063E700BF020010000000FFFF2DE9F04324
:104A300087B004460F4690469946109EFFF72EF821
:104A4000054694F83D00C0B2202804D0022738461D
:104A500007B0BDE8F083009519230122884920465C
:104A6000FFF721FC002840F0438194F83C30012BF3
:104A700000F04081012384F83C3023681A6812F06A
:104A8000010F03D11A6842F001021A60226813680C
:104A900023F400631360222384F83D30402384F81C
:104AA0003E30002323640E9B6362BDF83C30638577
:104AB000638D2385734BE362019500964B46424616
:104AC00039462046FFF718FD0746002840F01481BC
:104AD000238D5BB9029323685A6902929A69029204
:104AE000029A1A6842F400721A6075E0012B0AD02B
:104AF000022B1AD00023059323685A6905929B69FB
:104B00000593059B68E02268136823F480631360B3
:104B10000023039323685A6903929A690392039AC4
:104B20001A6842F400721A6056E02268136823F48F
:104B3000806313602268136843F4006313600023EA
:104B4000049323685A6904929B690493049B43E08D
:104B50002A4631462046FFF7A3FD002840F0CE80CC
:104B600023681A69636A1A70636A01336362238D6A
:104B7000013B2385638D9BB2013B9BB263852BE098
:104B800000953346002240492046FFF78CFB002861
:104B900040F0B6802268136843F400731360236802
:104BA0001A69636A1A70626A531C6362238D013B3F
:104BB0002385638D9BB2013B9BB2638523681B6990
:104BC0005370636A01336362238D013B2385638DD8
:104BD0009BB2013B9BB26385238D002B7FD0032BBF
:104BE00054D8012BB4D0022BCAD0009533460022F2
:104BF00025492046FFF757FB002840F083802268B4
:104C0000136823F48063136023681A69636A1A7057
:104C1000636A01336362238D013B2385638D9BB2FD
:104C2000013B9BB26385009533460022164920461E
:104C3000FFF739FB002867D12268136843F400733B
:104C4000136023681A69636A1A70626A531C63628C
:104C5000238D013B2385638D9BB2013B9BB2638512
:104C600023681B695370636A01336362238D013BC0
:104C70002385638D9BB2013B9BB26385ACE700BF8C
:104C8000020010000000FFFF040001002A46314628
:104C90002046FFF705FD002838D123681A69636AAA
:104CA0001A70626A531C6362238D013B2385638DF6
:104CB0009BB2013B9BB263852368596911F0040FD5
:104CC0008AD01B695370636A01336362238D013B91
:104CD0002385638D9BB2013B9BB263857CE72023D8
:104CE00084F83D30002384F83E3084F83C30AEE652
:104CF0000227ACE60227AAE60127A8E60127A6E6D6
:104D00000127A4E60127A2E60127A0E601279EE6E7
:104D10002DE9F04385B00446884691461D46FEF7CE
:104D2000BDFE94F83D30DBB2202B03D0022005B04D
:104D3000BDE8F0830646009019230122574920461A
:104D4000FFF7B1FA002840F0A08094F83C30012B26
:104D500000F09D80012384F83C3023681A6812F02B
:104D6000010F03D11A6842F001021A602268136829
:104D700023F400631360242384F83D300027276464
:104D8000474BE36240E023681B6813F4807F02D046
:104D90004FF4007323640320C9E7A02384F83D3057
:104DA00022685369C3F340035269C2F3802294F826
:104DB0003DC05FFA8CFCBCF1A00F09D043B93AB9F1
:104DC000FEF76CFE801BA842E7D8002DE8D1E4E78F
:104DD000202384F83D3023685A6912F0020F31D144
:104DE0001A6842F400721A6023686FF480625A6194
:104DF00000961923012229492046FFF754FA00287A
:104E000049D101374F4538D22268136843F4807383
:104E1000136000962B4600224FF001112046FFF749
:104E200042FA0028AFD1236808F0FE021A61FEF7AB
:104E300035FE064622685369C3F340035269C2F344
:104E40008022B4E71A6842F400721A6000230393C8
:104E500023685A6903929B690393039B0096192365
:104E600001220E492046FFF71EFA90B9202384F84C
:104E70003D30002384F83C3059E7202384F83D304E
:104E8000002384F83C30012051E702204FE7022044
:104E90004DE701204BE7012049E700BF0200100069
:104EA0000000FFFF10B582B000230193194B1A6C6C
:104EB00042F080521A641B6C03F080530193019BF3
:104EC000154B01221A64FEF7E9FD0446134B5B689B
:104ED00013F4803F08D1FEF7E1FD001BB0F57A7FA7
:104EE000F4D9032002B010BD0B4B01225A64FEF727
:104EF000D5FD0446094B5B6813F4003F07D1FEF76C
:104F0000CDFD001BB0F57A7FF4D90320EAE700203D
:104F1000E8E700BF0038024000000E420070004089
:104F2000002800F09B8070B50D4604464F4B1B686F
:104F300003F00F038B4208D2CBB24C4A13701368B4
:104F400003F00F038B4240F08B80236813F0020FB5
:104F500017D013F0040F04D0454A936843F4E0538C
:104F60009360236813F0080F04D0414A936843F418
:104F7000604393603E4A936823F0F003A1680B43BB
:104F80009360236813F0010F32D06368012B21D0A6
:104F90009A1E012A25D9364A126812F0020F61D0F2
:104FA00033498A6822F0030213438B60FEF776FDD3
:104FB00006462F4B9B6803F00C036268B3EB820F2D
:104FC00016D0FEF76BFD801B41F288339842F0D972
:104FD000032042E0264A126812F4003FE0D101208B
:104FE0003BE0234A126812F0007FD9D1012034E05F
:104FF0001E4B1B6803F00F03AB4207D9EAB21B4BF1
:105000001A701B6803F00F03AB422DD1236813F015
:10501000040F06D0164A936823F4E053E1680B436B
:105020009360236813F0080F07D0114A936823F4A4
:105030006043216943EAC103936000F047F80C4BD9
:105040009B68C3F303130B4AD35CD8400A4B186028
:105050000A4B1868FEF7D6FC002070BD012070478F
:105060000120FAE70120F8E70120F6E7003C0240C2
:1050700000380240240A0508100000201800002013
:10508000014B1868704700BF1000002008B5FFF7FB
:10509000F7FF044B9B68C3F38223034AD35CD840D9
:1050A00008BD00BF003802401C0A050808B5FFF71C
:1050B000E7FF044B9B68C3F34233034AD35CD840F9
:1050C00008BD00BF003802401C0A050808B5464B61
:1050D0009B6803F00C03082B05D00C2B43D0042B4A
:1050E0007FD1424819E0404B5A6802F03F025B68AA
:1050F00013F4800F12D03C4B5968C1F388113B4820
:105100000023A1FB0001FBF7B3FD374B5B68C3F342
:10511000014301335B00B0FBF3F008BD324B58682C
:10512000C0F388104FEA401CBCEB000C6EEB0E0E77
:105130004FEA8E1343EA9C634FEA8C11B1EB0C01EA
:1051400063EB0E03DB0043EA5173C90011EB000C63
:1051500043F10003990200234FEA8C2041EA9C515D
:10516000FBF786FDD1E7204B5A6802F03F025B68EF
:1051700013F4800F10D01C4B5968C1F388111B48E1
:105180000023A1FB0001FBF773FD174B5B68C3F322
:105190000273B0FBF3F0C0E7134B5868C0F38810FC
:1051A0004FEA401CBCEB000C6EEB0E0E4FEA8E1368
:1051B00043EA9C634FEA8C11B1EB0C0163EB0E03E5
:1051C000DB0043EA5173C90011EB000C43F100030B
:1051D000990200234FEA8C2041EA9C51FBF748FDDD
:1051E000D3E7034899E700BF0038024040787D01CB
:1051F0000024F400002800F0018270B582B004465B
:10520000036813F0010F41D0994B9B6803F00C0326
:10521000042B32D0964B9B6803F00C03082B27D04D
:10522000934B9B6803F00C030C2B59D06368B3F5C8
:10523000803F5BD0B3F5A02F5ED08D4B1A6822F46F
:1052400080321A601A6822F480221A606368002B88
:105250005CD0FEF723FC0546854B1B6813F4003F2A
:1052600014D1FEF71BFC401B6428F5D90320CCE1C8
:105270007F4B5B6813F4800FD2D07D4B1B6813F417
:10528000003F03D06368002B00F0BA81236813F05D
:10529000020F60D0764B9B6813F00C0F4AD0744B12
:1052A0009B6803F00C03082B3FD0714B9B6803F005
:1052B0000C030C2B69D0E368002B75D06D4B0122D9
:1052C0001A60FEF7EBFB0546694B1B6813F0020FF3
:1052D00061D1FEF7E3FB401B0228F5D9032094E1DE
:1052E000634B5B6813F4800FA0D0C6E7604A136875
:1052F00043F480331360A9E75D4B1A6842F48022BF
:105300001A601A6842F480321A609FE7FEF7C6FB03
:105310000546574B1B6813F4003FB7D0FEF7BEFBA2
:10532000401B6428F5D903206FE1514B5B6813F4EF
:10533000800FBAD14E4B1B6813F0020F03D0E36805
:10534000012B40F05F814A4A136823F0F80321697A
:1053500043EAC1031360236813F0080F49D063695F
:10536000002B33D0434B0122C3F8802EFEF796FB6F
:1053700005463F4B5B6F13F0020F3AD1FEF78EFBF1
:10538000401B0228F5D903203FE1394B5B6813F439
:10539000800F90D1CEE7364A136823F0F8032169D5
:1053A00043EAC1031360D6E7324B00221A60FEF7CE
:1053B00075FB05462E4B1B6813F0020FCBD0FEF792
:1053C0006DFB401B0228F5D903201EE1294B00226A
:1053D000C3F8802EFEF762FB0546254B5B6F13F08A
:1053E000020F06D0FEF75AFB401B0228F5D9032016
:1053F0000BE1236813F0040F76D01D4B1B6C13F0E8
:10540000805F33D100230193194B1A6C42F0805214
:105410001A641B6C03F080530193019B0125164B0A
:105420001B6813F4807F29D0A368012B3AD0052B89
:105430003ED00F4B1A6F22F001021A671A6F22F04A
:1054400004021A67A368002B3CD0FEF727FB064630
:10545000074B1B6F13F0020F45D1FEF71FFB801B9C
:1054600041F288339842F3D90320CEE00025D6E7F5
:105470000038024000004742007000406B4A136849
:1054800043F480731360FEF709FB0646674B1B6805
:1054900013F4807FC8D1FEF701FB801B0228F5D9E9
:1054A0000320B2E0624A136F43F001031367C9E7B8
:1054B0005F4B1A6F42F004021A671A6F42F0010242
:1054C0001A67BFE7FEF7EAFA0646594B1B6F13F05F
:1054D000020F08D0FEF7E2FA801B41F288339842AF
:1054E000F3D9032091E0EDB9A369002B00F08C8083
:1054F0004F4A926802F00C02082A54D0022B17D0AF
:105500004C4B00221A66FEF7C9FA0446484B1B684A
:1055100013F0007F45D0FEF7C1FA001B0228F5D931
:10552000032072E0424A136C23F080531364DBE7DC
:10553000404B00221A66FEF7B1FA05463C4B1B6849
:1055400013F0007F06D0FEF7A9FA401B0228F5D918
:1055500003205AE0E369226A1343626A43EA821332
:10556000A26A5208013A43EA0243E26A43EA02634A
:10557000226B43EA02732E4A53602E4B01221A66B5
:10558000FEF78CFA04462A4B1B6813F0007F06D105
:10559000FEF784FA001B0228F5D9032035E000202D
:1055A00033E0002031E0012B31D0214B5B6803F464
:1055B0008001E26991422CD103F03F02216A8A42C4
:1055C00029D1616A47F6C0721A40B2EB811F24D11B
:1055D00003F44031A26A5208013AB1EB024F1ED1E6
:1055E00003F07062E16AB2EB016F1AD103F0E0439D
:1055F000226BB3EB027F16D1002006E0012070473A
:10560000012002E0012000E0002002B070BD012076
:10561000FBE70120F9E70120F7E70120F5E701208A
:10562000F3E70120F1E70120EFE700BF0070004041
:10563000003802400000474282B000230193164B1D
:105640001B68164AA2FB03235B0A642202FB03F3D6
:105650000093009B43B1009B013B009303689B6850
:1056600013F0020FF5D003E0436D43F040034365B0
:105670000268136823F0400313600268536823F044
:10568000E00353600368DB680193019B072380F804
:10569000513002B0704700BF10000020F1197605AC
:1056A0000268536823F0800353600268136823F094
:1056B00040031360072380F85130704700285AD008
:1056C00010B50446436A33B94368B3F5827F05D009
:1056D0000023C36102E00023036143610023A3624E
:1056E00094F85130002B40D0022384F851302268C6
:1056F000136823F040031360636803F48273A268A5
:1057000002F404421343E26802F400621343226984
:1057100002F002021343626902F001021343A2691C
:1057200002F400721343E26902F038021343226A62
:1057300002F080021343A26A02F40052216813436C
:105740000B60638B03F00403626A02F010022168AD
:1057500013434B602268D36923F40063D3610020B4
:105760006065012384F8513010BD84F85030204624
:10577000FDF798FEB8E701207047000010B584B02F
:1057800004464B4B1B684B4AA2FB03235B0A642273
:1057900002FB03F30293029B03930268536823F016
:1057A000200353600268536813F0800F12D0424BFD
:1057B0004364039B43B1039B013B039394F8513033
:1057C000DBB2072BF5D103E0636D43F04003636563
:1057D000029B0393536813F0400F12D0374B23649E
:1057E000039B43B1039B013B039394F85130DBB21D
:1057F000072BF5D103E0636D43F040036365029B23
:105800000393536813F0020F1DD0A36CDBB1002289
:105810001A65A06CFEF7E9FA08B1402363652268B7
:10582000536823F002035360039B43B1039B013B86
:10583000039323689B6813F0020FF5D003E0636DB8
:1058400043F04003636523685B6813F0010F13D0D6
:10585000E36C8BB100221A65E06CFEF7C6FA08B162
:10586000402363652268136823F0400313602268B5
:10587000536823F0010353600023E387E386636DDD
:10588000402B12D000206065002200922368D96866
:10589000009199680091009901929B680193019B86
:1058A000012384F8513004B010BD0120ECE700BFA3
:1058B00010000020F1197605A1560008395600089D
:1058C0007047000030B585B004460268516893689F
:1058D000C3F3801013F0400F05D113F0010F02D075
:1058E00011F0400F69D113F0020F02D011F0800FB8
:1058F00067D1C3F3401513F0200F03D110B913F48F
:10590000807F61D011F0200F5ED078B194F8510003
:10591000C0B203285AD0606D40F0040060650020DA
:105920000090D068009090680090009865B1606D1C
:1059300040F00100606500200290906802901068BD
:1059400020F040001060029A13F4807F09D0636D4C
:1059500043F0080363650023039323689B68039364
:10596000039B636D002B2FD02268536823F0E00364
:105970005360012384F8513011F0030F2ED02268B8
:10598000536823F003035360E36C4BB1154A1A6567
:10599000E06CFEF774FA18B1636D43F04003636581
:1059A000A36C8BB10F4A1A65A06CFEF768FA58B168
:1059B000636D43F04003636506E0236C204698471F
:1059C00002E0636C2046984705B030BD0023019388
:1059D000D368019393680193019BF5E72046FFF795
:1059E0006FFFF1E7E959000808B5806B0023C38712
:1059F000C386FFF765FF08BD30B4036A23F00103D7
:105A00000362036A4268846924F0730C0C6844EAF8
:105A10000C0423F0020C8B6843EA0C03114DA842DE
:105A200003D005F58065A84205D123F00803CD68B1
:105A30002B4323F004030B4DA84203D005F58065EA
:105A4000A84207D122F440724D6945EA020C8A69E6
:105A500042EA0C02426084614A684263036230BCDD
:105A6000704700BF0000014030B4036A23F4807324
:105A70000362036A4268C46924F0730C0C6844EA48
:105A80000C0523F400738C6843EA0423114CA042F4
:105A900003D004F58064A04206D123F40063CC68EF
:105AA00043EA042323F480630A4CA04203D004F5A4
:105AB0008064A04207D122F440524C6942EA0412A9
:105AC0008C6942EA04124260C5614A68C26303629B
:105AD00030BC70470000014030B4036A23F48053A7
:105AE0000362036A4468C26922F4E6420D6842EA2E
:105AF000052223F400538D6843EA0533094DA8427B
:105B000003D005F58065A84204D124F480444D6992
