:020000040800F2
:10000000000002206D330008453200084732000826
:10001000493200084B3200084D3200080000000051
:100020000000000000000000000000004F32000847
:100030005132000800000000533200085532000819
:10004000BD330008BD330008BD330008BD330008D0
:10005000BD330008BD330008BD330008BD330008C0
:10006000BD330008BD330008BD330008BD330008B0
:100070005D320008BD330008BD330008BD33000801
:100080006D320008BD330008BD330008BD330008E1
:10009000BD330008BD330008BD330008BD33000880
:1000A000BD330008BD330008BD330008BD33000870
:1000B000BD330008BD330008BD330008BD33000860
:1000C000BD330008BD330008BD3300087D32000891
:1000D000BD330008BD330008BD330008BD33000840
:1000E000BD330008BD330008BD330008BD33000830
:1000F000BD330008BD330008BD330008BD33000820
:10010000BD330008BD330008BD330008BD3300080F
:10011000BD330008BD330008BD330008BD330008FF
:10012000BD330008BD3300088D3200089D32000841
:10013000BD3300080000000000000000BD330008CF
:10014000BD330008BD330008BD330008BD330008CF
:10015000BD330008BD330008BD330008BD330008BF
:10016000BD330008BD330008BD330008BD330008AF
:10017000BD330008BD330008BD3300080000000097
:1001800000000000BD330008000000000000000077
:10019000BD3300080000000000000000BD3300086F
:1001A000000000000000000000000000BD33000857
:1001B000BD330008BD330008BD330008BD3300085F
:0401C000BD33000843
:1002000081F0004102E000BF83F0004330B54FEAC7
:1002100041044FEA430594EA050F08BF90EA020F34
:100220001FBF54EA000C55EA020C7FEA645C7FEAC7
:10023000655C00F0E2804FEA5454D4EB5555B8BFEA
:100240006D420CDD2C4480EA020281EA030382EA5B
:10025000000083EA010180EA020281EA0303362DED
:1002600088BF30BD11F0004F4FEA01314FF4801CC0
:100270004CEA113102D0404261EB410113F0004FD2
:100280004FEA03334CEA133302D0524263EB430389
:1002900094EA050F00F0A780A4F10104D5F1200E27
:1002A0000DDB02FA0EFC22FA05F2801841F1000182
:1002B00003FA0EF2801843FA05F359410EE0A5F156
:1002C00020050EF1200E012A03FA0EFC28BF4CF087
:1002D000020C43FA05F3C01851EBE37101F000453D
:1002E00007D54FF0000EDCF1000C7EEB00006EEB4A
:1002F0000101B1F5801F1BD3B1F5001F0CD34908D4
:100300005FEA30004FEA3C0C04F101044FEA44522A
:1003100012F5800F80F09A80BCF1004F08BF5FEAB1
:10032000500C50F1000041EB045141EA050130BD91
:100330005FEA4C0C404141EB0101013C28BFB1F5A3
:10034000801FE9D291F0000F04BF01460020B1FAEE
:1003500081F308BF2033A3F10B03B3F120020CDAC1
:100360000C3208DD02F1140CC2F10C0201FA0CF09F
:1003700021FA02F10CE002F11402D8BFC2F1200C04
:1003800001FA02F120FA0CFCDCBF41EA0C019040BA
:10039000E41AA2BF01EB0451294330BD6FEA040403
:1003A0001F3C1CDA0C340EDC04F11404C4F12002EE
:1003B00020FA04F001FA02F340EA030021FA04F300
:1003C00045EA030130BDC4F10C04C4F1200220FA57
:1003D00002F001FA04F340EA0300294630BD21FA95
:1003E00004F0294630BD94F0000F83F4801306BF5B
:1003F00081F480110134013D4EE77FEA645C18BF4F
:100400007FEA655C29D094EA050F08BF90EA020FE5
:1004100005D054EA000C04BF1946104630BD91EADD
:10042000030F1EBF0021002030BD5FEA545C05D1E0
:100430004000494128BF41F0004130BD14F580041F
:100440003CBF01F5801130BD01F0004545F0FE4193
:1004500041F470014FF0000030BD7FEA645C1ABFC8
:10046000194610467FEA655C1CBF0B46024650EAFF
:10047000013406BF52EA033591EA030F41F400212B
:1004800030BD00BF90F0000F04BF0021704730B5B1
:100490004FF4806404F132044FF000054FF0000186
:1004A00050E700BF90F0000F04BF0021704730B547
:1004B0004FF4806404F1320410F0004548BF40421C
:1004C0004FF000013EE700BF42004FEAE2014FEA71
:1004D00031014FEA02701FBF12F07F4393F07F4F4C
:1004E00081F06051704732F07F4208BF704793F04F
:1004F0007F4F04BF41F40021704730B54FF4607462
:1005000001F0004521F000411CE700BF50EA010264
:1005100008BF704730B54FF000050AE050EA01020D
:1005200008BF704730B511F0004502D5404261EB7D
:1005300041014FF4806404F132045FEA915C3FF4BE
:10054000D8AE4FF003025FEADC0C18BF03325FEA5B
:10055000DC0C18BF033202EBDC02C2F1200300FA0C
:1005600003FC20FA02F001FA03FE40EA0E0021FA31
:1005700002F11444BDE600BF4FF0FF3C06E000BFAF
:100580004FF0010C02E000BF4FF0010C4DF804CD1C
:100590004FEA410C7FEA6C5C4FEA430C18BF7FEADC
:1005A0006C5C1BD001B050EA410C0CBF52EA430C0A
:1005B00091EA030F02BF90EA020F0020704710F18A
:1005C000000F91EA030F58BF994208BF90422CBF19
:1005D000D8176FEAE37040F0010070474FEA410C12
:1005E0007FEA6C5C02D150EA013C07D14FEA430C30
:1005F0007FEA6C5CD6D152EA033CD3D05DF8040BA1
:10060000704700BF8446104662468C4619466346D2
:1006100000E000BF01B5FFF7B7FF002848BF10F1A9
:10062000000F01BD4DF808EDFFF7F4FF0CBF0120EE
:1006300000205DF808FB00BF4DF808EDFFF7EAFF6A
:1006400034BF012000205DF808FB00BF4DF808ED25
:10065000FFF7E0FF94BF012000205DF808FB00BF1A
:100660004DF808EDFFF7CEFF94BF012000205DF8A4
:1006700008FB00BF4DF808EDFFF7C4FF34BF0120B1
:1006800000205DF808FB00BF80F0004002E000BFE2
:1006900081F0004142001FBF5FEA410392EA030F6D
:1006A0007FEA226C7FEA236C6AD04FEA1262D2EBB7
:1006B0001363C1BFD218414048404140B8BF5B42BC
:1006C000192B88BF704710F0004F40F4000020F055
:1006D0007F4018BF404211F0004F41F4000121F06B
:1006E0007F4118BF494292EA030F3FD0A2F10102B5
:1006F00041FA03FC10EB0C00C3F1200301FA03F1F3
:1007000000F0004302D5494260EB4000B0F5000F15
:1007100013D3B0F1807F06D340084FEA310102F1D4
:100720000102FE2A51D2B1F1004F40EBC25008BF86
:1007300020F0010040EA03007047490040EB000050
:10074000013A28BFB0F5000FEDD2B0FA80FCACF151
:10075000080CB2EB0C0200FA0CF0AABF00EBC2507E
:1007600052421843BCBFD0401843704792F0000F6C
:1007700081F4000106BF80F400000132013BB5E7BF
:100780004FEA41037FEA226C18BF7FEA236C21D035
:1007900092EA030F04D092F0000F08BF084670479A
:1007A00090EA010F1CBF0020704712F07F4F04D168
:1007B000400028BF40F00040704712F100723CBF7B
:1007C00000F50000704700F0004343F0FE4040F4A5
:1007D000000070477FEA226216BF08467FEA236363
:1007E0000146420206BF5FEA412390EA010F40F44E
:1007F000800070474FF0000304E000BF10F000439A
:1008000048BF40425FEA000C08BF704743F0964380
:1008100001464FF000001CE050EA010208BF70479B
:100820004FF000030AE000BF50EA010208BF704722
:1008300011F0004302D5404261EB41015FEA010C37
:1008400002BF84460146002043F0B64308BFA3F12F
:100850008053A3F50003BCFA8CF2083AA3EBC25311
:1008600010DB01FA02FC634400FA02FCC2F1200230
:10087000BCF1004F20FA02F243EB020008BF20F067
:100880000100704702F1200201FA02FCC2F12002CD
:1008900050EA4C0021FA02F243EB020008BF20EAC2
:1008A000DC7070474FF0FF0C1CEAD0521EBF1CEAF0
:1008B000D15392EA0C0F93EA0C0F6FD01A4480EADE
:1008C000010C400218BF5FEA41211ED04FF00063C7
:1008D00043EA501043EA5111A0FB01310CF00040F3
:1008E000B1F5000F3EBF490041EAD3715B0040EA19
:1008F000010062F17F02FD2A1DD8B3F1004F40EBE9
:10090000C25008BF20F00100704790F0000F0CF0BB
:10091000004C08BF49024CEA502040EA51207F3A7F
:10092000C2BFD2F1FF0340EAC250704740F400005A
:100930004FF00003013A5DDC12F1190FDCBF00F04B
:1009400000407047C2F10002410021FA02F1C2F1F9
:10095000200200FA02FC5FEA310040F1000053EA95
:100960004C0308BF20EADC70704792F0000F00F0E3
:10097000004C02BF400010F4000F013AF9D040EAE9
:100980000C0093F0000F01F0004C02BF490011F47D
:10099000000F013BF9D041EA0C018FE70CEAD1537B
:1009A00092EA0C0F18BF93EA0C0F0AD030F0004CFB
:1009B00018BF31F0004CD8D180EA010000F00040AF
:1009C000704790F0000F17BF90F0004F084691F06D
:1009D000000F91F0004F14D092EA0C0F01D14202A7
:1009E0000FD193EA0C0F03D14B0218BF084608D170
:1009F00080EA010000F0004040F0FE4040F40000BA
:100A0000704740F0FE4040F4400070474FF0FF0C4C
:100A10001CEAD0521EBF1CEAD15392EA0C0F93EA93
:100A20000C0F69D0A2EB030280EA010C49024FEAE5
:100A3000402037D04FF0805343EA111143EA10139E
:100A40000CF000408B4238BF5B0042F17D024FF456
:100A5000000C8B4224BF5B1A40EA0C00B3EB510F31
:100A600024BFA3EB510340EA5C00B3EB910F24BF1A
:100A7000A3EB910340EA9C00B3EBD10F24BFA3EB9F
:100A8000D10340EADC001B0118BF5FEA1C1CE0D167
:100A9000FD2A3FF650AF8B4240EBC25008BF20F01A
:100AA000010070470CF0004C4CEA50207F32C2BF6E
:100AB000D2F1FF0340EAC250704740F400004FF00B
:100AC0000003013A37E792F0000F00F0004C02BF3C
:100AD000400010F4000F013AF9D040EA0C0093F006
:100AE000000F01F0004C02BF490011F4000F013B60
:100AF000F9D041EA0C0195E70CEAD15392EA0C0FC8
:100B000008D142027FF47DAF93EA0C0F7FF470AFFF
:100B1000084676E793EA0C0F04D14B023FF44CAF42
:100B200008466EE730F0004C18BF31F0004CCAD1D7
:100B300030F000427FF45CAF31F000437FF43CAF13
:100B40005FE700BF4FF0FF3C06E000BF4FF0010C35
:100B500002E000BF4FF0010C4DF804CD4FEA400217
:100B60004FEA41037FEA226C18BF7FEA236C11D061
:100B700001B052EA530C18BF90EA010F58BFB2EB14
:100B8000030088BFC81738BF6FEAE17018BF40F094
:100B9000010070477FEA226C02D15FEA402C05D148
:100BA0007FEA236CE4D15FEA412CE1D05DF8040BCD
:100BB000704700BF844608466146FFE70FB5FFF760
:100BC000C9FF002848BF10F1000F0FBD4DF808ED18
:100BD000FFF7F4FF0CBF012000205DF808FB00BF09
:100BE0004DF808EDFFF7EAFF34BF012000205DF863
:100BF00008FB00BF4DF808EDFFF7E0FF94BF0120B0
:100C000000205DF808FB00BF4DF808EDFFF7D2FFAC
:100C100094BF012000205DF808FB00BF4DF808EDEF
:100C2000FFF7C8FF34BF012000205DF808FB00BFBC
:100C300042000ED2B2F1FE4F0BD34FF09E03B3EB46
:100C4000126209D44FEA002343F0004323FA02F072
:100C500070474FF00000704712F1610F01D142025E
:100C600002D14FF0FF3070474FF00000704700BFD7
:100C700053B94AB9002908BF00281CBF4FF0FF3103
:100C80004FF0FF3000F0E2B8ADF1080C6DE904CE92
:100C900038F0FCF9DDF804E0DDE9022304B0704728
:100CA00000F1340191E838009C46A6464CF8045DFA
:100CB00090E8FF0FE54600BD90EC210B704700BFA8
:100CC00080EC210B704700BF90EC200B704700BFF9
:100CD00080EC200B704700BFD0EC200B704700BFAA
:100CE000C0EC200B704700BFF0EC0201F0EC0211E9
:100CF000F0EC0221F0EC0231F0EC0241F0EC025198
:100D0000F0EC0261F0EC0271F0EC0281F0EC029187
:100D1000F0EC02A1F0EC02B1F0EC02C1F0EC02D177
:100D2000F0EC02E1F0EC02F1704700BFE0EC0201F0
:100D3000E0EC0211E0EC0221E0EC0231E0EC0241D7
:100D4000E0EC0251E0EC0261E0EC0271E0EC0281C7
:100D5000E0EC0291E0EC02A1E0EC02B1E0EC02C1B7
:100D6000E0EC02D1E0EC02E1E0EC02F1704700BF00
:100D7000B0FC0181B0FC0191B0FC01A1B0FC01B15B
:100D8000704700BFA0FC0181A0FC0191A0FC01A163
:100D9000A0FC01B1704700BFEC4600B52DE9005042
:100DA0002DE9FF1F4FF000032DE90C0001A938F0D9
:100DB00027FCDDF840E012B0704700BFEC4600B5FC
:100DC0002DE900502DE9FF1F4FF000032DE90C0025
:100DD00001A938F051FCDDF840E012B0704700BFC7
:100DE000EC4600B52DE900502DE9FF1F4FF0000340
:100DF0002DE90C0001A938F061FCDDF840E012B0EB
:100E0000704700BFEC4600B52DE900502DE9FF1FEB
:100E10004FF000032DE90C0001AB38F025FCDDF8A4
:100E200040E012B0704700BFEC4600B52DE900501D
:100E30002DE9FF1F4FF000032DE90C0001AA38F047
:100E40009DFCDDF840E012B0704700BF704700BF66
:100E50000000000000000000000000000000000092
:100E600002780B78012A28BF9A4240F0D8806DE9B9
:100E7000044540EA0104CDE902676FF0000C4FEA37
:100E800044721AB380EA010414F0070F6BD100F02A
:100E9000070420F0070004F0030521F007014FEAE2
:100EA000C505F0E8042314F0040FF1E804670CFA18
:100EB00005F462EA040266EA04060BD063EA04035E
:100EC000624667EA0407664604E000BFF0E80423D0
:100ED000F1E8046782FA4CF582EA0604A4FA8CF47D
:100EE0006CBB83FA4CF583EA0705A5FA8CF595B936
:100EF00050E9022351E9026782FA4CF582EA0604BE
:100F0000A4FA8CF483FA4CF583EA0705A5FA8CF56C
:100F10002543DBD09CB92DBAB5FA85F424F007043B
:100F200027FA04F1DDE9026723FA04F303F0FF0076
:100F300001F0FF01FDE80445A0EB0100704724BA71
:100F4000B4FA84F424F0070426FA04F1DDE9026718
:100F500022FA04F202F0FF0001F0FF01FDE804456F
:100F6000A0EB0100704714F0030F3CD110F0030414
:100F700028D150F8082B51F8083B82FA4CF582EA48
:100F80000305A5FA8CF55DB950F8042C51F8043C22
:100F900082FA4CF582EA0305A5FA8CF5002DE8D01B
:100FA0002DBAB5FA85F424F0070423FA04F122FAE5
:100FB00004F202F0FF0001F0FF01FDE80445A0EBA0
:100FC000010070474FEAC40420F0030050F8082BDA
:100FD00021F0030151F8083B0CFA04F462EA040220
:100FE00063EA0403C9E710F003041DD0A1EB040178
:100FF00020F00300E40750F8042B06D012D28B78BF
:101000005FFAA2F4E41A06D12BB1CB785FFAB2F4FE
:10101000E41A00D133B920465DF8104B7047A2EBBB
:101020000300704701F1040150F8042BCC0721F0B4
:10103000030151F8043B48D824D222F07F4482FABD
:101040004CF594EA1325A5FA8CF50AD165B951F847
:10105000043B84EA0204B4EB036F0ED150F8042B76
:10106000EBE74FEA132355E035F07F454DD1087883
:10107000FDE80445C0F1000070474FEA126203F03A
:10108000FF0347E002EA1C4482FA4CF594EA134558
:10109000A5FA8CF50AD165B951F8043B84EA02043B
:1010A000B4EB034F0CD150F8042BEBE74FEA13439A
:1010B00030E015EA1C4528D10B884FEA124229E09E
:1010C0004FEA124203EA1C4324E002F0FF0482FAD2
:1010D0004CF594EA1365A5FA8CF50AD165B951F877
:1010E000043B84EA0204B4EB032F09D150F8042B2B
:1010F000EBE74FEA13630DE015F0FF0F05D10B6826
:101100004FEA122223F07F4304E04FF00000FDE895
:101110000445704712BA1BBA82FA4CF482EA0304FF
:10112000A4FA8CF5B5FA85F402FA04F203FA04F392
:101130004FEA1260FDE80445A0EB1360704700BF62
:1011400001F0FF01102A2BDB10F0070F08D010F878
:10115000013B013A8B422DD010F0070F42B3F6D17C
:10116000F0B441EA012141EA014122F007047FF095
:1011700000070023F0E80256083C85EA010586EAEC
:10118000010685FA47F5A3FA87F586FA47F6A5FA28
:1011900087F68EB9EED1F0BC01F0FF0102F0070234
:1011A00032B110F8013B013A83EA010313B1F8D1DF
:1011B0000020704701387047002D06BF35460338C0
:1011C000073815F0010F07D1013015F4807F02BFF9
:1011D000013015F4C03F0130F0BC0138704700BF4A
:1011E000844641EA000313F003036DD1403A41D332
:1011F00051F8043B40F8043B51F8043B40F8043BF1
:1012000051F8043B40F8043B51F8043B40F8043BE0
:1012100051F8043B40F8043B51F8043B40F8043BD0
:1012200051F8043B40F8043B51F8043B40F8043BC0
:1012300051F8043B40F8043B51F8043B40F8043BB0
:1012400051F8043B40F8043B51F8043B40F8043BA0
:1012500051F8043B40F8043B51F8043B40F8043B90
:1012600051F8043B40F8043B51F8043B40F8043B80
:10127000403ABDD2303211D351F8043B40F8043B20
:1012800051F8043B40F8043B51F8043B40F8043B60
:1012900051F8043B40F8043B103AEDD20C3205D330
:1012A00051F8043B40F8043B043AF9D2043208D028
:1012B000D2071CBF11F8013B00F8013B01D30B889A
:1012C00003806046704700BF082A13D38B078DD078
:1012D00010F003038AD0C3F10403D21ADB071CBF4A
:1012E00011F8013B00F8013B80D331F8023B20F8B4
:1012F000023B7BE7043AD9D3013A11F8013B00F8ED
:10130000013BF9D20B7803704B7843708B78837074
:101310006046704700000000000000000000000070
:1013200000000000000000000000000000000000BD
:1013300000000000000000000000000000000000AD
:1013400030B490F800F020F007016FF0000C10F0BE
:10135000070491F820F040F048804FF000046FF04F
:101360000700D1E9002391F840F000F1080082FA6B
:101370004CF2A4FA8CF283FA4CF3A2FA8CF34BBB36
:10138000D1E9022382FA4CF200F10800A4FA8CF2AF
:1013900083FA4CF3A2FA8CF3E3B9D1E9042382FA7D
:1013A0004CF200F10800A4FA8CF283FA4CF3A2FA92
:1013B0008CF37BB9D1E9062301F1200182FA4CF2CA
:1013C00000F10800A4FA8CF283FA4CF3A2FA8CF331
:1013D000002BC6D0002A04BF04301A4612BAB2FA53
:1013E00082F200EBD20030BC7047D1E9002304F058
:1013F0000305C4F100004FEAC50514F0040F91F88D
:1014000040F00CFA05F562EA05021CBF63EA050329
:1014100062464FF00004AAE770B54FF0FF0C4CF4A1
:10142000E06C1CEA11541DBF1CEA135594EA0C0F22
:1014300095EA0C0F00F0DEF82C4481EA030621EA5D
:101440004C5123EA4C5350EA013518BF52EA033598
:1014500041F4801143F4801338D0A0FB02CE4FF04A
:101460000005E1FB02E506F00042E0FB03E54FF07A
:101470000006E1FB03569CF0000F18BF4EF0010E72
:10148000A4F1FF04B6F5007F64F5407404D25FEA6E
:101490004E0E6D4146EB060642EAC62141EA555121
:1014A0004FEAC52040EA5E504FEACE2EB4F1FD0C63
:1014B00088BFBCF5E06F1ED8BEF1004F08BF5FEAE1
:1014C000500E50F1000041EB045170BD06F0004693
:1014D00046EA010140EA020081EA0301B4EB5C0440
:1014E000C2BFD4EB0C0541EA045170BD41F4801138
:1014F0004FF0000E013C00F3AB8014F1360FDEBF5D
:10150000002001F0004170BDC4F10004203C35DA38
:101510000C341BDC04F11404C4F1200500FA05F3BB
:1015200020FA04F001FA05F240EA020001F000425C
:1015300021F0004110EBD37021FA04F642EB0601D2
:101540005EEA430E08BF20EAD37070BDC4F10C04FC
:10155000C4F1200500FA04F320FA05F001FA04F2C0
:1015600040EA020001F0004110EBD37041F10001AC
:101570005EEA430E08BF20EAD37070BDC4F12005B7
:1015800000FA05F24EEA020E20FA04F301FA05F21F
:1015900043EA020321FA04F001F0004121FA04F2C7
:1015A00020EA020000EBD3705EEA430E08BF20EA97
:1015B000D37070BD94F0000F0FD101F000464000D1
:1015C00041EB010111F4801F08BF013CF7D041EA53
:1015D000060195F0000F18BF704703F00046520057
:1015E00043EB030313F4801F08BF013DF7D043EA28
:1015F0000603704794EA0C0F0CEA135518BF95EADE
:101600000C0F0CD050EA410618BF52EA4306D1D164
:1016100081EA030101F000414FF0000070BD50EA83
:10162000410606BF1046194652EA430619D094EA0D
:101630000C0F02D150EA013613D195EA0C0F05D1F7
:1016400052EA03361CBF104619460AD181EA03014B
:1016500001F0004141F0FE4141F470014FF0000003
:1016600070BD41F0FE4141F4780170BD70B54FF09E
:10167000FF0C4CF4E06C1CEA11541DBF1CEA13551E
:1016800094EA0C0F95EA0C0F00F0A7F8A4EB050400
:1016900081EA030E52EA03354FEA013100F08880F7
:1016A0004FEA03334FF0805545EA131343EA1263C0
:1016B0004FEA022245EA111545EA10654FEA002675
:1016C0000EF000419D4208BF964244F1FD0404F52E
:1016D000407402D25B084FEA3202B61A65EB03058A
:1016E0005B084FEA32024FF480104FF4002CB6EB47
:1016F000020E75EB030E22BFB61A754640EA0C00C7
:101700005B084FEA3202B6EB020E75EB030E22BF06
:10171000B61A754640EA5C005B084FEA3202B6EB47
:10172000020E75EB030E22BFB61A754640EA9C0006
:101730005B084FEA3202B6EB020E75EB030E22BFD6
:10174000B61A754640EADC0055EA060E18D04FEA94
:10175000051545EA16754FEA06164FEAC30343EA34
:1017600052734FEAC2025FEA1C1CC0D111F4801F01
:101770000BD141EA00014FF000004FF0004CB6E7FA
:1017800011F4801F04BF01430020B4F1FD0C88BF99
:10179000BCF5E06F3FF6AFAEB5EB030C04BFB6EBA4
:1017A000020C5FEA500C50F1000041EB045170BD97
:1017B0000EF0004E4EEA113114EB5C04C2BFD4EBC4
:1017C0000C0541EA045170BD41F480114FF0000E48
:1017D000013C90E645EA060E8DE60CEA135594EAC4
:1017E0000C0F08BF95EA0C0F3FF43BAF94EA0C0FC7
:1017F0000AD150EA01347FF434AF95EA0C0F7FF43C
:1018000025AF104619462CE795EA0C0F06D152EA8F
:1018100003353FF4FDAE1046194622E750EA410673
:1018200018BF52EA43067FF4C5AE50EA41047FF484
:101830000DAF52EA43057FF4EBAE12E74FEA410CDD
:101840007FEA6C5C02D150EA013C0AD14FEA430CBA
:101850007FEA6C5C02D152EA033C02D14FF00000F7
:1018600070474FF0010070474FEA410212F5001235
:1018700015D211D56FF47873B3EB625212D94FEAD7
:10188000C12343F0004343EA505311F0004F23FAC1
:1018900002F018BF404270474FF00000704750EA16
:1018A000013005D111F0004008BF6FF000407047D3
:1018B0004FF00000704700BF4A0011D212F500122D
:1018C00011D20DD56FF47873B3EB62520ED44FEA98
:1018D000C12343F0004343EA505323FA02F0704718
:1018E0004FF00000704750EA013002D14FF0FF3056
:1018F00070474FF0000070474FEA4102B2F1E043F9
:1019000024BFB3F5001CDCF1FE5C0DD901F0004CE6
:101910004FEAC0024CEA5070B2F1004F40EB830036
:1019200008BF20F00100704711F0804F21D113F162
:101930003872BCBF01F00040704741F480114FEA9B
:101940005252C2F11802C2F1200C10FA0CF320FA24
:1019500002F018BF40F001004FEAC1234FEAD32341
:1019600003FA0CFC40EA0C0023FA02F34FEA4303AB
:10197000CCE77FEA625307D150EA01331EBF4FF034
:10198000FE4040F44000704701F0004040F0FE404F
:1019900040F40000704700BF4FEA40024FEA4103A5
:1019A0007FEA226C02D15FEA402C08D17FEA236CE7
:1019B00002D15FEA412C02D14FF0000070474FF096
:1019C000010070470348044B834202D0034B03B12C
:1019D0001847704780100020801000200000000091
:1019E0000548064B1B1AD90F01EBA301491002D081
:1019F000034B03B11847704780100020801000206F
:101A00000000000010B5064C237843B9FFF7DAFF59
:101A1000044B13B10448AFF300800123237010BDC1
:101A2000801000200000000058DB040808B5054BBA
:101A30001BB105490548AFF30080BDE80840FFF73A
:101A4000CFBF00BF000000008410002058DB040856
:101A5000002303704370837070470170427083707D
:101A60007047C170704710B50446FFF7F1FF64215D
:101A70002046FFF7F6FF204610BD82B000680190B7
:101A800000209DF8043063F307009DF8053063F3F0
:101A90000F209DF8063063F317409DF8073063F37D
:101AA0001F6002B070472DE9F0410F4616461D46F3
:101AB0000468D0F8048006E02B463246394654F8D4
:101AC000040BFFF7CAFFA045F6D1BDE8F08170B561
:101AD0000D460468466804E0294654F8040BFFF7F5
:101AE000C0FFA642F8D170BD10B5044600210068C1
:101AF00003F03EFC0023237610BD000008B54368C8
:101B000002689B1AB1EBA30F00D208BD9A100148DE
:101B100018F044FF80DB040838B504460D460C304D
:101B2000FFF7ECFFE36853F8250038BD4068043840
:101B3000704703684268934200D043607047406832
:101B40000438704708B50846910003F0BBFE08BD95
:101B500010B5044601688268521A11B19210FFF75D
:101B6000F1FF204610BD10B50446FFF7F1FF2046F7
:101B700010BD10B584B08446019144680368E31A2F
:101B800098106FF0604EAEEBA3038B4210D303901E
:101B9000814210D803AB1B681844DCF80030E41A0B
:101BA000B0EBA40F09D3B0F1005F09D204B010BDAF
:101BB000104618F0DBFE01ABEDE76FF06040F5E793
:101BC0006FF06040F2E708B50846910003F07AFE36
:101BD00008BD10B5044601688268521A11B192100E
:101BE000FFF7F1FF204610BD10B50446FFF7F1FFE7
:101BF000204610BD10B584B0844601914468036846
:101C0000E31A98106FF0604EAEEBA3038B4210D333
:101C10000390814210D803AB1B681844DCF80030F5
:101C2000E41AB0EBA40F09D3B0F1005F09D204B0FD
:101C300010BD104618F09AFE01ABEDE76FF0604062
:101C4000F5E76FF06040F2E708B5B1F1005F03D24D
:101C5000880004F037FA08BDB1F1804F01D318F0C5
:101C60004DFE18F03BFE00002DE9F84F05468A4670
:101C700093461E4A0121FFF77CFFD5F800806F686C
:101C8000AAEB0804814618B3002201462846FFF754
:101C9000DBFF0646DBF800303351002C1ADC04343D
:101CA0003444A7EB0A07002F1ADC3C44AA68A2EBD5
:101CB00008029210B8F1000F03D041462846FFF702
:101CC00041FF2E606C6006EB8906AE60BDE8F88FC0
:101CD0000026DFE72246414630463BF067FCDEE760
:101CE0003A46514620463BF061FCDEE7CCDB040877
:101CF00010B5044643688268934208D00A681A60A7
:101D00004368043343602046FFF710FF10BD0A46C6
:101D10001946FFF7A9FFF6E7F0B585B005460F466F
:101D2000694681E80C000023036043608360144629
:101D3000019E164400E00134B4420DD0237807EB35
:101D40000313039303A92846FFF7D2FFF3E72846BE
:101D5000FFF709FF03F0B8FD284605B0F0BDF0B568
:101D600083B005460F461646002404604460846034
:101D700000E00134A6420CDD07EB0413019301A936
:101D80002846FFF7B5FFF4E72846FFF7ECFE03F01F
:101D90009BFD284603B0F0BD2DE9F04184B0064616
:101DA000684680E806009DF8288003C886E805009C
:101DB00033720024F460346174613476F461346207
:101DC000746208E00546FFF74EFE039503A9384606
:101DD000FFF78EFF0134A0450EDD06F10C0704204D
:101DE00004F070F9EEE706F11C00FFF7FDFE38463F
:101DF000FFF7B9FE03F068FD304604B0BDE8F0819E
:101E000008B5B1F1005F03D2880004F05BF908BDAA
:101E1000B1F1804F01D318F071FD18F05FFD0000A3
:101E20002DE9F84F05468A4693461E4A0121FFF7E1
:101E3000E1FED5F800806F68AAEB0804814618B36C
:101E4000002201462846FFF7DBFF0646DBF800309C
:101E50003351002C1ADC04343444A7EB0A07002F5A
:101E60001ADC3C44AA68A2EB08029210B8F1000FF9
:101E700003D041462846FFF7A6FE2E606C6006EBB5
:101E80008906AE60BDE8F88F0026DFE722464146AE
:101E900030463BF08BFBDEE73A46514620463BF0AE
:101EA00085FBDEE7CCDB040810B504464368826896
:101EB000934208D00A681A6043680433436020469E
:101EC000FFF73DFE10BD0A461946FFF7A9FFF6E7EA
:101ED0002DE9F04F89B007463B7E002BFCD107F17E
:101EE0001C063046FFF725FEFB68D7F8109010E07F
:101EF0001923069306A93046FFF7D6FF013C002CB4
:101F000005DB0123A3401D42F2D03323F1E708F1A2
:101F10000403984699453CD0D3F800A05046FFF7FB
:101F2000ACFD00909DF801505046FFF7A6FD0190D2
:101F30009DF8073003FB05F5DFF880B08BFB053516
:101F40006D112D045046FFF798FD02909DF8084052
:101F50005046FFF792FD03909DF80F3004FB03F30A
:101F60008BFB03235B1145EA03255046FFF785FDF4
:101F700004909DF812405046FFF77FFD05909DF8B4
:101F8000173003FB04F48BFB04B445EA64151724F3
:101F9000B5E70023079307A93046FFF785FFFA69E5
:101FA0003B6A9B1AC3F38F033979386803F094F8BE
:101FB00001233B7609B0BDE8F08F00BF1F85EB51D0
:101FC000016002718360704770B504460D468668F3
:101FD000B6F90000FEF712FC2946FEF75BFB05464A
:101FE000B6F90200FEF70AFC01462846FEF70EFD90
:101FF0004FF07F51FEF74EFB054623681E68F06ADE
:10200000FEF7F8FB2946FEF74DFC0549FEF7FEFCFE
:10201000FEF70EFE70632179206802F0DBFF70BDD1
:102020000000A04110B5044600228188006801F03C
:10203000F9FD0022A189A06801F0F4FD10BD0000A7
:1020400070B5044690F91830002B25DD01228188F7
:10205000006801F0E7FD0022A189A06801F0E2FD1F
:1020600094F918000028B8BF4042C0B2FEF7C6FB82
:102070000F49FEF7CBFC054623691E68F06AFEF7A0
:10208000B9FB2946FEF70EFCFEF7D2FD7063A18A6C
:10209000206902F09FFF70BD00228188006801F076
:1020A000C1FD0122A189A06801F0BCFDD8E700BFF5
:1020B0000000C84208B50176FFF7C2FF08BD84B032
:1020C00000B50DF1080C8CE80E008646BCE80F0048
:1020D000AEE80F009CE803008EE803005DF804EB17
:1020E00004B0704770B590B00446816382870022C7
:1020F00080F83E200493BDF85030ADF81430159BA5
:102100000693BDF85830ADF81C301B9B0893BDF802
:102110007030ADF82430179B0A93BDF86030ADF8ED
:102120002C30199B0C93BDF86830ADF834301D9BF2
:102130000E93BDF87830ADF83C3007AE96E8070056
:102140008DE8070004AD95E80E002046FFF7B7FFC5
:1021500096E807008DE8070095E80E0004F11C00E2
:10216000FFF7ADFF204610B070BD002070470000A3
:102170002DE9F04784B00646D0F804C0BCF8015001
:1021800005F0030A8DF808A0C5F381098DF80990C0
:10219000C5F301188DF80A80C5F381178DF80B700F
:1021A000C5F301258DF80C500CF10800BCF80510A2
:1021B00000231C4604E0C25C2244D4B201339BB22B
:1021C0009942F8D89CF80030AA2B03D19CF807302C
:1021D000A34226D0A149A24823F052F873681B7885
:1021E000AA2B0AD17368DB79A3420BD19C4822F059
:1021F000DFFE012004B0BDE8F0879A49984823F03B
:102200003FF8EFE79849964823F03AF8214623F043
:10221000F7F8964923F034F87368D97923F0F0F889
:10222000E4E7002300930193AA238DF80030BB015B
:1022300043EA052343EA081343EA89034AEA03030E
:10224000ADF80130D6F8E40002F03CFA884B5A6A47
:1022500042F480525A625A6A22F480525A62BAF1A7
:10226000010F00F08580BAF1020F0BD1B368F2685C
:102270001188927819819A7203238DF80530002312
:102280008DF80630B9F1010F7FD0B9F1020F22D1DC
:10229000B268BDF8059009F10800F168CB1C024452
:1022A0003331D3F800E0D3F804C09C68D868C2F892
:1022B00000E0C2F804C09460D060103310328B424A
:1022C000EFD1186859689B6810605160936009F1FC
:1022D0003C09ADF80590B8F1010F79D0B8F1020FC3
:1022E0000AD1B268BDF80530F16891F83F101A4480
:1022F00011720133ADF80530012F75D0022F1CD1BA
:10230000D6F808E0BDF8051001F1080C0EEB0C0240
:10231000F3681F6C5C6C986CD3F84C804EF80C70B2
:1023200054609060C2F80C801F6D5C6D986D1761F1
:10233000546190611C31ADF80510012D6FD0022D54
:102340000ED1B068BDF8053003F108014418F268F9
:10235000D56D4550B2F86020A2800633ADF8053047
:10236000B56805F10804BDF8050000231A466BE0C6
:10237000F36872681189927A19809A7003238DF834
:10238000033000238DF804307CE7F2687368BDF8F1
:1023900003E00EF108010B44033203F13009D3F8D6
:1023A00000C05C689868D968C2F800C0546090604A
:1023B000D160103310324B45F1D1186859689B68D1
:1023C0001060516093600EF13C0EADF803E082E7BF
:1023D000F1687268BDF803301A44127A81F83F2020
:1023E0000133ADF8033087E7F3687468BDF8031074
:1023F00001F108002218275854689068D2F80CC0E0
:102400001F645C649864C3F84CC017695469906990
:102410001F655C6598651C31ADF803108DE7F268A7
:102420007068BDF8033003F1080144184158D165C4
:10243000A188A2F860100633ADF8033090E7E15CA4
:102440000A44D2B201339BB29842F8D88DF80720E3
:102450006B4603CB286069600020CBE6F0DB040804
:10246000C41A002024DC04083CDC040858DC0408FE
:10247000003802402DE9F04188B000240394049410
:1024800005940694079400943F4B1A6B42F00402A3
:102490001A631A6B02F004020092009A01941A6BFC
:1024A00042F001021A631A6B02F001020192019AD2
:1024B00002941A6B42F002021A631B6B03F00203D0
:1024C0000293029B314F22464FF49C71384601F033
:1024D000A9FB2F4E22464FF40061304601F0A2FBCB
:1024E0004FF48C730393012504950594069403A976
:1024F000384601F0A3FA0323039304944FF0020833
:10250000CDF8148003A9304601F098FA1023039304
:102510004FF488130493059503A9304601F08EFA11
:102520002023039304950594CDF8188003A9384619
:1025300001F084FA0723039304940594DFF8548090
:1025400003A9404601F07AFA4FF440430393049400
:10255000059503A9404601F071FA4FF40073039307
:102560000494059403A9384601F068FA4FF4006317
:102570000393112304930595069403A9304601F0B3
:102580005DFA08B0BDE8F081003802400008024062
:10259000000002400004024010B582B00024009404
:1025A0001A4B1A6B42F480021A631A6B02F480020F
:1025B0000092009A01941A6B42F400121A631B6B8A
:1025C00003F400130193019B224621460C2000F0E6
:1025D000A3FF0C2000F0B0FF22462146102000F09F
:1025E0009BFF102000F0A8FF224621463A2000F071
:1025F00093FF3A2000F0A0FF224621463B2000F046
:102600008BFF3B2000F098FF02B010BD0038024065
:102610002DE9F04F9DB06D4B1A466D4942F8101BE5
:102620005A6003F17A029A606A4ADA606A4A1A606A
:102630006A4B0C9300248DF83440694F09230093B2
:1026400023460CAA06CA3846FFF7A6FB654DDFF8FD
:1026500098812A464146384603F0B0F8DFF88C915D
:102660000EAA99E8030082E80300614E4FF0040AC5
:10267000CDF800A0012306CA3046FFF78DFB2A469D
:102680004146304603F09AF821463846FFF744FAAF
:102690000146DFF8608101224046FFF760FB564F9C
:1026A0002A463946404603F089F821463046FFF76E
:1026B00033FA01468DF8484003238DF8493012ABB8
:1026C00010934FF00208CDF84480DFF830B110AB22
:1026D0000CCB5846FFF720FB2A463946584603F0F4
:1026E0006DF821463046FFF717FA0146B9F8083071
:1026F000ADF8543015AB1393CDF85080DFF800B12E
:1027000013AB0CCB5846FFF707FB2A463946584611
:1027100003F054F821463046FFF7FEF901468DF8E4
:10272000604001238DF8613018AB1693CDF85C80C2
:10273000DFF8D0B016AB0CCB5846FFF7EDFA2A46BF
:102740003946584603F03AF821463046FFF7E4F997
:102750000146B9F80C30ADF86C301BAB1993CDF8CD
:102760006880294E19AB0CCB3046FFF7D5FA2A46C4
:102770003946304603F022F8244E254D3346224692
:1027800029462448FFF71CFC334652462946224876
:10279000FFF716FC2149CDF828A0104B09930894A7
:1027A00007934FF40073069305914FF480730493DD
:1027B0000391102302930191082300930B462022DA
:1027C0001748FFF78FFC1DB0BDE8F08F8011002087
:1027D000D8F6040868120020E4F60408A4140020C7
:1027E0005811002000000020992D000870DB04081B
:1027F00030110020241100208D2D00081811002018
:102800000C11002000110020F41000200400002012
:1028100014140020E8100020DC1000200008024002
:102820009C10002000B583B001904FF6FF73012289
:1028300001A9064802F055FF054B1B680021986866
:1028400038F07EF9019803B05DF804FBCC1200204B
:102850004807002008B5044B834200D008BD034858
:10286000FFF742F9FAE700BFA41400205811002036
:1028700072B6FEE708B50A480A4B03604FF4E1332D
:10288000436000238360C36003610C224261836163
:10289000C36102F0F7FE00B908BDFFF7E9FF00BF12
:1028A000CC1200200010014008B50B480B4B036010
:1028B000002343608360C360036143614FF400728F
:1028C00082610362436283620A23C36201F09AFE5B
:1028D00000B908BDFFF7CCFFAC1500200030014067
:1028E00000B58FB000230A930B930C930D930893BC
:1028F000099301930293039304930593069307931B
:1029000021484FF080420260436083606422C260CD
:102910000361836102F0C6F950BB4FF480530A9300
:102920000AA9194802F0C8FA20BB174802F0E6F9D4
:1029300010BB00230893099308A9134802F092FDE5
:10294000E0B960230193002202920392059201A94B
:102950000D4802F037FA98B9082201A90A4802F096
:1029600031FA78B9084800F07FFB0FB05DF804FB3E
:10297000FFF77EFFFFF77CFFFFF77AFFFFF778FF97
:10298000FFF776FFFFF774FFA414002000B58FB0A7
:1029900000230A930B930C930D93089309930193CF
:1029A0000293039304930593069307932248234AC3
:1029B00002604360836042F2CF02C26003618361C0
:1029C00002F070F958BB4FF480530A930AA91A48D1
:1029D00002F072FA28BB184802F090F918BB0023E5
:1029E0000893099308A9144802F03CFDE8B9602354
:1029F0000193002202920392059201A90E4802F06F
:102A0000E1F9A0B904220DEB02010B4802F0DAF95A
:102A100078B9094800F028FB0FB05DF804FBFFF718
:102A200027FFFFF725FFFFF723FFFFF721FFFFF742
:102A30001FFFFFF71DFF00BF5C14002000040040D3
:102A400000B58FB000230A930B930C930D9308935A
:102A500009930193029303930493059306930793B9
:102A60002248234A02601922426083604FF6E752EF
:102A7000C2600361836102F015F958BB4FF48053C3
:102A80000A930AA9194802F017FA28BB174802F05E
:102A900035F918BB00230893099308A9134802F0DD
:102AA000E1FCE8B9602301930022029203920592AF
:102AB00001A90E4802F086F9A0B904220DEB02012B
:102AC0000A4802F07FF978B9084800F0CDFA0FB053
:102AD0005DF804FBFFF7CCFEFFF7CAFEFFF7C8FE68
:102AE000FFF7C6FEFFF7C4FEFFF7C2FE1414002076
:102AF0000008004008B50A480A4B03604FF4E13370
:102B0000436000238360C36003610C2242618361E0
:102B1000C36102F0B7FD00B908BDFFF7A9FE00BF11
:102B200010130020004C004008B50A480A4B03600F
:102B30000A4B436000238360C3604FF4804202610C
:102B400043618361C361036201F072F800B908BD9B
:102B5000FFF78EFE0416002000540040801A060085
:102B600000B595B03422002107A83AF09FFD00235C
:102B7000029303930493059306930093224A116CE6
:102B800041F080511164126C02F080520092009A60
:102B900001931E4A116841F440411160126802F429
:102BA00040420192019A0222079201210A911021CA
:102BB0000B910D920E9308230F93B423109311924F
:102BC0001292139207A801F0B9FAB0B901F00EF908
:102BD000A8B90F23029302230393002304934FF415
:102BE000A05305934FF480530693052102A801F0EA
:102BF0003BF930B915B05DF804FBFFF739FEFFF77C
:102C000037FEFFF735FE00BF00380240007000407D
:102C100070B500F0FBFBFFF7A3FFFFF72BFCFFF7FE
:102C2000BBFCFFF727FEFFF73FFEFFF759FEFFF75C
:102C3000ADFEFFF705FFFFF75DFFFFF775FF4C4C9B
:102C400005212046FEF743FFFF23002211462046C0
:102C5000FEF729FF474D2846FFF73AF9002146487D
:102C6000FFF7B2F94FF47A7000F0FCFB434E0122FB
:102C70004FF40061304600F0D5FF0A2000F0F2FB6F
:102C800000224FF40061304600F0CCFF0023FF2209
:102C900019462046FEF707FF2846FFF719F95EE0C0
:102CA00061B23748FFF706FA322000F0DBFB01344F
:102CB000632CF5DD642000F0D5FB002409E0C4F1AD
:102CC000640149B22E48FFF7F5F9322000F0CAFB43
:102CD0000134632CF3DD002408E0614249B2284846
:102CE000FFF7E8F9322000F0BDFB0134632CF4DD7E
:102CF000642000F0B7FB002409E0A4F1640149B2AC
:102D00001F48FFF7D7F9322000F0ACFB0134632CE9
:102D1000F3DD002407E061B21948FFF7CBF9322058
:102D200000F0A0FB0134632CF5DD1548FFF77AF9BC
:102D30004FF47A7000F096FB002407E061B210486F
:102D4000FFF7B8F9322000F08DFB0134632CF5DD7C
:102D50000B48FFF767F94FF47A7000F083FB0949DD
:102D6000094822F08DFA22F023F90024A0E700BFE1
:102D70002411002058110020E8100020000002401B
:102D80009C10002064DC0408C41A002010B504461E
:102D9000FEF7E9FE204610BD10B504461C30FEF7D4
:102DA00023FF04F10C00FEF7DEFE204610BD08B53F
:102DB000FFF72EFC08BD000082B0002100910B4BF4
:102DC0005A6C42F480425A645A6C02F48042009277
:102DD000009A01911A6C42F080521A641B6C03F045
:102DE00080530193019B02B0704700BF003802403E
:102DF00030B589B00023039304930593069307939A
:102E00000268144B9A4201D009B030BD00250195EB
:102E1000114C236B43F002032363236B03F0020383
:102E20000193019B4FF440730393122304930323F4
:102E300006930423079303A9084800F0FFFD0295B9
:102E4000236C43F400132364236C03F400130293F4
:102E5000029BD9E7005400400038024000040240C1
:102E600030B589B000230393049305930693079329
:102E70000268354B9A4201D009B030BD04460025A6
:102E8000019503F584335A6C42F480525A645A6CAB
:102E900002F480520192019A02951A6B42F00102EB
:102EA0001A631B6B03F001030293029BE02303935D
:102EB00002230493032306930523079303A92348BE
:102EC00000F0BCFD2248234B03604FF0C063436019
:102ED0008560C5604FF48063036145618561C561AC
:102EE0004FF480330362456200F0C2FB28BB184BED
:102EF000E3649C631848194B03604FF0C063436060
:102F0000402383600023C3604FF480620261436109
:102F10008361C3614FF480320262436200F0A8FB18
:102F200070B90D4BA3649C6300221146232000F06E
:102F3000F3FA232000F000FB9EE7FFF799FCD6E7A9
:102F4000FFF796FCEDE700BF0030014000000240B3
:102F50004C15002040640240EC14002058640240EC
:102F600010B584B00368B3F1804F07D0374A93425D
:102F700051D0374A93425BD004B010BD04460023C1
:102F80000193344A116C41F001011164126C02F09A
:102F900001020192019A3048304A02604FF0C0624B
:102FA000426040228260C3604FF4806202614FF44D
:102FB000805242614FF480428261C3610362436286
:102FC00000F056FB08BB244B63629C632448254BEE
:102FD00003604FF0C0634360402383600023C360FD
:102FE0004FF4806202614FF4805242614FF480429C
:102FF0008261C3610362436200F03AFB40B9184B3F
:1030000023629C63E3629C63B6E7FFF731FCDAE777
:10301000FFF72EFCF3E7002302930E4B1A6C42F0ED
:1030200002021A641B6C03F002030293029BA3E7E3
:1030300000230393074B1A6C42F004021A641B6CC2
:1030400003F004030393039B96E700BF00040040D2
:103050000008004000380240B4130020886002409D
:103060005413002028600240F0B58BB00023059374
:1030700006930793089309930368B3F1804F07D031
:10308000394A934234D0394A934254D00BB0F0BD00
:103090000024019403F50E331A6B42F002021A6306
:1030A0001A6B02F002020192019A02941A6B42F02A
:1030B00001021A631B6B03F001030293029B4FF49E
:1030C0008063059302270697032608960125099534
:1030D00005A9274800F0B2FC4FF40043059306977A
:1030E00007940896099505A9224800F0A7FCCDE7AA
:1030F00000250395204B1A6B42F002021A631B6BEA
:1031000003F002030393039B102305930224069408
:10311000032308930994164E05A9304600F08EFC4F
:1031200020230593069407950895099405A9304630
:1031300000F084FCAAE7002304930F4B1A6B42F0C3
:1031400002021A631B6B03F002030493049BC02367
:1031500005930223069303220892099305A90448C4
:1031600000F06CFC92E700BF000400400008004043
:1031700000040240000002400038024000B58BB05D
:103180000023059306930793089309930368284A3D
:10319000934205D0274A934226D00BB05DF804FB3A
:1031A00000210191244B1A6C42F400221A641A6C1B
:1031B00002F400220192019A02911A6B42F0040279
:1031C0001A631B6B03F004030293029B4FF44063EA
:1031D000059302230693032308930823099305A963
:1031E000164800F02BFCD8E700210391124B5A6CD3
:1031F00042F010025A645A6C02F010020392039AD1
:1032000004911A6B42F001021A631B6B03F0010375
:103210000493049B4FF4C063059302230693032396
:1032200008930723099305A9054800F007FCB4E7B4
:10323000004C0040001001400038024000080240ED
:1032400000000240FEE7FEE7FEE7FEE7FEE770470C
:103250007047704708B500F0F3F808BD08B502489C
:1032600000F0FEFA08BD00BF5413002008B5024864
:1032700000F0F6FA08BD00BFB413002008B50248FC
:1032800001F0C4FA08BD00BFAC15002008B5024823
:1032900000F0E6FA08BD00BF4C15002008B5024852
:1032A00000F0DEFA08BD00BFEC14002001207047DA
:1032B00008B53DF035FB162303604FF0FF3008BD25
:1032C00008B54FF0FF31FFF7F3FFFEE770B50C468E
:1032D0001646002506E0AFF30080214601F8010BF9
:1032E00001350C46B542F6DB304670BD70B50C4674
:1032F0001646002504E014F8010BFFF793FA013598
:10330000B542F8DB304670BD4FF0FF3070474FF4E8
:1033100000534B6000207047012070470020704729
:1033200010B503460C4A0D490D48006840B10C48E1
:1033300000680344521A934206D8094A136010BD2C
:103340000748084C0460F2E73DF0EAFA0C230360FA
:103350004FF0FF30F3E700BF000002200004000040
:103360005C160020D031002070470000DFF834D018
:103370000D480E490E4A002302E0D458C4500433CD
:10338000C4188C42F9D30B4A0B4C002301E01360A4
:103390000432A242FBD3FFF7E7FF3DF033FBFFF718
:1033A00037FC704700000220000000208010002041
:1033B0004CE4050880100020CC310020FEE700001E
:1033C00010B504460E4B1A784FF47A73B3FBF2F340
:1033D0000C4A1068B0FBF3F000F0BCF868B90F2C91
:1033E00001D901200AE0002221464FF0FF3000F011
:1033F00093F8054B1C60002000E0012010BD00BFC9
:1034000014000020100000201800002008B50B4B0D
:103410001A6842F400721A601A6842F480621A60F4
:103420001A6842F480721A60032000F063F80F20DB
:10343000FFF7C6FFFFF7C0FC002008BD003C0240BC
:10344000034A1168034B1B780B441360704700BF9D
:103450006016002014000020014B1868704700BF60
:103460006016002038B50446FFF7F6FF0546B4F1B4
:10347000FF3F02D0044B1B781C44FFF7EDFF401BBD
:10348000A042FAD338BD00BF14000020002808DB9A
:103490000901C9B200F1604000F5614080F80013F5
:1034A000704700F00F000901C9B2014B1954704771
:1034B00014ED00E000B500F00700C0F1070CBCF10E
:1034C000040F28BF4FF0040C031D062B0FD9C31E99
:1034D0004FF0FF3E0EFA0CF021EA000199400EFA7F
:1034E00003FE22EA0E0241EA02005DF804FB00231B
:1034F000EEE70000074AD36823F4E0631B041B0CCB
:10350000000200F4E060034343F0BF6343F4003380
:10351000D360704700ED00E010B50446054BD86855
:10352000C0F30220FFF7C6FF01462046FFF7AEFFBB
:1035300010BD00BF00ED00E0002807DB00F01F0217
:10354000400901239340024A42F82030704700BFEF
:1035500000E100E00138B0F1807F0BD24FF0E023B2
:103560005861054AF02182F8231000209861072253
:103570001A6170470120704700ED00E030B4056823
:103580002C6824F480242C60046863608368402BDA
:1035900005D0036899600368DA6030BC704703683F
:1035A0009A600368D960F8E710B40368D9B210399B
:1035B000094AA2FB01421209084CA25CC2655F29BC
:1035C00006D96FF3090304338365806D10BC70471F
:1035D0006FF309038365F8E7ABAAAAAA00F704080A
:1035E000836A826992B9012B0AD0022B02D00BB1F7
:1035F00000207047C36A13F0807F28D100207047F5
:10360000C36AB3F1C07F24D000207047B2F5005FD9
:1036100009D0022B25D9032B25D1C36A13F0807F53
:1036200023D100207047032B03D8DFE803F01404F4
:10363000140A00207047C36A13F0807F0DD1002068
:103640007047C36AB3F1C07F09D0002070470120E2
:10365000704701207047012070470120704701200A
:10366000704701207047002070470120704700001C
:1036700070B50446FFF7F0FE002C5BD00546022330
:1036800084F83530002384F834302268136823F03E
:103690000103136023681A6812F0010F0AD0FFF7C4
:1036A000DBFE431B052BF5D920236365032084F83B
:1036B000350070BD1A68204911406268A068024355
:1036C000E06802432069024360690243A069024343
:1036D000E0690243206A02430A43616A04291ED05A
:1036E0001A602668756925F00705636A1D43042B77
:1036F00007D1A36A1D43E36A1BB12046FFF770FFA1
:1037000090B975612046FFF74FFFE26D3F2393406C
:10371000836000206065012384F83530C9E7E16AE1
:10372000206B01430A43DBE740236365012084F8F3
:103730003500BEE70120BCE73F8010F038B50446F5
:10374000856D90F8340001282BD0012084F83400D6
:1037500094F83500C0B2012804D0002384F8343036
:10376000022038BD022084F8350000206065204624
:10377000FFF704FFE26D3F239340AB6022681368BC
:1037800043F016031360236C23B12268136843F0DF
:10379000080313602268136843F0010313600020DC
:1037A000DFE70220DDE770B50446866DFFF754FEC3
:1037B00094F83530DBB2022B06D0802363650023FA
:1037C00084F83430012070BD05462268136823F068
:1037D000160313602268536923F080035361236C3E
:1037E000E3B12268136823F00803136022681368AA
:1037F00023F00103136023681B6813F0010F11D03D
:10380000FFF72AFE431B052BF5D920236365032010
:1038100084F83500002384F83430D4E7A36C002BFF
:10382000DFD1E3E7E26D3F239340B360012384F8E7
:103830003530002084F83400C5E790F83530DBB22D
:10384000022B03D08023436501207047052380F8B5
:1038500035300268136823F00103136000207047BD
:10386000F0B583B0044600230193724B1D68724B80
:10387000A3FB0535AD0A876D3E68C26D08239340F2
:10388000334210D003681A6812F0040F0BD01A6884
:1038900022F004021A60C26D08239340BB60436D9E
:1038A00043F001034365E26D01239340334209D0A5
:1038B0002268526912F0800F04D0BB60636D43F040
:1038C00002036365E26D04239340334209D022680A
:1038D000126812F0020F04D0BB60636D43F0040362
:1038E0006365E26D10239340334224D0226812684E
:1038F00012F0080F1FD0BB6023681A6812F4802FE3
:103900000DD01B6813F4002F04D1236C9BB120460B
:10391000984710E0A36C73B1204698470BE01A68F3
:1039200012F4807F03D11A6822F008021A60236C17
:103930000BB120469847E26D20239340334255D087
:103940002268126812F0100F50D0BB6094F8353026
:10395000DBB2052B0ED023681A6812F4802F33D007
:103960001B6813F4002F2AD1636C002B3ED0204635
:1039700098473BE02268136823F01603136022681F
:10398000536923F080035361236CA3B12268136849
:1039900023F008031360E26D3F239340BB600123D3
:1039A00084F83530002384F83430236D002B3FD069
:1039B000204698473CE0A36C002BE7D1EBE7E36B94
:1039C000A3B12046984711E01A6812F4807F09D10C
:1039D0001A6822F010021A60012384F8353000239F
:1039E00084F83430E36B0BB120469847636DFBB12C
:1039F000636D13F0010F17D0052384F8353022686A
:103A0000136823F001031360019B01330193AB4260
:103A100004D823681B6813F0010FF5D1012384F843
:103A20003530002384F83430E36C0BB120469847DE
:103A300003B0F0BD10000020B5814E1B00230F2BFA
:103A400000F2E68030B583B068E085684FEA430E47
:103A5000032404FA0EF425EA0405CC6804FA0EF4F3
:103A60002C438460446824EA02044A68C2F30012CA
:103A70009A40224342605FE0DC08083450F824207A
:103A800003F00705AD004FF00F0E0EFA05FE22EA17
:103A90000E0E0A69AA4042EA0E0240F824205FE0B6
:103AA000062200E0002202FA0EF22A430234594DA7
:103AB00045F82420584A94686FEA0C0224EA0C0561
:103AC000D1F804E01EF4801F01D04CEA0405524CEA
:103AD000A560E46802EA0405D1F804E01EF4001FC2
:103AE00001D04CEA04054C4CE560646802EA040528
:103AF000D1F804E01EF4003F01D04CEA0405464C26
:103B00006560246822404D6815F4803F01D04CEA7E
:103B10000402414C226001330F2B77D801229A40D6
:103B20000C6804EA020C32EA0404F4D14C6804F094
:103B30000304013C012C88D94A6802F00302032ADD
:103B400009D0C4685D000322AA4024EA02048A68FE
:103B5000AA402243C2604A6802F00302022A8BD0C4
:103B600004684FEA430E032202FA0EF224EA02042A
:103B70004A6802F0030202FA0EF2224302604A6827
:103B800012F4403FC7D000220192244A546C44F4FE
:103B900080445464526C02F480420192019A9C0861
:103BA000A51C1C4A52F8255003F0030E4FEA8E0E56
:103BB0000F2202FA0EF225EA0205194A90423FF45A
:103BC00071AF02F58062904216D002F58062904299
:103BD00014D002F58062904212D002F580629042C9
:103BE00010D002F5806290420ED002F580629042C1
:103BF0003FF456AF072256E7012254E7022252E76C
:103C0000032250E704224EE705224CE703B030BD03
:103C1000704700BF00380140003C014000380240BE
:103C2000000002400AB18161704709048161704758
:103C3000002800F0CC8070B5044690F83D30002B91
:103C400077D0242384F83D302268136823F00103E1
:103C500013602268136843F40043136022681368FA
:103C600023F40043136000F0B5F962685A4B9A429E
:103C700064D85A4B98428CBF00230123002B40F09C
:103C8000A8805749A1FB00318B0C25686A6822F097
:103C90003F0242EA91426A6021680A6A22F03F02CA
:103CA00066684D4DAE424FD8013313430B62216815
:103CB000CA6922F44F4222F0FF026568464B9D42DA
:103CC0004CD8431E6D00B3FBF5F3013340F6FC7096
:103CD000034278D0C3F30B031A43CA6121680B680F
:103CE00023F0C003E269206A024313430B6021689A
:103CF0008B6823F4034323F0FF032269E068024347
:103D000013438B602168CB6823F0FF036269A069CD
:103D100002431343CB602268136843F0010313602E
:103D200000202064202384F83D30206384F83E0086
:103D300070BD80F83C30FFF75BF882E7294B984272
:103D40008CBF0023012399E74FF4967505FB03F31D
:103D5000254DA5FB03539B090133A6E7A668BEB911
:103D6000431E05EB450CB3FBFCF30133C3F30B031C
:103D7000B3FA83F35B0943BBC6B9431E05EB4505A4
:103D8000B3FBF5F30133C3F30B0343F40043A3E7A1
:103D9000431E05EB850C0CEB8C0CB3FBFCF30133E1
:103DA000C3F30B03B3FA83F35B09E4E7431E05EBAC
:103DB000850505EB8505B3FBF5F30133C3F30B0371
:103DC00043F4404388E7042386E7012384E7012086
:103DD00070470120ACE700BFA08601007F841E0071
:103DE00083DE1B43FF083D00D34D621010B582B047
:103DF00000230193194B1A6C42F080521A641B6C19
:103E000003F080530193019B154B01221A64FFF7C5
:103E100023FB0446134B5B6813F4803F08D1FFF784
:103E20001BFB001BB0F57A7FF4D9032002B010BD54
:103E30000B4B01225A64FFF70FFB0446094B5B68EA
:103E400013F4003F07D1FFF707FB001BB0F57A7FA3
:103E5000F4D90320EAE70020E8E700BF0038024079
:103E600000000E4200700040002800F09B8070B5FA
:103E70000D4604464F4B1B6803F00F038B4208D2DC
:103E8000CBB24C4A1370136803F00F038B4240F01F
:103E90008B80236813F0020F17D013F0040F04D0A7
:103EA000454A936843F4E0539360236813F0080F86
:103EB00004D0414A936843F4604393603E4A936858
:103EC00023F0F003A1680B439360236813F0010F04
:103ED00032D06368012B21D09A1E012A25D9364A97
:103EE000126812F0020F61D033498A6822F003028F
:103EF00013438B60FFF7B0FA06462F4B9B6803F025
:103F00000C036268B3EB820F16D0FFF7A5FA801B93
:103F100041F288339842F0D9032042E0264A1268E1
:103F200012F4003FE0D101203BE0234A126812F076
:103F3000007FD9D1012034E01E4B1B6803F00F0332
:103F4000AB4207D9EAB21B4B1A701B6803F00F0390
:103F5000AB422DD1236813F0040F06D0164A9368A4
:103F600023F4E053E1680B439360236813F0080FD8
:103F700007D0114A936823F46043216943EAC103DF
:103F8000936000F047F80C4B9B68C3F303130B4A94
:103F9000D35CD8400A4B18600A4B1868FFF710FA38
:103FA000002070BD012070470120FAE70120F8E7EA
:103FB0000120F6E7003C024000380240F0F6040819
:103FC0001000002018000020014B1868704700BF47
:103FD0001000002008B5FFF7F7FF044B9B68C3F300
:103FE0008223034AD35CD84008BD00BF003802409A
:103FF000E8F6040808B5FFF7E7FF044B9B68C3F336
:104000004233034AD35CD84008BD00BF00380240A9
:10401000E8F6040808B5464B9B6803F00C03082B30
:1040200005D00C2B43D0042B7FD1424819E0404BE4
:104030005A6802F03F025B6813F4800F12D03C4BC9
:104040005968C1F388113B480023A1FB0001FCF72C
:104050000FFE374B5B68C3F3014301335B00B0FBDA
:10406000F3F008BD324B5868C0F388104FEA401C8B
:10407000BCEB000C6EEB0E0E4FEA8E1343EA9C6312
:104080004FEA8C11B1EB0C0163EB0E03DB0043EA4A
:104090005173C90011EB000C43F100039902002396
:1040A0004FEA8C2041EA9C51FCF7E2FDD1E7204B1E
:1040B0005A6802F03F025B6813F4800F10D01C4B6B
:1040C0005968C1F388111B480023A1FB0001FCF7CC
:1040D000CFFD174B5B68C3F30273B0FBF3F0C0E78F
:1040E000134B5868C0F388104FEA401CBCEB000C1F
:1040F0006EEB0E0E4FEA8E1343EA9C634FEA8C116F
:10410000B1EB0C0163EB0E03DB0043EA5173C90012
:1041100011EB000C43F10003990200234FEA8C20BD
:1041200041EA9C51FCF7A4FDD3E7034899E700BF9F
:104130000038024040787D010024F400002800F09F
:10414000018270B582B00446036813F0010F41D0BC
:10415000994B9B6803F00C03042B32D0964B9B6861
:1041600003F00C03082B27D0934B9B6803F00C0340
:104170000C2B59D06368B3F5803F5BD0B3F5A02F0B
:104180005ED08D4B1A6822F480321A601A6822F4CD
:1041900080221A606368002B5CD0FFF75DF905464A
:1041A000854B1B6813F4003F14D1FFF755F9401BF2
:1041B0006428F5D90320CCE17F4B5B6813F4800FB2
:1041C000D2D07D4B1B6813F4003F03D06368002BF3
:1041D00000F0BA81236813F0020F60D0764B9B6821
:1041E00013F00C0F4AD0744B9B6803F00C03082BA0
:1041F0003FD0714B9B6803F00C030C2B69D0E36834
:10420000002B75D06D4B01221A60FFF725F905468A
:10421000694B1B6813F0020F61D1FFF71DF9401BBA
:104220000228F5D9032094E1634B5B6813F4800FF7
:10423000A0D0C6E7604A136843F480331360A9E74F
:104240005D4B1A6842F480221A601A6842F4803288
:104250001A609FE7FFF700F90546574B1B6813F4F8
:10426000003FB7D0FFF7F8F8401B6428F5D90320CA
:104270006FE1514B5B6813F4800FBAD14E4B1B6852
:1042800013F0020F03D0E368012B40F05F814A4A2C
:10429000136823F0F803216943EAC103136023681C
:1042A00013F0080F49D06369002B33D0434B012230
:1042B000C3F8802EFFF7D0F805463F4B5B6F13F035
:1042C000020F3AD1FFF7C8F8401B0228F5D90320A6
:1042D0003FE1394B5B6813F4800F90D1CEE7364A4B
:1042E000136823F0F803216943EAC1031360D6E79A
:1042F000324B00221A60FFF7AFF805462E4B1B68C1
:1043000013F0020FCBD0FFF7A7F8401B0228F5D916
:1043100003201EE1294B0022C3F8802EFFF79CF8F2
:104320000546254B5B6F13F0020F06D0FFF794F89C
:10433000401B0228F5D903200BE1236813F0040F7A
:1043400076D01D4B1B6C13F0805F33D1002301939B
:10435000194B1A6C42F080521A641B6C03F08053A4
:104360000193019B0125164B1B6813F4807F29D014
:10437000A368012B3AD0052B3ED00F4B1A6F22F0C9
:1043800001021A671A6F22F004021A67A368002B51
:104390003CD0FFF761F80646074B1B6F13F0020F86
:1043A00045D1FFF759F8801B41F288339842F3D981
:1043B0000320CEE00025D6E7003802400000474247
:1043C000007000406B4A136843F480731360FFF77A
:1043D00043F80646674B1B6813F4807FC8D1FFF78C
:1043E0003BF8801B0228F5D90320B2E0624A136F24
:1043F00043F001031367C9E75F4B1A6F42F00402F1
:104400001A671A6F42F001021A67BFE7FFF724F834
:104410000646594B1B6F13F0020F08D0FFF71CF82C
:10442000801B41F288339842F3D9032091E0EDB923
:10443000A369002B00F08C804F4A926802F00C02B6
:10444000082A54D0022B17D04C4B00221A66FFF7D3
:1044500003F80446484B1B6813F0007F45D0FEF775
:10446000FBFF001B0228F5D9032072E0424A136CBF
:1044700023F080531364DBE7404B00221A66FEF7FB
:10448000EBFF05463C4B1B6813F0007F06D0FEF7A0
:10449000E3FF401B0228F5D903205AE0E369226AB2
:1044A0001343626A43EA8213A26A5208013A43EA5A
:1044B0000243E26A43EA0263226B43EA02732E4A32
:1044C00053602E4B01221A66FEF7C6FF04462A4BA4
:1044D0001B6813F0007F06D1FEF7BEFF001B022809
:1044E000F5D9032035E0002033E0002031E0012B36
:1044F00031D0214B5B6803F48001E26991422CD1F9
:1045000003F03F02216A8A4229D1616A47F6C072EC
:104510001A40B2EB811F24D103F44031A26A520841
:10452000013AB1EB024F1ED103F07062E16AB2EBC7
:10453000016F1AD103F0E043226BB3EB027F16D177
:10454000002006E001207047012002E0012000E089
:10455000002002B070BD0120FBE70120F9E7012037
:10456000F7E70120F5E70120F3E70120F1E701205B
:10457000EFE700BF007000400038024000004742F3
:1045800082B000230193164B1B68164AA2FB03233B
:104590005B0A642202FB03F30093009B43B1009B80
:1045A000013B009303689B6813F0020FF5D003E012
:1045B000436D43F0400343650268136823F04003F2
:1045C00013600268536823F0E00353600368DB68FC
:1045D0000193019B072380F8513002B0704700BF60
:1045E00010000020F11976050268536823F080035B
:1045F00053600268136823F040031360072380F8B8
:104600005130704700285AD010B50446436A33B978
:104610004368B3F5827F05D00023C36102E0002325
:10462000036143610023A36294F85130002B40D012
:10463000022384F851302268136823F0400313608A
:10464000636803F48273A26802F404421343E268CD
:1046500002F400621343226902F00202134362690A
:1046600002F001021343A26902F400721343E269EB
:1046700002F038021343226A02F080021343A26A56
:1046800002F40052216813430B60638B03F00403B0
:10469000626A02F01002216813434B602268D369FA
:1046A00023F40063D36100206065012384F8513056
:1046B00010BD84F850302046FEF7D2FBB8E7012049
:1046C0007047000010B584B004464B4B1B684B4A42
:1046D000A2FB03235B0A642202FB03F30293029B07
:1046E00003930268536823F0200353600268536801
:1046F00013F0800F12D0424B4364039B43B1039BE2
:10470000013B039394F85130DBB2072BF5D103E062
:10471000636D43F040036365029B0393536813F09A
:10472000400F12D0374B2364039B43B1039B013BE3
:10473000039394F85130DBB2072BF5D103E0636D9E
:1047400043F040036365029B0393536813F0020F29
:104750001DD0A36CDBB100221A65A06CFFF723F813
:1047600008B1402363652268536823F00203536055
:10477000039B43B1039B013B039323689B6813F0A6
:10478000020FF5D003E0636D43F0400363652368D7
:104790005B6813F0010F13D0E36C8BB100221A6534
:1047A000E06CFFF700F808B14023636522681368E6
:1047B00023F0400313602268536823F00103536021
:1047C0000023E387E386636D402B12D000206065F1
:1047D000002200922368D96800919968009100999D
:1047E00001929B680193019B012384F8513004B02E
:1047F00010BD0120ECE700BF10000020F119760584
:10480000E9450008814500087047000030B585B0D3
:104810000446026851689368C3F3801013F0400F98
:1048200005D113F0010F02D011F0400F69D113F040
:10483000020F02D011F0800F67D1C3F3401513F0BF
:10484000200F03D110B913F4807F61D011F0200F35
:104850005ED078B194F85100C0B203285AD0606D90
:1048600040F00400606500200090D06800909068DF
:104870000090009865B1606D40F001006065002017
:10488000029090680290106820F040001060029A38
:1048900013F4807F09D0636D43F008036365002340
:1048A000039323689B680393039B636D002B2FD0B6
:1048B0002268536823F0E0035360012384F85130E9
:1048C00011F0030F2ED02268536823F003035360C6
:1048D000E36C4BB1154A1A65E06CFEF7AEFF18B1F8
:1048E000636D43F040036365A36C8BB10F4A1A6597
:1048F000A06CFEF7A2FF58B1636D43F040036365FF
:1049000006E0236C2046984702E0636C20469847F7
:1049100005B030BD00230193D368019393680193E0
:10492000019BF5E72046FFF76FFFF1E731490008EB
:1049300008B5806B0023C387C386FFF765FF08BDFA
:1049400030B4036A23F001030362036A4268846996
:1049500024F0730C0C6844EA0C0423F0020C8B68FE
:1049600043EA0C03114DA84203D005F58065A84227
:1049700005D123F00803CD682B4323F004030B4D2E
:10498000A84203D005F58065A84207D122F4407201
:104990004D6945EA020C8A6942EA0C024260846170
:1049A0004A684263036230BC704700BF00000140A8
:1049B00030B4036A23F480730362036A4268C469F3
:1049C00024F0730C0C6844EA0C0523F400738C6823
:1049D00043EA0423114CA04203D004F58064A042B2
:1049E00006D123F40063CC6843EA042323F48063F4
:1049F0000A4CA04203D004F58064A04207D122F4FF
:104A000040524C6942EA04128C6942EA0412426044
:104A1000C5614A68C263036230BC70470000014050
:104A200030B4036A23F480530362036A4468C269A2
:104A300022F4E6420D6842EA052223F400538D6811
:104A400043EA0533094DA84203D005F58065A84225
:104A500004D124F480444D6944EA85144460C26161
:104A60004A680264036230BC704700BF0000014026
:104A700010B4036A046A24F001040462846924F017
:104A8000F00C4CEA021223F00A030B43826103622A
:104A900010BC704710B4036A23F0100303628469EA
:104AA000036A24F4704C4CEA023223F0A00343EA78
:104AB00001138261036210BC7047836823F07003A6
:104AC0000B4343F0070383607047704710B5846B56
:104AD000636A83420ED0A36A834214D0E36A83429E
:104AE0001AD0236B834220D02046FDF7B3FE00236B
:104AF000237710BD01232377C369002BF4D1012351
:104B000084F83E30F0E702232377C369002BEBD112
:104B1000012384F83F30E7E704232377C369002BA0
:104B2000E2D1012384F84030DEE708232377C3690C
:104B3000002BD9D1012384F84130D5E7704710B557
:104B4000846B636A83420BD0A36A834210D0E36A0A
:104B5000834210D0236B834204D10823237701E0E2
:104B6000012323772046FFF7E9FF0023237710BDB9
:104B700002232377F6E704232377F3E7704710B582
:104B8000846B636A83420CD0A36A834213D0E36AC6
:104B9000834216D0236B834219D0012384F83D3021
:104BA00003E00123237784F83E302046FFF7E6FF39
:104BB0000023237710BD02232377012384F83F309D
:104BC000F3E704232377012384F84030EDE708233B
:104BD0002377012384F84130E7E700000368304A77
:104BE000904212D0B0F1804F0FD0A2F57C4290429B
:104BF0000BD002F58062904207D002F580629042AD
:104C000003D002F57842904203D123F070034A6842
:104C10001343234A90422AD0B0F1804F27D0A2F507
:104C20007C42904223D002F5806290421FD002F570
:104C3000806290421BD002F57842904217D002F574
:104C40007052904213D002F5806290420FD002F56C
:104C5000806290420BD0A2F59832904207D002F5C4
:104C60008062904203D002F58062904203D123F427
:104C70004073CA68134323F080034A6913430360F7
:104C80008B68C3620B688362054B984203D003F5BF
:104C90008063984201D10B6903630123436170472C
:104CA0000000014040B310B5044690F83D30F3B128
:104CB000022384F83D30214651F8040BFFF78EFFA4
:104CC000012384F8463084F83E3084F83F3084F87D
:104CD000403084F8413084F8423084F8433084F81E
:104CE000443084F8453084F83D30002010BD80F811
:104CF0003C30FEF735F9DBE70120704740B310B5D3
:104D0000044690F83D30F3B1022384F83D3021464B
:104D100051F8040BFFF762FF012384F8463084F852
:104D20003E3084F83F3084F8403084F8413084F8D5
:104D3000423084F8433084F8443084F8453084F8B5
:104D40003D30002010BD80F83C30FFF7BEFEDBE7B1
:104D50000120704730B4036A23F010030362036A32
:104D60004468826922F4E6420D6842EA052223F093
:104D700020038D6843EA0513114DA84203D005F5C1
:104D80008065A84206D123F08003CD6843EA05136D
:104D900023F040030A4DA84203D005F58065A842E0
:104DA00007D124F440644D6944EA85048D6944EADE
:104DB0008504446082614A688263036230BC704744
:104DC0000000014038B590F83C30012B66D0044615
:104DD0000D46012380F83C300C2A5AD8DFE802F057
:104DE000075959591B5959593059595944000068A4
:104DF000FFF7A6FD2268936943F0080393612268D8
:104E0000936923F0040393612268936929690B4332
:104E1000936100203EE00068FFF79CFF22689369E1
:104E200043F4006393612268936923F48063936180
:104E300022689369296943EA01239361002029E0EC
:104E40000068FFF7B5FD2268D36943F00803D3611A
:104E50002268D36923F00403D3612268D3692969E6
:104E60000B43D361002015E00068FFF7D9FD2268ED
:104E7000D36943F40063D3612268D36923F4806368
:104E8000D3612268D369296943EA0123D3610020F1
:104E900000E00120002384F83C3038BD0220FCE70C
:104EA00010B4846824F47F4C42EA03220A4342EAA5
:104EB0000C02826010BC704790F83C30012B78D017
:104EC00010B50446012380F83C30022380F83D30C1
:104ED0000268936823F47F4323F0770393600B68A1
:104EE000602B4CD023D8402B54D011D8202B03D08A
:104EF0000AD80BB1102B05D119462068FFF7DDFD4C
:104F0000002028E0012026E0302BF5D0012022E00F
:104F1000502B0AD1CA6849680068FFF7A9FD5021E3
:104F20002068FFF7CAFD002015E0012013E0B3F56B
:104F3000805F3AD0B3F5005F14D0702B37D1CB68C7
:104F40004A6889680068FFF7ABFF2268936843F0FE
:104F5000770393600020012384F83D30002384F818
:104F60003C3010BDCB684A6889680068FFF798FF3D
:104F70002268936843F4804393600020EBE7CA689B
:104F800049680068FFF786FD60212068FFF795FDFE
:104F90000020E0E7CA6849680068FFF769FD402122
:104FA0002068FFF78AFD0020D5E70020D3E7012025
:104FB000D1E70220704701F01F014FF0010C0CFAFD
:104FC00001FC036A23EA0C030362036A8A40134369
:104FD0000362704710B504460846002942D194F890
:104FE0003E30DBB2013B18BF0123002B6ED10028FD
:104FF00051D1022384F83E30012201462068FFF798
:10500000DAFF2368334A934203D002F58062934269
:1050100003D15A6C42F400425A6423682D4A9342E9
:1050200049D0B3F1804F46D0A2F57C42934242D0A2
:1050300002F5806293423ED002F5806293423AD0FC
:1050400002F57842934236D002F57052934232D044
:10505000A2F5943293422ED01A6842F001021A60EF
:10506000002032E0042908D008290DD094F84130FE
:10507000DBB2013B18BF0123B7E794F83F30DBB246
:10508000013B18BF0123B0E794F84030DBB2013B8D
:1050900018BF0123A9E7042805D0082807D0022358
:1050A00084F84130A8E7022384F83F30A4E70223C4
:1050B00084F84030A0E79A6802F00702062A07D079
:1050C0001A6842F001021A60002010BD0120FCE7BE
:1050D0000020FAE70000014070B5044616460D4670
:1050E000002974D190F83E00C0B2022814BF0020FD
:1050F0000120002840F02381002D40F0848094F8A6
:105100003E20D2B2012A14BF00220122002A00F060
:105110001881002E00F09380002D40F0958002222F
:1051200084F83E20626A8E49D163626A8D491164B7
:10513000626A8D49D164226834323146606AFEF772
:10514000FDFA002840F001812268D36843F400731F
:10515000D360012229462068FFF72DFF2368834A88
:10516000934203D002F58062934203D15A6C42F419
:1051700000425A6423687D4A934200F0D580B3F11F
:10518000804F00F0D180A2F57C42934200F0CC80A9
:1051900002F58062934200F0C78002F5806293427C
:1051A00000F0C28002F57842934200F0BD8002F523
:1051B0007052934200F0B880A2F59432934200F00E
:1051C000B3801A6842F001021A600020BAE0042994
:1051D00009D008290FD090F84100C0B2022814BFAE
:1051E0000020012085E790F83F00C0B2022814BFDC
:1051F000002001207DE790F84000C0B2022814BFD3
:105200000020012075E7042D09D0082D0FD094F857
:105210004120D2B2012A14BF0022012276E794F87D
:105220003F20D2B2012A14BF002201226EE794F877
:105230004020D2B2012A14BF0022012266E7002BCF
:105240003FF46AAF01207DE0042D23D0082D3BD030
:10525000022284F841200C2D75D801A252F825F0C5
:1052600025510008475300084753000847530008DA
:105270009B52000847530008475300084753000853
:10528000CF5200084753000847530008475300080F
:10529000FD520008022284F83F20A26A3049D163FF
:1052A000A26A30491164A26A2F49D1642268383257
:1052B0003146A06AFEF742FA002848D12268D36836
:1052C00043F48063D36044E7022284F84020E26A1A
:1052D0002349D163E26A23491164E26A2249D16415
:1052E00022683C323146E06AFEF728FA002830D1C5
:1052F0002268D36843F40063D3602AE7226B18491D
:10530000D163226B17491164226B1749D16422685B
:1053100040323146206BFEF711FAE0B92268D368BB
:1053200043F48053D36014E79A6802F00702062A18
:1053300013D01A6842F001021A60002002E0022035
:1053400000E0012070BD0120FCE70120FAE7012008
:10535000F8E70120F6E70120F4E70020F2E700BFBC
:10536000CD4A00083F4B00087F4B00080000014079
:1053700038B504460D460C2970D8DFE801F0076FF8
:105380006F6F326F6F6F3B6F6F6F44000268D3684F
:1053900023F40073D360406AFEF74FFA00222946D7
:1053A0002068FFF708FE23682D4A934234D002F5A7
:1053B0008062934230D02368196A41F2111211427F
:1053C00008D1196A40F24442114203D11A6822F00E
:1053D00001021A60002D2ED1012384F83E300020F6
:1053E0003DE00268D36823F48063D360806AFEF7EF
:1053F00024FAD3E70268D36823F40063D360C06A59
:10540000FEF71BFACAE70268D36823F48053D3601F
:10541000006BFEF712FAC1E7196A41F2111211424C
:10542000C9D1196A40F244421142C4D15A6C22F4E3
:1054300000425A64BFE7042D06D0082D09D001238D
:1054400084F8413000200AE0012384F83F30002036
:1054500005E0012384F84030002000E0012038BD41
:105460000000014090F83C20012A3CD010B40346D3
:10547000012280F83C20022280F83D20026850681A
:10548000946820F0700C086840EA0C0050601A68BC
:10549000164882421AD0B2F1804F17D0A0F57C4056
:1054A000824213D000F5806082420FD000F5806008
:1054B00082420BD000F57840824207D000F5705050
:1054C000824203D0A0F59430824204D124F08004BB
:1054D000496821439160012283F83D20002083F830
:1054E0003C0010BC70470220704700BF0000014024
:1054F00010B504460268136923F44053C1680B4396
:105500001361836802691A4343691A43C3691A43E2
:105510000168CB6823F4164323F00C031343CB60DC
:105520000268536923F4407381690B435361036834
:10553000314A934206D002F58062934202D0FEF7D0
:1055400049FD01E0FEF756FDE369B3F5004F29D0B0
:105550000021031849411B1841F10001C90041EA2B
:105560005371DB00181863684FEA83024FEA9373A4
:1055700041F10001FBF77CFB204AA2FB0031490905
:10558000642303FB11031B013233A2FB03235B09DA
:1055900003F0F00202EB011203F00F032168134441
:1055A0008B6010BD0023021843EB0301121841F178
:1055B0000001C90041EA5271D200101841F1000106
:1055C000626892185B41FBF753FB0C4AA2FB003167
:1055D0004909642303FB1103DB003233A2FB0323DD
:1055E0005B095A0002F4F87202EB011203F00703A0
:1055F000216813448B60D4E7001001401F85EB51F4
:105600002DE9F84305460F4616469946DDF82080F9
:105610002B681C6837EA04040CBF01240024B44240
:105620002DD1B8F1FF3FF3D0B8F1000F05D0FDF751
:1056300013FFA0EB09004045EAD92A6802F10C03E8
:1056400053E8003F23F4D0730C3242E800310029C4
:10565000F3D12A6802F1140353E8003F23F0010359
:10566000143242E800310029F3D1202385F83D307F
:1056700085F83E30002385F83C30032000E0002010
:10568000BDE8F88358B310B5044690F83D300BB32D
:10569000242384F83D302268D36823F40053D36078
:1056A0002046FFF725FF2268136923F49043136116
:1056B0002268536923F02A0353612268D36843F4B4
:1056C0000053D36000202064202384F83D3084F808
:1056D0003E3010BD80F83C30FDF750FDD8E701208A
:1056E00070472DE9F04182B01E4690F83D30DBB2A4
:1056F000202B54D104460D469046002953D0002A51
:1057000053D090F83C30012B51D0012380F83C302D
:1057100000230364212380F83D30FDF79DFE0746FA
:10572000A4F82480A4F82680A368B3F5805F05D090
:105730004FF00008002384F83C3012E0236913B1D5
:105740004FF00008F6E7A8460025F3E738F8023BDB
:105750002268C3F308035360E28C92B2013A92B21A
:10576000E284E38C9BB273B100963B460022802119
:105770002046FFF745FFE0B9002DE7D015F8012BD3
:1057800023685A60E8E700963B4600224021204605
:10579000FFF736FF78B9202384F83D3000E002207F
:1057A00002B0BDE8F0810120FAE70120F8E702200D
:1057B000F6E70320F4E70320F2E70000034608467B
:1057C00019463BF03BB800BF70B5036884B00024B5
:1057D0009E690394102315460293CDE900446B465D
:1057E0001268B0479DF8043003F00603062B03BF90
:1057F000009B2B600120204604B070BD00989042B1
:105800000CBF06200120704710B5034B036004460F
:1058100000F004FD204610BD40F7040810B5054B0C
:105820000360044600F0FAFC2046082100F04AF824
:10583000204610BD40F704082DE9F041069F089965
:10584000099E8F42044690461D460CD029462046AC
:1058500000F0E8FC20B10123376086F80480B371C2
:105860000020BDE8F081079900F0DCFC0028EDD0B5
:1058700086F805800020BDE8F08100BF38B51546E8
:105880001C4600F0CFFC00B938BD08220623256075
:10589000E260237138BD00BF2DE9F041064617468E
:1058A0001D460C4600F0BEFC48B9032D07D82368FE
:1058B0003A46314620465B69BDE8F0411847BDE8ED
:1058C000F08100BF30F032BF1EB400F08DF81EBC76
:1058D000FBF774FAF0B50278472A83B00C461D46F0
:1058E00019D0264E0020336801909B6830469847B7
:1058F00078B1019B1B68019302272368314620463B
:105900001E6901AA0123B04738BB0746384603B0D9
:10591000F0BD0127F1E743784E2BE2D18378552B78
:10592000DFD1C378432BDCD10379462B1AD0432B2C
:10593000D7D143792B2BD4D183792B2BD1D1C379D8
:10594000012BCED850F8206C4FF0000301930ABF12
:105950003046583056F8786CC5E7019B2B603846C6
:1059600003B0F0BD43794F2BBBD18379522BB8D113
:10597000C0790028B5D1024EB5E700BFE8F70408AA
:10598000BCF7040810B5044600F07EF8224612F871
:105990002039472B04D0836823BB8260012010BDCF
:1059A00063784E2BF7D1A378552BF4D1E378432BB2
:1059B000F1D12379432BEED163792B2BEBD1A37952
:1059C0002B2BE8D1E379012BE5D854F8043C0133C3
:1059D000012B44F8043CE1D1836844F8083C826020
:1059E000012010BD00F046FB08B500F04DF88368BB
:1059F00083B393F82020472A04D00022826003F169
:105A0000200008BD93F821204E2AF6D193F82220D9
:105A1000552AF2D193F82320432AEED193F824207B
:105A2000432AEAD193F825202B2AE6D193F82620A1
:105A30002B2AE2D193F82720012ADED8DA69013A2D
:105A4000DA61002ADBD19969816000229A6103F151
:105A5000200008BD00F00EFB704700BF704700BF7C
:105A60000048704770DC04080048704780DC040878
:105A700010B504210446FFF725FF204610BD00BFE6
:105A800000487047641600200048704764160020E4
:105A9000502870B51DD0844600F00F000C2855D852
:105AA000DFE800F0074426071E545454542A220706
:105AB0001E00104650F8046B4EB10CF07004102C10
:105AC00008BF11460E441CF0800F18BF36681E60D8
:105AD00070BDD01C20F0030050F8046B1E6070BD38
:105AE000104650F8086BE7E7104630F9026BE3E721
:105AF000104630F8026BDFE700261046344610F8F7
:105B0000015B05F07F0E0EFA04FE15F0800F46EAE9
