:020000040800F2
:100000000000022005460008D1440008D34400083F
:10001000D5440008D7440008D94400080000000077
:10002000000000000000000000000000DB440008A9
:10003000DD44000800000000DF440008E14400083F
:100040005546000855460008554600085546000824
:100050005546000855460008554600085546000814
:100060005546000855460008E94400085546000872
:10007000F544000855460008554600085546000856
:100080000545000855460008554600085546000835
:1000900055460008554600085546000855460008D4
:1000A00055460008554600085546000855460008C4
:1000B00055460008554600085546000855460008B4
:1000C00055460008554600085546000815450008E5
:1000D0005546000855460008554600085546000894
:1000E0005546000855460008554600085546000884
:1000F0005546000855460008554600085546000874
:100100005546000855460008554600085546000863
:100110005546000855460008554600085546000853
:100120002545000855460008554600085546000874
:100130005546000800000000000000005546000879
:100140005546000855460008554600085546000823
:100150003545000855460008554600085546000834
:100160005546000855460008554600085546000803
:100170005546000855460008554600080000000096
:1001800000000000554600080000000000000000CC
:100190005546000800000000000000005546000819
:1001A00000000000000000000000000055460008AC
:1001B00055460008554600085546000855460008B3
:0401C0005546000898
:1002000081F0004102E000BF83F0004330B54FEAC7
:1002100041044FEA430594EA050F08BF90EA020F34
:100220001FBF54EA000C55EA020C7FEA645C7FEAC7
:10023000655C00F0E2804FEA5454D4EB5555B8BFEA
:100240006D420CDD2C4480EA020281EA030382EA5B
:10025000000083EA010180EA020281EA0303362DED
:1002600088BF30BD11F0004F4FEA01314FF4801CC0
:100270004CEA113102D0404261EB410113F0004FD2
:100280004FEA03334CEA133302D0524263EB430389
:1002900094EA050F00F0A780A4F10104D5F1200E27
:1002A0000DDB02FA0EFC22FA05F2801841F1000182
:1002B00003FA0EF2801843FA05F359410EE0A5F156
:1002C00020050EF1200E012A03FA0EFC28BF4CF087
:1002D000020C43FA05F3C01851EBE37101F000453D
:1002E00007D54FF0000EDCF1000C7EEB00006EEB4A
:1002F0000101B1F5801F1BD3B1F5001F0CD34908D4
:100300005FEA30004FEA3C0C04F101044FEA44522A
:1003100012F5800F80F09A80BCF1004F08BF5FEAB1
:10032000500C50F1000041EB045141EA050130BD91
:100330005FEA4C0C404141EB0101013C28BFB1F5A3
:10034000801FE9D291F0000F04BF01460020B1FAEE
:1003500081F308BF2033A3F10B03B3F120020CDAC1
:100360000C3208DD02F1140CC2F10C0201FA0CF09F
:1003700021FA02F10CE002F11402D8BFC2F1200C04
:1003800001FA02F120FA0CFCDCBF41EA0C019040BA
:10039000E41AA2BF01EB0451294330BD6FEA040403
:1003A0001F3C1CDA0C340EDC04F11404C4F12002EE
:1003B00020FA04F001FA02F340EA030021FA04F300
:1003C00045EA030130BDC4F10C04C4F1200220FA57
:1003D00002F001FA04F340EA0300294630BD21FA95
:1003E00004F0294630BD94F0000F83F4801306BF5B
:1003F00081F480110134013D4EE77FEA645C18BF4F
:100400007FEA655C29D094EA050F08BF90EA020FE5
:1004100005D054EA000C04BF1946104630BD91EADD
:10042000030F1EBF0021002030BD5FEA545C05D1E0
:100430004000494128BF41F0004130BD14F580041F
:100440003CBF01F5801130BD01F0004545F0FE4193
:1004500041F470014FF0000030BD7FEA645C1ABFC8
:10046000194610467FEA655C1CBF0B46024650EAFF
:10047000013406BF52EA033591EA030F41F400212B
:1004800030BD00BF90F0000F04BF0021704730B5B1
:100490004FF4806404F132044FF000054FF0000186
:1004A00050E700BF90F0000F04BF0021704730B547
:1004B0004FF4806404F1320410F0004548BF40421C
:1004C0004FF000013EE700BF42004FEAE2014FEA71
:1004D00031014FEA02701FBF12F07F4393F07F4F4C
:1004E00081F06051704732F07F4208BF704793F04F
:1004F0007F4F04BF41F40021704730B54FF4607462
:1005000001F0004521F000411CE700BF50EA010264
:1005100008BF704730B54FF000050AE050EA01020D
:1005200008BF704730B511F0004502D5404261EB7D
:1005300041014FF4806404F132045FEA915C3FF4BE
:10054000D8AE4FF003025FEADC0C18BF03325FEA5B
:10055000DC0C18BF033202EBDC02C2F1200300FA0C
:1005600003FC20FA02F001FA03FE40EA0E0021FA31
:1005700002F11444BDE600BF4FF0FF3C06E000BFAF
:100580004FF0010C02E000BF4FF0010C4DF804CD1C
:100590004FEA410C7FEA6C5C4FEA430C18BF7FEADC
:1005A0006C5C1BD001B050EA410C0CBF52EA430C0A
:1005B00091EA030F02BF90EA020F0020704710F18A
:1005C000000F91EA030F58BF994208BF90422CBF19
:1005D000D8176FEAE37040F0010070474FEA410C12
:1005E0007FEA6C5C02D150EA013C07D14FEA430C30
:1005F0007FEA6C5CD6D152EA033CD3D05DF8040BA1
:10060000704700BF8446104662468C4619466346D2
:1006100000E000BF01B5FFF7B7FF002848BF10F1A9
:10062000000F01BD4DF808EDFFF7F4FF0CBF0120EE
:1006300000205DF808FB00BF4DF808EDFFF7EAFF6A
:1006400034BF012000205DF808FB00BF4DF808ED25
:10065000FFF7E0FF94BF012000205DF808FB00BF1A
:100660004DF808EDFFF7CEFF94BF012000205DF8A4
:1006700008FB00BF4DF808EDFFF7C4FF34BF0120B1
:1006800000205DF808FB00BF80F0004002E000BFE2
:1006900081F0004142001FBF5FEA410392EA030F6D
:1006A0007FEA226C7FEA236C6AD04FEA1262D2EBB7
:1006B0001363C1BFD218414048404140B8BF5B42BC
:1006C000192B88BF704710F0004F40F4000020F055
:1006D0007F4018BF404211F0004F41F4000121F06B
:1006E0007F4118BF494292EA030F3FD0A2F10102B5
:1006F00041FA03FC10EB0C00C3F1200301FA03F1F3
:1007000000F0004302D5494260EB4000B0F5000F15
:1007100013D3B0F1807F06D340084FEA310102F1D4
:100720000102FE2A51D2B1F1004F40EBC25008BF86
:1007300020F0010040EA03007047490040EB000050
:10074000013A28BFB0F5000FEDD2B0FA80FCACF151
:10075000080CB2EB0C0200FA0CF0AABF00EBC2507E
:1007600052421843BCBFD0401843704792F0000F6C
:1007700081F4000106BF80F400000132013BB5E7BF
:100780004FEA41037FEA226C18BF7FEA236C21D035
:1007900092EA030F04D092F0000F08BF084670479A
:1007A00090EA010F1CBF0020704712F07F4F04D168
:1007B000400028BF40F00040704712F100723CBF7B
:1007C00000F50000704700F0004343F0FE4040F4A5
:1007D000000070477FEA226216BF08467FEA236363
:1007E0000146420206BF5FEA412390EA010F40F44E
:1007F000800070474FF0000304E000BF10F000439A
:1008000048BF40425FEA000C08BF704743F0964380
:1008100001464FF000001CE050EA010208BF70479B
:100820004FF000030AE000BF50EA010208BF704722
:1008300011F0004302D5404261EB41015FEA010C37
:1008400002BF84460146002043F0B64308BFA3F12F
:100850008053A3F50003BCFA8CF2083AA3EBC25311
:1008600010DB01FA02FC634400FA02FCC2F1200230
:10087000BCF1004F20FA02F243EB020008BF20F067
:100880000100704702F1200201FA02FCC2F12002CD
:1008900050EA4C0021FA02F243EB020008BF20EAC2
:1008A000DC7070474FF0FF0C1CEAD0521EBF1CEAF0
:1008B000D15392EA0C0F93EA0C0F6FD01A4480EADE
:1008C000010C400218BF5FEA41211ED04FF00063C7
:1008D00043EA501043EA5111A0FB01310CF00040F3
:1008E000B1F5000F3EBF490041EAD3715B0040EA19
:1008F000010062F17F02FD2A1DD8B3F1004F40EBE9
:10090000C25008BF20F00100704790F0000F0CF0BB
:10091000004C08BF49024CEA502040EA51207F3A7F
:10092000C2BFD2F1FF0340EAC250704740F400005A
:100930004FF00003013A5DDC12F1190FDCBF00F04B
:1009400000407047C2F10002410021FA02F1C2F1F9
:10095000200200FA02FC5FEA310040F1000053EA95
:100960004C0308BF20EADC70704792F0000F00F0E3
:10097000004C02BF400010F4000F013AF9D040EAE9
:100980000C0093F0000F01F0004C02BF490011F47D
:10099000000F013BF9D041EA0C018FE70CEAD1537B
:1009A00092EA0C0F18BF93EA0C0F0AD030F0004CFB
:1009B00018BF31F0004CD8D180EA010000F00040AF
:1009C000704790F0000F17BF90F0004F084691F06D
:1009D000000F91F0004F14D092EA0C0F01D14202A7
:1009E0000FD193EA0C0F03D14B0218BF084608D170
:1009F00080EA010000F0004040F0FE4040F40000BA
:100A0000704740F0FE4040F4400070474FF0FF0C4C
:100A10001CEAD0521EBF1CEAD15392EA0C0F93EA93
:100A20000C0F69D0A2EB030280EA010C49024FEAE5
:100A3000402037D04FF0805343EA111143EA10139E
:100A40000CF000408B4238BF5B0042F17D024FF456
:100A5000000C8B4224BF5B1A40EA0C00B3EB510F31
:100A600024BFA3EB510340EA5C00B3EB910F24BF1A
:100A7000A3EB910340EA9C00B3EBD10F24BFA3EB9F
:100A8000D10340EADC001B0118BF5FEA1C1CE0D167
:100A9000FD2A3FF650AF8B4240EBC25008BF20F01A
:100AA000010070470CF0004C4CEA50207F32C2BF6E
:100AB000D2F1FF0340EAC250704740F400004FF00B
:100AC0000003013A37E792F0000F00F0004C02BF3C
:100AD000400010F4000F013AF9D040EA0C0093F006
:100AE000000F01F0004C02BF490011F4000F013B60
:100AF000F9D041EA0C0195E70CEAD15392EA0C0FC8
:100B000008D142027FF47DAF93EA0C0F7FF470AFFF
:100B1000084676E793EA0C0F04D14B023FF44CAF42
:100B200008466EE730F0004C18BF31F0004CCAD1D7
:100B300030F000427FF45CAF31F000437FF43CAF13
:100B40005FE700BF4FF0FF3C06E000BF4FF0010C35
:100B500002E000BF4FF0010C4DF804CD4FEA400217
:100B60004FEA41037FEA226C18BF7FEA236C11D061
:100B700001B052EA530C18BF90EA010F58BFB2EB14
:100B8000030088BFC81738BF6FEAE17018BF40F094
:100B9000010070477FEA226C02D15FEA402C05D148
:100BA0007FEA236CE4D15FEA412CE1D05DF8040BCD
:100BB000704700BF844608466146FFE70FB5FFF760
:100BC000C9FF002848BF10F1000F0FBD4DF808ED18
:100BD000FFF7F4FF0CBF012000205DF808FB00BF09
:100BE0004DF808EDFFF7EAFF34BF012000205DF863
:100BF00008FB00BF4DF808EDFFF7E0FF94BF0120B0
:100C000000205DF808FB00BF4DF808EDFFF7D2FFAC
:100C100094BF012000205DF808FB00BF4DF808EDEF
:100C2000FFF7C8FF34BF012000205DF808FB00BFBC
:100C30004FEA4002B2F1FE4F0FD34FF09E03B3EBE9
:100C400012620DD94FEA002343F0004310F0004F29
:100C500023FA02F018BF404270474FF0000070477F
:100C600012F1610F01D1420205D110F0004008BF1E
:100C70006FF0004070474FF00000704742000ED206
:100C8000B2F1FE4F0BD34FF09E03B3EB126209D4C7
:100C90004FEA002343F0004323FA02F070474FF07D
:100CA0000000704712F1610F01D1420202D14FF0F2
:100CB000FF3070474FF00000704700BF53B94AB98A
:100CC000002908BF00281CBF4FF0FF314FF0FF3054
:100CD00000F0E2B8ADF1080C6DE904CE3BF046FD42
:100CE000DDF804E0DDE9022304B0704700F13401CF
:100CF00091E838009C46A6464CF8045D90E8FF0F4A
:100D0000E54600BD90EC210B704700BF80EC210B45
:100D1000704700BF90EC200B704700BF80EC200BA9
:100D2000704700BFD0EC200B704700BFC0EC200B19
:100D3000704700BFF0EC0201F0EC0211F0EC022170
:100D4000F0EC0231F0EC0241F0EC0251F0EC026107
:100D5000F0EC0271F0EC0281F0EC0291F0EC02A1F7
:100D6000F0EC02B1F0EC02C1F0EC02D1F0EC02E1E7
:100D7000F0EC02F1704700BFE0EC0201E0EC021180
:100D8000E0EC0221E0EC0231E0EC0241E0EC025147
:100D9000E0EC0261E0EC0271E0EC0281E0EC029137
:100DA000E0EC02A1E0EC02B1E0EC02C1E0EC02D127
:100DB000E0EC02E1E0EC02F1704700BFB0FC018121
:100DC000B0FC0191B0FC01A1B0FC01B1704700BFC3
:100DD000A0FC0181A0FC0191A0FC01A1A0FC01B13B
:100DE000704700BFEC4600B52DE900502DE9FF1F0C
:100DF0004FF000032DE90C0001A93BF071FFDDF875
:100E000040E012B0704700BFEC4600B52DE900503D
:100E10002DE9FF1F4FF000032DE90C0001A93BF065
:100E20009BFFDDF840E012B0704700BFEC4600B514
:100E30002DE900502DE9FF1F4FF000032DE90C00B4
:100E400001A93BF0ABFFDDF840E012B0704700BFF6
:100E5000EC4600B52DE900502DE9FF1F4FF00003CF
:100E60002DE90C0001AB3BF06FFFDDF840E012B064
:100E7000704700BFEC4600B52DE900502DE9FF1F7B
:100E80004FF000032DE90C0001AA3BF0E7FFDDF86D
:100E900040E012B0704700BF704700BF0000000084
:100EA00002780B78012A28BF9A4240F0D8806DE979
:100EB000044540EA0104CDE902676FF0000C4FEAF7
:100EC00044721AB380EA010414F0070F6BD100F0EA
:100ED000070420F0070004F0030521F007014FEAA2
:100EE000C505F0E8042314F0040FF1E804670CFAD8
:100EF00005F462EA040266EA04060BD063EA04031E
:100F0000624667EA0407664604E000BFF0E804238F
:100F1000F1E8046782FA4CF582EA0604A4FA8CF43C
:100F20006CBB83FA4CF583EA0705A5FA8CF595B9F5
:100F300050E9022351E9026782FA4CF582EA06047D
:100F4000A4FA8CF483FA4CF583EA0705A5FA8CF52C
:100F50002543DBD09CB92DBAB5FA85F424F00704FB
:100F600027FA04F1DDE9026723FA04F303F0FF0036
:100F700001F0FF01FDE80445A0EB0100704724BA31
:100F8000B4FA84F424F0070426FA04F1DDE90267D8
:100F900022FA04F202F0FF0001F0FF01FDE804452F
:100FA000A0EB0100704714F0030F3CD110F00304D4
:100FB00028D150F8082B51F8083B82FA4CF582EA08
:100FC0000305A5FA8CF55DB950F8042C51F8043CE2
:100FD00082FA4CF582EA0305A5FA8CF5002DE8D0DB
:100FE0002DBAB5FA85F424F0070423FA04F122FAA5
:100FF00004F202F0FF0001F0FF01FDE80445A0EB60
:10100000010070474FEAC40420F0030050F8082B99
:1010100021F0030151F8083B0CFA04F462EA0402DF
:1010200063EA0403C9E710F003041DD0A1EB040137
:1010300020F00300E40750F8042B06D012D28B787E
:101040005FFAA2F4E41A06D12BB1CB785FFAB2F4BE
:10105000E41A00D133B920465DF8104B7047A2EB7B
:101060000300704701F1040150F8042BCC0721F074
:10107000030151F8043B48D824D222F07F4482FA7D
:101080004CF594EA1325A5FA8CF50AD165B951F807
:10109000043B84EA0204B4EB036F0ED150F8042B36
:1010A000EBE74FEA132355E035F07F454DD1087843
:1010B000FDE80445C0F1000070474FEA126203F0FA
:1010C000FF0347E002EA1C4482FA4CF594EA134518
:1010D000A5FA8CF50AD165B951F8043B84EA0204FB
:1010E000B4EB034F0CD150F8042BEBE74FEA13435A
:1010F00030E015EA1C4528D10B884FEA124229E05E
:101100004FEA124203EA1C4324E002F0FF0482FA91
:101110004CF594EA1365A5FA8CF50AD165B951F836
:10112000043B84EA0204B4EB032F09D150F8042BEA
:10113000EBE74FEA13630DE015F0FF0F05D10B68E5
:101140004FEA122223F07F4304E04FF00000FDE855
:101150000445704712BA1BBA82FA4CF482EA0304BF
:10116000A4FA8CF5B5FA85F402FA04F203FA04F352
:101170004FEA1260FDE80445A0EB1360704700BF22
:1011800001F0FF01102A2BDB10F0070F08D010F838
:10119000013B013A8B422DD010F0070F42B3F6D13C
:1011A000F0B441EA012141EA014122F007047FF055
:1011B00000070023F0E80256083C85EA010586EAAC
:1011C000010685FA47F5A3FA87F586FA47F6A5FAE8
:1011D00087F68EB9EED1F0BC01F0FF0102F00702F4
:1011E00032B110F8013B013A83EA010313B1F8D19F
:1011F0000020704701387047002D06BF3546033880
:10120000073815F0010F07D1013015F4807F02BFB8
:10121000013015F4C03F0130F0BC0138704700BF09
:10122000844641EA000313F003036DD1403A41D3F1
:1012300051F8043B40F8043B51F8043B40F8043BB0
:1012400051F8043B40F8043B51F8043B40F8043BA0
:1012500051F8043B40F8043B51F8043B40F8043B90
:1012600051F8043B40F8043B51F8043B40F8043B80
:1012700051F8043B40F8043B51F8043B40F8043B70
:1012800051F8043B40F8043B51F8043B40F8043B60
:1012900051F8043B40F8043B51F8043B40F8043B50
:1012A00051F8043B40F8043B51F8043B40F8043B40
:1012B000403ABDD2303211D351F8043B40F8043BE0
:1012C00051F8043B40F8043B51F8043B40F8043B20
:1012D00051F8043B40F8043B103AEDD20C3205D3F0
:1012E00051F8043B40F8043B043AF9D2043208D0E8
:1012F000D2071CBF11F8013B00F8013B01D30B885A
:1013000003806046704700BF082A13D38B078DD037
:1013100010F003038AD0C3F10403D21ADB071CBF09
:1013200011F8013B00F8013B80D331F8023B20F873
:10133000023B7BE7043AD9D3013A11F8013B00F8AC
:10134000013BF9D20B7803704B7843708B78837034
:101350006046704700000000000000000000000030
:10136000000000000000000000000000000000007D
:10137000000000000000000000000000000000006D
:1013800030B490F800F020F007016FF0000C10F07E
:10139000070491F820F040F048804FF000046FF00F
:1013A0000700D1E9002391F840F000F1080082FA2B
:1013B0004CF2A4FA8CF283FA4CF3A2FA8CF34BBBF6
:1013C000D1E9022382FA4CF200F10800A4FA8CF26F
:1013D00083FA4CF3A2FA8CF3E3B9D1E9042382FA3D
:1013E0004CF200F10800A4FA8CF283FA4CF3A2FA52
:1013F0008CF37BB9D1E9062301F1200182FA4CF28A
:1014000000F10800A4FA8CF283FA4CF3A2FA8CF3F0
:10141000002BC6D0002A04BF04301A4612BAB2FA12
:1014200082F200EBD20030BC7047D1E9002304F017
:101430000305C4F100004FEAC50514F0040F91F84C
:1014400040F00CFA05F562EA05021CBF63EA0503E9
:1014500062464FF00004AAE770B54FF0FF0C4CF461
:10146000E06C1CEA11541DBF1CEA135594EA0C0FE2
:1014700095EA0C0F00F0DEF82C4481EA030621EA1D
:101480004C5123EA4C5350EA013518BF52EA033558
:1014900041F4801143F4801338D0A0FB02CE4FF00A
:1014A0000005E1FB02E506F00042E0FB03E54FF03A
:1014B0000006E1FB03569CF0000F18BF4EF0010E32
:1014C000A4F1FF04B6F5007F64F5407404D25FEA2E
:1014D0004E0E6D4146EB060642EAC62141EA5551E1
:1014E0004FEAC52040EA5E504FEACE2EB4F1FD0C23
:1014F00088BFBCF5E06F1ED8BEF1004F08BF5FEAA1
:10150000500E50F1000041EB045170BD06F0004652
:1015100046EA010140EA020081EA0301B4EB5C04FF
:10152000C2BFD4EB0C0541EA045170BD41F48011F7
:101530004FF0000E013C00F3AB8014F1360FDEBF1C
:10154000002001F0004170BDC4F10004203C35DAF8
:101550000C341BDC04F11404C4F1200500FA05F37B
:1015600020FA04F001FA05F240EA020001F000421C
:1015700021F0004110EBD37021FA04F642EB060192
:101580005EEA430E08BF20EAD37070BDC4F10C04BC
:10159000C4F1200500FA04F320FA05F001FA04F280
:1015A00040EA020001F0004110EBD37041F100016C
:1015B0005EEA430E08BF20EAD37070BDC4F1200577
:1015C00000FA05F24EEA020E20FA04F301FA05F2DF
:1015D00043EA020321FA04F001F0004121FA04F287
:1015E00020EA020000EBD3705EEA430E08BF20EA57
:1015F000D37070BD94F0000F0FD101F00046400091
:1016000041EB010111F4801F08BF013CF7D041EA12
:10161000060195F0000F18BF704703F00046520016
:1016200043EB030313F4801F08BF013DF7D043EAE7
:101630000603704794EA0C0F0CEA135518BF95EA9D
:101640000C0F0CD050EA410618BF52EA4306D1D124
:1016500081EA030101F000414FF0000070BD50EA43
:10166000410606BF1046194652EA430619D094EACD
:101670000C0F02D150EA013613D195EA0C0F05D1B7
:1016800052EA03361CBF104619460AD181EA03010B
:1016900001F0004141F0FE4141F470014FF00000C3
:1016A00070BD41F0FE4141F4780170BD70B54FF05E
:1016B000FF0C4CF4E06C1CEA11541DBF1CEA1355DE
:1016C00094EA0C0F95EA0C0F00F0A7F8A4EB0504C0
:1016D00081EA030E52EA03354FEA013100F08880B7
:1016E0004FEA03334FF0805545EA131343EA126380
:1016F0004FEA022245EA111545EA10654FEA002635
:101700000EF000419D4208BF964244F1FD0404F5ED
:10171000407402D25B084FEA3202B61A65EB030549
:101720005B084FEA32024FF480104FF4002CB6EB06
:10173000020E75EB030E22BFB61A754640EA0C0086
:101740005B084FEA3202B6EB020E75EB030E22BFC6
:10175000B61A754640EA5C005B084FEA3202B6EB07
:10176000020E75EB030E22BFB61A754640EA9C00C6
:101770005B084FEA3202B6EB020E75EB030E22BF96
:10178000B61A754640EADC0055EA060E18D04FEA54
:10179000051545EA16754FEA06164FEAC30343EAF4
:1017A00052734FEAC2025FEA1C1CC0D111F4801FC1
:1017B0000BD141EA00014FF000004FF0004CB6E7BA
:1017C00011F4801F04BF01430020B4F1FD0C88BF59
:1017D000BCF5E06F3FF6AFAEB5EB030C04BFB6EB64
:1017E000020C5FEA500C50F1000041EB045170BD57
:1017F0000EF0004E4EEA113114EB5C04C2BFD4EB84
:101800000C0541EA045170BD41F480114FF0000E07
:10181000013C90E645EA060E8DE60CEA135594EA83
:101820000C0F08BF95EA0C0F3FF43BAF94EA0C0F86
:101830000AD150EA01347FF434AF95EA0C0F7FF4FB
:1018400025AF104619462CE795EA0C0F06D152EA4F
:1018500003353FF4FDAE1046194622E750EA410633
:1018600018BF52EA43067FF4C5AE50EA41047FF444
:101870000DAF52EA43057FF4EBAE12E74FEA410C9D
:101880007FEA6C5C02D150EA013C0AD14FEA430C7A
:101890007FEA6C5C02D152EA033C02D14FF00000B7
:1018A00070474FF0010070474FEA410212F50012F5
:1018B00015D211D56FF47873B3EB625212D94FEA97
:1018C000C12343F0004343EA505311F0004F23FA81
:1018D00002F018BF404270474FF00000704750EAD6
:1018E000013005D111F0004008BF6FF00040704793
:1018F0004FF00000704700BF4A0011D212F50012ED
:1019000011D20DD56FF47873B3EB62520ED44FEA57
:10191000C12343F0004343EA505323FA02F07047D7
:101920004FF00000704750EA013002D14FF0FF3015
:1019300070474FF0000070474FEA4102B2F1E043B8
:1019400024BFB3F5001CDCF1FE5C0DD901F0004CA6
:101950004FEAC0024CEA5070B2F1004F40EB8300F6
:1019600008BF20F00100704711F0804F21D113F122
:101970003872BCBF01F00040704741F480114FEA5B
:101980005252C2F11802C2F1200C10FA0CF320FAE4
:1019900002F018BF40F001004FEAC1234FEAD32301
:1019A00003FA0CFC40EA0C0023FA02F34FEA43036B
:1019B000CCE77FEA625307D150EA01331EBF4FF0F4
:1019C000FE4040F44000704701F0004040F0FE400F
:1019D00040F40000704700BF4FEA40024FEA410365
:1019E0007FEA226C02D15FEA402C08D17FEA236CA7
:1019F00002D15FEA412C02D14FF0000070474FF056
:101A0000010070470348044B834202D0034B03B1EB
:101A10001847704778100020781000200000000060
:101A20000548064B1B1AD90F01EBA301491002D040
:101A3000034B03B11847704778100020781000203E
:101A40000000000010B5064C237843B9FFF7DAFF19
:101A5000044B13B10448AFF300800123237010BD81
:101A600078100020000000003812050808B5054B6A
:101A70001BB105490548AFF30080BDE80840FFF7FA
:101A8000CFBF00BF000000007C1000203812050806
:101A90000160002242608260C260704708B54268FF
:101AA0000368D21A914200D208BD01481BF0E8FB3E
:101AB0006412050808B50846114606F075FB08BD16
:101AC00008B5081E02DB06F06FFF08BD1BF078FBAF
:101AD000016042607047000010B5094C01221146B8
:101AE000204603F0EBF90A2001F080FD00220121DD
:101AF000204603F0E3F94FF4FA7001F077FD10BDD2
:101B0000000802402DE9F04385B006460D4600244A
:101B10008DF80C400194CDF80740584F22464FF401
:101B20008051384603F0CAF950238DF80C30C82391
:101B3000012203A9306804F0F6FC4B2001F056FDA9
:101B4000C823072201A9306804F0E5FE01224FF402
:101B50008051384603F0B2F98DF800408DF801400D
:101B60009DF90430A34208DB00232B606B609DF8D5
:101B700007302B7205B0BDE8F0837468E378002B62
:101B80003DD09DF906004042FEF738FE0146FEF7C3
:101B900081FD064694F800904846FEF72FFE074662
:101BA00001463046FEF77EFE3549FEF72FFF8046A0
:101BB0006078FEF71FFE04464846FEF71BFE01460E
:101BC0002046FEF723FF39F0D3FE06460146404685
:101BD000FEF768FE04469DF90500FEF70FFE01467C
:101BE000FEF758FD01463846FEF75CFE2449FEF735
:101BF0000DFF3146FEF756FE2C606860B7E79DF991
:101C000006004042FEF7FAFD0146FEF743FD064698
:101C100094F800904846FEF7F1FD0746014630462D
:101C2000FEF740FE1749FEF7F1FE80466078FEF7AA
:101C3000E1FD04464846FEF7DDFD01462046FEF77D
:101C4000E5FE39F095FE064601464046FEF72AFEBF
:101C500004469DF90500FEF7D1FD0146FEF71AFD89
:101C600001463846FEF71EFE0649FEF7CFFE314616
:101C7000FEF718FE2C60686079E700BF00040240A0
:101C800000803B4700803B4610B582B0044641F0DF
:101C900080018DF804108DF8052000224FF480514A
:101CA0000D4803F00BF9C823022201A9206804F0B3
:101CB0003AFC50B901224FF48051074803F0FEF876
:101CC000322001F093FC02B010BD0449044825F015
:101CD00049FF25F0DFFDEDE700040240B0120508E2
:101CE000001D002008B500221221FFF7CDFF08BD1E
:101CF00010B582B004468DF8041000228DF8002043
:101D00004FF48051154803F0D9F8C823012201A9E6
:101D1000206804F008FC98B94B2001F067FCC82348
:101D200001226946206804F0F6FD80B901224FF4D3
:101D300080510A4803F0C2F89DF8000002B010BDBF
:101D40000749084825F00EFF25F0A4FDE4E7064901
:101D5000044825F007FF25F09DFDE7E70004024059
:101D6000E0120508001D00201013050808B5002129
:101D7000FFF7BEFF172801D0002008BD0120FCE7B7
:101D800010B50446FFF7A8FE2046FFF7EFFF08B99D
:101D9000012010BD636893F902301A0142EA8312F0
:101DA00002F0F0020A212046FFF76EFF2046FFF7FF
:101DB00099FF0020EDE700230370437083707047A4
:101DC0000170427083707047C170704710B504464F
:101DD000FFF7F1FF64212046FFF7F6FF204610BD14
:101DE00082B00068019000209DF8043063F3070082
:101DF0009DF8053063F30F209DF8063063F317401C
:101E00009DF8073063F31F6002B070472DE9F04181
:101E10000F4616461D460468D0F8048006E02B469F
:101E20003246394654F8040BFFF7CAFFA045F6D1F5
:101E3000BDE8F08170B50D460468466804E02946A7
:101E400054F8040BFFF7C0FFA642F8D170BD10B5DF
:101E500004460021006805F08BFE0023237610BDA8
:101E600008B5436802689B1AB1EBA30F00D208BD06
:101E70009A1001481BF004FA6412050838B50446AC
:101E80000D460C30FFF7ECFFE36853F8250038BD32
:101E900040680438704703684268934200D043604A
:101EA000704740680438704708B50846910006F04E
:101EB0007BF908BD10B5044601688268521A11B159
:101EC0009210FFF7F1FF204610BD10B50446FFF752
:101ED000F1FF204610BD10B584B0844601914468DE
:101EE0000368E31A98106FF0604EAEEBA3038B42C9
:101EF00010D30390814210D803AB1B681844DCF860
:101F00000030E41AB0EBA40F09D3B0F1005F09D29E
:101F100004B010BD10461BF09BF901ABEDE76FF06C
:101F20006040F5E76FF06040F2E708B508469100C1
:101F300006F03AF908BD10B5044601688268521AE5
:101F400011B19210FFF7F1FF204610BD10B5044605
:101F5000FFF7F1FF204610BD10B584B08446019113
:101F600044680368E31A98106FF0604EAEEBA30369
:101F70008B4210D30390814210D803AB1B681844E6
:101F8000DCF80030E41AB0EBA40F09D3B0F1005F25
:101F900009D204B010BD10461BF05AF901ABEDE7B1
:101FA0006FF06040F5E76FF06040F2E708B5B1F11F
:101FB000005F03D2880006F0F7FC08BDB1F1804F46
:101FC00001D31BF00DF91BF0FBF800002DE9F84FD1
:101FD00005468A4693461E4A0121FFF77CFFD5F845
:101FE00000806F68AAEB0804814618B300220146FE
:101FF0002846FFF7DBFF0646DBF800303351002CA4
:102000001ADC04343444A7EB0A07002F1ADC3C44E2
:10201000AA68A2EB08029210B8F1000F03D0414663
:102020002846FFF741FF2E606C6006EB8906AE6024
:10203000BDE8F88F0026DFE72246414630463EF0F5
:1020400025FEDEE73A46514620463EF01FFEDEE71B
:102050004013050810B5044643688268934208D0CF
:102060000A681A604368043343602046FFF710FF94
:1020700010BD0A461946FFF7A9FFF6E7F0B583B091
:1020800005460F461E4600230360436083601446E6
:1020900005E0019001A92846FFF7DCFF0134A642C4
:1020A00009DDE1B23846FFF7E9FEF2E72846FFF71F
:1020B0000CFF06F07BF8284603B0F0BD2DE9F04197
:1020C00084B00646684680E806009DF8288003C86C
:1020D00086E8050033720024F4603461746134765C
:1020E000F4613462746208E00546FFF76FFE039501
:1020F00003A93846FFF7AEFF0134A0450EDD06F117
:102100000C07042006F050FCEEE706F11C00FFF778
:102110001DFF3846FFF7D9FE06F048F8304604B0F8
:10212000BDE8F08108B5B1F1005F03D2880006F088
:102130003BFC08BDB1F1804F01D31BF051F81BF0FF
:102140003FF800002DE9F84F05468A4693461E4A9F
:102150000121FFF701FFD5F800806F68AAEB0804A2
:10216000814618B3002201462846FFF7DBFF0646EA
:10217000DBF800303351002C1ADC04343444A7EB74
:102180000A07002F1ADC3C44AA68A2EB080292104E
:10219000B8F1000F03D041462846FFF7C6FE2E6077
:1021A0006C6006EB8906AE60BDE8F88F0026DFE7BD
:1021B0002246414630463EF069FDDEE73A4651464A
:1021C00020463EF063FDDEE74013050810B50446E7
:1021D00043688268934208D00A681A6043680433EF
:1021E00043602046FFF75DFE10BD0A461946FFF723
:1021F000A9FFF6E72DE9F04F89B007463B7E002B9B
:10220000FCD107F11C063046FFF745FEFB68D7F806
:10221000109010E01923069306A93046FFF7D6FF69
:10222000013C002C05DB0123A3401D42F2D03323E7
:10223000F1E708F10403984699453CD0D3F800A093
:102240005046FFF7CDFD00909DF801505046FFF736
:10225000C7FD01909DF8073003FB05F5DFF880B05E
:102260008BFB05356D112D045046FFF7B9FD02902B
:102270009DF808405046FFF7B3FD03909DF80F30DE
:1022800004FB03F38BFB03235B1145EA0325504654
:10229000FFF7A6FD04909DF812405046FFF7A0FD01
:1022A00005909DF8173003FB04F48BFB04B445EA5A
:1022B00064151724B5E70023079307A93046FFF7F5
:1022C00085FFFA693B6A9B1AC3F38F033979386833
:1022D00005F002FB01233B7609B0BDE8F08F00BF9B
:1022E0001F85EB51016042608360009BC360002347
:1022F0000361436170474368DB8CC268B2F8231006
:10230000581A92F92A309BB213FA80F000B2704743
:1023100010B50446FFF7EFFF80B2E368B3F833204F
:10232000A368801A988110BD2DE9F0410446FFF79B
:10233000EFFFA568D5F80E006368D969FEF7AAF922
:10234000C5F80E00A568D5F812006368196AFEF793
:10235000A1F9C5F81200A668D6F80E002169FEF7AB
:1023600097F91949FEF79EFA05462368D3F80080CD
:10237000D8F82400FEF73EFA01462846FEF746FB51
:102380000546D6F812006169FEF782F90E49FEF79C
:1023900089FA0746D8F82400FEF72CFA0146384699
:1023A000FEF734FBC6F81650C6F81A0023681B68FF
:1023B00001225A62A3681034D3F80E00D3F8121029
:1023C00003C4BDE8F08100BF002474498368002283
:1023D000C3F80E20C3F8122003681B6801225A625A
:1023E00070470160027183607047000070B5044659
:1023F0000846FEF703FA0546A668B6F90000FEF7A0
:10240000FDF901462846FEF745F90546B6F90200F2
:10241000FEF7F4F901462846FEF7F8FA4FF07F512F
:10242000FEF738F9054623681E68F06AFEF7E2F900
:102430002946FEF737FA0549FEF7E8FAFEF71EFCD3
:1024400070632179206805F0C5F970BD0000A041D6
:102450000160426083600023C360704770B504462A
:1024600090F91830002B25DD01228188006802F0E8
:1024700025FD0022A189A06802F020FD94F9180032
:102480000028B8BF4042C0B2FEF7B8F90F49FEF7C6
:10249000BDFA054623691E68F06AFEF7ABF92946C6
:1024A000FEF700FAFEF7EAFB7063A18A206905F0E7
:1024B00091F970BD00228188006802F0FFFC0122C2
:1024C000A189A06802F0FAFCD8E700BF0000C8426A
:1024D00008B50176FFF7C2FF08BD10B5044600211C
:1024E000FFF7F6FF0022A188206802F0E7FC002237
:1024F000A189A06802F0E2FC10BD84B000B50DF126
:10250000080C8CE80E008646BCE80F00AEE80F0011
:102510009CE803008EE803005DF804EB04B070470C
:1025200010B590B0044681638287002280F83E2077
:102530000493BDF84830ADF81430139B0693BDF8F2
:102540005030ADF81C30199B0893BDF86830ADF8D9
:102550002430159B0A93BDF85830ADF82C30179BEA
:102560000C93BDF86030ADF834301B9B0E93BDF872
:102570007030ADF83C3007AB93E807008DE80700FA
:1025800004AB0ECB2046FFF7B8FF10AB13E90700F2
:102590008DE807000AAB0ECB04F11C00FFF7ADFF7E
:1025A000204610B010BD10B504460021FFF790FF83
:1025B000002104F11C00FFF78BFF0122A18FA06B0B
:1025C00002F07CFC10BD10B50446FFF786FF04F155
:1025D0001C00FFF782FF0022A18FA06B02F06EFCAF
:1025E00010BD016042600022C2600261426170471A
:1025F00010B5044601688268521A09B1FFF75AFA09
:10260000204610BD10B50446FFF7F2FF204610BD6E
:102610007047704738B505460C46FFF7FAFF201A99
:10262000284438BD38B504460D4639B10022FFF7BD
:1026300047FA206060602844A06038BD0020F8E7B9
:1026400010B504460023036043608360FFF7EAFF90
:10265000204610BD38B515460C1A012C06DD224661
:10266000014628463EF012FB281938BD012CFBD14B
:1026700003781370F8E770B50E461446FFF7C8FFED
:1026800005463046FFF7C4FF06462046FFF7C1FF68
:10269000024631462846FFF7DDFF01462046FFF798
:1026A000B9FF70BD08B5FFF7E6FF08BDF8B5571ACA
:1026B00011D404460D46164687B100223946FFF76D
:1026C000FFF9024622601744A76031462846FFF70B
:1026D000C1FF6060F8BD02481AF0BAFD0022F1E7C0
:1026E0005C13050810B582B0044602AB03E906008E
:1026F00000230360436083600A44FFF7D7FF04E0D0
:102700002046FFF775FF05F051FD204602B010BDD1
:1027100010B588B0044655238DF81430AA238DF8DF
:1027200015308DF8161000238DF81730FA238DF828
:10273000183005AB03930523049307AB03AA06CA1D
:102740006846FFF7CFFF0099019A521A642392B2AC
:10275000206805F0C6FB6846FFF754FF08B010BDBF
:102760006846FFF74FFF05F021FD08B58421FFF70C
:10277000CFFF08BD08B5FFF7F8FF08BD38B515460F
:102780000C1A012C06DD2246014628463EF07EFA50
:10279000281938BD012CFBD103781370F8E770B508
:1027A0000E461546FFF734FF04463046FFF730FF6C
:1027B00001462A462046FFF74DFF70BD08B5FFF7DA
:1027C000EEFF08BD08B5FFF7F9FF08BD70B5154667
:1027D0001E4651B10022FFF773F9044622463146E6
:1027E0002846FFF7EFFF204670BD0024F6E770B5DE
:1027F0000446814213D00D46496828680E1A2268A3
:10280000A368A3EB020C66450BD86368A3EB020C2C
:10281000664518D8FFF746FF2368334463602046B7
:1028200070BD0B46024631462046FFF7CFFF0546F6
:102830002168A268521A11B12046FFF73BF92560C2
:102840003544A560E8E700EB0C01FFF797FF286827
:1028500062682368D31A69681844FFF78FFFDBE7C3
:1028600008B513780A1A00D108BD19463EF08EFA51
:10287000FAE781B1844600220CF8012B012901D12D
:102880006046704710B54418024621466046FFF77F
:10289000E7FF204610BD704738B50D1E0ADB044621
:1028A0002946FFF7CDFE29462068FFF7E2FF60606A
:1028B000204638BD01481AF0CBFC00BF5C13050868
:1028C00010B584B00446014651F8080B6423042275
:1028D00005F073FB03AAE17A6846FFF7DDFF009974
:1028E000019A521A642392B2206805F066FB694689
:1028F00004F10C00FFF77BFF214651F8180B64230D
:10290000012205F05AFB237A552B07D1637AAA2BB3
:102910000BD1237EFA2B0AD1002400E00124684663
:10292000FFF770FE204604B010BD0124F7E7012434
:10293000F5E76846FFF766FE05F038FCF8B5044693
:102940000D468121FFF7E4FE2046FFF7B9FF00B1F5
:10295000F8BD04F10C0600213046FFF79FF8E3684C
:102960001F7801213046FFF799F8E3685B7843EA66
:1029700007232B8002213046FFF790F8E268636856
:1029800092781A70E4E70020704700002DE9F047C4
:1029900084B005464668B6F8013003F003088DF8A8
:1029A0000880C3F381078DF80970C3F3011E8DF809
:1029B0000AE0C3F3811C8DF80BC0C3F301208DF82E
:1029C0000C00321D00231C4604E0D15C2144CCB233
:1029D00001339BB2862BF8D93378AA2B02D1F37836
:1029E000A34226D0B249B34825F0BCF86B681B78E7
:1029F000AA2B0AD16B68DB78A3420BD1AD4824F037
:102A000049FF012004B0BDE8F087AB49A94825F093
:102A1000A9F8EFE7A949A74825F0A4F8214625F031
:102A200061F9A74925F09EF86B68D97825F05AF925
:102A3000E4E700230193AA238DF804304FEA8C13B6
:102A400043EA002343EA0E1343EA870348EA0303F9
:102A5000ADF80530B8F1010F00F09280B8F1020F27
:102A600040F09680AB68EA681188927899809A71F4
:102A700000240321012F00F08E80022F21D1AB68AA
:102A80000B44EA6802F1030A04332332DAF80090B7
:102A9000DAF80480DAF80870DAF80C60C3F800900D
:102AA000C3F804809F60DE600AF1100A103392457B
:102AB000ECD1DAF80060DAF804201E605A602831A0
:102AC00089B2BEF1010F00F08F80BEF1020F1FD15D
:102AD000AB680B44EA68D2F82BE0D2F82F70D2F83A
:102AE0003360D2F83780C3F804E09F60DE60C3F83B
:102AF0001080D2F83BE0D2F83F70D2F84360C3F8C0
:102B000014E09F61DE61B2F847201A841E3189B259
:102B1000BCF1010F00F08980BCF1020F1ED1AB683F
:102B20000B44EE6806F1490204337936D2F800808E
:102B3000D2F804E0D2F808C0D768C3F80080C3F820
:102B400004E0C3F808C0DF6010321033B242EDD1A8
:102B5000166852681E605A60383189B2012800F048
:102B6000838002280AD1AB680B44EA68D2F881005E
:102B70005860B2F885201A81063189B20B4682E08E
:102B8000EB68B188927819809A700324002171E76C
:102B9000002421466EE7EB686A68224402F10409CA
:102BA00003F1030A2432D9F80030D9F80480D9F8A7
:102BB0000870D9F80C60CAF80030CAF80480CAF866
:102BC0000870CAF80C6009F110090AF1100A914561
:102BD000E9D1D9F80020D9F80430CAF80020CAF8A1
:102BE00004302834A4B26CE7EA686B682344D3F855
:102BF00004E09F68DE68D3F81080C2F82BE0C2F8CA
:102C00002F70C2F83360C2F83780D3F814E09F69A0
:102C1000DE69C2F83BE0C2F83F70C2F843601B8C2B
:102C2000A2F847301E34A4B272E7EA686E68264400
:102C3000331D49323436D3F80080D3F804E0D3F89A
:102C400008C0DF68C2F80080C2F804E0C2F808C01B
:102C5000D76010331032B342EDD11E685B68166046
:102C600053603834A4B279E7EA686B682344586843
:102C7000C2F881001B89A2F885307FE7AA681A4450
:102C8000002010710133862BF8D9AD682C1D00236C
:102C90001A4604E0E05C0244D2B201339BB299428E
:102CA000F8D88DF80720019B2B600020AAE600BF12
:102CB00090130508001D0020AC130508C01305087B
:102CC000DC130508016042608360009AC260002244
:102CD0001A70704710B586B004466423029301232E
:102CE00001930DF1170200921B22D021006802F01F
:102CF000D7FC68BB9DF8173003F0E0038DF8173060
:102D000062681288B2F57A7F18D0B2F5FA6F1AD0DD
:102D1000B2F5FA7F03D143F008038DF8173064232E
:102D20000293012301930DF1170200921B22D0217F
:102D3000206802F003FC68B906B010BD43F0100330
:102D40008DF81730EBE743F018038DF81730E6E7FE
:102D50000120F1E70120EFE700B587B043689B78D9
:102D60008DF8173064230293012301930DF11702AC
:102D700000921B22D021006802F0E0FB10B907B0DE
:102D80005DF804FB0120FAE710B586B00446642321
:102D90000293012301930DF1170200921C22D0210E
:102DA000006802F07DFC50BB9DF8173003F0700303
:102DB0008DF817306268D278082A16D0102A19D0F8
:102DC000042A03D143F008038DF8173064230293DB
:102DD000012301930DF1170200921C22D0212068DB
:102DE00002F0ACFB68B906B010BD43F010038DF8DB
:102DF0001730EBE743F018038DF81730E6E70120B2
:102E0000F1E70120EFE710B586B004460A466423D7
:102E1000D021006802F0B6FD10B1012006B010BD4F
:102E2000A268012313708DF8173064220292019377
:102E30000DF1170200926B22D021206802F07EFB78
:102E400008B10120EAE72046FFF786FF08B101201C
:102E5000E4E72046FFF73EFF08B10120DEE7204609
:102E6000FFF792FF0028D9D00120D7E72DE9F04FD6
:102E700091B004460D460CAB00220C920D920E92BE
:102E8000ADF83C20642202920E22019200930123AD
:102E90003B22D021006802F003FC0490002840F09F
:102EA000AC809DF830309DF8310040EA032000B23C
:102EB000FDF7A4FC834609909DF832309DF833005D
:102EC00040EA032000B2FDF799FC82460A909DF883
:102ED00034309DF8350040EA032000B2FDF78EFC47
:102EE00081460B909DF836309DF8370040EA03206C
:102EF00000B2FDF783FC05909DF838309DF839004D
:102F000040EA032000B2FDF779FC804606909DF868
:102F10003A309DF83B0040EA032000B2FDF76EFC1A
:102F2000074607909DF83C309DF83D0040EA03209D
:102F300000B2FDF763FC064608906368D878FDF799
:102F400059FC01465846FDF7ADFC2D49FDF75EFDE5
:102F500068606368D878FDF74DFC01465046FDF780
:102F6000A1FC2749FDF752FDA8606368D878FDF7FA
:102F700041FC01464846FDF795FC2149FDF746FD19
:102F8000E86020490598FDF741FD1F49FDF782FBE8
:102F9000286063681888FDF72DFCE3681968FDF761
:102FA00077FB01464046FDF77DFC1549FDF72EFDF8
:102FB000286163681888FDF71DFCE3685968FDF710
:102FC00067FB01463846FDF76DFC0D49FDF71EFD18
:102FD000686163681888FDF70DFCE3689968FDF780
:102FE00057FB01463046FDF75DFC0549FDF70EFD38
:102FF000A861049811B0BDE8F08F01230493F8E7AD
:1030000000FEFF460000AA43B81E124230B58BB046
:1030100005460024039404940594069407940894A8
:103020000994009401940294836802221A7017E0B4
:1030300003A92846FFF71AFF07990098FDF72AFB16
:10304000009008990198FDF725FB019009990298D5
:10305000FDF720FB02900A2001F050FB0134E4B29E
:103060006B681879A042E3D8FDF7C4FBEC682168CF
:10307000FDF710FB01460098FDF7C8FC20606B6867
:103080001879FDF7B7FBEC686168FDF703FB0146B3
:103090000198FDF7BBFC60606B681879FDF7AAFB2F
:1030A000EC68A168FDF7F6FA01460298FDF7AEFC60
:1030B000A060AB6803221A700BB030BD01607B22A8
:1030C00080F83C207047000030B5034601680022BC
:1030D0006FF01F0008704A70196892208870196894
:1030E0003D20C87019686FF00B0008714FF0010E99
:1030F00081F805E019688A7118680421C17118689F
:10310000642404721868122545721868817219685F
:1031100081F80BE0196881F80CE01D682C490868FB
:10312000C5F80D0018684274827418687025C5745B
:103130001725057518686FF03B05457509258575D8
:103140001D684868C5F81B001D688868C5F81F0021
:103150001D68C868C5F81F0018686FF0780580F80A
:10316000235080F824201868322580F8255080F8F4
:1031700026201868CE2580F8275080F8282080F86F
:103180002920186880F82A4080F82B2080F82C200D
:1031900018680C8A897CA0F82D4080F82F101968D7
:1031A000FB2081F8300081F8312081F83220196845
:1031B0006FF0370081F8330081F834201A6882F804
:1031C00035E01B682C2283F8362083F837E030BDC9
:1031D000501205082DE9F04F89B00024039404949F
:1031E00005940694079400945E4B1A6B42F0040217
:1031F0001A631A6B02F004020092009A01941A6B8F
:1032000042F001021A631A6B02F001020192019A64
:1032100002941A6B42F002021A631B6B03F0020362
:103220000293029B504F01221146384601F046FEA0
:1032300022464FF49C71384601F040FE4B4E224628
:1032400040F60C11304601F039FEDFF824810122EE
:103250004FF48051404601F031FE012503954FF0B7
:103260001109CDF810900595069403A9384601F090
:1032700031FD4FF48C73039304950594069403A9D0
:10328000384601F027FD4FF0030BCDF80CB0049445
:103290004FF0020ACDF814A003A9304601F01AFD40
:1032A0000C2303930495CDF814A006940DEB0301B1
:1032B000304601F00FFD102303934FF4881304935D
:1032C000059503A9304601F005FD202303930495DD
:1032D0000594CDF818A003A9384601F0FBFC07239C
:1032E00003930494059403A9404601F0F3FC4FF4C2
:1032F00080530393CDF810900595CDF818B003A92D
:10330000404601F0E7FC4FF44043039304940595D5
:1033100003A9404601F0DEFC4FF49053039304945C
:10332000059403A9384601F0D5FC4FF4807303934C
:1033300004950594069403A9304601F0CBFC4FF4A4
:1033400000630393CDF810900595069403A93046C9
:1033500001F0C0FC224621460A2001F029FA09B0FA
:10336000BDE8F08F00380240000802400000024033
:103370000004024010B582B0002400941A4B1A6B6E
:1033800042F480021A631A6B02F480020092009ADF
:1033900001941A6B42F400121A631B6B03F40013BE
:1033A0000193019B224621460C2001F001FA0C20DA
:1033B00001F00EFA22462146102001F0F9F9102002
:1033C00001F006FA22462146382001F0F1F93820B2
:1033D00001F0FEF922462146442001F0E9F944209B
:1033E00001F0F6F902B010BD003802402DE9F04FAF
:1033F0008FB0524C21465248FFF760FEA4F11E07E1
:1034000000943B46A4F146024E494F48FEF76AFF3E
:103410004E4DA4F147024E492846FFF7E2F84D4EC3
:1034200032464D49284604F03BFE0097A4F148037C
:10343000221D4A494A48FFF745FC04F1090249495F
:103440004948FEF745FB494D49492846FEF720FB10
:1034500032464849284604F023FE474A1346474966
:1034600043F8101B536002F19B039360493CD46006
:10347000434B1360434B0C9300258DF83450DFF819
:1034800008814FF0090BCDF800B02B460EAA12E9C7
:1034900006004046FEF712FE32463C49404604F024
:1034A000FFFDDFF8EC9001232A4641464846FEF72F
:1034B000E5FDDFF8E0A032465146484604F0F0FD55
:1034C000DFF8D4905B46012241464846FEF7D6FD20
:1034D00032465146484604F0E3FD5A342F4E234607
:1034E0002A4631462E48FEF77CFF23460422314609
:1034F0002C48FEF776FF2C492C4C04230A932C4BC6
:103500000993089507934FF40073069305914FF4C0
:103510008073049303911023029301910823009375
:103520000B4620222046FEF7FBFF3B462246214960
:103530002148FEF78DFF0FB0BDE8F08F5513002036
:10354000CC12002068150020B41200209812002030
:103550001C14002000000020AB3E00084018002092
:103560008812002090170020801200207012002086
:10357000941300209D3E000844110020A02E050851
:10358000AC2E0508881600201C110020C53E00083E
:1035900010110020B93E000804110020F815002089
:1035A000F8100020EC10002000080240AC100020B1
:1035B00040160020201500209410002000B583B094
:1035C00001904FF6FF73012201A9064804F089FC1F
:1035D000054B1B68002198683AF022FE019803B061
:1035E0005DF804FBD813002040070020034B1A6845
:1035F00000235362536A8342FCD37047B015002006
:1036000008B5044B834200D008BD0348FEF71FFCF9
:10361000FAE700BF881600201C1100200C4B9842CE
:1036200000D0704710B504460A48FFF7AFF928B13B
:103630008B220949204603F047FB10BD204603F0CA
:10364000C1FB8B220549204603F026FAF5E700BFAF
:10365000E81700204411002054110020DF11002041
:1036600008B5044B984200D008BD8B22024903F0F4
:103670002BFBF9E7E81700205411002008B50B498F
:103680000B4824F06FFA24F005F900231A46FF21B5
:103690000848FEF7BBFB0848FEF7ACFD00220421FA
:1036A000064801F00BFC72B6FEE700BFE813050800
:1036B000001D0020101100201C11002000000240FD
:1036C00008B50A480A4B03604FF4E1334360002316
:1036D0008360C3600361082242618361C36104F0B7
:1036E000D1FB00B908BDFFF7C9FF00BFD813002008
:1036F0000010014008B50B480B4B036000234360EA
:103700008360C360036143614FF4007282610362AE
:10371000436283620A23C36202F0A6FE00B908BDB9
:10372000FFF7ACFFE81700200030014000B58FB074
:1037300000230A930B930C930D9308930993019321
:1037400002930393049305930693079321484FF044
:1037500080420260436083606422C26003618361CF
:1037600003F0A0FE50BB4FF480530A930AA91948F6
:1037700003F0A2FF20BB174803F0C0FE10BB0023DC
:103780000893099308A9134804F06CFAE0B9602380
:103790000193002202920392059201A90D4803F0C1
:1037A00011FF98B9082201A90A4803F00BFF78B964
:1037B000084800F077FD0FB05DF804FBFFF75EFFEF
:1037C000FFF75CFFFFF75AFFFFF758FFFFF756FFC1
:1037D000FFF754FF8816002000B58FB000230A932E
:1037E0000B930C930D930893099301930293039306
:1037F00004930593069307932248234A026043608B
:1038000083604FF6FF72C2600361836103F04AFE7A
:1038100058BB4FF480530A930AA91A4803F04CFF8F
:1038200028BB184803F06AFE18BB002308930993CD
:1038300008A9144804F016FAE8B96023019300229D
:1038400002920392059201A90E4803F0BBFEA0B9B3
:1038500004220DEB02010B4803F0B4FE78B90948CD
:1038600000F020FD0FB05DF804FBFFF707FFFFF746
:1038700005FFFFF703FFFFF701FFFFF7FFFEFFF76D
:10388000FDFE00BF401600200004004000B58FB0D0
:1038900000230A930B930C930D93089309930193C0
:1038A0000293039304930593069307932248234AB4
:1038B00002601922426083604FF6E752C2600361E2
:1038C000836103F0EFFD58BB4FF480530A930AA9BC
:1038D000194803F0F1FE28BB174803F00FFE18BB90
:1038E00000230893099308A9134804F0BBF9E8B929
:1038F00060230193002202920392059201A90E48CF
:1039000003F060FEA0B904220DEB02010A4803F0A7
:1039100059FE78B9084800F0C5FC0FB05DF804FB0B
:10392000FFF7ACFEFFF7AAFEFFF7A8FEFFF7A6FE23
:10393000FFF7A4FEFFF7A2FEF815002000080040E4
:1039400008B50A480A4B03604FF4E1334360002393
:103950008360C36003610C2242618361C36104F030
:1039600091FA00B908BDFFF789FE00BF1C140020C2
:10397000004C004008B50A480A4B03600A4B4360FC
:1039800000238360C3604FF480420261436183611E
:10399000C361036201F0F4FC00B908BDFFF76EFEDD
:1039A0004018002000540040801A060008B50E4858
:1039B0000E4B03604FF48273436000238360C36047
:1039C00002220261012242614FF4007282613822B8
:1039D000C2610362436283620A23C36202F044FD50
:1039E00000B908BDFFF74AFE9017002000380040DC
:1039F00008B50A480A4B03604FF4E13343600023E3
:103A00008360C36003610C2242618361C36104F07F
:103A100039FA00B908BDFFF731FE00BF941300204A
:103A20000014014008B50948094B0360592343605D
:103A3000002383604FF6FF72C2600361836103F06D
:103A400031FD00B908BDFFF719FE00BFB015002019
:103A50000044014008B50948094B036059234360FD
:103A6000002383604FF6FF72C2600361836103F03D
:103A700019FD00B908BDFFF701FE00BF6815002061
:103A80000048014000B585B00023009301930293E4
:103A900003930E480E4A02605922426083604FF63B
:103AA000FF72C2600361836103F0FCFC50B94FF404
:103AB000805300936946054803F0FEFD20B905B028
:103AC0005DF804FBFFF7DAFDFFF7D8FD20150020B5
:103AD0000018004000B595B03422002107A83DF041
:103AE00055F90023029303930493059306930093DF
:103AF000224A116C41F080511164126C02F0805224
:103B00000092009A01931E4A116841F440411160ED
:103B1000126802F440420192019A022207920121A6
:103B20000A9110210B910D920E9308230F93B42349
:103B3000109311921292139207A802F095F9B0B95E
:103B400001F0EAFFA8B90F23029302230393002395
:103B500004934FF4A05305934FF48053069305212B
:103B600002A802F017F830B915B05DF804FBFFF7B2
:103B700085FDFFF783FDFFF781FD00BF00380240A0
:103B80000070004070B500F08DFDFFF7A3FFFFF758
:103B900021FBFFF7EFFBFFF793FDFFF7ABFDFFF70F
:103BA000C5FDFFF719FEFFF771FEFFF7C9FEFFF72E
:103BB000E1FEFFF7FBFEFFF71BFFFFF733FFFFF709
:103BC00049FFFFF75FFF9F499F4823F0CBFF23F09A
:103BD00061FE9E4C05212046FEF72CF9FF230022B2
:103BE00011462046FEF712F99948FEF703FB994863
:103BF000FFF76AFA984803F02BFB984803F028FB7C
:103C0000974803F025FB9748FEF7B4FD9648FEF76A
:103C1000B7F808B1FFF732FD03219448FFF7F3F836
:103C200008B1FFF72BFD642000F068FD904D0122E4
:103C30004FF40061284601F041F90A2000F05EFDD2
:103C400000224FF40061284601F038F9002189482C
:103C5000FEF7CCFB0023FF2219467C48FEF7D6F87E
:103C6000854C864E94F859103046FEF7E3F894F8E8
:103C7000583094F8572094F856103046FEF7C6F89E
:103C80007348FEF7B7FA7E496F4823F06BFF23F0C5
:103C900001FE8B227B497C4803F016F801220421A7
:103CA000284601F00BF921E0734C744D94F859103B
:103CB0002846FEF7BFF894F8583094F8572094F847
:103CC00056102846FEF7A2F86148FEF793FA13E073
:103CD0006E48FEF77BFB15E06448FFF797F917E0A5
:103CE0006B48FEF760FCE31E01221A70624B93F8EA
:103CF000833013F0010FD7D15F4B93F8833013F06B
:103D0000100FE5D15C4B93F8833013F0020FE3D131
:103D1000604C21465548FFF7A9F804F126015148A7
:103D2000FEF70CFE04F11C014F48FDF7EBFE57486F
:103D3000FEF7FAFA14F8033C012B04D0022B72D0E0
:103D4000002BD3D1CCE74C4B93F88130012B17D00B
:103D5000022B38D053B9484CB4F985104548FEF7CA
:103D600045FB94F984104A48FEF7B2FB424B93F8A6
:103D7000833013F0040FB9D03F4B02221A70B5E71D
:103D80003D4BD3F83D4000212046FCF747FF48B9A2
:103D900000212046FCF724FF80B900213548FEF7BA
:103DA00025FB04E04FF4FA713248FEF71FFB324B5B
:103DB00093F984103648FEF78BFBD7E736492D4838
:103DC000FEF714FBF3E72C4CB4F985102948FEF7F5
:103DD0000DFBB4F9372094F87E309A4202DC5B4246
:103DE0009A4211DA2948FEF786FA234BB3F87F305E
:103DF00098420DDC204BB3F93730002B0DDD0A2142
:103E00002348FEF765FBB1E72148FEF766FBADE707
:103E100014211F48FEF75CFBA8E76FF009011C485E
:103E2000FEF756FBA2E71A48FEF7CDFB124B93F8BC
:103E3000833013F0040F7FF459AF0F4B00221A7038
:103E400054E700BF04140508001D002010110020D5
:103E50001C110020CC120020B01500206815002095
:103E600020150020981200208012002088120020C7
:103E700000000240F81000200C1300200411002064
:103E80002014050854110020E8170020B412002067
:103E9000AC1000200F1300200CFEFFFF10B50446ED
:103EA0000430FEF7AFFB204610BD10B504460C30C1
:103EB000FEF7A8FB204610BD10B50446FEF705F836
:103EC000204610BD10B504461C30FEF73FF804F143
:103ED0000C00FDF7FAFF204610BD08B5FFF786FA83
:103EE00008BD000082B0002100910B4B5A6C42F4D7
:103EF00080425A645A6C02F480420092009A019106
:103F00001A6C42F080521A641B6C03F080530193C8
:103F1000019B02B0704700BF0038024030B589B045
:103F20000023039304930593069307930268144BAD
:103F30009A4201D009B030BD00250195114C236B88
:103F400043F002032363236B03F002030193019BFD
:103F50004FF4407303931223049303230693042323
:103F6000079303A9084800F0B5FE0295236C43F4BB
:103F700000132364236C03F400130293029BD9E71C
:103F80000054004000380240000402402DE9F04196
:103F90008AB0002305930693079308930993036857
:103FA000594A934205D0594A934268D00AB0BDE8B5
:103FB000F081044600250095554B5A6C42F480521E
:103FC0005A645A6C02F480520092009A01951A6B5E
:103FD00042F001021A631B6B03F001030193019B82
:103FE000E0230593022306930323089305230993F3
:103FF00005A9484800F06EFE4748484B03604FF063
:10400000C06343608560C5604FF4806303614561B0
:1040100085614FF48073C3614FF48033036245625E
:1040200000F072FC28BB3C4BE3649C633C483D4B76
:1040300003604FF0C0634360402383600023C3608C
:104040004FF48062026143618361C3614FF4803247
:104050000262436200F058FC70B9314BA3649C6368
:1040600000221146232000F0A3FB232000F0B0FB28
:104070009CE7FFF703FBD6E7FFF700FBEDE7002423
:104080000294234B1A6C42F480421A641A6C02F4B4
:1040900080420292029A03941A6B42F004021A635D
:1040A0001A6B02F004020392039A04941A6B42F012
:1040B00002021A631B6B03F002030493049B0225A4
:1040C000059506950326089607230993DFF858807F
:1040D00005A9404600F0FEFD0423059306950794CC
:1040E00008960527099705A9404600F0F3FD4FF40F
:1040F00000530593069507940896099705A90B4860
:1041000000F0E8FD52E700BF0030014000380040F9
:1041100000380240000002403017002010640240C6
:10412000D0160020886402400008024000040240CB
:1041300010B586B00368B3F1804F1CD04F4A93424C
:1041400066D04F4A934271D04E4A93427BD04E4A3A
:10415000934200F085804D4A934265D10023059338
:104160004B4B1A6C42F040021A641B6C03F0400384
:104170000593059B58E0044600230093444A116CC4
:1041800041F001011164126C02F001020092009AE8
:104190004048414A02604FF0C06242604022826063
:1041A000C3604FF4806202614FF4805242614FF469
:1041B00080428261C3610362436200F0A5FB08BBD9
:1041C000344B63629C633548354B03604FF0C063EA
:1041D0004360402383600023C3604FF48062026128
:1041E0004FF4805242614FF480428261C3610362A6
:1041F000436200F089FB40B9284B23629C63E36271
:104200009C6311E0FFF73AFADAE7FFF737FAF3E7D2
:10421000002301931E4B1A6C42F002021A641B6CBD
:1042200003F002030193019B06B010BD002302932B
:10423000174B1A6C42F004021A641B6C03F004035F
:104240000293029BF0E700230393114B5A6C42F454
:1042500000325A645B6C03F400330393039BE3E77F
:10426000002304930A4B5A6C42F480225A645B6C1C
:1042700003F480230493049BD6E700BF00040040AE
:104280000008004000440140004801400018004080
:1042900000380240C01400208860024060140020F2
:1042A00028600240F0B58BB0002305930693079376
:1042B000089309930368B3F1804F07D0394A9342BA
:1042C00034D0394A934254D00BB0F0BD002401944D
:1042D00003F50E331A6B42F002021A631A6B02F0F6
:1042E00002020192019A02941A6B42F001021A63CF
:1042F0001B6B03F001030293029B4FF48063059351
:1043000002270697032608960125099505A927483F
:1043100000F0E0FC4FF400430593069707940896DD
:10432000099505A9224800F0D5FCCDE700250395A5
:10433000204B1A6B42F002021A631B6B03F002035C
:104340000393039B102305930224069403230893ED
:104350000994164E05A9304600F0BCFC20230593B5
:10436000069407950895099405A9304600F0B2FC1B
:10437000AAE7002304930F4B1A6B42F002021A6360
:104380001B6B03F002030493049BC02305930223D9
:10439000069303220892099305A9044800F09AFCA9
:1043A00092E700BF00040040000800400004024003
:1043B000000002400038024000B58DB00023079392
:1043C000089309930A930B9303683B4A934208D0DE
:1043D0003A4A934229D03A4A93424AD00DB05DF806
:1043E00004FB00210191374B1A6C42F400221A643D
:1043F0001A6C02F400220192019A02911A6B42F0A7
:1044000004021A631B6B03F004030293029B4FF434
:10441000406307930223089303230A9308230B9313
:1044200007A9294800F056FCD8E700210391254B45
:104430005A6C42F010025A645A6C02F01002039255
:10444000039A04911A6B42F001021A631B6B03F08A
:1044500001030493049B4FF4C06307930223089362
:1044600003230A9307230B9307A9184800F032FC93
:10447000B4E700210591134B5A6C42F020025A64B4
:104480005A6C02F020020592059A06911A6B42F0CE
:1044900004021A631B6B03F004030693069BC023FC
:1044A00007930223089303230A9308230B9307A976
:1044B000054800F00FFC91E7004C0040001001405F
:1044C0000014014000380240000802400000024091
:1044D000FEE7FEE7FEE7FEE7FEE77047704770473E
:1044E00008B500F0F9F808BD08B5102000F0EEFCA2
:1044F00008BD000008B5024800F0FEFA08BD00BF84
:104500006014002008B5024800F0F6FA08BD00BFAC
:10451000C014002008B5024802F03AFD08BD00BFF3
:10452000E817002008B5024800F0E6FA08BD00BF11
:104530003017002008B5024800F0DEFA08BD00BFC1
:10454000D01600200120704708B53FF059FD162312
:1045500003604FF0FF3008BD08B54FF0FF31FFF7A3
:10456000F3FFFEE770B50C461646002506E0AFF3F4
:104570000080214601F8010B01350C46B542F6DBFF
:10458000304670BD70B50C461646002504E014F8A0
:10459000010BFFF713F80135B542F8DB304670BD6B
:1045A0004FF0FF3070474FF400534B6000207047CE
:1045B000012070470020704710B503460C4A0D4992
:1045C0000D48006840B10C4800680344521A9342F9
:1045D00006D8094A136010BD0748084C0460F2E78A
:1045E0003FF00EFD0C2303604FF0FF30F3E700BFF8
:1045F0000000022000040000981800200834002069
:1046000070470000DFF834D00D480E490E4A0023F1
:1046100002E0D458C4500433C4188C42F9D30B4A76
:104620000B4C002301E013600432A242FBD3FFF7DE
:10463000E7FF3FF057FDFFF7A5FA704700000220A3
:1046400000000020781000200422060878100020C6
:1046500004340020FEE7000010B504460E4B1A7823
:104660004FF47A73B3FBF2F30C4A1068B0FBF3F02B
:1046700000F0BCF868B90F2C01D901200AE0002233
:1046800021464FF0FF3000F093F8054B1C600020EE
:1046900000E0012010BD00BF0C0000200800002039
:1046A0001000002008B50B4B1A6842F400721A6023
:1046B0001A6842F480621A601A6842F480721A60C2
:1046C000032000F063F80F20FFF7C6FFFFF70AFC96
:1046D000002008BD003C0240034A1168034B1B78D0
:1046E0000B441360704700BF9C1800200C00002092
:1046F000014B1868704700BF9C18002038B504466D
:10470000FFF7F6FF0546B4F1FF3F02D0044B1B78DC
:104710001C44FFF7EDFF401BA042FAD338BD00BF99
:104720000C000020002808DB0901C9B200F160403C
:1047300000F5614080F80013704700F00F00090198
:10474000C9B2014B1954704714ED00E000B500F0F8
:104750000700C0F1070CBCF1040F28BF4FF0040C98
:10476000031D062B0FD9C31E4FF0FF3E0EFA0CF0AF
:1047700021EA000199400EFA03FE22EA0E0241EA04
:1047800002005DF804FB0023EEE70000074AD3684F
:1047900023F4E0631B041B0C000200F4E0600343FD
:1047A00043F0BF6343F40033D360704700ED00E093
:1047B00010B50446054BD868C0F30220FFF7C6FFCA
:1047C00001462046FFF7AEFF10BD00BF00ED00E040
:1047D000002807DB00F01F02400901239340024A32
:1047E00042F82030704700BF00E100E00138B0F12E
:1047F000807F0BD24FF0E0235861054AF02182F808
:1048000023100020986107221A6170470120704729
:1048100000ED00E030B405682C6824F480242C609E
:10482000046863608368402B05D00368996003685F
:10483000DA6030BC704703689A600368D960F8E7B3
:1048400010B40368D9B21039094AA2FB0142120917
:10485000084CA25CC2655F2906D96FF309030433D3
:104860008365806D10BC70476FF309038365F8E7BB
:10487000ABAAAAAAC82E0508836A826992B9012B3D
:104880000AD0022B02D00BB100207047C36A13F08C
:10489000807F28D100207047C36AB3F1C07F24D045
:1048A00000207047B2F5005F09D0022B25D9032BF9
:1048B00025D1C36A13F0807F23D100207047032BDA
:1048C00003D8DFE803F01404140A00207047C36A19
:1048D00013F0807F0DD100207047C36AB3F1C07F11
:1048E00009D0002070470120704701207047012047
:1048F0007047012070470120704701207047002059
:10490000704701207047000070B50446FFF7F0FEC5
:10491000002C5BD00546022384F83530002384F850
:1049200034302268136823F00103136023681A6887
:1049300012F0010F0AD0FFF7DBFE431B052BF5D960
:1049400020236365032084F8350070BD1A68204970
:1049500011406268A0680243E06802432069024394
:1049600060690243A0690243E0690243206A02438E
:104970000A43616A04291ED01A602668756925F009
:104980000705636A1D43042B07D1A36A1D43E36A2D
:104990001BB12046FFF770FF90B975612046FFF705
:1049A0004FFFE26D3F239340836000206065012349
:1049B00084F83530C9E7E16A206B01430A43DBE73D
:1049C00040236365012084F83500BEE70120BCE781
:1049D0003F8010F038B50446856D90F8340001280A
:1049E0002BD0012084F8340094F83500C0B201289F
:1049F00004D0002384F83430022038BD022084F82B
:104A00003500002060652046FFF704FFE26D3F237C
:104A10009340AB602268136843F016031360236C65
:104A200023B12268136843F00803136022681368F7
:104A300043F0010313600020DFE70220DDE770B5DB
:104A40000446866DFFF754FE94F83530DBB2022B36
:104A500006D080236365002384F83430012070BDC4
:104A600005462268136823F0160313602268536911
:104A700023F080035361236CE3B12268136823F0B1
:104A8000080313602268136823F00103136023688E
:104A90001B6813F0010F11D0FFF72AFE431B052BF3
:104AA000F5D920236365032084F83500002384F8BA
:104AB0003430D4E7A36C002BDFD1E3E7E26D3F2372
:104AC0009340B360012384F83530002084F834002B
:104AD000C5E790F83530DBB2022B03D08023436565
:104AE00001207047052380F835300268136823F0F1
:104AF0000103136000207047F0B583B00446002323
:104B00000193724B1D68724BA3FB0535AD0A876D8F
:104B10003E68C26D08239340334210D003681A6880
:104B200012F0040F0BD01A6822F004021A60C26D52
:104B300008239340BB60436D43F001034365E26D7E
:104B400001239340334209D02268526912F0800F4A
:104B500004D0BB60636D43F002036365E26D042320
:104B60009340334209D02268126812F0020F04D039
:104B7000BB60636D43F004036365E26D10239340F3
:104B8000334224D02268126812F0080F1FD0BB6095
:104B900023681A6812F4802F0DD01B6813F4002FBD
:104BA00004D1236C9BB12046984710E0A36C73B1ED
:104BB000204698470BE01A6812F4807F03D11A68E8
:104BC00022F008021A60236C0BB120469847E26D70
:104BD00020239340334255D02268126812F0100F00
:104BE00050D0BB6094F83530DBB2052B0ED0236873
:104BF0001A6812F4802F33D01B6813F4002F2AD1C7
:104C0000636C002B3ED0204698473BE02268136837
:104C100023F0160313602268536923F08003536165
:104C2000236CA3B12268136823F008031360E26DBC
:104C30003F239340BB60012384F83530002384F880
:104C40003430236D002B3FD0204698473CE0A36CC6
:104C5000002BE7D1EBE7E36BA3B12046984711E0C7
:104C60001A6812F4807F09D11A6822F010021A60C3
:104C7000012384F83530002384F83430E36B0BB122
:104C800020469847636DFBB1636D13F0010F17D099
:104C9000052384F835302268136823F0010313607C
:104CA000019B01330193AB4204D823681B6813F0C6
:104CB000010FF5D1012384F83530002384F8343016
:104CC000E36C0BB12046984703B0F0BD080000200C
:104CD000B5814E1B00230F2B00F2E68030B583B068
:104CE00068E085684FEA430E032404FA0EF425EACF
:104CF0000405CC6804FA0EF42C438460446824EA6A
:104D000002044A68C2F300129A40224342605FE004
:104D1000DC08083450F8242003F00705AD004FF0FC
:104D20000F0E0EFA05FE22EA0E0E0A69AA4042EAAA
:104D30000E0240F824205FE0062200E0002202FA82
:104D40000EF22A430234594D45F82420584A9468FB
:104D50006FEA0C0224EA0C05D1F804E01EF4801F6F
:104D600001D04CEA0405524CA560E46802EA04054F
:104D7000D1F804E01EF4001F01D04CEA04054C4CAD
:104D8000E560646802EA0405D1F804E01EF4003F1F
:104D900001D04CEA0405464C6560246822404D6809
:104DA00015F4803F01D04CEA0402414C22600133EB
:104DB0000F2B77D801229A400C6804EA020C32EAE1
:104DC0000404F4D14C6804F00304013C012C88D99C
:104DD0004A6802F00302032A09D0C4685D00032276
:104DE000AA4024EA02048A68AA402243C2604A68B0
:104DF00002F00302022A8BD004684FEA430E03221A
:104E000002FA0EF224EA02044A6802F0030202FAED
:104E10000EF2224302604A6812F4403FC7D00022DB
:104E20000192244A546C44F480445464526C02F459
:104E300080420192019A9C08A51C1C4A52F82550F8
:104E400003F0030E4FEA8E0E0F2202FA0EF225EA4D
:104E50000205194A90423FF471AF02F58062904218
:104E600016D002F58062904214D002F58062904222
:104E700012D002F58062904210D002F5806290421A
:104E80000ED002F5806290423FF456AF072256E7FB
:104E9000012254E7022252E7032250E704224EE7A0
:104EA00005224CE703B030BD704700BF0038014019
:104EB000003C014000380240000002400AB181611C
:104EC00070470904816170477047000008B5054BC1
:104ED0005B69034200D108BD024B5861FFF7F4FF44
:104EE000F9E700BF003C014003685A6912F4806F83
:104EF00001D1002070476FF480625A610023036380
:104F0000202280F83D2080F83E30026C42F00402FE
:104F1000026480F83C30012070472DE9F0410746DB
:104F20000D4690461E4624E0FFF7E2FB069BC01AA2
:104F3000B04200D8EEB900233B63202287F83D2021
:104F400087F83E303A6C42F020023A6487F83C30F1
:104F500001201EE03B689C6925EA040C1FFA8CFCCA
:104F6000BCFA8CFC4FEA5C1CE04511D1B6F1FF3F66
:104F7000DAD1C5F30743012BECD13B685B6925EA25
:104F8000030C1FFA8CFCBCFA8CFC4FEA5C1CEBE7B0
:104F90000020BDE8F0812DE9F04105460E46174698
:104FA00098463DE01A6842F400721A602B686FF46C
:104FB00080625A6100232B63202285F83D2085F80A
:104FC0003E302A6C42F004022A6485F83C3001200D
:104FD00034E0FFF78DFBA0EB0800B84200D8FFB922
:104FE00000232B63202285F83D2085F83E302A6C73
:104FF00042F020022A6485F83C3001201EE02B6834
:105000009C6926EA0404A4B2003C18BF0124A4B1A0
:105010002B685A6912F4806FC4D1B7F1FF3FD8D121
:10502000C6F30743012BEAD12B685C6926EA040426
:10503000A4B2003C18BF0124E9E70020BDE8F081DC
:1050400070B504460D46164623685B6913F0800F61
:105050001CD12046FFF748FFD0B9B5F1FF3FF3D090
:10506000FFF746FB801BA84201D8002DECD100239E
:105070002363202284F83D2084F83E30226C42F0E5
:105080002002226484F83C30012000E0002070BD42
:105090000120FCE72DE9F04385B004460D4691461A
:1050A0001F46DDF830800D9E0368196841F4807159
:1050B00019600096434600224FF00111FFF72DFFC3
:1050C00060B9236805F0FE051D6133464246264956
:1050D0002046FFF760FF68B1012008E023681B68E5
:1050E00013F4807F02D04FF400732364032005B0D3
:1050F000BDE8F0830023039323685A6903929B69F8
:105100000393039B324641462046FFF799FF30B98F
:10511000012F0FD123685FFA89F61E61E7E7236C40
:10512000042B01D00120E2E72268136843F40073E6
:105130001360F7E723684FEA19221A6132464146A5
:105140002046FFF77DFF20B923685FFA89F61E61CC
:10515000CDE7236C042B01D00120C8E72268136837
:1051600043F400731360F7E7020001002DE9F047F4
:1051700084B004460D46164699460C9FDDF83480EF
:105180000268136843F4806313600368196841F48C
:1051900080711960CDF800803B4600224FF001116C
:1051A000FFF7BBFE70B95FFA85FA236805F0FE05CC
:1051B0001D6143463A4641492046FFF7ECFE68B17F
:1051C000012008E023681B6813F4807F02D04FF4AD
:1051D00000732364032004B0BDE8F0870023039329
:1051E00023685A6903929B690393039B424639469D
:1051F0002046FFF725FF80B9B9F1010F18D12368C8
:10520000F6B21E61424639462046FFF719FF68B3E1
:10521000236C042B24D00120DDE7236C042B01D068
:105220000120D8E72268136843F400731360F7E79E
:105230002368320A1A61424639462046FFF700FFCA
:1052400018B92368F6B21E61DCE7236C042B01D089
:105250000120C0E72268136843F400731360F7E786
:105260002268136843F400731360D4E7226813685C
:1052700043F480731360CDF800803B4600224FF06A
:1052800001112046FFF749FE68B922684AF0010380
:10529000136143463A4609492046FFF77CFE002841
:1052A00099D0012097E723681B6813F4807F02D010
:1052B0004FF40073236403208DE700BF0200010058
:1052C00070B504460D46164623685B6913F0040F5B
:1052D0001CD12046FFF708FED0B9B5F1FF3FF3D04F
:1052E000FFF706FA801BA84201D8002DECD100235D
:1052F0002363202284F83D2084F83E30226C42F063
:105300002002226484F83C30012000E0002070BDBF
:105310000120FCE770B505460C4616462B68596916
:1053200011F0400F29D1596911F0100F15D1FFF775
:10533000DFF9801BA04201D8002CEFD100232B63A2
:10534000202285F83D2085F83E302A6C42F020026C
:105350002A6485F83C30012070BD6FF010025A615C
:1053600000232B63202285F83D2085F83E302A6CEF
:105370002A6485F83C300120EEE70020ECE70000CD
:10538000002800F0CC8070B5044690F83D30002B2A
:1053900077D0242384F83D302268136823F001037A
:1053A00013602268136843F4004313602268136893
:1053B00023F40043136000F0A3FC62685A4B9A4246
:1053C00064D85A4B98428CBF00230123002B40F035
:1053D000A8805749A1FB00318B0C25686A6822F030
:1053E0003F0242EA91426A6021680A6A22F03F0263
:1053F00066684D4DAE424FD8013313430B622168AE
:10540000CA6922F44F4222F0FF026568464B9D4272
:105410004CD8431E6D00B3FBF5F3013340F6FC702E
:10542000034278D0C3F30B031A43CA6121680B68A7
:1054300023F0C003E269206A024313430B60216832
:105440008B6823F4034323F0FF032269E0680243DF
:1054500013438B602168CB6823F0FF036269A06966
:1054600002431343CB602268136843F001031360C7
:1054700000202064202384F83D30206384F83E001F
:1054800070BD80F83C30FEF749FD82E7294B984219
:105490008CBF0023012399E74FF4967505FB03F3B6
:1054A000254DA5FB03539B090133A6E7A668BEB9AA
:1054B000431E05EB450CB3FBFCF30133C3F30B03B5
:1054C000B3FA83F35B0943BBC6B9431E05EB45053D
:1054D000B3FBF5F30133C3F30B0343F40043A3E73A
:1054E000431E05EB850C0CEB8C0CB3FBFCF301337A
:1054F000C3F30B03B3FA83F35B09E4E7431E05EB45
:10550000850505EB8505B3FBF5F30133C3F30B0309
:1055100043F4404388E7042386E7012384E701201E
:1055200070470120ACE700BFA08601007F841E0009
:1055300083DE1B43FF083D00D34D62102DE9F0438D
:1055400083B004460F46904699460C9EFFF7D0F86C
:10555000054694F83D00C0B2202803D0022003B0D5
:10556000BDE8F0830095192301224B492046FFF73F
:10557000D4FC002840F0898094F83C30012B00F0E6
:105580008680012384F83C3023681A6812F0010FEA
:1055900003D11A6842F001021A602268136823F4EA
:1055A00000631360212384F83D30402384F83E30AB
:1055B000002323640A9B6362BDF82C306385638DEE
:1055C0002385364BE362019500964B4642463946A9
:1055D0002046FFF75FFD00285BD1238D002B35D0DF
:1055E0002A4631462046FFF72BFD20BB626A23681E
:1055F00012781A61626A531C6362218D013989B283
:105600002185638D9BB2013B9BB2638523685869FA
:1056100010F0040FE1D00029DFD052781A61636ADC
:1056200001336362238D013B2385638D9BB2013B74
:105630009BB26385D1E7236C042B01D001208EE758
:105640002268136843F400731360F7E72A46314673
:105650002046FFF735FE50B1236C042B01D001200A
:105660007DE72268136843F400731360F7E722684C
:10567000136843F400731360202384F83D30002343
:1056800084F83E3084F83C3069E7022067E7022066
:1056900065E7012063E700BF020010000000FFFF84
:1056A0002DE9F04387B004460F4690469946109E78
:1056B000FFF71EF8054694F83D00C0B2202804D03C
:1056C0000227384607B0BDE8F08300951923012270
:1056D00088492046FFF721FC002840F0438194F8D8
:1056E0003C30012B00F04081012384F83C302368DA
:1056F0001A6812F0010F03D11A6842F001021A6011
:105700002268136823F400631360222384F83D3079
:10571000402384F83E30002323640E9B6362BDF86F
:105720003C306385638D2385734BE362019500965E
:105730004B46424639462046FFF718FD07460028EB
:1057400040F01481238D5BB9029323685A69029259
:105750009A690292029A1A6842F400721A6075E01D
:10576000012B0AD0022B1AD00023059323685A6913
:1057700005929B690593059B68E02268136823F4F2
:10578000806313600023039323685A6903929A6924
:105790000392039A1A6842F400721A6056E0226873
:1057A000136823F4806313602268136843F4006372
:1057B00013600023049323685A6904929B6904933D
:1057C000049B43E02A4631462046FFF7A3FD00280C
:1057D00040F0CE8023681A69636A1A70636A0133E5
:1057E0006362238D013B2385638D9BB2013B9BB29A
:1057F00063852BE000953346002240492046FFF7A1
:105800008CFB002840F0B6802268136843F40073D4
:10581000136023681A69636A1A70626A531C6362B0
:10582000238D013B2385638D9BB2013B9BB2638536
:1058300023681B695370636A01336362238D013BE4
:105840002385638D9BB2013B9BB26385238D002B27
:105850007FD0032B54D8012BB4D0022BCAD0009593
:105860003346002225492046FFF757FB002840F029
:1058700083802268136823F48063136023681A69A5
:10588000636A1A70636A01336362238D013B238567
:10589000638D9BB2013B9BB263850095334600222A
:1058A00016492046FFF739FB002867D122681368A4
:1058B00043F40073136023681A69636A1A70626A9A
:1058C000531C6362238D013B2385638D9BB2013B97
:1058D0009BB2638523681B695370636A01336362FB
:1058E000238D013B2385638D9BB2013B9BB2638576
:1058F000ACE700BF020010000000FFFF0400010041
:105900002A4631462046FFF705FD002838D1236896
:105910001A69636A1A70626A531C6362238D013BC1
:105920002385638D9BB2013B9BB2638523685969D4
:1059300011F0040F8AD01B695370636A01336362EC
:10594000238D013B2385638D9BB2013B9BB2638515
:105950007CE7202384F83D30002384F83E3084F82F
:105960003C30AEE60227ACE60227AAE60127A8E60D
:105970000127A6E60127A4E60127A2E60127A0E663
:1059800001279EE62DE9F04385B0044688469146FE
:105990001D46FEF7ADFE94F83D30DBB2202B03D060
:1059A000022005B0BDE8F0830646009019230122CD
:1059B00057492046FFF7B1FA002840F0A08094F83C
:1059C0003C30012B00F09D80012384F83C3023689B
:1059D0001A6812F0010F03D11A6842F001021A602E
:1059E0002268136823F400631360242384F83D3095
:1059F00000272764474BE36240E023681B6813F4E9
:105A0000807F02D04FF4007323640320C9E7A023F2
:105A100084F83D3022685369C3F340035269C2F3EE
:105A2000802294F83DC05FFA8CFCBCF1A00F09D035
:105A300043B93AB9FEF75CFE801BA842E7D8002DB7
:105A4000E8D1E4E7202384F83D3023685A6912F056
:105A5000020F31D11A6842F400721A6023686FF4A1
:105A600080625A6100961923012229492046FFF7D6
:105A700054FA002849D101374F4538D222681368BB
:105A800043F48073136000962B4600224FF00111FF
:105A90002046FFF742FA0028AFD1236808F0FE0243
:105AA0001A61FEF725FE064622685369C3F34003D8
:105AB0005269C2F38022B4E71A6842F400721A6095
:105AC0000023039323685A6903929B690393039B02
:105AD0000096192301220E492046FFF71EFA90B9BD
:105AE000202384F83D30002384F83C3059E72023FC
:105AF00084F83D30002384F83C30012051E7022037
:105B00004FE702204DE701204BE7012049E700BFA6
