:020000040800F2
:1000000000000220111A0008091900080B19000845
:100010000D1900080F190008111900080000000050
:10002000000000000000000000000000131900089C
:100030001519000800000000171900081919000818
:10004000611A0008611A0008611A0008611A0008A4
:10005000611A0008611A0008611A0008611A000894
:10006000611A0008611A0008611A0008611A000884
:10007000611A0008611A0008611A0008611A000874
:10008000611A0008611A0008611A0008611A000864
:10009000611A0008611A0008611A0008611A000854
:1000A000611A0008611A0008611A0008611A000844
:1000B000611A0008611A0008611A0008611A000834
:1000C000611A0008611A0008611A00082119000865
:1000D000611A0008611A0008611A0008611A000814
:1000E000611A0008611A0008611A0008611A000804
:1000F000611A0008611A0008611A0008611A0008F4
:10010000611A0008611A0008611A0008611A0008E3
:10011000611A0008611A0008611A0008611A0008D3
:10012000611A0008611A0008311900084119000815
:10013000611A00080000000000000000611A0008B9
:10014000611A0008611A0008611A0008611A0008A3
:10015000611A0008611A0008611A0008611A000893
:10016000611A0008611A0008611A0008611A000883
:10017000611A0008611A0008611A000800000000F6
:1001800000000000611A00080000000000000000EC
:10019000611A00080000000000000000611A000859
:1001A000000000000000000000000000611A0008CC
:1001B000611A0008611A0008611A0008611A000833
:0401C000611A0008B8
:1002000081F0004102E000BF83F0004330B54FEAC7
:1002100041044FEA430594EA050F08BF90EA020F34
:100220001FBF54EA000C55EA020C7FEA645C7FEAC7
:10023000655C00F0E2804FEA5454D4EB5555B8BFEA
:100240006D420CDD2C4480EA020281EA030382EA5B
:10025000000083EA010180EA020281EA0303362DED
:1002600088BF30BD11F0004F4FEA01314FF4801CC0
:100270004CEA113102D0404261EB410113F0004FD2
:100280004FEA03334CEA133302D0524263EB430389
:1002900094EA050F00F0A780A4F10104D5F1200E27
:1002A0000DDB02FA0EFC22FA05F2801841F1000182
:1002B00003FA0EF2801843FA05F359410EE0A5F156
:1002C00020050EF1200E012A03FA0EFC28BF4CF087
:1002D000020C43FA05F3C01851EBE37101F000453D
:1002E00007D54FF0000EDCF1000C7EEB00006EEB4A
:1002F0000101B1F5801F1BD3B1F5001F0CD34908D4
:100300005FEA30004FEA3C0C04F101044FEA44522A
:1003100012F5800F80F09A80BCF1004F08BF5FEAB1
:10032000500C50F1000041EB045141EA050130BD91
:100330005FEA4C0C404141EB0101013C28BFB1F5A3
:10034000801FE9D291F0000F04BF01460020B1FAEE
:1003500081F308BF2033A3F10B03B3F120020CDAC1
:100360000C3208DD02F1140CC2F10C0201FA0CF09F
:1003700021FA02F10CE002F11402D8BFC2F1200C04
:1003800001FA02F120FA0CFCDCBF41EA0C019040BA
:10039000E41AA2BF01EB0451294330BD6FEA040403
:1003A0001F3C1CDA0C340EDC04F11404C4F12002EE
:1003B00020FA04F001FA02F340EA030021FA04F300
:1003C00045EA030130BDC4F10C04C4F1200220FA57
:1003D00002F001FA04F340EA0300294630BD21FA95
:1003E00004F0294630BD94F0000F83F4801306BF5B
:1003F00081F480110134013D4EE77FEA645C18BF4F
:100400007FEA655C29D094EA050F08BF90EA020FE5
:1004100005D054EA000C04BF1946104630BD91EADD
:10042000030F1EBF0021002030BD5FEA545C05D1E0
:100430004000494128BF41F0004130BD14F580041F
:100440003CBF01F5801130BD01F0004545F0FE4193
:1004500041F470014FF0000030BD7FEA645C1ABFC8
:10046000194610467FEA655C1CBF0B46024650EAFF
:10047000013406BF52EA033591EA030F41F400212B
:1004800030BD00BF90F0000F04BF0021704730B5B1
:100490004FF4806404F132044FF000054FF0000186
:1004A00050E700BF90F0000F04BF0021704730B547
:1004B0004FF4806404F1320410F0004548BF40421C
:1004C0004FF000013EE700BF42004FEAE2014FEA71
:1004D00031014FEA02701FBF12F07F4393F07F4F4C
:1004E00081F06051704732F07F4208BF704793F04F
:1004F0007F4F04BF41F40021704730B54FF4607462
:1005000001F0004521F000411CE700BF50EA010264
:1005100008BF704730B54FF000050AE050EA01020D
:1005200008BF704730B511F0004502D5404261EB7D
:1005300041014FF4806404F132045FEA915C3FF4BE
:10054000D8AE4FF003025FEADC0C18BF03325FEA5B
:10055000DC0C18BF033202EBDC02C2F1200300FA0C
:1005600003FC20FA02F001FA03FE40EA0E0021FA31
:1005700002F11444BDE600BF4FF0FF3C06E000BFAF
:100580004FF0010C02E000BF4FF0010C4DF804CD1C
:100590004FEA410C7FEA6C5C4FEA430C18BF7FEADC
:1005A0006C5C1BD001B050EA410C0CBF52EA430C0A
:1005B00091EA030F02BF90EA020F0020704710F18A
:1005C000000F91EA030F58BF994208BF90422CBF19
:1005D000D8176FEAE37040F0010070474FEA410C12
:1005E0007FEA6C5C02D150EA013C07D14FEA430C30
:1005F0007FEA6C5CD6D152EA033CD3D05DF8040BA1
:10060000704700BF8446104662468C4619466346D2
:1006100000E000BF01B5FFF7B7FF002848BF10F1A9
:10062000000F01BD4DF808EDFFF7F4FF0CBF0120EE
:1006300000205DF808FB00BF4DF808EDFFF7EAFF6A
:1006400034BF012000205DF808FB00BF4DF808ED25
:10065000FFF7E0FF94BF012000205DF808FB00BF1A
:100660004DF808EDFFF7CEFF94BF012000205DF8A4
:1006700008FB00BF4DF808EDFFF7C4FF34BF0120B1
:1006800000205DF808FB00BF4FF0FF3C06E000BF14
:100690004FF0010C02E000BF4FF0010C4DF804CD0B
:1006A0004FEA40024FEA41037FEA226C18BF7FEA1B
:1006B000236C11D001B052EA530C18BF90EA010F1D
:1006C00058BFB2EB030088BFC81738BF6FEAE170AC
:1006D00018BF40F0010070477FEA226C02D15FEA48
:1006E000402C05D17FEA236CE4D15FEA412CE1D0B4
:1006F0005DF8040B704700BF844608466146FFE77B
:100700000FB5FFF7C9FF002848BF10F1000F0FBD5C
:100710004DF808EDFFF7F4FF0CBF012000205DF855
:1007200008FB00BF4DF808EDFFF7EAFF34BF0120DA
:1007300000205DF808FB00BF4DF808EDFFF7E0FF73
:1007400094BF012000205DF808FB00BF4DF808EDC4
:10075000FFF7D2FF94BF012000205DF808FB00BF27
:100760004DF808EDFFF7C8FF34BF012000205DF809
:1007700008FB00BF53B94AB9002908BF00281CBFB5
:100780004FF0FF314FF0FF3000F0E2B8ADF1080C50
:100790006DE904CE35F0B8FEDDF804E0DDE90223B2
:1007A00004B0704700F1340191E838009C46A64639
:1007B0004CF8045D90E8FF0FE54600BD90EC210B7E
:1007C000704700BF80EC210B704700BF90EC200BFE
:1007D000704700BF80EC200B704700BFD0EC200BAF
:1007E000704700BFC0EC200B704700BFF0EC020167
:1007F000F0EC0211F0EC0221F0EC0231F0EC0241DD
:10080000F0EC0251F0EC0261F0EC0271F0EC0281CC
:10081000F0EC0291F0EC02A1F0EC02B1F0EC02C1BC
:10082000F0EC02D1F0EC02E1F0EC02F1704700BF15
:10083000E0EC0201E0EC0211E0EC0221E0EC02311C
:10084000E0EC0241E0EC0251E0EC0261E0EC02710C
:10085000E0EC0281E0EC0291E0EC02A1E0EC02B1FC
:10086000E0EC02C1E0EC02D1E0EC02E1E0EC02F1EC
:10087000704700BFB0FC0181B0FC0191B0FC01A148
:10088000B0FC01B1704700BFA0FC0181A0FC019148
:10089000A0FC01A1A0FC01B1704700BFEC4600B56F
:1008A0002DE900502DE9FF1F4FF000032DE90C004A
:1008B00001A936F0E3F8DDF840E012B0704700BF60
:1008C000EC4600B52DE900502DE9FF1F4FF0000365
:1008D0002DE90C0001A936F00DF9DDF840E012B069
:1008E000704700BFEC4600B52DE900502DE9FF1F11
:1008F0004FF000032DE90C0001A936F01DF9DDF8D9
:1009000040E012B0704700BFEC4600B52DE9005042
:100910002DE9FF1F4FF000032DE90C0001AB36F06D
:10092000E1F8DDF840E012B0704700BFEC4600B5DA
:100930002DE900502DE9FF1F4FF000032DE90C00B9
:1009400001AA36F059F9DDF840E012B0704700BF57
:10095000704700BF00000000000000000000000021
:1009600002780B78012A28BF9A4240F0D8806DE9BE
:10097000044540EA0104CDE902676FF0000C4FEA3C
:1009800044721AB380EA010414F0070F6BD100F02F
:10099000070420F0070004F0030521F007014FEAE7
:1009A000C505F0E8042314F0040FF1E804670CFA1D
:1009B00005F462EA040266EA04060BD063EA040363
:1009C000624667EA0407664604E000BFF0E80423D5
:1009D000F1E8046782FA4CF582EA0604A4FA8CF482
:1009E0006CBB83FA4CF583EA0705A5FA8CF595B93B
:1009F00050E9022351E9026782FA4CF582EA0604C3
:100A0000A4FA8CF483FA4CF583EA0705A5FA8CF571
:100A10002543DBD09CB92DBAB5FA85F424F0070440
:100A200027FA04F1DDE9026723FA04F303F0FF007B
:100A300001F0FF01FDE80445A0EB0100704724BA76
:100A4000B4FA84F424F0070426FA04F1DDE902671D
:100A500022FA04F202F0FF0001F0FF01FDE8044574
:100A6000A0EB0100704714F0030F3CD110F0030419
:100A700028D150F8082B51F8083B82FA4CF582EA4D
:100A80000305A5FA8CF55DB950F8042C51F8043C27
:100A900082FA4CF582EA0305A5FA8CF5002DE8D020
:100AA0002DBAB5FA85F424F0070423FA04F122FAEA
:100AB00004F202F0FF0001F0FF01FDE80445A0EBA5
:100AC000010070474FEAC40420F0030050F8082BDF
:100AD00021F0030151F8083B0CFA04F462EA040225
:100AE00063EA0403C9E710F003041DD0A1EB04017D
:100AF00020F00300E40750F8042B06D012D28B78C4
:100B00005FFAA2F4E41A06D12BB1CB785FFAB2F403
:100B1000E41A00D133B920465DF8104B7047A2EBC0
:100B20000300704701F1040150F8042BCC0721F0B9
:100B3000030151F8043B48D824D222F07F4482FAC2
:100B40004CF594EA1325A5FA8CF50AD165B951F84C
:100B5000043B84EA0204B4EB036F0ED150F8042B7B
:100B6000EBE74FEA132355E035F07F454DD1087888
:100B7000FDE80445C0F1000070474FEA126203F03F
:100B8000FF0347E002EA1C4482FA4CF594EA13455D
:100B9000A5FA8CF50AD165B951F8043B84EA020440
:100BA000B4EB034F0CD150F8042BEBE74FEA13439F
:100BB00030E015EA1C4528D10B884FEA124229E0A3
:100BC0004FEA124203EA1C4324E002F0FF0482FAD7
:100BD0004CF594EA1365A5FA8CF50AD165B951F87C
:100BE000043B84EA0204B4EB032F09D150F8042B30
:100BF000EBE74FEA13630DE015F0FF0F05D10B682B
:100C00004FEA122223F07F4304E04FF00000FDE89A
:100C10000445704712BA1BBA82FA4CF482EA030404
:100C2000A4FA8CF5B5FA85F402FA04F203FA04F397
:100C30004FEA1260FDE80445A0EB1360704700BF67
:100C400001F0FF01102A2BDB10F0070F08D010F87D
:100C5000013B013A8B422DD010F0070F42B3F6D181
:100C6000F0B441EA012141EA014122F007047FF09A
:100C700000070023F0E80256083C85EA010586EAF1
:100C8000010685FA47F5A3FA87F586FA47F6A5FA2D
:100C900087F68EB9EED1F0BC01F0FF0102F0070239
:100CA00032B110F8013B013A83EA010313B1F8D1E4
:100CB0000020704701387047002D06BF35460338C5
:100CC000073815F0010F07D1013015F4807F02BFFE
:100CD000013015F4C03F0130F0BC0138704700BF4F
:100CE000844641EA000313F003036DD1403A41D337
:100CF00051F8043B40F8043B51F8043B40F8043BF6
:100D000051F8043B40F8043B51F8043B40F8043BE5
:100D100051F8043B40F8043B51F8043B40F8043BD5
:100D200051F8043B40F8043B51F8043B40F8043BC5
:100D300051F8043B40F8043B51F8043B40F8043BB5
:100D400051F8043B40F8043B51F8043B40F8043BA5
:100D500051F8043B40F8043B51F8043B40F8043B95
:100D600051F8043B40F8043B51F8043B40F8043B85
:100D7000403ABDD2303211D351F8043B40F8043B25
:100D800051F8043B40F8043B51F8043B40F8043B65
:100D900051F8043B40F8043B103AEDD20C3205D335
:100DA00051F8043B40F8043B043AF9D2043208D02D
:100DB000D2071CBF11F8013B00F8013B01D30B889F
:100DC00003806046704700BF082A13D38B078DD07D
:100DD00010F003038AD0C3F10403D21ADB071CBF4F
:100DE00011F8013B00F8013B80D331F8023B20F8B9
:100DF000023B7BE7043AD9D3013A11F8013B00F8F2
:100E0000013BF9D20B7803704B7843708B78837079
:100E10006046704700000000000000000000000075
:100E200000000000000000000000000000000000C2
:100E300000000000000000000000000000000000B2
:100E400030B490F800F020F007016FF0000C10F0C3
:100E5000070491F820F040F048804FF000046FF054
:100E60000700D1E9002391F840F000F1080082FA70
:100E70004CF2A4FA8CF283FA4CF3A2FA8CF34BBB3B
:100E8000D1E9022382FA4CF200F10800A4FA8CF2B4
:100E900083FA4CF3A2FA8CF3E3B9D1E9042382FA82
:100EA0004CF200F10800A4FA8CF283FA4CF3A2FA97
:100EB0008CF37BB9D1E9062301F1200182FA4CF2CF
:100EC00000F10800A4FA8CF283FA4CF3A2FA8CF336
:100ED000002BC6D0002A04BF04301A4612BAB2FA58
:100EE00082F200EBD20030BC7047D1E9002304F05D
:100EF0000305C4F100004FEAC50514F0040F91F892
:100F000040F00CFA05F562EA05021CBF63EA05032E
:100F100062464FF00004AAE770B54FF0FF0C4CF4A6
:100F2000E06C1CEA11541DBF1CEA135594EA0C0F27
:100F300095EA0C0F00F0DEF82C4481EA030621EA62
:100F40004C5123EA4C5350EA013518BF52EA03359D
:100F500041F4801143F4801338D0A0FB02CE4FF04F
:100F60000005E1FB02E506F00042E0FB03E54FF07F
:100F70000006E1FB03569CF0000F18BF4EF0010E77
:100F8000A4F1FF04B6F5007F64F5407404D25FEA73
:100F90004E0E6D4146EB060642EAC62141EA555126
:100FA0004FEAC52040EA5E504FEACE2EB4F1FD0C68
:100FB00088BFBCF5E06F1ED8BEF1004F08BF5FEAE6
:100FC000500E50F1000041EB045170BD06F0004698
:100FD00046EA010140EA020081EA0301B4EB5C0445
:100FE000C2BFD4EB0C0541EA045170BD41F480113D
:100FF0004FF0000E013C00F3AB8014F1360FDEBF62
:10100000002001F0004170BDC4F10004203C35DA3D
:101010000C341BDC04F11404C4F1200500FA05F3C0
:1010200020FA04F001FA05F240EA020001F0004261
:1010300021F0004110EBD37021FA04F642EB0601D7
:101040005EEA430E08BF20EAD37070BDC4F10C0401
:10105000C4F1200500FA04F320FA05F001FA04F2C5
:1010600040EA020001F0004110EBD37041F10001B1
:101070005EEA430E08BF20EAD37070BDC4F12005BC
:1010800000FA05F24EEA020E20FA04F301FA05F224
:1010900043EA020321FA04F001F0004121FA04F2CC
:1010A00020EA020000EBD3705EEA430E08BF20EA9C
:1010B000D37070BD94F0000F0FD101F000464000D6
:1010C00041EB010111F4801F08BF013CF7D041EA58
:1010D000060195F0000F18BF704703F0004652005C
:1010E00043EB030313F4801F08BF013DF7D043EA2D
:1010F0000603704794EA0C0F0CEA135518BF95EAE3
:101100000C0F0CD050EA410618BF52EA4306D1D169
:1011100081EA030101F000414FF0000070BD50EA88
:10112000410606BF1046194652EA430619D094EA12
:101130000C0F02D150EA013613D195EA0C0F05D1FC
:1011400052EA03361CBF104619460AD181EA030150
:1011500001F0004141F0FE4141F470014FF0000008
:1011600070BD41F0FE4141F4780170BD70B54FF0A3
:10117000FF0C4CF4E06C1CEA11541DBF1CEA135523
:1011800094EA0C0F95EA0C0F00F0A7F8A4EB050405
:1011900081EA030E52EA03354FEA013100F08880FC
:1011A0004FEA03334FF0805545EA131343EA1263C5
:1011B0004FEA022245EA111545EA10654FEA00267A
:1011C0000EF000419D4208BF964244F1FD0404F533
:1011D000407402D25B084FEA3202B61A65EB03058F
:1011E0005B084FEA32024FF480104FF4002CB6EB4C
:1011F000020E75EB030E22BFB61A754640EA0C00CC
:101200005B084FEA3202B6EB020E75EB030E22BF0B
:10121000B61A754640EA5C005B084FEA3202B6EB4C
:10122000020E75EB030E22BFB61A754640EA9C000B
:101230005B084FEA3202B6EB020E75EB030E22BFDB
:10124000B61A754640EADC0055EA060E18D04FEA99
:10125000051545EA16754FEA06164FEAC30343EA39
:1012600052734FEAC2025FEA1C1CC0D111F4801F06
:101270000BD141EA00014FF000004FF0004CB6E7FF
:1012800011F4801F04BF01430020B4F1FD0C88BF9E
:10129000BCF5E06F3FF6AFAEB5EB030C04BFB6EBA9
:1012A000020C5FEA500C50F1000041EB045170BD9C
:1012B0000EF0004E4EEA113114EB5C04C2BFD4EBC9
:1012C0000C0541EA045170BD41F480114FF0000E4D
:1012D000013C90E645EA060E8DE60CEA135594EAC9
:1012E0000C0F08BF95EA0C0F3FF43BAF94EA0C0FCC
:1012F0000AD150EA01347FF434AF95EA0C0F7FF441
:1013000025AF104619462CE795EA0C0F06D152EA94
:1013100003353FF4FDAE1046194622E750EA410678
:1013200018BF52EA43067FF4C5AE50EA41047FF489
:101330000DAF52EA43057FF4EBAE12E74FEA410CE2
:101340007FEA6C5C02D150EA013C0AD14FEA430CBF
:101350007FEA6C5C02D152EA033C02D14FF00000FC
:1013600070474FF0010070474FEA410212F500123A
:1013700015D211D56FF47873B3EB625212D94FEADC
:10138000C12343F0004343EA505311F0004F23FAC6
:1013900002F018BF404270474FF00000704750EA1B
:1013A000013005D111F0004008BF6FF000407047D8
:1013B0004FF00000704700BF4A0011D212F5001232
:1013C00011D20DD56FF47873B3EB62520ED44FEA9D
:1013D000C12343F0004343EA505323FA02F070471D
:1013E0004FF00000704750EA013002D14FF0FF305B
:1013F00070474FF0000070474FEA4102B2F1E043FE
:1014000024BFB3F5001CDCF1FE5C0DD901F0004CEB
:101410004FEAC0024CEA5070B2F1004F40EB83003B
:1014200008BF20F00100704711F0804F21D113F167
:101430003872BCBF01F00040704741F480114FEAA0
:101440005252C2F11802C2F1200C10FA0CF320FA29
:1014500002F018BF40F001004FEAC1234FEAD32346
:1014600003FA0CFC40EA0C0023FA02F34FEA4303B0
:10147000CCE77FEA625307D150EA01331EBF4FF039
:10148000FE4040F44000704701F0004040F0FE4054
:1014900040F40000704700BF4FEA40024FEA4103AA
:1014A0007FEA226C02D15FEA402C08D17FEA236CEC
:1014B00002D15FEA412C02D14FF0000070474FF09B
:1014C000010070470348044B834202D0034B03B131
:1014D00018477047781000207810002000000000A6
:1014E0000548064B1B1AD90F01EBA301491002D086
:1014F000034B03B118477047781000207810002084
:101500000000000010B5064C237843B9FFF7DAFF5E
:10151000044B13B10448AFF300800123237010BDC6
:101520007810002000000000D8AF040808B5054B73
:101530001BB105490548AFF30080BDE80840FFF73F
:10154000CFBF00BF000000007C100020D8AF04080F
:1015500000B587B00023019302930393049305938E
:1015600000930B4B1A6B42F001021A631B6B03F0E2
:1015700001030093009B102301934FF488130293FF
:1015800001A9044800F004FD07B05DF804FB00BFAA
:10159000003802400000024010B582B000240194DF
:1015A0000D4B1A6B42F480021A631B6B03F4800329
:1015B0000193019B224621463A2000F0EBFA3A20A3
:1015C00000F0F8FA224621463B2000F0E3FA3B20E7
:1015D00000F0F0FA02B010BD0038024000B583B050
:1015E00001904FF6FF73012201A9064801F081FB2B
:1015F000054B1B680021986836F0E0FC019803B0A9
:101600005DF804FB941000204007002072B6FEE74E
:1016100008B50A480A4B03604FF4E13343600023E6
:101620008360C36003610C2242618361C36101F086
:1016300031FB00B908BDFFF7E9FF00BF941000209F
:101640000010014008B50B480B4B036000234360BA
:101650008360C360036143614FF40072826103627F
:10166000436283620A23C36201F050F900B908BDE6
:10167000FFF7CCFF981100200030014000B595B075
:101680003422002107A839F051FA00230293039372
:101690000493059306930093224A116C41F0805104
:1016A0001164126C02F080520092009A01931E4A5B
:1016B000116841F440411160126802F44042019205
:1016C000019A0222079201210A9110210B910D9299
:1016D0000E9308230F93B423109311921292139236
:1016E00007A800F0F1FEB0B900F046FDA8B90F233D
:1016F000029302230393002304934FF4A053059312
:101700004FF480530693052102A800F073FD30B911
:1017100015B05DF804FBFFF779FFFFF777FFFFF7E0
:1017200075FF00BF003802400070004008B500F0AF
:10173000BFF9FFF7A3FFFFF70BFFFFF72DFFFFF741
:1017400067FFFFF77FFF0349034820F0B1FA20F05D
:1017500047F9F8E7F0AF04084C16002082B00021EA
:1017600000910B4B5A6C42F480425A645A6C02F45A
:1017700080420092009A01911A6C42F080521A64E1
:101780001B6C03F080530193019B02B0704700BFB4
:101790000038024030B589B00023039304930593C9
:1017A000069307930268354B9A4201D009B030BDC9
:1017B00004460025019503F584335A6C42F48052A7
:1017C0005A645A6C02F480520192019A02951A6B83
:1017D00042F001021A631B6B03F001030293029BA8
:1017E000E023039302230493032306930523079323
:1017F00003A9234800F0CCFB2248234B03604FF0A1
:10180000C06343608560C5604FF4806303614561D8
:101810008561C5614FF480330362456200F050FA80
:1018200028BB184BE3649C631848194B03604FF0C6
:10183000C0634360402383600023C3604FF4806231
:10184000026143618361C3614FF48032026243628B
:1018500000F036FA70B90D4BA3649C630022114668
:10186000232000F097F9232000F0A4F99EE7FFF76A
:10187000CDFED6E7FFF7CAFEEDE700BF003001401E
:10188000000002403811002040640240D8100020BF
:101890005864024000B589B0002303930493059374
:1018A00006930793026803F1804303F588339A4255
:1018B00002D009B05DF804FB0021019103F59433D7
:1018C0005A6C42F010025A645A6C02F010020192F3
:1018D000019A02911A6B42F001021A631B6B03F02A
:1018E00001030293029B4FF4C0630393022304930A
:1018F000032306930723079303A9024800F048FB3C
:10190000D7E700BF00000240FEE7FEE7FEE7FEE784
:10191000FEE770477047704708B500F0E3F808BD70
:1019200008B5024801F052F808BD00BF9811002028
:1019300008B5024800F03EFA08BD00BF381100208B
:1019400008B5024800F036FA08BD00BFD8100020E4
:101950000120704708B53CF023FA162303604FF0CE
:10196000FF3008BD08B54FF0FF31FFF7F3FFFEE78A
:1019700070B50C461646002506E0AFF30080214600
:1019800001F8010B01350C46B542F6DB304670BD5F
:1019900070B50C461646002504E014F8010BFFF75D
:1019A0001DFE0135B542F8DB304670BD4FF0FF300B
:1019B00070474FF400534B60002070470120704780
:1019C0000020704710B503460C4A0D490D480068C9
:1019D00040B10C4800680344521A934206D8094AA1
:1019E000136010BD0748084C0460F2E73CF0D8F9DA
:1019F0000C2303604FF0FF30F3E700BF000002202C
:101A000000040000F4110020682D00207047000041
:101A1000DFF834D00D480E490E4A002302E0D458B6
:101A2000C4500433C4188C42F9D30B4A0B4C002326
:101A300001E013600432A242FBD3FFF7E7FF3CF062
:101A400021FAFFF773FE704700000220000000201B
:101A5000781000206CB5050878100020642D002057
:101A6000FEE7000010B504460E4B1A784FF47A7367
:101A7000B3FBF2F30C4A1068B0FBF3F000F0A8F8E7
:101A800068B90F2C01D901200AE0002221464FF04D
:101A9000FF3000F07FF8054B1C60002000E00120C3
:101AA00010BD00BF0C000020080000201000002026
:101AB00008B50B4B1A6842F400721A601A6842F4B7
:101AC00080621A601A6842F480721A60032000F083
:101AD0004FF80F20FFF7C6FFFFF740FE002008BDBC
:101AE000003C0240034A1168034B1B780B4413600F
:101AF000704700BFF81100200C000020014B18684F
:101B0000704700BFF8110020002808DB0901C9B2A6
:101B100000F1604000F5614080F80013704700F06C
:101B20000F000901C9B2014B1954704714ED00E0D0
:101B300000B500F00700C0F1070CBCF1040F28BF8E
:101B40004FF0040C031D062B0FD9C31E4FF0FF3EB0
:101B50000EFA0CF021EA000199400EFA03FE22EA87
:101B60000E0241EA02005DF804FB0023EEE70000EC
:101B7000074AD36823F4E0631B041B0C000200F443
:101B8000E060034343F0BF6343F40033D360704726
:101B900000ED00E010B50446054BD868C0F3022004
:101BA000FFF7C6FF01462046FFF7AEFF10BD00BF9E
:101BB00000ED00E0002807DB00F01F0240090123D0
:101BC0009340024A42F82030704700BF00E100E035
:101BD0000138B0F1807F0BD24FF0E0235861054A05
:101BE000F02182F823100020986107221A617047C3
:101BF0000120704700ED00E010B40368D9B210393D
:101C0000094AA2FB01421209084CA25CC2655F2985
:101C100006D96FF3090304338365806D10BC7047E8
:101C20006FF309038365F8E7ABAAAAAA38CA0408C8
:101C3000836A826992B9012B0AD0022B02D00BB1C0
:101C400000207047C36A13F0807F28D100207047BE
:101C5000C36AB3F1C07F24D000207047B2F5005FA3
:101C600009D0022B25D9032B25D1C36A13F0807F1D
:101C700023D100207047032B03D8DFE803F01404BE
:101C8000140A00207047C36A13F0807F0DD1002032
:101C90007047C36AB3F1C07F09D0002070470120AC
:101CA00070470120704701207047012070470120D4
:101CB00070470120704700207047012070470000E6
:101CC00070B50446FFF71AFF002C5BD005460223CF
:101CD00084F83530002384F834302268136823F008
:101CE0000103136023681A6812F0010F0AD0FFF78E
:101CF00005FF431B052BF5D920236365032084F8DA
:101D0000350070BD1A68204911406268A06802431E
:101D1000E06802432069024360690243A06902430C
:101D2000E0690243206A02430A43616A04291ED023
:101D30001A602668756925F00705636A1D43042B40
:101D400007D1A36A1D43E36A1BB12046FFF770FF6A
:101D500090B975612046FFF74FFFE26D3F23934036
:101D6000836000206065012384F83530C9E7E16AAB
:101D7000206B01430A43DBE740236365012084F8BD
:101D80003500BEE70120BCE73F8010F090F8353009
:101D9000DBB2022B03D0802343650120704705236B
:101DA00080F835300268136823F0010313600020C7
:101DB00070470000F0B583B0044600230193724BD6
:101DC0001D68724BA3FB0535AD0A876D3E68C26D79
:101DD00008239340334210D003681A6812F0040FAE
:101DE0000BD01A6822F004021A60C26D08239340D7
:101DF000BB60436D43F001034365E26D01239340F3
:101E0000334209D02268526912F0800F04D0BB60BF
:101E1000636D43F002036365E26D04239340334234
:101E200009D02268126812F0020F04D0BB60636D03
:101E300043F004036365E26D10239340334224D0E2
:101E40002268126812F0080F1FD0BB6023681A685E
:101E500012F4802F0DD01B6813F4002F04D1236CD3
:101E60009BB12046984710E0A36C73B12046984779
:101E70000BE01A6812F4807F03D11A6822F008027E
:101E80001A60236C0BB120469847E26D20239340E3
:101E9000334255D02268126812F0100F50D0BB6048
:101EA00094F83530DBB2052B0ED023681A6812F493
:101EB000802F33D01B6813F4002F2AD1636C002BC2
:101EC0003ED0204698473BE02268136823F0160373
:101ED00013602268536923F080035361236CA3B11C
:101EE0002268136823F008031360E26D3F239340D8
:101EF000BB60012384F83530002384F83430236D2F
:101F0000002B3FD0204698473CE0A36C002BE7D144
:101F1000EBE7E36BA3B12046984711E01A6812F48F
:101F2000807F09D11A6822F010021A60012384F818
:101F30003530002384F83430E36B0BB120469847EA
:101F4000636DFBB1636D13F0010F17D0052384F8A7
:101F500035302268136823F001031360019B0133BD
:101F60000193AB4204D823681B6813F0010FF5D12D
:101F7000012384F83530002384F83430E36C0BB14E
:101F80002046984703B0F0BD08000020B5814E1BE5
:101F900000230F2B00F2E68030B583B068E085683F
:101FA0004FEA430E032404FA0EF425EA0405CC6834
:101FB00004FA0EF42C438460446824EA02044A685C
:101FC000C2F300129A40224342605FE0DC0808340A
:101FD00050F8242003F00705AD004FF00F0E0EFA65
:101FE00005FE22EA0E0E0A69AA4042EA0E0240F8F5
:101FF00024205FE0062200E0002202FA0EF22A43CB
:102000000234594D45F82420584A94686FEA0C026E
:1020100024EA0C05D1F804E01EF4801F01D04CEA3C
:102020000405524CA560E46802EA0405D1F804E016
:102030001EF4001F01D04CEA04054C4CE5606468B6
:1020400002EA0405D1F804E01EF4003F01D04CEA96
:102050000405464C6560246822404D6815F4803FB5
:1020600001D04CEA0402414C226001330F2B77D897
:1020700001229A400C6804EA020C32EA0404F4D10A
:102080004C6804F00304013C012C88D94A6802F032
:102090000302032A09D0C4685D000322AA4024EA8F
:1020A00002048A68AA402243C2604A6802F003021E
:1020B000022A8BD004684FEA430E032202FA0EF282
:1020C00024EA02044A6802F0030202FA0EF22243F2
:1020D00002604A6812F4403FC7D000220192244AAD
:1020E000546C44F480445464526C02F48042019273
:1020F000019A9C08A51C1C4A52F8255003F0030EB7
:102100004FEA8E0E0F2202FA0EF225EA0205194A54
:1021100090423FF471AF02F58062904216D002F512
:102120008062904214D002F58062904212D002F593
:102130008062904210D002F5806290420ED002F58B
:10214000806290423FF456AF072256E7012254E7DF
:10215000022252E7032250E704224EE705224CE711
:1021600003B030BD704700BF00380140003C014063
:10217000003802400000024010B582B000230193F5
:10218000194B1A6C42F080521A641B6C03F0805396
:102190000193019B154B01221A64FFF7AFFC044623
:1021A000134B5B6813F4803F08D1FFF7A7FC001BBB
:1021B000B0F57A7FF4D9032002B010BD0B4B012299
:1021C0005A64FFF79BFC0446094B5B6813F4003F1D
:1021D00007D1FFF793FC001BB0F57A7FF4D90320F9
:1021E000EAE70020E8E700BF0038024000000E42A6
:1021F00000700040002800F09B8070B50D4604463A
:102200004F4B1B6803F00F038B4208D2CBB24C4AF2
:102210001370136803F00F038B4240F08B80236828
:1022200013F0020F17D013F0040F04D0454A93683F
:1022300043F4E0539360236813F0080F04D0414A3D
:10224000936843F4604393603E4A936823F0F0033D
:10225000A1680B439360236813F0010F32D06368C9
:10226000012B21D09A1E012A25D9364A126812F074
:10227000020F61D033498A6822F0030213438B6056
:10228000FFF73CFC06462F4B9B6803F00C0362688B
:10229000B3EB820F16D0FFF731FC801B41F288337D
:1022A0009842F0D9032042E0264A126812F4003F17
:1022B000E0D101203BE0234A126812F0007FD9D11F
:1022C000012034E01E4B1B6803F00F03AB4207D91B
:1022D000EAB21B4B1A701B6803F00F03AB422DD1FF
:1022E000236813F0040F06D0164A936823F4E053D2
:1022F000E1680B439360236813F0080F07D0114A7D
:10230000936823F46043216943EAC103936000F0BA
:1023100047F80C4B9B68C3F303130B4AD35CD840BC
:102320000A4B18600A4B1868FFF79CFB002070BD31
:10233000012070470120FAE70120F8E70120F6E7C5
:10234000003C02400038024028CA0408080000206F
:1023500010000020014B1868704700BF08000020E3
:1023600008B5FFF7F7FF044B9B68C3F38223034ACA
:10237000D35CD84008BD00BF0038024020CA040822
:1023800008B5FFF7E7FF044B9B68C3F34233034AEA
:10239000D35CD84008BD00BF0038024020CA040802
:1023A00008B5464B9B6803F00C03082B05D00C2B9B
:1023B00043D0042B7FD1424819E0404B5A6802F0C9
:1023C0003F025B6813F4800F12D03C4B5968C1F395
:1023D00088113B480023A1FB0001FEF7CBF9374BE6
:1023E0005B68C3F3014301335B00B0FBF3F008BD4E
:1023F000324B5868C0F388104FEA401CBCEB000C0D
:102400006EEB0E0E4FEA8E1343EA9C634FEA8C117B
:10241000B1EB0C0163EB0E03DB0043EA5173C9001F
:1024200011EB000C43F10003990200234FEA8C20CA
:1024300041EA9C51FEF79EF9D1E7204B5A6802F021
:102440003F025B6813F4800F10D01C4B5968C1F336
:1024500088111B480023A1FB0001FEF78BF9174BE5
:102460005B68C3F30273B0FBF3F0C0E7134B58682B
:10247000C0F388104FEA401CBCEB000C6EEB0E0E54
:102480004FEA8E1343EA9C634FEA8C11B1EB0C01C7
:1024900063EB0E03DB0043EA5173C90011EB000C40
:1024A00043F10003990200234FEA8C2041EA9C513A
:1024B000FEF760F9D3E7034899E700BF0038024010
:1024C00040787D010024F400002800F0018270B5FE
:1024D00082B00446036813F0010F41D0994B9B680A
:1024E00003F00C03042B32D0964B9B6803F00C03D3
:1024F000082B27D0934B9B6803F00C030C2B59D06F
:102500006368B3F5803F5BD0B3F5A02F5ED08D4BF1
:102510001A6822F480321A601A6822F480221A6043
:102520006368002B5CD0FFF7E9FA0546854B1B6812
:1025300013F4003F14D1FFF7E1FA401B6428F5D9EA
:102540000320CCE17F4B5B6813F4800FD2D07D4B2E
:102550001B6813F4003F03D06368002B00F0BA81BE
:10256000236813F0020F60D0764B9B6813F00C0FBA
:102570004AD0744B9B6803F00C03082B3FD0714B7F
:102580009B6803F00C030C2B69D0E368002B75D01B
:102590006D4B01221A60FFF7B1FA0546694B1B68C3
:1025A00013F0020F61D1FFF7A9FA401B0228F5D9F9
:1025B000032094E1634B5B6813F4800FA0D0C6E75F
:1025C000604A136843F480331360A9E75D4B1A68CF
:1025D00042F480221A601A6842F480321A609FE73F
:1025E000FFF78CFA0546574B1B6813F4003FB7D032
:1025F000FFF784FA401B6428F5D903206FE1514BA3
:102600005B6813F4800FBAD14E4B1B6813F0020FB6
:1026100003D0E368012B40F05F814A4A136823F03E
:10262000F803216943EAC1031360236813F0080F1C
:1026300049D06369002B33D0434B0122C3F8802E6D
:10264000FFF75CFA05463F4B5B6F13F0020F3AD180
:10265000FFF754FA401B0228F5D903203FE1394B1C
:102660005B6813F4800F90D1CEE7364A136823F0ED
:10267000F803216943EAC1031360D6E7324B002215
:102680001A60FFF73BFA05462E4B1B6813F0020F4A
:10269000CBD0FFF733FA401B0228F5D903201EE107
:1026A000294B0022C3F8802EFFF728FA0546254B58
:1026B0005B6F13F0020F06D0FFF720FA401B0228D1
:1026C000F5D903200BE1236813F0040F76D01D4BDE
:1026D0001B6C13F0805F33D100230193194B1A6CEC
:1026E00042F080521A641B6C03F080530193019BEB
:1026F0000125164B1B6813F4807F29D0A368012B9A
:102700003AD0052B3ED00F4B1A6F22F001021A6708
:102710001A6F22F004021A67A368002B3CD0FFF75F
:10272000EDF90646074B1B6F13F0020F45D1FFF77B
:10273000E5F9801B41F288339842F3D90320CEE0BB
:102740000025D6E7003802400000474200700040F4
:102750006B4A136843F480731360FFF7CFF90646A2
:10276000674B1B6813F4807FC8D1FFF7C7F9801B44
:102770000228F5D90320B2E0624A136F43F0010347
:102780001367C9E75F4B1A6F42F004021A671A6FAA
:1027900042F001021A67BFE7FFF7B0F90646594B4E
:1027A0001B6F13F0020F08D0FFF7A8F9801B41F24E
:1027B00088339842F3D9032091E0EDB9A369002B47
:1027C00000F08C804F4A926802F00C02082A54D024
:1027D000022B17D04C4B00221A66FFF78FF90446E4
:1027E000484B1B6813F0007F45D0FFF787F9001BAB
:1027F0000228F5D9032072E0424A136C23F080537B
:102800001364DBE7404B00221A66FFF777F90546B1
:102810003C4B1B6813F0007F06D0FFF76FF9401B9D
:102820000228F5D903205AE0E369226A1343626A59
:1028300043EA8213A26A5208013A43EA0243E26A77
:1028400043EA0263226B43EA02732E4A53602E4B23
:1028500001221A66FFF752F904462A4B1B6813F04F
:10286000007F06D1FFF74AF9001B0228F5D90320A3
:1028700035E0002033E0002031E0012B31D0214B46
:102880005B6803F48001E26991422CD103F03F02BE
:10289000216A8A4229D1616A47F6C0721A40B2EBB6
:1028A000811F24D103F44031A26A5208013AB1EBEE
:1028B000024F1ED103F07062E16AB2EB016F1AD1D0
:1028C00003F0E043226BB3EB027F16D1002006E059
:1028D00001207047012002E0012000E0002002B04A
:1028E00070BD0120FBE70120F9E70120F7E7012097
:1028F000F5E70120F3E70120F1E70120EFE700BF52
:1029000000700040003802400000474200285AD0C2
:1029100010B50446436A33B94368B3F5827F05D0E6
:102920000023C36102E00023036143610023A3622B
:1029300094F85130002B40D0022384F851302268A3
:10294000136823F040031360636803F48273A26882
:1029500002F404421343E26802F400621343226962
:1029600002F002021343626902F001021343A269FA
:1029700002F400721343E26902F038021343226A40
:1029800002F080021343A26A02F40052216813434A
:102990000B60638B03F00403626A02F0100221688B
:1029A00013434B602268D36923F40063D361002092
:1029B0006065012384F8513010BD84F85030204602
:1029C000FEF7E8FEB8E701207047704730B585B0E4
:1029D0000446026851689368C3F3801013F0400FF7
:1029E00005D113F0010F02D011F0400F69D113F09F
:1029F000020F02D011F0800F67D1C3F3401513F01E
:102A0000200F03D110B913F4807F61D011F0200F93
:102A10005ED078B194F85100C0B203285AD0606DEE
:102A200040F00400606500200090D068009090683D
:102A30000090009865B1606D40F001006065002075
:102A4000029090680290106820F040001060029A96
:102A500013F4807F09D0636D43F00803636500239E
:102A6000039323689B680393039B636D002B2FD014
:102A70002268536823F0E0035360012384F8513047
:102A800011F0030F2ED02268536823F00303536024
:102A9000E36C4BB1154A1A65E06CFFF777F918B192
:102AA000636D43F040036365A36C8BB10F4A1A65F5
:102AB000A06CFFF76BF958B1636D43F04003636599
:102AC00006E0236C2046984702E0636C2046984756
:102AD00005B030BD00230193D3680193936801933F
:102AE000019BF5E72046FFF770FFF1E7F12A0008A8
:102AF00008B5806B0023C387C386FFF766FF08BD58
:102B000010B504460268136923F44053C1680B43AF
:102B10001361836802691A4343691A43C3691A43FC
:102B20000168CB6823F4164323F00C031343CB60F6
:102B30000268536923F4407381690B43536103684E
:102B4000314A934206D002F58062934202D0FFF7E9
:102B500007FC01E0FFF714FCE369B3F5004F29D04F
:102B60000021031849411B1841F10001C90041EA45
:102B70005371DB00181863684FEA83024FEA9373BE
:102B800041F10001FDF7F6FD204AA2FB00314909A1
:102B9000642303FB11031B013233A2FB03235B09F4
:102BA00003F0F00202EB011203F00F03216813445B
:102BB0008B6010BD0023021843EB0301121841F192
:102BC0000001C90041EA5271D200101841F1000120
:102BD000626892185B41FDF7CDFD0C4AA2FB003103
:102BE0004909642303FB1103DB003233A2FB0323F7
:102BF0005B095A0002F4F87202EB011203F00703BA
:102C0000216813448B60D4E7001001401F85EB510D
:102C10002DE9F84305460F4616469946DDF8208013
:102C20002B681C6837EA04040CBF01240024B4425A
:102C30002DD1B8F1FF3FF3D0B8F1000F05D0FEF76A
:102C40005DFFA0EB09004045EAD92A6802F10C03B8
:102C500053E8003F23F4D0730C3242E800310029DE
:102C6000F3D12A6802F1140353E8003F23F0010373
:102C7000143242E800310029F3D1202385F83D3099
:102C800085F83E30002385F83C30032000E000202A
:102C9000BDE8F88358B310B5044690F83D300BB347
:102CA000242384F83D302268D36823F40053D36092
:102CB0002046FFF725FF2268136923F49043136130
:102CC0002268536923F02A0353612268D36843F4CE
:102CD0000053D36000202064202384F83D3084F822
:102CE0003E3010BD80F83C30FEF7D4FDD8E701201F
:102CF00070472DE9F04182B01E4690F83D30DBB2BE
:102D0000202B54D104460D469046002953D0002A6A
:102D100053D090F83C30012B51D0012380F83C3047
:102D200000230364212380F83D30FEF7E7FE0746C9
:102D3000A4F82480A4F82680A368B3F5805F05D0AA
:102D40004FF00008002384F83C3012E0236913B1EF
:102D50004FF00008F6E7A8460025F3E738F8023BF5
:102D60002268C3F308035360E28C92B2013A92B234
:102D7000E284E38C9BB273B100963B460022802133
:102D80002046FFF745FFE0B9002DE7D015F8012BED
:102D900023685A60E8E700963B460022402120461F
:102DA000FFF736FF78B9202384F83D3000E0022099
:102DB00002B0BDE8F0810120FAE70120F8E7022027
:102DC000F6E70320F4E70320F2E7000010B5054C16
:102DD000204600F0D1F92046034A0449BDE81040DE
:102DE00029F00CBEEC1200200000002099310008F0
:102DF0002DE9F84FC54FC64D3B68C64ADFF818A30A
:102E00009E68DFF818930024012105F11C00117061
:102E1000C5E900A4C5E90244C5E90444AC6101F078
:102E200089F83B682E62BE4ED3F804B0C6F800A005
:102E30004FF0FF3806F11C00C5F82480C6E90144B4
:102E4000C6E90344C6E90544C5F8009001F072F8EC
:102E5000C6F82480C6F800903B68C6F820B0B14E92
:102E6000C6E900A406F11C00D3F80CA0B460C6E9C2
:102E70000344C6E9054401F05DF8C6F80090DFF8A8
:102E8000A892C6E908A8A94EA9F10408484614F07A
:102E9000C3FB06F1140A29464846C8E91F44C8E99D
:102EA0002144C8F87440A8F8784049F8046CC8F880
:102EB00004A014F043FB9E4C204614F0ADFB9D4B48
:102EC00044F8083C14332360954900232046C4E9A4
:102ED0001E33C4E920332367A4F8743044F8043C5B
:102EE000A4F1080914F02AFB934D284614F094FB32
:102EF000002328468B492B6745E9016AC5E91E3343
:102F0000C5E92033A5F87430043D14F017FB8B4C51
:102F1000204614F081FB002320468249236744E9C0
:102F2000016AC4E91E33C4E92033A4F87430043CB8
:102F300014F004FB2B69824EDFF808A2C5F87480F8
:102F400043F400532B613B68C9F8788000249D68E6
:102F5000B46106F11C00C6E900A4C6E90244C6E952
:102F6000044400F0E7FF35623B68774DD3F804B0C6
:102F7000DFF8D891C6F800904FF0FF3805F11C003B
:102F8000C6F82480C5E90144C5E90344C5E9054400
:102F9000C5F800A000F0CEFFC5F800903B68C5F86A
:102FA00020B0C5F824806A4DDF68AC6105F11C00D3
:102FB000C5E900A4C5E90244C5E9044400F0BAFF2C
:102FC0002F62644FC5F824803846DFF88C81C5F83D
:102FD000009014F021FB314608F114093E1F3846D9
:102FE000C6E91D44C6E92044C6E9224447F8048CDA
:102FF00086F87C40C6F8049014F0F8FA574C204646
:1030000014F00AFB564B44F8083CA4F108071433AB
:10301000BB604D4900232046C7E91E33C7E9213371
:10302000C7E9233387F880307B6014F0DFFA4D4D19
:10303000284614F0F1FA00232846454985F87830EF
:1030400045E90189C5E91C33C5E91F33C5E92133C9
:10305000043D14F0CBFA444C204614F0DDFA002372
:1030600020463B4984F8783044E90189C4E91C339F
:10307000C4E91F33C4E92133043C14F0B7FA3B49D7
:103080002A690B68BE6742F4005201332A616E67F9
:103090000B60BDE8F88F364B2348C8F8043014F0B5
:1030A000F7FA29F005FF334B2F48636014F0F0FA6C
:1030B00029F0FEFE2F4B2B486B6014F0E9FA29F043
:1030C000F7FE2C4B2548BB6014F0E2FA29F0F0FE25
:1030D000284B2048736014F0DBFA29F0E9FE244BFA
:1030E0001648636014F0D4FA29F0E2FE204B12482F
:1030F0006B6014F0CDFA29F0DBFE1D4B0C48C9F8CB
:10310000083014F0C5FA29F0D3FE00BF40070020B4
:10311000C41200201400002078F60408E0ED040832
:103120009C1200207412002050160020BCF50408E8
:10313000E01600206CEF0408C415002038150020AC
:103140004C120020B8F604082412002020EE0408D7
:10315000FC11002014140020ECF50408A814002031
:103160009CEF040884130020F41200207027002034
:10317000C0EE0408D0EE0408064A1368591C10B5C6
:10318000044611600BB1204610BDFFF731FE20460A
:1031900010BD00BF70270020114A1368591E022B72
:1031A00010B50446116001D0204610BD0D481EF038
:1031B00019FB0D481EF016FB0C481EF013FB0C48C3
:1031C0001EF0B2FD0B481EF0AFFD0B481EF0ACFD2B
:1031D000204610BD29F0DCFF2AF018F8E4E700BF14
:1031E000702700204C160020C01500203415002048
:1031F0001014002080130020F0120020704700BF40
:1032000010B5044629F0D2FC204610BD044A0B68D4
:1032100012680360934202D01A6801321A60704744
:10322000741700200160704710B5054C206800B18C
:1032300010BD0246034920462BF06CF9206810BDF2
:103240006C1700205CCA0408004870475CCA040878
:10325000426870B50546EAB18368C3B1304E0024B8
:1032600003E0AB680134A34210D952F824000028CF
:10327000F8D04368591E012B4160F2D103685B68A6
:10328000B34238D129F092FC6A68EAE712B11046DD
:1032900029F090FCEA68EAB1AB68C3B1204E002483
:1032A00003E0AB680134A34210D952F8240000288F
:1032B000F8D04368591E012B4160F2D103685B6866
:1032C000B3421AD129F072FCEA68EAE712B110465B
:1032D00029F070FC2B6963B10024185910B129F052
:1032E00069FC2B690434182CF7D113B1184629F066
:1032F00061FC284670BD9847C6E79847E4E729F087
:1033000047FF29F083FFBFE729F042FF29F07EFF46
:10331000DAE7013102D129F0D1FEFAE729F0C8FD40
:103320000132000838B50A4B05681B689D42044607
:1033300004D02B685A1E012B2A6001D0204638BDCC
:103340002846FFF785FF284629F030FC204638BD87
:10335000741700200F4B1A680B68934270B50D4626
:10336000044602D01968013119602668B24204D0BF
:103370003268511E012A316002D02360204670BDA0
:103380003046FFF765FF304629F010FC2B682360BC
:10339000204670BD74170020002A00F0E2802DE95D
:1033A000F04F0D6883B00646174625B9AB4B1D6834
:1033B00001351D600D60D6E9018305F1FF39013B40
:1033C0004B455DD205F1030A6FF060439A45C0F0AA
:1033D000CD804FF0FF302AF097FB0446B0684FF0E5
:1033E000FF3B70B1736803EB800C221F043BACF110
:1033F000040C53F8041F42F8041F9C45F9D15045B2
:1034000008D2C0F103022A44920004EB800000219C
:1034100037F08CFB5846D6F80CB02AF075FBD6F87E
:1034200008C00346BCF1000F0CD0F26802EB8C0E12
:10343000011F043AAEF1040E52F8040F41F8040FD4
:103440007245F9D1E2450AD9CCF103022A4403EBD3
:103450008C0092000021019337F068FB019BF36020
:10346000C6E9014AB8F1000F02D0404629F0A2FB9C
:10347000BBF1000F02D0584629F09CFBD6F804801F
:103480007B6858F8290001337B60002840D0744BDA
:103490001A68002A37D071499C460AE024B90C68A2
:1034A00001340C60CEF80040A54272D05CF8082FC1
:1034B0004AB313681BB90B6801330B601360DCF867
:1034C00004E09D42DEF80040E8D12CB9634B1C6853
:1034D00001341C60CEF80040013C58F8243093B110
:1034E000714638460EF006FA054658F824006B6817
:1034F00001336B6043685A1E012B42606ED048F85E
:10350000245058F8290043685A1E012B426038D0D5
:10351000B26848F829700AB30024F368DFF84481E0
:10352000274604E0B2680F600134A24216D953F86E
:103530002400A50003EB84010028F5D0426802F1C5
:10354000FF3C012AC0F804C0ECD103685B68434526
:1035500008D129F02BFBF3685919E3E703B0BDE864
:10356000F08F70479847F3685919DBE74FEA8A0BE9
:1035700058462AF0C9FA0446B06800287FF432AFF2
:103580003DE70368374A5B68934225D129F00EFB7B
:10359000BEE7136823B931490B6801330B60136030
:1035A0005C1E58F82430002BADD01146384604F08C
:1035B000DDFE054658F824006B6801336B604368F4
:1035C0005A1E012B42609AD10368264A5B689342D7
:1035D0000BD129F0EBFA92E7984799E70368214A63
:1035E0005B689342F5D0984789E7984787E729F0C9
:1035F000CFFD204629F0DEFA2AF0EAF929F0C8FDCD
:1036000029F004FE84E729F0C3FD29F0FFFDAAE7B5
:1036100029F0BEFD29F0FAFD71E729F0B9FD29F086
:10362000F5FD6CE729F0F2FD29F042FC013105D1EE
:1036300029F044FD01310DD129F040FD29F038FC7D
:10364000013105D129F03AFD013105D129F036FDCE
:1036500029F02EFC29F02CFC29F02AFC6817002008
:1036600060CA0408013200082DE9F041374F3B6879
:10367000BFF35B8FDB0706460D4614464AD5344B35
:10368000F168186800283AD0324F9E460BE023B903
:103690003E6801363E6033461660013B9C4242D094
:1036A0005EF8080F58B3036823B93A6801323A60EC
:1036B0001346026003F1FF3CDEF804206445136802
:1036C000E5D1002B39D0013B51F8242052B1A5B1EE
:1036D0002B68214A5B689342284634D1BDE8F0410B
:1036E00029F064BA6A68501C6860581C41F824507C
:1036F00003D002326A6041F82350BDE8F08151F8EE
:103700002430002BE3D16B6801336B6041F8245007
:10371000BDE8F08138462AF093F90028AFD038464A
:103720002AF0AAF9ABE7026822B90A4B1A680132FB
:103730001A6002602346541EC6E706480368013338
:1037400003601360BFE7BDE8F04118477817002019
:1037500060CA0408681700200132000803682BB90A
:1037600003490A6801320A6013460260581E704716
:10377000681700202DE9F04FC24B0160302289B05C
:103780000646826000211846C02237F0CFF9BE4DB0
:1037900070600021C022284637F0C8F9BB4B1A1FC1
:1037A0000024C6E90352BA4D1C61C3E90044C3E9D1
:1037B000024443F8045CFFF747FD02882A80B548BD
:1037C00001232246214605F06BFFB24AB24930463A
:1037D000FFF7E2FDB14801212AF03CFFAF4AB049B2
:1037E0003046FFF7D9FDAF4CAF48B04A84600123A3
:1037F0000021C4E900234360AD4B2174C4E90211E8
:10380000C4E90511C4E90711A18484F864100360B8
:1038100001F082F8A44AA7493046FFF7BDFDA64A49
:10382000A64B1360012151603046A549FFF7B4FD56
:10383000A44AA54B1360012151603046A349FFF70C
:10384000ABFDA34CA34B0122C4E90032FFF7ECFC13
:10385000A060A14922463046FFF79EFDDFF87CA21A
:103860009F4AA0480123CAE900230022C0E9013A87
:1038700011469D4B8AF81020CAE90222CAE90522A6
:10388000CAE90722CAE90922CAE90B22AAF81120CB
:10389000CAF834208AF84320036000F0D1FB914A33
:1038A00092493046FFF778FDDFF8449291480123B2
:1038B0000022C0E90139C9F804308F4BC9F8003043
:1038C00011468E4B89F81020C9E90222C9E9052268
:1038D000C9E90722C9E90922C9E90B22A9F811207F
:1038E000C9F8342089F84320036000F05DFB814A69
:1038F00083493046FFF750FD824A834B136083496A
:10390000012330465360FFF747FD814A814B136026
:103910008149012330465360FFF73EFD7F4C8049CB
:103920002160002301227F48E3672146C4E9012387
:10393000C4E90333C4E90533C4E90733C4E90933EF
:10394000C4E90B33C4E90D33C4E90F33C4E91133BF
:10395000C4E91333C4E91533C4E91733C4E919338F
:10396000C4E91B33C4E91D33C4E92033C4E922335D
:10397000C4E92433C4E92633C4E92833C4E92A332B
:10398000C4E92C33C4E92E33C4F8C03084F8C43001
:1039900015F000FA634A64493046FFF7FDFC634ABC
:1039A000634B13606349012330465360FFF7F4FC17
:1039B000614A624B13606249012330465360FFF74E
:1039C000EBFC604801210AF0ADF85E4A5E493046E2
:1039D000FFF7E2FC5D48012105F032FE5B4A5C49DD
:1039E0003046FFF7D9FC5B4801212AF04BFE594ACB
:1039F00059493046FFF7D0FC584B594800211A4628
:103A0000C3E90511C3E90711C3E90911836099608E
:103A1000D960197483F82411012353604360514B1A
:103A20001360514B036001F005F84D4A4F49304691
:103A3000FFF7B2FC4E4A4F4B13604F49012330460B
:103A40005360FFF7A9FC4D4A4D4B13604D490123CC
:103A500030465360FFF7A0FC4B4D4C4B2B600123CD
:103A60006B60FFF7E1FBA86049492A463046FFF743
:103A700093FCDFF82081484801230022C8F8043075
:103A800043608BE00825002048240020D825002032
:103A9000C825002028220020EC260020F421002048
:103AA00060280020A01B002010220020A0D20408C3
:103AB00054E104081C27002008220020ACF304086D
:103AC000D027002000220020E8F30408CC270020A3
:103AD0001C22002038E1040810270020181B0020B9
:103AE00070D20408DC210020ACE104082427002067
:103AF0005C1B0020E821002060D2040878E1040863
:103B000020270020D4210020FCE104082C270020DD
:103B1000CC21002014E2040828270020501A00209D
:103B200018F40408B8210020B4270020B021002098
:103B30002CE2040818270020A821002018F504080A
:103B4000B02700209821002014270020B81C002056
:103B5000E8260020841C00205C2800202819002072
:103B6000A01C0020B0D2040854EC04085C270020FC
:103B7000981C002064FB040830280020901C0020C2
:103B8000A0FB04082C280020AC1C002038EC040802
:103B900050270020481800206C1C0020B14BC8F8AA
:103BA00000301146B04BC0F80880C8E90222C8E9CD
:103BB0000522C8E90722C8E90922C8E90B22C8E999
:103BC0000D2288F81020C8F83C2088F86C2003608B
:103BD00000F032FBA54AA6493046FFF7DDFBA54FB2
:103BE000A548012300227B604360A44B3B60114643
:103BF000A34B8760C7E90222C7E90522C7E907226C
:103C0000C7E90922C7E90B22C7E90D223A74FA6312
:103C100087F86C20036000F0C3FA974A9949304650
:103C2000FFF7BAFB984A994B136099490123304634
:103C30005360FFF7B1FB974A974B136097490123F5
:103C400030465360FFF7A8FB954D96492960002345
:103C500001224FF0000B4FF0000C9348EB67294610
:103C6000C5E90123C5E90333C5E90533C5E90733D0
:103C7000C5E90933C5E90B33C5E90D33C5E90F3390
:103C8000C5E91133C5E91333C5E91533C5E9173360
:103C9000C5E91933C5E91B33C5E91D33C5E920332F
:103CA000C5E92233C5E92433C5E92633C5E92833FC
:103CB000C5E92A33C5E92C33C5E92EBCC5F8C030A7
:103CC00085F8C43020F08EF9774A78493046FFF7FE
:103CD00063FB774A774B1360774901233046536083
:103CE000FFF75AFB754A764B13607649012330463D
:103CF0005360FFF751FB7448012113F017F9724A22
:103D000072493046FFF748FB714A724B13607249A3
:103D1000012330465360FFF73FFB704A704B13603E
:103D20007049012330465360FFF736FB6E4A6F4BF4
:103D300013606F49012330465360FFF72DFB6D4A36
:103D40006D4B13606D49012330465360FFF724FB30
:103D5000DFF8ACB16B4BCDF8109002A93046CDE93D
:103D600002BACDE90538079701F070FDF36866489F
:103D70000193FFF7F3FC019B43F820B0F36863481D
:103D80000193FFF7EBFC019B43F820A06048D6F8B5
:103D90000CA0FFF7E3FC4AF820905E48D6F80C90A0
:103DA000FFF7DCFC49F820405B48F468FFF7D6FCDD
:103DB000544B44F820302E48F468FFF7CFFC44F809
:103DC00020803048F468FFF7C9FC44F82070374879
:103DD000F468FFF7C3FC44F82050304609B0BDE852
:103DE000F08F04460B4601333AD1204629F066F99C
:103DF0000D4604462048FFF701FA2B46F3E70D462F
:103E000004464648FFF7FAF92B46ECE70D46044610
:103E10004348FFF7F3F92B46E5E70D4604464148D2
:103E2000FFF7ECF92B46DEE70D4604463E48FFF768
:103E3000E5F92B46D7E70D4604463C48FFF7DEF987
:103E40002B46D0E70D4604463948FFF7D7F92B46F5
:103E5000C9E70D4604460548FFF7D0F92B46C2E7EF
:103E600029F026F890D20408ACEC04086C1C002061
:103E700064270020B8180020781C002080D2040895
:103E800078EC040860270020641C0020FCEC040887
:103E90006C2700205C1C002014ED0408682700201B
:103EA00080170020D0FB0408481C002014280020A4
:103EB000401C00202CED040858270020381C00204E
:103EC000D0FC040810280020281C002054270020C3
:103ED000201C0020F0D4040814260020181C002008
:103EE00048D5040810260020101C0020A0D5040886
:103EF0000C260020081C0020F8D504080826002005
:103F0000A01B0020281900201C27002024270020A7
:103F100020270020B42700205C270020E821002073
:103F2000DC2100201C22002010220020AC1C0020DC
:103F3000A01C0020F8B5174E33680022044602602A
:103F4000D3B1154D2A6822609A420AD0134E3368C5
:103F5000BFF35B8FDB0706D52B6823601A6801323D
:103F60001A602046F8BD304629F06AFD0028F3D0DB
:103F7000304629F081FDEFE7094F074D0221384611
:103F8000FFF7F8FB0748376039462F60FFF74AF91B
:103F90003368D7E77417002070170020042600202C
:103FA000F0250020EC25002010B50446806830B3D1
:103FB0002E234374A3681E492C229A741D4AA368B9
:103FC000106818630022C3E90212C3E90512C3E9AD
:103FD0000712C3E90912DA62174AA3681268586324
:103FE00002F10A0C531EC2F10100A268C1180A4472
:103FF00013F8011F82F838106345F6D110BD442034
:1040000029F064FD0D4AA0600023C0E90023C0E947
:104010000233C0E90533C0E90733C0E90933C0E919
:104020000B330374A0F81130436380F84330BFE7CB
:104030009CB20408940005082400002060D2040803
:1040400010B50446806830B32E234374A3681E491C
:104050002C229A741D4AA368106818630022C3E9D1
:104060000212C3E90512C3E90712C3E90912DA62B1
:10407000174AA3681268586302F10A0C531EC2F172
:104080000100A268C1180A4413F8011F82F8381011
:104090006345F6D110BD442029F018FD0D4AA060FB
:1040A0000023C0E90023C0E90233C0E90533C0E9B9
:1040B0000733C0E90933C0E90B330374A0F81130AA
:1040C000436380F84330BFE79CB2040894000508BE
:1040D0002400002070D2040810B504468068084B04
:1040E000236010B103685B6898472046FFF786F8A5
:1040F000204610BD2046FFF781F828F0D9FE00BF0A
:1041000078E1040810B5044680680B4B236010B1B9
:1041100003685B6898472046FFF770F8204628F050
:1041200045FD204610BD2046FFF768F8204628F0E0
:104130003DFD28F0BDFEF9E778E1040810B504461E
:104140008068084B236010B103685B68984720467D
:10415000FFF754F8204610BD2046FFF74FF828F02F
:10416000A7FE00BFACE1040810B5044680680B4B05
:10417000236010B103685B6898472046FFF73EF85C
:10418000204628F013FD204610BD2046FFF736F8E4
:10419000204628F00BFD28F08BFEF9E7ACE104087F
:1041A00038B58368044613B31E491F4D08681F497C
:1041B00098630022C3E90712C3E90912C3E90B128D
:1041C0009D60DA605A632E25A2685D6118492C252E
:1041D0009D61D0630968A2684B1E3C3201F10A0060
:1041E00013F8011F42F8041F8342F9D138BD702033
:1041F00029F06CFC0F49A0600022C0E90012C0E960
:104200000222C0E90522C0E90722C0E90922C0E96B
:104210000B22C0E90D2203460274C26380F86C20B1
:10422000C2E700BF940005089CB2040830D104081E
:104230002400002080D2040838B58368044613B3F4
:104240001E491F4D08681F4998630022C3E90712E1
:10425000C3E90912C3E90B129D60DA605A632E2587
:10426000A2685D6118492C259D61D0630968A26828
:104270004B1E3C3201F10A0013F8011F42F8041FE3
:104280008342F9D138BD702029F020FC0F49A0608D
:104290000022C0E90012C0E90222C0E90522C0E9FB
:1042A0000722C0E90922C0E90B22C0E90D2203461A
:1042B0000274C26380F86C20C2E700BF9400050856
:1042C0009CB2040830D104082400002090D20408D5
:1042D00010B504468068084B236010B103685B6822
:1042E00098472046FEF78AFF204610BD2046FEF77D
:1042F00085FF28F0DDFD00BF78EC040810B504460A
:1043000080680B4B236010B103685B6898472046B8
:10431000FEF774FF204628F049FC204610BD2046D9
:10432000FEF76CFF204628F041FC28F0C1FDF9E7BC
:1043300078EC040810B504468068084B236010B17F
:1043400003685B6898472046FEF758FF204610BD7B
:104350002046FEF753FF28F0ABFD00BFACEC04088D
:1043600010B5044680680B4B236010B103685B688E
:1043700098472046FEF742FF204628F017FC2046CB
:1043800010BD2046FEF73AFF204628F00FFC28F02B
:104390008FFDF9E7ACEC040890F843300C4A10B5F7
:1043A000044602607BB1806808B128F003FC6069B4
:1043B00008B128F0FFFBE06908B128F0FBFB606A58
:1043C00008B128F0F7FB2046FEF718FF204610BD85
:1043D00060D2040810B50446FFF7DEFF204628F03F
:1043E000E5FB204610BD204628F0E0FB28F060FDEC
:1043F00090F843300C4A10B5044602607BB18068E7
:1044000008B128F0D7FB606908B128F0D3FBE06958
:1044100008B128F0CFFB606A08B128F0CBFB20463A
:10442000FEF7ECFE204610BD70D2040810B504461D
:10443000FFF7DEFF204628F0B9FB204610BD2046DE
:1044400028F0B4FB28F034FD90F86C300C4A10B51D
:10445000044602607BB1806808B128F0ABFBE069DC
:1044600008B128F0A7FB606A08B128F0A3FBE06A56
:1044700008B128F09FFB2046FEF7C0FE204610BD85
:1044800080D2040810B50446FFF7DEFF204628F06E
:104490008DFB204610BD204628F088FB28F008FD43
:1044A00090F86C300C4A10B5044602607BB180680D
:1044B00008B128F07FFBE06908B128F07BFB606A57
:1044C00008B128F077FBE06A08B128F073FB2046BA
:1044D000FEF794FE204610BD90D2040810B50446A5
:1044E000FFF7DEFF204628F061FB204610BD204686
:1044F00028F05CFB28F0DCFC10B50446806830B383
:104500002E234374A3681E492C229A741D4AA36863
:10451000106818630022C3E90212C3E90512C3E957
:104520000712C3E90912DA62174AA36812685863CE
:1045300002F10A0C531EC2F10100A268C1180A441C
:1045400013F8011F82F838106345F6D110BD4420DE
:1045500029F0BCFA0D4AA0600023C0E90023C0E99D
:104560000233C0E90533C0E90733C0E90933C0E9C4
:104570000B330374A0F81130436380F84330BFE776
:104580009CB20408940005082400002060D20408AE
:1045900010B50446806830B32E234374A3681E49C7
:1045A0002C229A741D4AA368106818630022C3E97C
:1045B0000212C3E90512C3E90712C3E90912DA625C
:1045C000174AA3681268586302F10A0C531EC2F11D
:1045D0000100A268C1180A4413F8011F82F83810BC
:1045E0006345F6D110BD442029F070FA0D4AA06051
:1045F0000023C0E90023C0E90233C0E90533C0E964
:104600000733C0E90933C0E90B330374A0F8113054
:10461000436380F84330BFE79CB204089400050868
:104620002400002070D2040838B58568114B03605F
:10463000044655B12B68104A5B689342284609D15D
:10464000FFF7AAFE284628F0B1FA2046FEF7D6FD6D
:10465000204638BD98472046FEF7D0FD204638BD9D
:1046600002E0284628F0A2FA2046FEF7C7FD28F00F
:104670001FFC00BF38F40408D543000810B50446F9
:10468000FFF7D2FF204628F091FA204610BD2046C1
:1046900028F08CFA28F00CFC38B58568114B0360C3
:1046A000044655B12B68104A5B689342284609D1ED
:1046B000FFF79EFE284628F079FA2046FEF79EFD79
:1046C000204638BD98472046FEF798FD204638BD65
:1046D00002E0284628F06AFA2046FEF78FFD28F00F
:1046E000E7FB00BF6CF404082D44000810B5044635
:1046F000FFF7D2FF204628F059FA204610BD204689
:1047000028F054FA28F0D4FB38B58368044613B374
:104710001E491F4D08681F4998630022C3E907120C
:10472000C3E90912C3E90B129D60DA605A632E25B2
:10473000A2685D6118492C259D61D0630968A26853
:104740004B1E3C3201F10A0013F8011F42F8041F0E
:104750008342F9D138BD702029F0B8F90F49A06023
:104760000022C0E90012C0E90222C0E90522C0E926
:104770000722C0E90922C0E90B22C0E90D22034645
:104780000274C26380F86C20C2E700BF9400050881
:104790009CB2040830D104082400002080D2040810
:1047A00038B58368044613B31E491F4D08681F4976
:1047B00098630022C3E90712C3E90912C3E90B1287
:1047C0009D60DA605A632E25A2685D6118492C2528
:1047D0009D61D0630968A2684B1E3C3201F10A005A
:1047E00013F8011F42F8041F8342F9D138BD70202D
:1047F00029F06CF90F49A0600022C0E90012C0E95D
:104800000222C0E90522C0E90722C0E90922C0E965
:104810000B22C0E90D2203460274C26380F86C20AB
:10482000C2E700BF940005089CB2040830D1040818
:104830002400002090D2040838B58568114B03602D
:10484000044655B12B68104A5B689342284609D14B
:10485000FFF7FAFD284628F0A9F92046FEF7CEFC1E
:10486000204638BD98472046FEF7C8FC204638BD94
:1048700002E0284628F09AF92046FEF7BFFC28F00F
:1048800017FB00BFF0FB04088544000810B5044680
:10489000FFF7D2FF204628F089F9204610BD2046B8
:1048A00028F084F928F004FB38B58568114B0360C3
:1048B000044655B12B68104A5B689342284609D1DB
:1048C000FFF7EEFD284628F071F92046FEF796FC2A
:1048D000204638BD98472046FEF790FC204638BD5C
:1048E00002E0284628F062F92046FEF787FC28F00F
:1048F000DFFA00BF24FC0408DD44000810B50446BC
:10490000FFF7D2FF204628F051F9204610BD20467F
:1049100028F04CF928F0CCFA38B583680446002B0F
:1049200035D0254A254D10682E2183F82410A16822
:104930000022C3E902521A742C2381F8253000F1B9
:10494000230C431EC0F10100A268C1180A4413F8E9
:10495000011F82F826106345F6D1194B1868431ED3
:1049600000F1190CC0F10100A268C1180A4413F843
:10497000011F82F84A106345F6D1A3681149124C11
:1049800004200522C3E90540C3E9071238BD6820A9
:1049900029F09CF80D49A0600022C0E90012C0E98E
:1049A0000222C0E90522C0E907220346027482847C
:1049B00080F86420B5E700BF1C0000209CB204080A
:1049C0002000002004B00408FCAF0408A0D20408B2
:1049D00010B504468068084B236010B103685B681B
:1049E00098472046FEF70AFC204610BD2046FEF7F9
:1049F00005FC28F05DFA00BF54E1040810B5044638
:104A000080680B4B236010B103685B6898472046B1
:104A1000FEF7F4FB204628F0C9F8204610BD2046DA
:104A2000FEF7ECFB204628F0C1F828F041FAF9E740
:104A300054E1040810B50446806858B3204B214C5B
:104A40001968846000230246C36003742E242C235B
:104A5000446201F1230C42F8283F4B1E13F8011F5A
:104A600042F8041F6345F9D1174B196800F1B802E9
:104A70004B1E01F1190C13F8011F42F8041F634586
:104A8000F9D1124C124A04210523C0E90541C0E9BD
:104A9000072310BD4FF4947029F018F80D4AA06058
:104AA0000023C0E90023C0E90233C0E90533C0E9AF
:104AB0000733C0E90933037480F82431BEE700BF2F
:104AC0001C0000209CB2040820000020E8CA040852
:104AD000FCCA0408B0D2040810B504468068084B2C
:104AE000236010B103685B6898472046FEF786FB99
:104AF000204610BD2046FEF781FB28F0D9F900BF03
:104B000054EC040810B5044680680B4B236010B1C8
:104B100003685B6898472046FEF770FB204628F044
:104B200045F8204610BD2046FEF768FB204628F0D9
:104B30003DF828F0BDF9F9E754EC040890F864302A
:104B40000A4A10B5044602605BB1806808B128F0DB
:104B500031F8606908B128F02DF8E06908B128F053
:104B600029F82046FEF74AFB204610BDA0D20408D3
:104B700010B50446FFF7E2FF204628F017F820465C
:104B800010BD204628F012F828F092F990F8243150
:104B90000A4A10B5044602605BB1806808B128F08B
:104BA00009F8606908B128F005F8E06908B128F053
:104BB00001F82046FEF722FB204610BDB0D20408C3
:104BC00010B50446FFF7E2FF204627F0EFFF20462E
:104BD00010BD204627F0EAFF28F06AF938B583684F
:104BE0000446002B35D0254A254D10682E2183F828
:104BF0002410A1680022C3E902521A742C2381F800
:104C0000253000F1230C431EC0F10100A268C11839
:104C10000A4413F8011F82F826106345F6D1194B98
:104C20001868431E00F1190CC0F10100A268C118F8
:104C30000A4413F8011F82F84A106345F6D1A368AD
:104C40001149124C04200522C3E90540C3E90712AB
:104C500038BD682028F03AFF0D49A0600022C0E965
:104C60000012C0E90222C0E90522C0E9072203467A
:104C70000274828480F86420B5E700BF1C00002025
:104C80009CB204082000002004B00408FCAF040813
:104C9000A0D2040838B58568114B0360044655B1AD
:104CA0002B68104A5B689342284609D1FFF746FFFC
:104CB000284627F07BFF2046FEF7A0FA204638BDA5
:104CC00098472046FEF79AFA204638BD02E028466B
:104CD00027F06CFF2046FEF791FA28F0E9F800BFB4
:104CE00088F30408714B000810B50446FFF7D2FFA3
:104CF000204627F05BFF204610BD204627F056FFD8
:104D000028F0D6F810B50446806858B3204B214CE3
:104D10001968846000230246C36003742E242C2388
:104D2000446201F1230C42F8283F4B1E13F8011F87
:104D300042F8041F6345F9D1174B196800F1B80216
:104D40004B1E01F1190C13F8011F42F8041F6345B3
:104D5000F9D1124C124A04210523C0E90541C0E9EA
:104D6000072310BD4FF4947028F0B0FE0D4AA060E8
:104D70000023C0E90023C0E90233C0E90533C0E9DC
:104D80000733C0E90933037480F82431BEE700BF5C
:104D90001C0000209CB2040820000020E8CA04087F
:104DA000FCCA0408B0D2040838B58568114B03600A
:104DB000044655B12B68104A5B689342284609D1D6
:104DC000FFF7E4FE284627F0F1FE2046FEF716FA2C
:104DD000204638BD98472046FEF710FA204638BDD9
:104DE00002E0284627F0E2FE2046FEF707FA28F008
:104DF0005FF800BF40FB0408C14B000810B5044633
:104E0000FFF7D2FF204627F0D1FE204610BD2046F6
:104E100027F0CCFE28F04CF8009B03201A60704766
:104E2000002070470020704704207047009B03203B
:104E30001A6070477F2908D8D0E900329A4242D0E0
:104E40005A1C0260197001207047B1F5006F10B450
:104E500013D2D0E900239B1A012B36D98B09541C9D
:104E6000403B04601370036801F03F015A1C803915
:104E700002601970012010BC7047B1F5803F19D352
:104E8000B1F5881F21D2D0E900239B1A032B1CD92E
:104E90008B0C541C103B046013700268C1F3053383
:104EA000541C803B046013700268C1F38513541CCA
:104EB000803BD6E7D0E900239B1A022B05D90B0BC8
:104EC000541C203BEEE7002070470020D3E700BFD2
:104ED000D0E90032D21A07D0844618787F2806D845
:104EE0000133CCF8003070476FF001007047C128E3
:104EF0006FD9DF2830B51FD9EF282FD8012A65D008
:104F000093F801E00EF0C004802C5CD1E02857D06B
:104F1000022A5BD09A7802F0C004802C53D1A2F50B
:104F20006222803A02EB003202EB8E10814202D301
:104F30000333CCF8003030BD012A47D05A7802F054
:104F4000C00EBEF1800F3ED1A2F5425202EB80109E
:104F50008142F0D30233CCF8003030BDF42832D88F
:104F6000B1F5803F2FD3012A30D093F801E00EF045
:104F7000C004802C27D1F0282ED0F42802D1BEF115
:104F80008F0F20D8022A21D09C7804F0C005802DF4
:104F900019D1032A1AD0DA7802F0C005802D12D177
:104FA000A2F17272A2F5025202EB804202EB0E32C3
:104FB00002EB84108142BED30433CCF8003030BD04
:104FC000BEF19F0FA4D84FF0FF3030BD6FF001004D
:104FD00030BD4FF0FF307047BEF18F0FD2D8F2E7EF
:104FE0007F2908D8D0E900329A4253D05A1C026077
:104FF000197001207047B1F5006F12D2D0E900237B
:105000009B1A012B46D913464FEA911CACF1400C78
:1050100003F802CB01F03F01803903605170012099
:105020007047B1F5803F1FD3B1F5881F32D2D0E968
:105030000032D21A032A2DD9C1F30532803A10B4B6
:105040004FEA914C5A70C1F3851201F03F011C1DCB
:10505000ACF1100C803A803983F800C09A7004607B
:10506000012010BCD9707047D0E90032D21A022A50
:1050700010D9C1F385124FEA113C803A01F03F018B
:105080005A70ACF1200C8039DA1C83F800C0026041
:105090009970AEE700207047D0E90032D21A07D0ED
:1050A000844618787F2806D80133CCF80030704742
:1050B0006FF001007047C1286FD9DF2830B51FD9C4
:1050C000EF282FD8012A65D093F801E00EF0C00434
:1050D000802C5CD1E02857D0022A5BD09A7802F06D
:1050E000C004802C53D1A2F56222803A02EB003238
:1050F00002EB8E10814202D30333CCF8003030BD76
:10510000012A47D05A7802F0C00EBEF1800F3ED17E
:10511000A2F5425202EB80108142F0D30233CCF868
:10512000003030BDF42832D8B1F5803F2FD3012AAA
:1051300030D093F801E00EF0C004802C27D1F02885
:105140002ED0F42802D1BEF18F0F20D8022A21D010
:105150009C7804F0C005802D19D1032A1AD0DA7882
:1051600002F0C005802D12D1A2F17272A2F5025296
:1051700002EB804202EB0E3202EB84108142BED37E
:105180000433CCF8003030BDBEF19F0FA4D84FF0EF
:10519000FF3030BD6FF0010030BD4FF0FF30704781
:1051A000BEF18F0FD2D8F2E710B5034B036004466F
:1051B000FEF724F8204610BDC4D4040810B5034BF4
:1051C00003600446FEF71AF8204610BD1CD50408FB
:1051D00010B5034B03600446FEF710F8204610BDDF
:1051E00074D5040810B5034B03600446FEF706F8B7
:1051F000204610BDCCD5040810B5054B036004460D
:10520000FDF7FCFF204627F0D1FC204610BD00BF73
:10521000C4D4040810B5054B03600446FDF7EEFF47
:10522000204627F0C3FC204610BD00BF1CD5040853
:1052300010B5054B03600446FDF7E0FF204627F05C
:10524000B5FC204610BD00BF74D5040810B5054B51
:1052500003600446FDF7D2FF204627F0A7FC204656
:1052600010BD00BFCCD5040830B583B0CDE9002314
:10527000069868B107491546441E02E0B0F5881F3C
:1052800004D26846FFF708FF013CF7D20098401BA4
:1052900003B030BDFFFF1000F0B59A4283B0CDE9F6
:1052A0000023DDE909751C4621D0124EBD4231466E
:1052B000684619D0FFF7F0FE831C009A0BD0B0F5BA
:1052C000881F0FD2944247F8040BEFD12346E01A0F
:1052D00018BF012000E00120089B1A600B9B1F6093
:1052E00003B0F0BD0220F7E71346009AEFE713463C
:1052F000EDE700BFFFFF100070B582B0DDE90710D9
:105300009A42CDE9001014461CD01E462168B1F522
:10531000881F2546684604F1040408D2FFF760FEA2
:1053200068B1A6422546F1D10099002001E000991C
:105330000220069B1D60099B196002B070BD009998
:105340000120F6E715460020F3E700BFF0B583B073
:10535000CDE90023089E012E17464FF0010414D911
:105360000F49002507E0B0F5803F38BF2C46651C8B
:105370000234A64209D96846FFF78EFEB0F5881FB1
:10538000F1D30098C01B03B0F0BDA642F9D14FF68F
:10539000FF716846FFF780FE0098C01B03B0F0BDA8
:1053A000FFFF100070B582B0DDE9071014469C4283
:1053B000CDE90010A3EB020239D01D462188A1F5EA
:1053C0005843B3F5806F4FF00206A1F55C401AD246
:1053D000B24221D96388A3F55C42B2F5806FA3F194
:1053E0005773A3F577331FD203EB81216846FFF78C
:1053F000F7FD88B104EB4604A542A5EB0402DDD11C
:10540000009900200AE0B0F5806F0DD368460126B0
:10541000FFF7E6FD0028EDD100990120069B1C60F6
:10542000099B196002B070BD00990220F6E70020C8
:10543000F4E700BF2DE9F0419B07DDF81880044632
:105440000D46174639D4D4E900329A42A2EB030C38
:105450002BD01988A1F55842B2F5806F4FF00106A4
:10546000A1F55C4023D2B04524D0BCF1020F29D96C
:105470005B88A3F15772A3F55C43A2F57732B3F5CD
:10548000806F4FF0020602EB812113D2B942284609
:1054900010D8FFF7CFFCA8B1D4E9003203EB4603E4
:1054A00093422360A2EB030CD3D1002003E0B0F5BC
:1054B000806FEBD20220BDE8F081D1E900239B1A76
:1054C000022B02D80120BDE8F081044B19889B789B
:1054D000118093702B6803332B60B4E70CB0040881
:1054E00010B586B0DDE9090102920022CDE9040180
:1054F0001C460092134604A9064A039402A8FFF72B
:1055000099FF0899029A0A60049B0B9A136006B0EF
:1055100010BD00BFFFFF100070B582B0CDE90001E3
:105520009DF818500C4619466B07164622D4012EDA
:1055300012D90025012407E0B0F5803F38BF2C4682
:10554000651C0234B44208D26846FFF7C1FC8842A9
:10555000F2D9009802B070BD0124B442F9D14FF6DF
:10556000FF73994228BF19466846FFF7B1FC0098BF
:1055700002B070BD241A022CD9D90378EF2BD6D1F2
:105580004378BB2BD3D18378BF2BD0D1033000908D
:10559000CDE700BF10B582B0144600201946009038
:1055A000034B049A2046FFF7B7FF001B02B010BD63
:1055B000FFFF100030B583B0CDE90023069868B135
:1055C00007491546441E02E0B0F5881F04D268461C
:1055D000FFF77EFC013CF7D20098401B03B030BDC2
:1055E000FFFF10002DE9F0470D4611465A074768A6
:1055F000D0F800A00446984646D4BA451CD06E6840
:10560000D5F80090B14554D02046FFF761FC831CCB
:105610001BD0814252D3B0F5803F10D218F0010F59
:105620001FFA80FC2BD009F102032B60A9F800C0FF
:10563000D4F800A0BA45E3D10020BDE8F087A6EB7E
:105640000903022B04D8C4E900A70120BDE8F087B4
:10565000830AC0F30900A3F52153A0F5105018F0F8
:10566000010F9BB280B203D15BBA40BA9BB280B249
:105670004A4622F8043B2A60A9F80200D8E79CFABF
:105680009CF01FFA80FCCEE7A7EB0A03022BB4D9EB
:105690009AF80030EF2BB0D19AF80130BB2BACD187
:1056A0009AF80230BF2BA8D10AF1030AC0F800A073
:1056B000A3E7BAEB070018BF0120BEE70220BCE752
:1056C00010B584B0DDE907101C46CDE90141009218
:1056D00002A90390064A01236846FFF783FF069953
:1056E000009A0A60029B099A136004B010BD00BFC3
:1056F000FFFF10002DE9F0419A4282B0CDE900236E
:10570000DDE9097590461C4641D0224EBD42314626
:10571000684634D0FFF7C0FC811C3B46A5EB07026E
:1057200029D0B0F5881F2ED2B0F5803F0BD223F8D8
:10573000020B1F46DDF800804445E7D12346E01AFE
:1057400018BF012002E0022A08D80120089BC3F8F4
:1057500000800B9B1F6002B0BDE8F081820A3B46CF
:10576000A2F5215223F8042BC0F30900A0F5105034
:1057700078801F46DEE7DDF800800120E6E743463B
:10578000DDF80080DBE7DDF800800220DEE713466D
:10579000D5E700BFFFFF100070B582B0DDE907104C
:1057A0009A42CDE9001014461CD01E462168B1F57E
:1057B000881F2546684604F1040408D2FFF73AFB27
:1057C00068B1A6422546F1D10099002001E0009978
:1057D0000220069B1D60099B196002B070BD0099F4
:1057E0000120F6E715460020F3E700BFF0B59A4226
:1057F00083B0CDE90023DDE909751C4621D0124EA6
:10580000BD423146684619D0FFF762FB831C009AFF
:105810000BD0B0F5881F0FD2944247F8040BEFD19C
:105820002346E01A18BF012000E00120089B1A60FF
:105830000B9B1F6003B0F0BD0220F7E71346009AF0
:10584000EFE71346EDE700BFFFFF10002DE9F04F33
:10585000D1E900BAAD4EAE4BD1F8089033600D4699
:105860000446012383B000213046C6F808B07360B7
:10587000FFF7B4F97368A748676801337360FDF7F1
:105880006DFF47F82060A44EA44B33600123736082
:10589000FDF7CAFC7368B0600133A14867687360A4
:1058A000FDF75CFF47F820609E4E9F4B336000225F
:1058B000012311463046C6F808A07360FEF768FE63
:1058C00073689A48676801337360FDF747FF47F8CC
:1058D0002060974E974B33600022012311463046DB
:1058E000C6F808907360FEF707FE73689248676811
:1058F00001337360FDF732FF47F820608F4E904B05
:105900009048D4F80480336002277760FDF726FFC3
:1059100048F820608C4E8D4B8D48D4F8048033605D
:105920007760FDF71BFF48F820608A4E8A4B8B4852
:10593000D4F8048033607760FDF710FF48F82060EA
:10594000874E0121304613F04FFB73688548676826
:1059500001337360FDF702FF47F82060824E834BEE
:10596000336001237360D5E90473D5F80C80C6F861
:105970000880002130460093FFF7C4F973687C4823
:10598000656801337360FDF7E9FE45F82060794EE4
:10599000794B336001237360FDF746FC7368B06098
:1059A0000133764865687360FDF7D8FE45F82060DE
:1059B000734E744B33600022012311463046B760AA
:1059C0007360FEF7EDFE73686F48656801337360BE
:1059D000FDF7C4FE45F820606C4E009BB3600022CA
:1059E0006B4B33601146012330467360FEF78CFE2B
:1059F00073686848656801337360FDF7AFFE45F86A
:105A00002060654E654B62686548336002250192EF
:105A10007560FDF7A3FE019A42F82060614E624A6C
:105A200032606248626801927560FDF797FE019AE4
:105A300042F820605E4E5F4A32605F4862680192C1
:105A40007560FDF78BFE019A42F820605B4E0121E4
:105A500030461EF099FB7368626859480192013321
:105A60007360FDF77BFE019A42F820602948E668E2
:105A7000FDF774FE46F820B02C48E668FDF76EFE90
:105A800046F820A02C48E668FDF768FE46F820900E
:105A90003748E668FDF762FE46F820803A48E66837
:105AA000FDF75CFE46F820703A48E468FDF756FEC4
:105AB000009B44F8203003B0BDE8F08F1348FDF799
:105AC0009DFB27F0F5F93148FDF798FB27F0F0F939
:105AD0002B48FDF793FB27F0EBF92648FDF78EFBEB
:105AE00027F0E6F92048FDF789FB27F0E1F9104897
:105AF000FDF784FB27F0DCF90A48FDF77FFB27F070
:105B0000D7F90548FDF77AFB27F0D2F9B026002037
