:020000040800F2
:10000000000002208D440008594300085B430008AB
:100010005D4300085F4300086143000800000000E2
:100020000000000000000000000000006343000822
:1000300065430008000000006743000869430008AA
:10004000DD440008DD440008DD440008DD4400080C
:10005000DD440008DD440008DD440008DD440008FC
:10006000DD440008DD44000871430008DD44000859
:100070007D430008DD440008DD440008DD4400083D
:100080008D430008DD440008DD440008DD4400081D
:10009000DD440008DD440008DD440008DD440008BC
:1000A000DD440008DD440008DD440008DD440008AC
:1000B000DD440008DD440008DD440008DD4400089C
:1000C000DD440008DD440008DD4400089D430008CD
:1000D000DD440008DD440008DD440008DD4400087C
:1000E000DD440008DD440008DD440008DD4400086C
:1000F000DD440008DD440008DD440008DD4400085C
:10010000DD440008DD440008DD440008DD4400084B
:10011000DD440008DD440008DD440008DD4400083B
:10012000AD430008DD440008DD440008DD4400085C
:10013000DD4400080000000000000000DD4400086D
:10014000DD440008DD440008DD440008DD4400080B
:10015000BD430008DD440008DD440008DD4400081C
:10016000DD440008DD440008DD440008DD440008EB
:10017000DD440008DD440008DD4400080000000004
:1001800000000000DD440008000000000000000046
:10019000DD4400080000000000000000DD4400080D
:1001A000000000000000000000000000DD44000826
:1001B000DD440008DD440008DD440008DD4400089B
:0401C000DD44000812
:1002000081F0004102E000BF83F0004330B54FEAC7
:1002100041044FEA430594EA050F08BF90EA020F34
:100220001FBF54EA000C55EA020C7FEA645C7FEAC7
:10023000655C00F0E2804FEA5454D4EB5555B8BFEA
:100240006D420CDD2C4480EA020281EA030382EA5B
:10025000000083EA010180EA020281EA0303362DED
:1002600088BF30BD11F0004F4FEA01314FF4801CC0
:100270004CEA113102D0404261EB410113F0004FD2
:100280004FEA03334CEA133302D0524263EB430389
:1002900094EA050F00F0A780A4F10104D5F1200E27
:1002A0000DDB02FA0EFC22FA05F2801841F1000182
:1002B00003FA0EF2801843FA05F359410EE0A5F156
:1002C00020050EF1200E012A03FA0EFC28BF4CF087
:1002D000020C43FA05F3C01851EBE37101F000453D
:1002E00007D54FF0000EDCF1000C7EEB00006EEB4A
:1002F0000101B1F5801F1BD3B1F5001F0CD34908D4
:100300005FEA30004FEA3C0C04F101044FEA44522A
:1003100012F5800F80F09A80BCF1004F08BF5FEAB1
:10032000500C50F1000041EB045141EA050130BD91
:100330005FEA4C0C404141EB0101013C28BFB1F5A3
:10034000801FE9D291F0000F04BF01460020B1FAEE
:1003500081F308BF2033A3F10B03B3F120020CDAC1
:100360000C3208DD02F1140CC2F10C0201FA0CF09F
:1003700021FA02F10CE002F11402D8BFC2F1200C04
:1003800001FA02F120FA0CFCDCBF41EA0C019040BA
:10039000E41AA2BF01EB0451294330BD6FEA040403
:1003A0001F3C1CDA0C340EDC04F11404C4F12002EE
:1003B00020FA04F001FA02F340EA030021FA04F300
:1003C00045EA030130BDC4F10C04C4F1200220FA57
:1003D00002F001FA04F340EA0300294630BD21FA95
:1003E00004F0294630BD94F0000F83F4801306BF5B
:1003F00081F480110134013D4EE77FEA645C18BF4F
:100400007FEA655C29D094EA050F08BF90EA020FE5
:1004100005D054EA000C04BF1946104630BD91EADD
:10042000030F1EBF0021002030BD5FEA545C05D1E0
:100430004000494128BF41F0004130BD14F580041F
:100440003CBF01F5801130BD01F0004545F0FE4193
:1004500041F470014FF0000030BD7FEA645C1ABFC8
:10046000194610467FEA655C1CBF0B46024650EAFF
:10047000013406BF52EA033591EA030F41F400212B
:1004800030BD00BF90F0000F04BF0021704730B5B1
:100490004FF4806404F132044FF000054FF0000186
:1004A00050E700BF90F0000F04BF0021704730B547
:1004B0004FF4806404F1320410F0004548BF40421C
:1004C0004FF000013EE700BF42004FEAE2014FEA71
:1004D00031014FEA02701FBF12F07F4393F07F4F4C
:1004E00081F06051704732F07F4208BF704793F04F
:1004F0007F4F04BF41F40021704730B54FF4607462
:1005000001F0004521F000411CE700BF50EA010264
:1005100008BF704730B54FF000050AE050EA01020D
:1005200008BF704730B511F0004502D5404261EB7D
:1005300041014FF4806404F132045FEA915C3FF4BE
:10054000D8AE4FF003025FEADC0C18BF03325FEA5B
:10055000DC0C18BF033202EBDC02C2F1200300FA0C
:1005600003FC20FA02F001FA03FE40EA0E0021FA31
:1005700002F11444BDE600BF4FF0FF3C06E000BFAF
:100580004FF0010C02E000BF4FF0010C4DF804CD1C
:100590004FEA410C7FEA6C5C4FEA430C18BF7FEADC
:1005A0006C5C1BD001B050EA410C0CBF52EA430C0A
:1005B00091EA030F02BF90EA020F0020704710F18A
:1005C000000F91EA030F58BF994208BF90422CBF19
:1005D000D8176FEAE37040F0010070474FEA410C12
:1005E0007FEA6C5C02D150EA013C07D14FEA430C30
:1005F0007FEA6C5CD6D152EA033CD3D05DF8040BA1
:10060000704700BF8446104662468C4619466346D2
:1006100000E000BF01B5FFF7B7FF002848BF10F1A9
:10062000000F01BD4DF808EDFFF7F4FF0CBF0120EE
:1006300000205DF808FB00BF4DF808EDFFF7EAFF6A
:1006400034BF012000205DF808FB00BF4DF808ED25
:10065000FFF7E0FF94BF012000205DF808FB00BF1A
:100660004DF808EDFFF7CEFF94BF012000205DF8A4
:1006700008FB00BF4DF808EDFFF7C4FF34BF0120B1
:1006800000205DF808FB00BF80F0004002E000BFE2
:1006900081F0004142001FBF5FEA410392EA030F6D
:1006A0007FEA226C7FEA236C6AD04FEA1262D2EBB7
:1006B0001363C1BFD218414048404140B8BF5B42BC
:1006C000192B88BF704710F0004F40F4000020F055
:1006D0007F4018BF404211F0004F41F4000121F06B
:1006E0007F4118BF494292EA030F3FD0A2F10102B5
:1006F00041FA03FC10EB0C00C3F1200301FA03F1F3
:1007000000F0004302D5494260EB4000B0F5000F15
:1007100013D3B0F1807F06D340084FEA310102F1D4
:100720000102FE2A51D2B1F1004F40EBC25008BF86
:1007300020F0010040EA03007047490040EB000050
:10074000013A28BFB0F5000FEDD2B0FA80FCACF151
:10075000080CB2EB0C0200FA0CF0AABF00EBC2507E
:1007600052421843BCBFD0401843704792F0000F6C
:1007700081F4000106BF80F400000132013BB5E7BF
:100780004FEA41037FEA226C18BF7FEA236C21D035
:1007900092EA030F04D092F0000F08BF084670479A
:1007A00090EA010F1CBF0020704712F07F4F04D168
:1007B000400028BF40F00040704712F100723CBF7B
:1007C00000F50000704700F0004343F0FE4040F4A5
:1007D000000070477FEA226216BF08467FEA236363
:1007E0000146420206BF5FEA412390EA010F40F44E
:1007F000800070474FF0000304E000BF10F000439A
:1008000048BF40425FEA000C08BF704743F0964380
:1008100001464FF000001CE050EA010208BF70479B
:100820004FF000030AE000BF50EA010208BF704722
:1008300011F0004302D5404261EB41015FEA010C37
:1008400002BF84460146002043F0B64308BFA3F12F
:100850008053A3F50003BCFA8CF2083AA3EBC25311
:1008600010DB01FA02FC634400FA02FCC2F1200230
:10087000BCF1004F20FA02F243EB020008BF20F067
:100880000100704702F1200201FA02FCC2F12002CD
:1008900050EA4C0021FA02F243EB020008BF20EAC2
:1008A000DC7070474FF0FF0C1CEAD0521EBF1CEAF0
:1008B000D15392EA0C0F93EA0C0F6FD01A4480EADE
:1008C000010C400218BF5FEA41211ED04FF00063C7
:1008D00043EA501043EA5111A0FB01310CF00040F3
:1008E000B1F5000F3EBF490041EAD3715B0040EA19
:1008F000010062F17F02FD2A1DD8B3F1004F40EBE9
:10090000C25008BF20F00100704790F0000F0CF0BB
:10091000004C08BF49024CEA502040EA51207F3A7F
:10092000C2BFD2F1FF0340EAC250704740F400005A
:100930004FF00003013A5DDC12F1190FDCBF00F04B
:1009400000407047C2F10002410021FA02F1C2F1F9
:10095000200200FA02FC5FEA310040F1000053EA95
:100960004C0308BF20EADC70704792F0000F00F0E3
:10097000004C02BF400010F4000F013AF9D040EAE9
:100980000C0093F0000F01F0004C02BF490011F47D
:10099000000F013BF9D041EA0C018FE70CEAD1537B
:1009A00092EA0C0F18BF93EA0C0F0AD030F0004CFB
:1009B00018BF31F0004CD8D180EA010000F00040AF
:1009C000704790F0000F17BF90F0004F084691F06D
:1009D000000F91F0004F14D092EA0C0F01D14202A7
:1009E0000FD193EA0C0F03D14B0218BF084608D170
:1009F00080EA010000F0004040F0FE4040F40000BA
:100A0000704740F0FE4040F4400070474FF0FF0C4C
:100A10001CEAD0521EBF1CEAD15392EA0C0F93EA93
:100A20000C0F69D0A2EB030280EA010C49024FEAE5
:100A3000402037D04FF0805343EA111143EA10139E
:100A40000CF000408B4238BF5B0042F17D024FF456
:100A5000000C8B4224BF5B1A40EA0C00B3EB510F31
:100A600024BFA3EB510340EA5C00B3EB910F24BF1A
:100A7000A3EB910340EA9C00B3EBD10F24BFA3EB9F
:100A8000D10340EADC001B0118BF5FEA1C1CE0D167
:100A9000FD2A3FF650AF8B4240EBC25008BF20F01A
:100AA000010070470CF0004C4CEA50207F32C2BF6E
:100AB000D2F1FF0340EAC250704740F400004FF00B
:100AC0000003013A37E792F0000F00F0004C02BF3C
:100AD000400010F4000F013AF9D040EA0C0093F006
:100AE000000F01F0004C02BF490011F4000F013B60
:100AF000F9D041EA0C0195E70CEAD15392EA0C0FC8
:100B000008D142027FF47DAF93EA0C0F7FF470AFFF
:100B1000084676E793EA0C0F04D14B023FF44CAF42
:100B200008466EE730F0004C18BF31F0004CCAD1D7
:100B300030F000427FF45CAF31F000437FF43CAF13
:100B40005FE700BF4FF0FF3C06E000BF4FF0010C35
:100B500002E000BF4FF0010C4DF804CD4FEA400217
:100B60004FEA41037FEA226C18BF7FEA236C11D061
:100B700001B052EA530C18BF90EA010F58BFB2EB14
:100B8000030088BFC81738BF6FEAE17018BF40F094
:100B9000010070477FEA226C02D15FEA402C05D148
:100BA0007FEA236CE4D15FEA412CE1D05DF8040BCD
:100BB000704700BF844608466146FFE70FB5FFF760
:100BC000C9FF002848BF10F1000F0FBD4DF808ED18
:100BD000FFF7F4FF0CBF012000205DF808FB00BF09
:100BE0004DF808EDFFF7EAFF34BF012000205DF863
:100BF00008FB00BF4DF808EDFFF7E0FF94BF0120B0
:100C000000205DF808FB00BF4DF808EDFFF7D2FFAC
:100C100094BF012000205DF808FB00BF4DF808EDEF
:100C2000FFF7C8FF34BF012000205DF808FB00BFBC
:100C300042000ED2B2F1FE4F0BD34FF09E03B3EB46
:100C4000126209D44FEA002343F0004323FA02F072
:100C500070474FF00000704712F1610F01D142025E
:100C600002D14FF0FF3070474FF00000704700BFD7
:100C700053B94AB9002908BF00281CBF4FF0FF3103
:100C80004FF0FF3000F0E2B8ADF1080C6DE904CE92
:100C90003AF052FEDDF804E0DDE9022304B07047CB
:100CA00000F1340191E838009C46A6464CF8045DFA
:100CB00090E8FF0FE54600BD90EC210B704700BFA8
:100CC00080EC210B704700BF90EC200B704700BFF9
:100CD00080EC200B704700BFD0EC200B704700BFAA
:100CE000C0EC200B704700BFF0EC0201F0EC0211E9
:100CF000F0EC0221F0EC0231F0EC0241F0EC025198
:100D0000F0EC0261F0EC0271F0EC0281F0EC029187
:100D1000F0EC02A1F0EC02B1F0EC02C1F0EC02D177
:100D2000F0EC02E1F0EC02F1704700BFE0EC0201F0
:100D3000E0EC0211E0EC0221E0EC0231E0EC0241D7
:100D4000E0EC0251E0EC0261E0EC0271E0EC0281C7
:100D5000E0EC0291E0EC02A1E0EC02B1E0EC02C1B7
:100D6000E0EC02D1E0EC02E1E0EC02F1704700BF00
:100D7000B0FC0181B0FC0191B0FC01A1B0FC01B15B
:100D8000704700BFA0FC0181A0FC0191A0FC01A163
:100D9000A0FC01B1704700BFEC4600B52DE9005042
:100DA0002DE9FF1F4FF000032DE90C0001A93BF0D6
:100DB0007DF8DDF840E012B0704700BFEC4600B5AA
:100DC0002DE900502DE9FF1F4FF000032DE90C0025
:100DD00001A93BF0A7F8DDF840E012B0704700BF72
:100DE000EC4600B52DE900502DE9FF1F4FF0000340
:100DF0002DE90C0001A93BF0B7F8DDF840E012B096
:100E0000704700BFEC4600B52DE900502DE9FF1FEB
:100E10004FF000032DE90C0001AB3BF07BF8DDF84F
:100E200040E012B0704700BFEC4600B52DE900501D
:100E30002DE9FF1F4FF000032DE90C0001AA3BF044
:100E4000F3F8DDF840E012B0704700BF704700BF14
:100E50000000000000000000000000000000000092
:100E600002780B78012A28BF9A4240F0D8806DE9B9
:100E7000044540EA0104CDE902676FF0000C4FEA37
:100E800044721AB380EA010414F0070F6BD100F02A
:100E9000070420F0070004F0030521F007014FEAE2
:100EA000C505F0E8042314F0040FF1E804670CFA18
:100EB00005F462EA040266EA04060BD063EA04035E
:100EC000624667EA0407664604E000BFF0E80423D0
:100ED000F1E8046782FA4CF582EA0604A4FA8CF47D
:100EE0006CBB83FA4CF583EA0705A5FA8CF595B936
:100EF00050E9022351E9026782FA4CF582EA0604BE
:100F0000A4FA8CF483FA4CF583EA0705A5FA8CF56C
:100F10002543DBD09CB92DBAB5FA85F424F007043B
:100F200027FA04F1DDE9026723FA04F303F0FF0076
:100F300001F0FF01FDE80445A0EB0100704724BA71
:100F4000B4FA84F424F0070426FA04F1DDE9026718
:100F500022FA04F202F0FF0001F0FF01FDE804456F
:100F6000A0EB0100704714F0030F3CD110F0030414
:100F700028D150F8082B51F8083B82FA4CF582EA48
:100F80000305A5FA8CF55DB950F8042C51F8043C22
:100F900082FA4CF582EA0305A5FA8CF5002DE8D01B
:100FA0002DBAB5FA85F424F0070423FA04F122FAE5
:100FB00004F202F0FF0001F0FF01FDE80445A0EBA0
:100FC000010070474FEAC40420F0030050F8082BDA
:100FD00021F0030151F8083B0CFA04F462EA040220
:100FE00063EA0403C9E710F003041DD0A1EB040178
:100FF00020F00300E40750F8042B06D012D28B78BF
:101000005FFAA2F4E41A06D12BB1CB785FFAB2F4FE
:10101000E41A00D133B920465DF8104B7047A2EBBB
:101020000300704701F1040150F8042BCC0721F0B4
:10103000030151F8043B48D824D222F07F4482FABD
:101040004CF594EA1325A5FA8CF50AD165B951F847
:10105000043B84EA0204B4EB036F0ED150F8042B76
:10106000EBE74FEA132355E035F07F454DD1087883
:10107000FDE80445C0F1000070474FEA126203F03A
:10108000FF0347E002EA1C4482FA4CF594EA134558
:10109000A5FA8CF50AD165B951F8043B84EA02043B
:1010A000B4EB034F0CD150F8042BEBE74FEA13439A
:1010B00030E015EA1C4528D10B884FEA124229E09E
:1010C0004FEA124203EA1C4324E002F0FF0482FAD2
:1010D0004CF594EA1365A5FA8CF50AD165B951F877
:1010E000043B84EA0204B4EB032F09D150F8042B2B
:1010F000EBE74FEA13630DE015F0FF0F05D10B6826
:101100004FEA122223F07F4304E04FF00000FDE895
:101110000445704712BA1BBA82FA4CF482EA0304FF
:10112000A4FA8CF5B5FA85F402FA04F203FA04F392
:101130004FEA1260FDE80445A0EB1360704700BF62
:1011400001F0FF01102A2BDB10F0070F08D010F878
:10115000013B013A8B422DD010F0070F42B3F6D17C
:10116000F0B441EA012141EA014122F007047FF095
:1011700000070023F0E80256083C85EA010586EAEC
:10118000010685FA47F5A3FA87F586FA47F6A5FA28
:1011900087F68EB9EED1F0BC01F0FF0102F0070234
:1011A00032B110F8013B013A83EA010313B1F8D1DF
:1011B0000020704701387047002D06BF35460338C0
:1011C000073815F0010F07D1013015F4807F02BFF9
:1011D000013015F4C03F0130F0BC0138704700BF4A
:1011E000844641EA000313F003036DD1403A41D332
:1011F00051F8043B40F8043B51F8043B40F8043BF1
:1012000051F8043B40F8043B51F8043B40F8043BE0
:1012100051F8043B40F8043B51F8043B40F8043BD0
:1012200051F8043B40F8043B51F8043B40F8043BC0
:1012300051F8043B40F8043B51F8043B40F8043BB0
:1012400051F8043B40F8043B51F8043B40F8043BA0
:1012500051F8043B40F8043B51F8043B40F8043B90
:1012600051F8043B40F8043B51F8043B40F8043B80
:10127000403ABDD2303211D351F8043B40F8043B20
:1012800051F8043B40F8043B51F8043B40F8043B60
:1012900051F8043B40F8043B103AEDD20C3205D330
:1012A00051F8043B40F8043B043AF9D2043208D028
:1012B000D2071CBF11F8013B00F8013B01D30B889A
:1012C00003806046704700BF082A13D38B078DD078
:1012D00010F003038AD0C3F10403D21ADB071CBF4A
:1012E00011F8013B00F8013B80D331F8023B20F8B4
:1012F000023B7BE7043AD9D3013A11F8013B00F8ED
:10130000013BF9D20B7803704B7843708B78837074
:101310006046704700000000000000000000000070
:1013200000000000000000000000000000000000BD
:1013300000000000000000000000000000000000AD
:1013400030B490F800F020F007016FF0000C10F0BE
:10135000070491F820F040F048804FF000046FF04F
:101360000700D1E9002391F840F000F1080082FA6B
:101370004CF2A4FA8CF283FA4CF3A2FA8CF34BBB36
:10138000D1E9022382FA4CF200F10800A4FA8CF2AF
:1013900083FA4CF3A2FA8CF3E3B9D1E9042382FA7D
:1013A0004CF200F10800A4FA8CF283FA4CF3A2FA92
:1013B0008CF37BB9D1E9062301F1200182FA4CF2CA
:1013C00000F10800A4FA8CF283FA4CF3A2FA8CF331
:1013D000002BC6D0002A04BF04301A4612BAB2FA53
:1013E00082F200EBD20030BC7047D1E9002304F058
:1013F0000305C4F100004FEAC50514F0040F91F88D
:1014000040F00CFA05F562EA05021CBF63EA050329
:1014100062464FF00004AAE770B54FF0FF0C4CF4A1
:10142000E06C1CEA11541DBF1CEA135594EA0C0F22
:1014300095EA0C0F00F0DEF82C4481EA030621EA5D
:101440004C5123EA4C5350EA013518BF52EA033598
:1014500041F4801143F4801338D0A0FB02CE4FF04A
:101460000005E1FB02E506F00042E0FB03E54FF07A
:101470000006E1FB03569CF0000F18BF4EF0010E72
:10148000A4F1FF04B6F5007F64F5407404D25FEA6E
:101490004E0E6D4146EB060642EAC62141EA555121
:1014A0004FEAC52040EA5E504FEACE2EB4F1FD0C63
:1014B00088BFBCF5E06F1ED8BEF1004F08BF5FEAE1
:1014C000500E50F1000041EB045170BD06F0004693
:1014D00046EA010140EA020081EA0301B4EB5C0440
:1014E000C2BFD4EB0C0541EA045170BD41F4801138
:1014F0004FF0000E013C00F3AB8014F1360FDEBF5D
:10150000002001F0004170BDC4F10004203C35DA38
:101510000C341BDC04F11404C4F1200500FA05F3BB
:1015200020FA04F001FA05F240EA020001F000425C
:1015300021F0004110EBD37021FA04F642EB0601D2
:101540005EEA430E08BF20EAD37070BDC4F10C04FC
:10155000C4F1200500FA04F320FA05F001FA04F2C0
:1015600040EA020001F0004110EBD37041F10001AC
:101570005EEA430E08BF20EAD37070BDC4F12005B7
:1015800000FA05F24EEA020E20FA04F301FA05F21F
:1015900043EA020321FA04F001F0004121FA04F2C7
:1015A00020EA020000EBD3705EEA430E08BF20EA97
:1015B000D37070BD94F0000F0FD101F000464000D1
:1015C00041EB010111F4801F08BF013CF7D041EA53
:1015D000060195F0000F18BF704703F00046520057
:1015E00043EB030313F4801F08BF013DF7D043EA28
:1015F0000603704794EA0C0F0CEA135518BF95EADE
:101600000C0F0CD050EA410618BF52EA4306D1D164
:1016100081EA030101F000414FF0000070BD50EA83
:10162000410606BF1046194652EA430619D094EA0D
:101630000C0F02D150EA013613D195EA0C0F05D1F7
:1016400052EA03361CBF104619460AD181EA03014B
:1016500001F0004141F0FE4141F470014FF0000003
:1016600070BD41F0FE4141F4780170BD70B54FF09E
:10167000FF0C4CF4E06C1CEA11541DBF1CEA13551E
:1016800094EA0C0F95EA0C0F00F0A7F8A4EB050400
:1016900081EA030E52EA03354FEA013100F08880F7
:1016A0004FEA03334FF0805545EA131343EA1263C0
:1016B0004FEA022245EA111545EA10654FEA002675
:1016C0000EF000419D4208BF964244F1FD0404F52E
:1016D000407402D25B084FEA3202B61A65EB03058A
:1016E0005B084FEA32024FF480104FF4002CB6EB47
:1016F000020E75EB030E22BFB61A754640EA0C00C7
:101700005B084FEA3202B6EB020E75EB030E22BF06
:10171000B61A754640EA5C005B084FEA3202B6EB47
:10172000020E75EB030E22BFB61A754640EA9C0006
:101730005B084FEA3202B6EB020E75EB030E22BFD6
:10174000B61A754640EADC0055EA060E18D04FEA94
:10175000051545EA16754FEA06164FEAC30343EA34
:1017600052734FEAC2025FEA1C1CC0D111F4801F01
:101770000BD141EA00014FF000004FF0004CB6E7FA
:1017800011F4801F04BF01430020B4F1FD0C88BF99
:10179000BCF5E06F3FF6AFAEB5EB030C04BFB6EBA4
:1017A000020C5FEA500C50F1000041EB045170BD97
:1017B0000EF0004E4EEA113114EB5C04C2BFD4EBC4
:1017C0000C0541EA045170BD41F480114FF0000E48
:1017D000013C90E645EA060E8DE60CEA135594EAC4
:1017E0000C0F08BF95EA0C0F3FF43BAF94EA0C0FC7
:1017F0000AD150EA01347FF434AF95EA0C0F7FF43C
:1018000025AF104619462CE795EA0C0F06D152EA8F
:1018100003353FF4FDAE1046194622E750EA410673
:1018200018BF52EA43067FF4C5AE50EA41047FF484
:101830000DAF52EA43057FF4EBAE12E74FEA410CDD
:101840007FEA6C5C02D150EA013C0AD14FEA430CBA
:101850007FEA6C5C02D152EA033C02D14FF00000F7
:1018600070474FF0010070474FEA410212F5001235
:1018700015D211D56FF47873B3EB625212D94FEAD7
:10188000C12343F0004343EA505311F0004F23FAC1
:1018900002F018BF404270474FF00000704750EA16
:1018A000013005D111F0004008BF6FF000407047D3
:1018B0004FF00000704700BF4A0011D212F500122D
:1018C00011D20DD56FF47873B3EB62520ED44FEA98
:1018D000C12343F0004343EA505323FA02F0704718
:1018E0004FF00000704750EA013002D14FF0FF3056
:1018F00070474FF0000070474FEA4102B2F1E043F9
:1019000024BFB3F5001CDCF1FE5C0DD901F0004CE6
:101910004FEAC0024CEA5070B2F1004F40EB830036
:1019200008BF20F00100704711F0804F21D113F162
:101930003872BCBF01F00040704741F480114FEA9B
:101940005252C2F11802C2F1200C10FA0CF320FA24
:1019500002F018BF40F001004FEAC1234FEAD32341
:1019600003FA0CFC40EA0C0023FA02F34FEA4303AB
:10197000CCE77FEA625307D150EA01331EBF4FF034
:10198000FE4040F44000704701F0004040F0FE404F
:1019900040F40000704700BF4FEA40024FEA4103A5
:1019A0007FEA226C02D15FEA402C08D17FEA236CE7
:1019B00002D15FEA412C02D14FF0000070474FF096
:1019C000010070470348044B834202D0034B03B12C
:1019D0001847704780100020801000200000000091
:1019E0000548064B1B1AD90F01EBA301491002D081
:1019F000034B03B11847704780100020801000206F
:101A00000000000010B5064C237843B9FFF7DAFF59
:101A1000044B13B10448AFF300800123237010BDC1
:101A200080100020000000000804050808B5054BE0
:101A30001BB105490548AFF30080BDE80840FFF73A
:101A4000CFBF00BF0000000084100020080405087C
:101A5000002303704370837070470170427083707D
:101A60007047C170704710B50446FFF7F1FF64215D
:101A70002046FFF7F6FF204610BD82B000680190B7
:101A800000209DF8043063F307009DF8053063F3F0
:101A90000F209DF8063063F317409DF8073063F37D
:101AA0001F6002B070472DE9F0410F4616461D46F3
:101AB0000468D0F8048006E02B463246394654F8D4
:101AC000040BFFF7CAFFA045F6D1BDE8F08170B561
:101AD0000D460468466804E0294654F8040BFFF7F5
:101AE000C0FFA642F8D170BD10B5044600210068C1
:101AF00005F07EFE0023237610BD000008B5436884
:101B000002689B1AB1EBA30F00D208BD9A100148DE
:101B10001BF0C4FC3404050838B504460D460C30EF
:101B2000FFF7ECFFE36853F8250038BD4068043840
:101B3000704703684268934200D043607047406832
:101B40000438704708B50846910006F06DF908BDE5
:101B500010B5044601688268521A11B19210FFF75D
:101B6000F1FF204610BD10B50446FFF7F1FF2046F7
:101B700010BD10B584B08446019144680368E31A2F
:101B800098106FF0604EAEEBA3038B4210D303901E
:101B9000814210D803AB1B681844DCF80030E41A0B
:101BA000B0EBA40F09D3B0F1005F09D204B010BDAF
:101BB00010461BF05BFC01ABEDE76FF06040F5E712
:101BC0006FF06040F2E708B50846910006F02CF986
:101BD00008BD10B5044601688268521A11B192100E
:101BE000FFF7F1FF204610BD10B50446FFF7F1FFE7
:101BF000204610BD10B584B0844601914468036846
:101C0000E31A98106FF0604EAEEBA3038B4210D333
:101C10000390814210D803AB1B681844DCF80030F5
:101C2000E41AB0EBA40F09D3B0F1005F09D204B0FD
:101C300010BD10461BF01AFC01ABEDE76FF06040E1
:101C4000F5E76FF06040F2E708B5B1F1005F03D24D
:101C5000880006F093FE08BDB1F1804F01D31BF060
:101C6000CDFB1BF0BBFB00002DE9F84F05468A4673
:101C700093461E4A0121FFF77CFFD5F800806F686C
:101C8000AAEB0804814618B3002201462846FFF754
:101C9000DBFF0646DBF800303351002C1ADC04343D
:101CA0003444A7EB0A07002F1ADC3C44AA68A2EBD5
:101CB00008029210B8F1000F03D041462846FFF702
:101CC00041FF2E606C6006EB8906AE60BDE8F88FC0
:101CD0000026DFE72246414630463EF0BFF8DEE709
:101CE0003A46514620463EF0B9F8DEE78004050842
:101CF00010B5044643688268934208D00A681A60A7
:101D00004368043343602046FFF710FF10BD0A46C6
:101D10001946FFF7A9FFF6E7F0B585B005460F466F
:101D2000694681E80C000023036043608360144629
:101D3000019E164400E00134B4420DD0237807EB35
:101D40000313039303A92846FFF7D2FFF3E72846BE
:101D5000FFF709FF06F07EF9284605B0F0BDF0B5A3
:101D600083B005460F461646002404604460846034
:101D700000E00134A6420CDD07EB0413019301A936
:101D80002846FFF7B5FFF4E72846FFF7ECFE06F01C
:101D900061F9284603B0F0BD2DE9F04184B0064654
:101DA000684680E806009DF8288003C886E805009C
:101DB00033720024F460346174613476F461346207
:101DC000746208E00546FFF74EFE039503A9384606
:101DD000FFF78EFF0134A0450EDD06F10C0704204D
:101DE00006F0CCFDEEE706F11C00FFF7FDFE3846DD
:101DF000FFF7B9FE06F02EF9304604B0BDE8F081D9
:101E000008B5B1F1005F03D2880006F0B7FD08BD48
:101E1000B1F1804F01D31BF0F1FA1BF0DFFA0000A3
:101E20002DE9F84F05468A4693461E4A0121FFF7E1
:101E3000E1FED5F800806F68AAEB0804814618B36C
:101E4000002201462846FFF7DBFF0646DBF800309C
:101E50003351002C1ADC04343444A7EB0A07002F5A
:101E60001ADC3C44AA68A2EB08029210B8F1000FF9
:101E700003D041462846FFF7A6FE2E606C6006EBB5
:101E80008906AE60BDE8F88F0026DFE722464146AE
:101E900030463DF0E3FFDEE73A46514620463DF04E
:101EA000DDFFDEE78004050810B50446436882685C
:101EB000934208D00A681A6043680433436020469E
:101EC000FFF73DFE10BD0A461946FFF7A9FFF6E7EA
:101ED0002DE9F04F89B007463B7E002BFCD107F17E
:101EE0001C063046FFF725FEFB68D7F8109010E07F
:101EF0001923069306A93046FFF7D6FF013C002CB4
:101F000005DB0123A3401D42F2D03323F1E708F1A2
:101F10000403984699453CD0D3F800A05046FFF7FB
:101F2000ACFD00909DF801505046FFF7A6FD0190D2
:101F30009DF8073003FB05F5DFF880B08BFB053516
:101F40006D112D045046FFF798FD02909DF8084052
:101F50005046FFF792FD03909DF80F3004FB03F30A
:101F60008BFB03235B1145EA03255046FFF785FDF4
:101F700004909DF812405046FFF77FFD05909DF8B4
:101F8000173003FB04F48BFB04B445EA64151724F3
:101F9000B5E70023079307A93046FFF785FFFA69E5
:101FA0003B6A9B1AC3F38F033979386805F0D4FA7A
:101FB00001233B7609B0BDE8F08F00BF1F85EB51D0
:101FC000016002718360704770B504460D468668F3
:101FD000B6F90000FEF712FC2946FEF75BFB05464A
:101FE000B6F90200FEF70AFC01462846FEF70EFD90
:101FF0004FF07F51FEF74EFB054623681E68F06ADE
:10200000FEF7F8FB2946FEF74DFC0549FEF7FEFCFE
:10201000FEF70EFE70632179206805F01BFA70BD93
:102020000000A04170B5044690F91830002B25DD62
:1020300001228188006803F065F80022A189A06868
:1020400003F060F894F918000028B8BF4042C0B20D
:10205000FEF7D4FB0F49FEF7D9FC054623691E683D
:10206000F06AFEF7C7FB2946FEF71CFCFEF7E0FD11
:102070007063A18A206905F0EDF970BD00228188A6
:10208000006803F03FF80122A189A06803F03AF844
:10209000D8E700BF0000C84208B50176FFF7C2FFCD
:1020A00008BD84B000B50DF1080C8CE80E00864622
:1020B000BCE80F00AEE80F009CE803008EE80300C8
:1020C0005DF804EB04B0704710B590B0044681632E
:1020D0008287002280F83E200493BDF84830ADF896
:1020E0001430139B0693BDF85030ADF81C30199B8B
:1020F0000893BDF86830ADF82430159B0A93BDF8FD
:102100005830ADF82C30179B0C93BDF86030ADF80B
:1021100034301B9B0E93BDF87030ADF83C3007ABEC
:1021200093E807008DE8070004AB0ECB2046FFF7CD
:10213000B8FF10AB13E907008DE807000AAB0ECB20
:1021400004F11C00FFF7ADFF204610B010BD08B52C
:102150000122818F806B02F0D5FF08BD0160002253
:1021600042608260C260704708B542680368D21A54
:10217000914200D208BD01481BF090F934040508D3
:1021800003684268934200D043607047406801385A
:10219000704710B584B08446019144680368E31A1F
:1021A0006FF00040C01A88420ED3039399420ED8B4
:1021B00003AA10681844DCF80030E41A844208D8F6
:1021C000002809DB04B010BD10461BF04FF901AA2E
:1021D000EFE76FF00040F5E76FF00040F2E708B579
:1021E0000846114605F020FE08BD10B504460168FA
:1021F0008268521A09B1FFF7F2FF204610BD10B5F0
:102200000446FFF7F2FF204610BD08B5081E02DBAA
:1022100006F0B4FB08BD1BF0E1F800002DE9F84F13
:1022200005468A4693461D4A0121FFF7B2FFD5F8BD
:1022300000806F68AAEB0804814608B300220146BB
:102240002846FFF7E2FF06469BF800303355002C86
:1022500018DC01343444A7EB0A07002F18DC3C4497
:10226000AA68A2EB0802B8F1000F03D04146284645
:10227000FFF7B5FF2E606C604E44AE60BDE8F88F8E
:102280000026E1E72246414630463DF0E7FDE0E723
:102290003A46514620463DF0E1FDE0E7800405085E
:1022A00010B5044643688268934208D00A781A70D1
:1022B0004368013343602046FFF768FF10BD0A46BC
:1022C0001946FFF7ABFFF6E72DE9F84F05468A46BA
:1022D00093461D4A0121FFF75CFFD5F800806F6827
:1022E000AAEB0804814608B3002201462846FFF7FE
:1022F0008CFF06469BF800303355002C18DC013467
:102300003444A7EB0A07002F18DC3C44AA68A2EB70
:102310000802B8F1000F03D041462846FFF75FFFDF
:102320002E606C604E44AE60BDE8F88F0026E1E799
:102330002246414630463DF091FDE0E73A4651469F
:1023400020463DF08BFDE0E78004050808B54368B2
:102350008268934205D00A781A704368013343605B
:1023600008BD0A461946FFF7AFFFF9E7F0B589B097
:1023700007462022002168463DF0F0FD3E1D304614
:10238000FFF7FEFE4FF0FF3304226946386805F080
:1023900054FC0024032C06DC0DEB04013046FFF74F
:1023A000D5FF0134F6E79DF803500135EDB24FF04B
:1023B000FF332A4601A9386805F03FFC002405E0F8
:1023C000211D69443046FFF7C1FF0134A542F7DC07
:1023D00009B0F0BD38B515460C1A012C06DD2246B1
:1023E000014628463DF03AFD281938BD012CFBD1A5
:1023F00003781370F8E70000F8B5571A11D40446B3
:102400000D46164687B100223946FFF7FEFE02460A
:1024100022601744A76031462846FFF7DBFF606063
:10242000F8BD02481BF022F80022F1E79C040508E1
:1024300010B582B0044602AB03E906000023036036
:10244000436083600A44FFF7D7FF04E02046FFF7AC
:10245000CCFE05F0FFFD204602B010BD30B589B0BE
:1024600004460D461D4B1B88ADF8183006AB04938F
:102470000223059307AB04AA06CA01A8FFF7D8FFF9
:102480008DF81D500DF11D0101A8FFF709FF002374
:102490008DF81E300DF11E0101A8FFF701FFFA2390
:1024A0008DF81F300DF11F0101A8FFF7F9FE01990A
:1024B000029A521A4FF0FF3392B2206805F051FB96
:1024C0002046FFF753FF01A8FFF799FE09B030BD82
:1024D00001A8FFF794FE05F0BDFD00BF200405082C
:1024E000F8B505460E468121FFF7B8FF2F1D0421E0
:1024F0003846FFF739FE6B681C79240205213846FF
:10250000FFF732FE6B685B791C433460F8BD002036
:10251000704700002DE9F04784B00546D0F804C0AC
:10252000BCF8016006F0030A8DF808A0C6F3810923
:102530008DF80990C6F301188DF80A80C6F381174B
:102540008DF80B70C6F301268DF80C600CF10800B5
:10255000BCF8051000231C4604E0C25C2244D4B23F
:1025600001339BB29942F8D89CF80030AA2B03D1D2
:102570009CF80730A34226D0B649B74825F000FCA6
:102580006B681B78AA2B0AD16B68DB79A3420BD14D
:10259000B14825F08DFA012004B0BDE8F087AF49BD
:1025A000AD4825F0EDFBEFE7AD49AB4825F0E8FB82
:1025B000214625F0A5FCAB4925F0E2FB6B68D979F3
:1025C00025F09EFCE4E7002300930193AA238DF8F5
:1025D0000030BB0143EA062343EA081343EA8903B8
:1025E0004AEA0303ADF80130D5F8100104F026FAE9
:1025F0009D4B5A6A42F480525A625A6A22F48052BF
:102600005A620A236A68A968D5F8100104F0F0F844
:10261000BAF1010F00F08F80BAF1020F09D1AB6857
:10262000EA6812689A6004238DF8053000238DF85B
:102630000630B9F1010F00F08980B9F1020F22D103
:10264000AA68BDF8059009F10800E9680B1D02446D
:102650003431D3F800E0D3F804C09C68D868C2F8DD
:1026600000E0C2F804C09460D060103310328B4296
:10267000EFD1186859689B6810605160936009F148
:102680003C09ADF80590B8F1010F00F08280B8F177
:10269000020F17D1AC68BDF8053003F1080021180E
:1026A000EA68D2F84080D2F844E0D2F848C0D26C50
:1026B00044F80080C1F804E0C1F808C0CA601033D3
:1026C000ADF80530012F79D0022F1FD1D5F8088041
:1026D000BDF8051001F1080E08EB0E02EB68D3F807
:1026E00050C05F6D9C6DD86D48F80EC05760946007
:1026F000D060D3F860C05F6E9C6ED86EC2F810C018
:1027000057619461D0612031ADF80510012E74D06D
:10271000022E0ED1A868BDF8053003F10801441857
:10272000EA68166F4650B2F87420A2800633ADF8FE
:102730000530002375E0EB686A6892681A6004232C
:102740008DF8033000238DF8043072E7EA686B6877
:10275000BDF803E00EF108010B44043203F1300927
:10276000D3F800C05C689868D968C2F800C05460AB
:102770009060D160103310324B45F1D11868596820
:102780009B681060516093600EF13C0EADF803E061
:1027900079E7EA686C68BDF8033003F10800211896
:1027A00054F800C04C688868C968C2F840C05464D6
:1027B0009064D1641033ADF8033083E7EB686C6844
:1027C000BDF8031001F10800221854F800C0576842
:1027D0009468D068C3F850C05F659C65D865D2F82E
:1027E00010C057699469D069C3F860C05F669C6681
:1027F000D8662031ADF8031088E7EA686868BDF84C
:10280000033003F10801441841581167A188A2F868
:1028100074100633ADF803308BE7AA681A441372BC
:102820000133BDF805109942F7DCAD6805F10804E5
:1028300000231A4604E0E05C0244D2B201339BB2AA
:102840009942F8D88DF807206B4603CB2860696061
:102850000020A1E6D8040508881B00200C05050807
:102860002405050840050508003802400160426063
:10287000836000231370704710B586B0044664234C
:102880000293012301930DF1170200921B22D02124
:102890001A4803F027F868BB9DF8173003F0E003EF
:1028A0008DF8173022681288B2F57A7F18D0B2F509
:1028B000FA6F1AD0B2F5FA7F03D143F008038DF80E
:1028C000173064230293012301930DF11702009244
:1028D0001B22D021094802F053FF68B906B010BD91
:1028E00043F010038DF81730EBE743F018038DF831
:1028F0001730E6E70120F1E70120EFE7941600200A
:1029000000B587B003689B788DF817306423029375
:10291000012301930DF1170200921B22D0210448DC
:1029200002F02EFF10B907B05DF804FB0120FAE7B2
:102930009416002010B586B0044664230293012348
:1029400001930DF1170200921C22D021194802F0C8
:10295000C9FF50BB9DF8173003F070038DF8173096
:102960002268D278082A16D0102A19D0042A03D156
:1029700043F008038DF81730642302930123019379
:102980000DF1170200921C22D0210A4802F0F8FE35
:1029900068B906B010BD43F010038DF81730EBE7AF
:1029A00043F018038DF81730E6E70120F1E7012026
:1029B000EFE700BF941600202DE9F04F8FB00446DA
:1029C0000D46642302930E2301930AAB0093012367
:1029D0003B22D021614802F085FF0490002840F09E
:1029E000BA809DF828309DF8290040EA032000B203
:1029F000ADF820009DF82A309DF82BA04AEA032A62
:102A00000FFA8AFAADF822A09DF82C309DF82D908F
:102A100049EA03290FFA89F9ADF824909DF82E3080
:102A20001B021BB29DF82F2043EA020B9DF83030A9
:102A30009DF8318048EA03280FFA88F8ADF818802D
:102A40009DF832309DF8337047EA03273FB2ADF866
:102A50001A709DF834309DF8356046EA032636B288
:102A6000ADF81C60FDF7CAFE3D49FDF7CFFF0590AC
:102A70002368D878FDF7BEFE01460598FDF712FFE2
:102A800068605046FDF7BAFE3549FDF7BFFF824644
:102A90002368D878FDF7AEFE01465046FDF702FFE9
:102AA000A8604846FDF7AAFE2D49FDF7AFFF814615
:102AB0002368D878FDF79EFE01464846FDF7F2FEF2
:102AC000E8605846FDF79AFE2649FDF79FFF264924
:102AD000FDF7E0FD28604046FDF790FE2049FDF738
:102AE00095FF804623681888FDF784FE014640461E
:102AF000FDF7D8FEA3681968FDF7CAFD28613846BE
:102B0000FDF77CFE1649FDF781FF0746236818880C
:102B1000FDF770FE01463846FDF7C4FEA36859680C
:102B2000FDF7B6FD68613046FDF768FE0C49FDF71C
:102B30006DFF064623681888FDF75CFE01463046A7
:102B4000FDF7B0FEA3689968FDF7A2FDA86104989F
:102B50000FB0BDE8F08F01230493F8E7941600202E
:102B600000FEFF460000AA43B81E124230B58BB0EB
:102B7000054600240394049405940694079408944D
:102B80000994009401940294436802221A7017E099
:102B900003A92846FFF710FF07990098FDF77AFD73
:102BA000009008990198FDF775FD01900999029828
:102BB000FDF770FD0290142001F0E4FC0134E4B252
:102BC0002B681879A042E3D8FDF714FE014600985F
:102BD000FDF71CFFAC682168FDF75CFD20602B68E9
:102BE0001879FDF707FE01460198FDF70FFFAC6865
:102BF0006168FDF74FFD60602B681879FDF7FAFDFD
:102C000001460298FDF702FFAC68A168FDF742FD9E
:102C1000A0606B6803221A700BB030BD00B503468C
:102C200001FB01FC0CFB01FE0EFB01F201209942AD
:102C30000AD8634507D3734508D3934208D3B3FB3F
:102C4000F2F30430F3E701305DF804FB0230FBE7F8
:102C50000330F9E770B5B4B005460E461446C922F4
:102C6000194901A8FEF7BCFA711E15E0174AA2FB2C
:102C700004325309642000FB13435B00540903F141
:102C8000D1026A4412F8CC2C6A544A1ED0336B44E9
:102C900013F8CC3CAB540239632CE7D8092C0FD97C
:102CA000640004F1D1036B4413F8CC3C6B7004F165
:102CB000D0030DEB030414F8CC3C2B7034B070BD82
:102CC00030342C70FAE700BF4C0505081F85EB5126
:102CD00070B582B00446084694464D68526802EBCF
:102CE000050E51F8083B994216D081688E4508D9E7
:102CF000614651F8086B8E4210D0DCF808108E4502
:102D00000ED9DCF8001026F021F80146204625F007
:102D100057FE204602B070BD0F21E7E70F21EEE716
:102D2000009500221146604625F0CAFF0146204664
:102D300025F046FEEDE710B5044600F108030360F8
:102D400025F094FD204610BDF0B583B00546CF0FA9
:102D5000002914DB0C460A212046FFF75FFF0646D8
:102D600001AB2D2239182846FFF7E5FF28682246D7
:102D700031463844FFF76EFF284603B0F0BD4C42A1
:102D8000E9E770B582B004460E46551A01950F2D3D
:102D90000DD800942A463146206825F08FFD002288
:102DA0000092019B63602168CA5402B070BD00228A
:102DB00001A925F02BFD2060019BA360E9E700003D
:102DC00038B500F10803036069B104460D460846B2
:102DD000FEF7B6FA4FF000032A1829462046FFF7FF
:102DE000D0FF204638BD01481AF028FB1806050818
:102DF00010B5A0B004460A466423D0213D4802F035
:102E0000E3FEC0B96268012313708DF817306422A5
:102E1000029201930DF1170200926B22D0213548E6
:102E200002F0AEFC58BB2046FFF76AFD00283BD0FD
:102E3000012020B010BD082005F064F8044612AA55
:102E40002D490CA8FFF7BCFFD02113A8FFF77CFF8A
:102E500013AA0CA906A8FFF73BFF06A9204614F009
:102E6000FFFF06A825F0FAFC13A825F0F7FC0CA834
:102E700025F0F4FC214A2249204605F02DFD0820CA
:102E800005F040F804461FAA1E4919A8FFF798FF4D
:102E900019A9204614F0E4FF19A825F0DFFC174A11
:102EA0001749204605F018FD2046FFF7E5FC08B15C
:102EB0000120BEE72046FFF73DFD0028B9D00120E4
:102EC000B7E706A825F0CAFC13A825F0C7FC0CA894
:102ED00025F0C4FC204605F02DF805F0BBF8F3E71B
:102EE000F8E719A825F0BAFC204605F023F805F00C
:102EF000B1F8F9E7941600204C06050865AC000807
:102F0000E82D05087406050801607B2280F824205E
:102F100070470368E0221A80036892229A7003685F
:102F20003D22DA7003684FF4FA729A800268002337
:102F3000937102680421D1710268642111720268E0
:102F4000012191720168FF22CA7201680B73016846
:102F50004B7301684FF00A0C81F80EC001680B82B8
:102F6000016841F2707CA1F812C0016840F6B83CDB
:102F7000A1F814C001684A7601688A760168CA76A9
:102F800001680A7702685377026893770268BF2165
:102F9000917502683F21D175026813767047000071
:102FA00070B506460025374C10E03749374824F005
:102FB000E7FE294624F0A4FF354924F0E1FE14F889
:102FC000011B24F09DFF24F073FD0135132DECDD72
:102FD0002C4B1A7896F824309A4250D13268294BFB
:102FE0005978917032689978D1703268D978917136
:102FF00032681979D17132685979117231689A79C8
:10300000003A18BF01228A723268D979D1723268C7
:10301000197A11733268597A51733268997A9173B7
:103020003268D97A51763268197B91763268597B49
:10303000D1763268997B11773268D97B51773268C3
:10304000197C91773268597C91753268997CD17579
:103050003268D97C11763268998A11803268198B6E
:1030600091803268B3F91C1011823268B3F92010D4
:1030700051823268B3F924309382002070BD012060
:10308000FCE700BF0000060890060508881B00202A
:10309000EC08050870B58EB00023089302230C934A
:1030A00007230A9301230B9390F824308DF80C30FA
:1030B00003689A788DF80D20DA788DF80E209A79C9
:1030C0008DF80F20DA798DF810201A7A8DF81120FA
:1030D0009A7A8DF81220DA7A8DF813201A7B8DF8FF
:1030E00014205A7B8DF815209A7B8DF816205A7E75
:1030F0008DF817209A7E8DF81820DA7E8DF8192029
:103100001A7F8DF81A205A7F8DF81B209A7F8DF830
:103110001C209A7D8DF81D20DA7D8DF81E201A7EE8
:103120008DF81F201A88ADF800209A88ADF802208B
:10313000B3F91020ADF80420B3F91220ADF8062041
:10314000B3F91430ADF8083001F0A6FD18B101262E
:1031500030460EB070BD2D4BF322DA600DA908A8E1
:1031600001F092FE064610B903AD294C08E001F0CB
:10317000ABFD0126ECE70134264B9C420DD801350E
:1031800008AB9D420DD000202A780346214601F06D
:10319000D5FD0028EFD00126EDE701F095FD0126D1
:1031A000D6E76D4604E002341A4B9C420ED8023535
:1031B0000DF10A039D420DD02A88002321460120EB
:1031C00001F0BCFD0028EED00126ECE701F07CFD0B
:1031D0000126BDE701F078FDB0B900250C4C10E0E8
:1031E0000D490E4824F0CCFD294624F089FE0C49F7
:1031F00024F0C6FD14F8011B24F082FE24F058FCD4
:103200000135132DECDDA3E70126A1E7003C0240C8
:1032100000000608FFFF070890060508881B00202D
:10322000EC0805082DE9F04188B0002403940494CB
:103230000594069407940094474B1A6B42F00402DD
:103240001A631A6B02F004020092009A01941A6B3E
:1032500042F001021A631A6B02F001020192019A14
:1032600002941A6B42F002021A631B6B03F0020312
:103270000293029B394F22464FF49C71384601F06D
:1032800041FF374E224640F60C01304601F03AFF2E
:103290004FF48C730393012504950594069403A9B8
:1032A000384601F03BFE0323039304944FF00208D9
:1032B000CDF8148003A9304601F030FE0C230393AF
:1032C0000495CDF8148006940DEB0301304601F00F
:1032D00025FE102303934FF488130493059503A947
:1032E000304601F01BFE2023039304950594CDF88E
:1032F000188003A9384601F011FE072303930494B4
:103300000594DFF8608003A9404601F007FE4FF402
:10331000404303930494059503A9404601F0FEFD44
:103320004FF4007303930494059403A9384601F005
:10333000F5FD4FF400630393112304930595069460
:1033400003A9304601F0EAFD224621460A2001F099
:1033500073F908B0BDE8F08100380240000802406F
:10336000000002400004024010B582B00024009426
:103370001A4B1A6B42F480021A631A6B02F4800231
:103380000092009A01941A6B42F400121A631B6BAC
:1033900003F400130193019B224621460C2001F007
:1033A0004BF90C2001F058F922462146102001F07B
:1033B00043F9102001F050F922462146382001F04F
:1033C0003BF9382001F048F922462146442001F01B
:1033D00033F9442001F040F902B010BD003802403A
:1033E0002DE9F04F9DB0814C21468148FFF78CFDBF
:1033F000804E81493046FEF7B1FE804D2A46804915
:10340000304604F08DFCA4F15006A4F110033246BE
:10341000211D7C48FFF72AFA7B4B1A467B4942F86C
:10342000101B5A6003F190029A60DE60784A1A60BD
:10343000784B0C9300248DF83440DFF8DC810923AD
:10344000009323460CAA06CA4046FEF7A5FC734E1D
:103450002A463146404604F063FCDFF8C4910EAAC8
:1034600099E8030082E803006E4F4FF0040ACDF89C
:1034700000A0012306CA3846FEF78EFC2A463146D4
:10348000384604F04DFC21464046FEF745FB014618
:10349000DFF894B101225846FEF761FC634E2A46DC
:1034A0003146584604F03CFC01214046FEF734FB0F
:1034B0000146DFF87C8108224046FEF750FC2A4690
:1034C0003146404604F02CFC21463846FEF724FBEA
:1034D00001468DF8484003238DF8493012AB109314
:1034E0004FF00208CDF84480DFF848B110AB0CCBA8
:1034F0005846FEF711FC2A463146584604F010FCA7
:1035000021463846FEF708FB0146B9F80830ADF809
:10351000543015AB1393CDF85080DFF81CB113ABCA
:103520000CCB5846FEF7F8FB2A463146584604F0C5
:10353000F7FB21463846FEF7EFFA01468DF860406A
:1035400001238DF8613018AB1693CDF85C80DFF85D
:10355000ECB016AB0CCB5846FEF7DEFB2A463146E4
:10356000584604F0DDFB21463846FEF7D5FA014601
:10357000B9F80C30ADF86C301BAB1993CDF86880FE
:103580002F4F19AB0CCB3846FEF7C6FB2A46314607
:10359000384604F0C5FB2B4E2B4D334622462946B8
:1035A0002A48FEF70DFD3346524629462848FEF7C5
:1035B00007FD2849CDF828A0274B099308940793C5
:1035C0004FF40073069305914FF4807304930391B5
:1035D000102302930191082300930B4620221F48D9
:1035E000FEF772FD1DB0BDE8F08F00BF3413002060
:1035F000BC120020AC120020A0130020000000200C
:10360000953E0008A01200208C1100205C230508C4
:10361000682305083415002064110020AF3E00081F
:10362000240405083C11002030110020A33E0008AE
:1036300024110020181100200C110020001100207E
:10364000F410002004000020A4140020E810002042
:10365000DC10002000080240EC1400209C10002028
:1036600000B583B001904FF6FF73012201A906480F
:1036700004F077FA054B1B680021986839F0B6FE14
:10368000019803B05DF804FB5C130020480700209C
:1036900008B5044B834200D008BD0348FEF724FA66
:1036A000FAE700BF3415002064110020102800D074
:1036B000704738B5184B5B78022B00D038BD174BDC
:1036C0001B685D681649174824F05AFBADB22946BD
:1036D00024F01AFC144924F053FB002409E0134B96
:1036E0002344197C0F4824F00BFC114924F048FBBB
:1036F0000134A542F3DC0B4824F0DAF90D4803F05D
:103700009DF90D4B5A6A42F480525A625A6A22F469
:1037100080525A62D2E700BFE4120020DC1500207C
:103720009C060508881B0020BC0605088C1100209B
:10373000A01005083C1600200038024008B50C49CE
:103740000C4824F01DFB24F0B3F900231A46FF2196
:103750000948FEF7A8F90948FEF7BAFB0022042140
:10376000074801F0CFFC074B03225A7072B6FEE700
:10377000C0060508881B00203011002064110020BD
:1037800000000240E412002008B50A480A4B03601A
:103790004FF4E133436000238360C36003610C2274
:1037A00042618361C36104F0ADF900B908BDFFF760
:1037B000C5FF00BF5C1300200010014008B50B4896
:1037C0000B4B0360002343608360C360036143616C
:1037D0004FF4007282610362436283620A23C36210
:1037E00002F0A6FF00B908BDFFF7A8FF3C160020B5
:1037F0000030014000B58FB000230A930B930C9367
:103800000D930893099301930293039304930593F3
:103810000693079321484FF0804202604360836023
:103820006422C2600361836103F07CFC50BB4FF4EF
:1038300080530A930AA9194803F07EFD20BB17485C
:1038400003F09CFC10BB00230893099308A91348BC
:1038500004F048F8E0B96023019300220292039239
:10386000059201A90D4803F0EDFC98B9082201A9C1
:103870000A4803F0E7FC78B9084800F07FFC0FB075
:103880005DF804FBFFF75AFFFFF758FFFFF756FFFD
:10389000FFF754FFFFF752FFFFF750FF34150020EA
:1038A00000B58FB000230A930B930C930D930893EC
:1038B000099301930293039304930593069307934B
:1038C0002248234A0260436083604FF6FF72C26061
:1038D0000361836103F026FC58BB4FF480530A93C5
:1038E0000AA91A4803F028FD28BB184803F046FC33
:1038F00018BB00230893099308A9144803F0F2FFAA
:10390000E8B960230193002202920392059201A973
:103910000E4803F097FCA0B904220DEB02010B48FE
:1039200003F090FC78B9094800F028FC0FB05DF86E
:1039300004FBFFF703FFFFF701FFFFF7FFFEFFF7B1
:10394000FDFEFFF7FBFEFFF7F9FE00BFEC140020C1
:103950000004004000B58FB000230A930B930C9332
:103960000D93089309930193029303930493059392
:10397000069307932248234A02601922426083601B
:103980004FF6E752C2600361836103F0CBFB58BB83
:103990004FF480530A930AA9194803F0CDFC28BBC1
:1039A000174803F0EBFB18BB00230893099308A901
:1039B000134803F097FFE8B96023019300220292B5
:1039C0000392059201A90E4803F03CFCA0B9042221
:1039D0000DEB02010A4803F035FC78B9084800F005
:1039E000CDFB0FB05DF804FBFFF7A8FEFFF7A6FEC6
:1039F000FFF7A4FEFFF7A2FEFFF7A0FEFFF79EFE73
:103A0000A41400200008004008B50A480A4B0360CF
:103A10004FF4E133436000238360C36003610C22F1
:103A200042618361C36104F06DF800B908BDFFF71E
:103A300085FE00BFA0130020004C004008B50A48D6
:103A40000A4B03600A4B436000238360C3604FF45A
:103A50008042026143618361C361036201F0B2FD90
:103A600000B908BDFFF76AFE94160020005400401C
:103A7000801A060000B595B03422002107A83CF05A
:103A80006DFA002302930393049305930693009326
:103A9000224A116C41F080511164126C02F0805284
:103AA0000092009A01931E4A116841F4404111604E
:103AB000126802F440420192019A02220792012107
:103AC0000A9110210B910D920E9308230F93B423AA
:103AD000109311921292139207A802F0E7FAB0B96C
:103AE00002F03CF9A8B90F230293022303930023A9
:103AF00004934FF4A05305934FF48053069305218C
:103B000002A802F069F930B915B05DF804FBFFF7BF
:103B100015FEFFF713FEFFF711FE00BF003802404D
:103B200000700040F8B500F001FDFFF7A3FFFFF7BC
:103B300079FBFFF719FCFFF727FEFFF73FFEFFF7C2
:103B400059FEFFF7ADFEFFF705FFFFF75DFFFFF73B
:103B500075FFAE49AE4824F013F923F0A9FFAD4B31
:103B600001225A70AC4C05212046FDF7B0FFFF231F
:103B7000002211462046FDF796FFA848FEF7A8F957
:103B8000A74C2046FFF7C5F92046FFF783FA38B166
:103B9000A4499F4824F0F4F823F08AFFFFF7CEFDF4
:103BA000A1499B4824F0ECF823F082FF9C48FFF7E2
:103BB000F7F938B19D49964824F0E2F823F078FFF0
:103BC000FFF7BCFD9A49924824F0DAF823F070FF21
:103BD00003219848FFF70CF908B1FFF7AFFD8C4EB1
:103BE0009549304624F0CCF823F062FF642000F0C1
:103BF000C9FC924D01224FF40061284601F082FA7F
:103C00000A2000F0BFFC00224FF40061284601F0BA
:103C100079FA80228A498B4802F092FE8A4C20462B
:103C2000FEF795FA00218948FEF7CEF900212046DB
:103C3000FEF732FA0023FF2219467748FDF733FFDB
:103C4000744C94F85A1094F85E3011FB03F1804FD5
:103C5000C9B23846FDF73BFF94F85D3094F85C201C
:103C600094F85B103846FDF71EFF6C48FEF730F9FC
:103C70007849304624F084F823F01AFF0223637059
:103C800001220421284601F03DFA0A2000F0E4FC5C
:103C9000AFE071495E4824F073F823F009FF6048F3
:103CA000FFF7F8F930B16D49594824F069F823F06D
:103CB000FFFEA4E0574B002283F870206849544867
:103CC00024F05EF823F0F4FE99E0514C654920465B
:103CD00024F056F823F0ECFE5648FEF747FF4D4B14
:103CE000002283F871206049204624F049F823F02F
:103CF000DFFE5E4C21464F48FEF75EFE04F13801C0
:103D00005B48FEF7EDFB424D5A49284624F038F84F
:103D100023F0CEFE5849284624F032F803460268C4
:103D200052F80C2C134402225A60A16B24F0E8F8DC
:103D3000524924F025F823F0BBFE5149284624F0CF
:103D40001FF805466068FCF7BFFB02460B46284695
:103D500024F080F94B4D294624F012F80646A0685D
:103D6000FCF7B2FB02460B46304624F073F92946B5
:103D700024F006F80646E068FCF7A6FB02460B4670
:103D8000304624F067F9404923F0FAFF06462069DF
:103D9000FCF79AFB02460B46304624F05BF92946B5
:103DA00023F0EEFF06466069FCF78EFB02460B46E9
:103DB000304624F04FF9294623F0E2FF0546A0697A
:103DC000043CFCF781FB02460B46284624F042F9EE
:103DD0002E4923F0D5FF05466068FCF775FB0246C7
:103DE0000B46284624F036F9294923F0C9FF23F071
:103DF0005FFE084B93F87030002B7FF44AAF054B01
:103E000093F87130002B7FF460AF72E7DC06050891
:103E1000881B0020E41200203011002064110020D3
:103E2000BC120020F80605082C07050854070508F1
:103E300088070508A0120020BC0705080000024002
:103E40009C1100203C1600209C100020E81000204F
:103E500024110020E0070508F807050818080508E0
:103E6000500805088C080508B4080508E812002069
:103E7000AC120020D8080508E4080508F008050879
:103E8000F4080508FC080508000905080C090508E0
:103E90001809050810B504460430FEF7B0F92046AD
:103EA00010BD10B50446FDF75EFE204610BD10B5EE
:103EB00004461C30FDF798FE04F10C00FDF753FE9C
:103EC000204610BD08B5FFF78BFA08BD82B000216F
:103ED00000910B4B5A6C42F480425A645A6C02F4C3
:103EE00080420092009A01911A6C42F080521A644A
:103EF0001B6C03F080530193019B02B0704700BF1D
:103F00000038024030B589B0002303930493059331
:103F1000069307930268144B9A4201D009B030BD52
:103F200000250195114C236B43F002032363236B9F
:103F300003F002030193019B4FF440730393122398
:103F40000493032306930423079303A9084800F06E
:103F5000E5FF0295236C43F400132364236C03F400
:103F600000130293029BD9E700540040003802403E
:103F70000004024030B589B00023039304930593F5
:103F8000069307930268354B9A4201D009B030BDC1
:103F900004460025019503F584335A6C42F480529F
:103FA0005A645A6C02F480520192019A02951A6B7B
:103FB00042F001021A631B6B03F001030293029BA0
:103FC000E02303930223049303230693052307931B
:103FD00003A9234800F0A2FF2248234B03604FF0BF
:103FE000C06343608560C5604FF4806303614561D1
:103FF0008561C5614FF480330362456200F0C8FB00
:1040000028BB184BE3649C631848194B03604FF0BE
:10401000C0634360402383600023C3604FF4806229
:10402000026143618361C3614FF480320262436283
:1040300000F0AEFB70B90D4BA3649C6300221146E7
:10404000232000F0F9FA232000F006FB9EE7FFF79B
:1040500075FBD6E7FFF772FBEDE700BF00300140CC
:1040600000000240DC150020106402407C15002096
:104070008864024010B584B00368B3F1804F07D064
:10408000374A934251D0374A93425BD004B010BDB7
:10409000044600230193344A116C41F0010111647C
:1040A000126C02F001020192019A3048304A02601B
:1040B0004FF0C062426040228260C3604FF4806271
:1040C00002614FF4805242614FF480428261C361C9
:1040D0000362436200F05CFB08BB244B63629C6399
:1040E0002448254B03604FF0C06343604023836046
:1040F0000023C3604FF4806202614FF4805242613A
:104100004FF480428261C3610362436200F040FB6E
:1041100040B9184B23629C63E3629C63B6E7FFF7E8
:104120000DFBDAE7FFF70AFBF3E7002302930E4BE0
:104130001A6C42F002021A641B6C03F00203029331
:10414000029BA3E700230393074B1A6C42F004027F
:104150001A641B6C03F004030393039B96E700BFF0
:1041600000040040000800400038024044140020D1
:1041700088600240E413002028600240F0B58BB054
:104180000023059306930793089309930368B3F1FB
:10419000804F07D0394A934234D0394A934254D0A1
:1041A0000BB0F0BD0024019403F50E331A6B42F0FE
:1041B00002021A631A6B02F002020192019A02943F
:1041C0001A6B42F001021A631B6B03F001030293A6
:1041D000029B4FF4806305930227069703260896F7
:1041E0000125099505A9274800F098FE4FF40043E2
:1041F0000593069707940896099505A9224800F0AB
:104200008DFECDE700250395204B1A6B42F002028C
:104210001A631B6B03F002030393039B10230593A4
:1042200002240694032308930994164E05A93046E8
:1042300000F074FE202305930694079508950994D1
:1042400005A9304600F06AFEAAE7002304930F4B4D
:104250001A6B42F002021A631B6B03F00203049311
:10426000049BC0230593022306930322089209931B
:1042700005A9044800F052FE92E700BF0004004088
:1042800000080040000402400000024000380240E4
:1042900000B58BB000230593069307930893099309
:1042A0000368284A934205D0274A934226D00BB090
:1042B0005DF804FB00210191244B1A6C42F40022AA
:1042C0001A641A6C02F400220192019A02911A6B8C
:1042D00042F004021A631B6B03F004030293029B77
:1042E0004FF44063059302230693032308930823A6
:1042F000099305A9164800F011FED8E700210391A3
:10430000124B5A6C42F010025A645A6C02F01002BE
:104310000392039A04911A6B42F001021A631B6B19
:1043200003F001030493049B4FF4C063059302233D
:104330000693032308930723099305A9054800F072
:10434000EDFDB4E7004C0040001001400038024091
:104350000008024000000240FEE7FEE7FEE7FEE73D
:10436000FEE770477047704708B500F0F9F808BDE0
:1043700008B5102000F0CCFE08BD000008B50248CA
:1043800000F0FEFA08BD00BFE413002008B50248A3
:1043900000F0F6FA08BD00BF4414002008B502483A
:1043A00002F074FC08BD00BF3C16002008B50248AE
:1043B00000F0E6FA08BD00BFDC15002008B5024891
:1043C00000F0DEFA08BD00BF7C1500200120704718
:1043D00008B53EF0FDFE162303604FF0FF3008BD28
:1043E00008B54FF0FF31FFF7F3FFFEE770B50C465D
:1043F0001646002506E0AFF30080214601F8010BC8
:1044000001350C46B542F6DB304670BD70B50C4642
:104410001646002504E014F8010BFFF721F90135D9
:10442000B542F8DB304670BD4FF0FF3070474FF4B7
:1044300000534B60002070470120704700207047F8
:1044400010B503460C4A0D490D48006840B10C48B0
:1044500000680344521A934206D8094A136010BDFB
:104460000748084C0460F2E73EF0B2FE0C230360FC
:104470004FF0FF30F3E700BF00000220000400000F
:10448000EC1600207832002070470000DFF834D0AE
:104490000D480E490E4A002302E0D458C45004339C
:1044A000C4188C42F9D30B4A0B4C002301E0136073
:1044B0000432A242FBD3FFF7E7FF3EF0FBFEFFF71B
:1044C00031FB704700000220000000208010002017
:1044D000201306088010002078320020FEE700003C
:1044E00010B504460E4B1A784FF47A73B3FBF2F30F
:1044F0000C4A1068B0FBF3F000F0BCF868B90F2C60
:1045000001D901200AE0002221464FF0FF3000F0DF
:1045100093F8054B1C60002000E0012010BD00BF97
:1045200014000020100000201800002008B50B4BDC
:104530001A6842F400721A601A6842F480621A60C3
:104540001A6842F480721A60032000F063F80F20AA
:10455000FFF7C6FFFFF7BAFC002008BD003C024091
:10456000034A1168034B1B780B441360704700BF6C
:10457000F016002014000020014B1868704700BF9F
:10458000F016002038B50446FFF7F6FF0546B4F1F3
:10459000FF3F02D0044B1B781C44FFF7EDFF401B8C
:1045A000A042FAD338BD00BF14000020002808DB69
:1045B0000901C9B200F1604000F5614080F80013C4
:1045C000704700F00F000901C9B2014B1954704740
:1045D00014ED00E000B500F00700C0F1070CBCF1DD
:1045E000040F28BF4FF0040C031D062B0FD9C31E68
:1045F0004FF0FF3E0EFA0CF021EA000199400EFA4E
:1046000003FE22EA0E0241EA02005DF804FB0023E9
:10461000EEE70000074AD36823F4E0631B041B0C99
:10462000000200F4E060034343F0BF6343F400334F
:10463000D360704700ED00E010B50446054BD86824
:10464000C0F30220FFF7C6FF01462046FFF7AEFF8A
:1046500010BD00BF00ED00E0002807DB00F01F02E6
:10466000400901239340024A42F82030704700BFBE
:1046700000E100E00138B0F1807F0BD24FF0E02381
:104680005861054AF02182F8231000209861072222
:104690001A6170470120704700ED00E030B40568F2
:1046A0002C6824F480242C60046863608368402BA9
:1046B00005D0036899600368DA6030BC704703680E
:1046C0009A600368D960F8E710B40368D9B210396A
:1046D000094AA2FB01421209084CA25CC2655F298B
:1046E00006D96FF3090304338365806D10BC7047EE
:1046F0006FF309038365F8E7ABAAAAAA8423050828
:10470000836A826992B9012B0AD0022B02D00BB1C5
:1047100000207047C36A13F0807F28D100207047C3
:10472000C36AB3F1C07F24D000207047B2F5005FA8
:1047300009D0022B25D9032B25D1C36A13F0807F22
:1047400023D100207047032B03D8DFE803F01404C3
:10475000140A00207047C36A13F0807F0DD1002037
:104760007047C36AB3F1C07F09D0002070470120B1
:1047700070470120704701207047012070470120D9
:1047800070470120704700207047012070470000EB
:1047900070B50446FFF7F0FE002C5BD005460223FF
:1047A00084F83530002384F834302268136823F00D
:1047B0000103136023681A6812F0010F0AD0FFF793
:1047C000DBFE431B052BF5D920236365032084F80A
:1047D000350070BD1A68204911406268A068024324
:1047E000E06802432069024360690243A069024312
:1047F000E0690243206A02430A43616A04291ED029
:104800001A602668756925F00705636A1D43042B45
:1048100007D1A36A1D43E36A1BB12046FFF770FF6F
:1048200090B975612046FFF74FFFE26D3F2393403B
:10483000836000206065012384F83530C9E7E16AB0
:10484000206B01430A43DBE740236365012084F8C2
:104850003500BEE70120BCE73F8010F038B50446C4
:10486000856D90F8340001282BD0012084F83400A5
:1048700094F83500C0B2012804D0002384F8343005
:10488000022038BD022084F83500002060652046F3
:10489000FFF704FFE26D3F239340AB60226813688B
:1048A00043F016031360236C23B12268136843F0AE
:1048B000080313602268136843F0010313600020AB
:1048C000DFE70220DDE770B50446866DFFF754FE92
:1048D00094F83530DBB2022B06D0802363650023C9
:1048E00084F83430012070BD05462268136823F037
:1048F000160313602268536923F080035361236C0D
:10490000E3B12268136823F0080313602268136878
:1049100023F00103136023681B6813F0010F11D00B
:10492000FFF72AFE431B052BF5D9202363650320DF
:1049300084F83500002384F83430D4E7A36C002BCE
:10494000DFD1E3E7E26D3F239340B360012384F8B6
:104950003530002084F83400C5E790F83530DBB2FC
:10496000022B03D08023436501207047052380F884
:1049700035300268136823F001031360002070478C
:10498000F0B583B0044600230193724B1D68724B4F
:10499000A3FB0535AD0A876D3E68C26D08239340C1
:1049A000334210D003681A6812F0040F0BD01A6853
:1049B00022F004021A60C26D08239340BB60436D6D
:1049C00043F001034365E26D01239340334209D074
:1049D0002268526912F0800F04D0BB60636D43F00F
:1049E00002036365E26D04239340334209D02268D9
:1049F000126812F0020F04D0BB60636D43F0040331
:104A00006365E26D10239340334224D0226812681C
:104A100012F0080F1FD0BB6023681A6812F4802FB1
:104A20000DD01B6813F4002F04D1236C9BB12046DA
:104A3000984710E0A36C73B1204698470BE01A68C2
:104A400012F4807F03D11A6822F008021A60236CE6
:104A50000BB120469847E26D20239340334255D056
:104A60002268126812F0100F50D0BB6094F83530F5
:104A7000DBB2052B0ED023681A6812F4802F33D0D6
:104A80001B6813F4002F2AD1636C002B3ED0204604
:104A900098473BE02268136823F0160313602268EE
:104AA000536923F080035361236CA3B12268136818
:104AB00023F008031360E26D3F239340BB600123A2
:104AC00084F83530002384F83430236D002B3FD038
:104AD000204698473CE0A36C002BE7D1EBE7E36B63
:104AE000A3B12046984711E01A6812F4807F09D1DB
:104AF0001A6822F010021A60012384F8353000236E
:104B000084F83430E36B0BB120469847636DFBB1FA
:104B1000636D13F0010F17D0052384F83530226838
:104B2000136823F001031360019B01330193AB422F
:104B300004D823681B6813F0010FF5D1012384F812
:104B40003530002384F83430E36C0BB120469847AD
:104B500003B0F0BD10000020B5814E1B10B4094910
:104B60000C6924F440740C610C6944F440740C61C9
:104B70000C6944F001040C610260BFF36F8F436065
:104B800010BC7047003C0240074B1A6922F4407287
:104B90001A611A6942F400721A611A6942F001023C
:104BA0001A610160704700BF003C0240074B1A6960
:104BB00022F440721A611A6942F480721A611A6909
:104BC00042F001021A610180704700BF003C0240C0
:104BD000064B1A6922F440721A611A691A611A693D
:104BE00042F001021A610170704700BF003C0240B0
:104BF000274BDB6813F0100F07D0264AD36943F028
:104C00001003D361224B1022DA60214BDB6813F0D2
:104C1000200F07D01F4AD36943F00803D3611C4B10
:104C20002022DA601A4BDB6813F0400F07D0194AD4
:104C3000D36943F00403D361154B4022DA60144B6F
:104C4000DB6813F0800F07D0124AD36943F00203E8
:104C5000D3610F4B8022DA600D4BDB6813F4807F49
:104C600008D00C4AD36943F00103D361084B4FF4D9
:104C70008072DA60064BDB6813F0020F07D0054A3A
:104C8000D36943F02003D361014B0222DA607047FD
:104C9000003C0240F4160020094B1B69002B01DB8D
:104CA00000207047064B074A5A6002F188325A606A
:104CB0001B69002B01DB002070470120704700BFFB
:104CC000003C024023016745034A136943F0004357
:104CD00013610020704700BF003C024038B5044615
:104CE000144B0022DA61FFF747FC0546124BDB68E4
:104CF00013F4803F0AD0B4F1FF3FF7D024B1FFF79F
:104D00003BFC401BA042F1D903200DE00A4BDB68BD
:104D100013F0010F02D0084B0122DA60064BDB686A
:104D200013F4F97F01D1002038BDFFF761FF0120A6
:104D3000FAE700BFF4160020003C0240F8B5164622
:104D40001B4A127E012A30D004460D461F46184BDE
:104D500001221A764CF25030FFF7C0FF90B9ACB187
:104D6000012C18D0022C1BD032463B462846FFF7B8
:104D7000F5FE4CF25030FFF7B1FF0E4A136923F0F5
:104D8000010313610A4B00221A76F8BDF1B22846DE
:104D9000FFF71EFFEDE7B1B22846FFF707FFE8E790
:104DA00031462846FFF7F0FEE3E70220EDE700BFBB
:104DB000F4160020003C0240074B1A6922F44072AE
:104DC0001A611A6942F004021A611A6942EA002261
:104DD00042F480321A617047003C0240012905D03C
:104DE000022906D039B14FF4407104E04FF48071CC
:104DF00001E04FF400710B4B1A6922F440721A6102
:104E00001A690A431A611A6922F0F8021A611A69CA
:104E100042EAC00040F0020018611A6942F4803290
:104E20001A617047003C0240164B1B6813F4007F68
:104E300010D0144B1A6822F400721A601A6842F4F7
:104E400000621A601A6822F400621A601A6842F45A
:104E500000721A600B4B1B6813F4806F10D0094B63
:104E60001A6822F480621A601A6842F480521A604A
:104E70001A6822F480521A601A6842F480621A603A
:104E8000704700BF003C0240F8B5224B1B7E012B4F
:104E90003ED004460E461F4B01221A764CF250308B
:104EA000FFF71CFF074670BB4FF0FF3333602368EA
:104EB000012B16D0A568E368A2681344AB4220D941
:104EC000217C2846FFF78AFF4CF25030FFF706FF9F
:104ED000114A136923F0FA031361074680B90135BB
:104EE000E9E76168207CFFF767FF4CF25030FFF77D
:104EF000F5FE0746084A136923F00403136100E036
:104F00003560FFF791FF034B00221A763846F8BD53
:104F10000227FBE7F4160020003C024000230F2B81
:104F200000F2E68030B583B068E085684FEA430E52
:104F3000032404FA0EF425EA0405CC6804FA0EF4FE
:104F40002C438460446824EA02044A68C2F30012D5
:104F50009A40224342605FE0DC08083450F8242085
:104F600003F00705AD004FF00F0E0EFA05FE22EA22
:104F70000E0E0A69AA4042EA0E0240F824205FE0C1
:104F8000062200E0002202FA0EF22A430234594DB2
:104F900045F82420584A94686FEA0C0224EA0C056C
:104FA000D1F804E01EF4801F01D04CEA0405524CF5
:104FB000A560E46802EA0405D1F804E01EF4001FCD
:104FC00001D04CEA04054C4CE560646802EA040533
:104FD000D1F804E01EF4003F01D04CEA0405464C31
:104FE0006560246822404D6815F4803F01D04CEA8A
:104FF0000402414C226001330F2B77D801229A40E2
:105000000C6804EA020C32EA0404F4D14C6804F09F
:105010000304013C012C88D94A6802F00302032AE8
:1050200009D0C4685D000322AA4024EA02048A6809
:10503000AA402243C2604A6802F00302022A8BD0CF
:1050400004684FEA430E032202FA0EF224EA020435
:105050004A6802F0030202FA0EF2224302604A6832
:1050600012F4403FC7D000220192244A546C44F409
:1050700080445464526C02F480420192019A9C086C
:10508000A51C1C4A52F8255003F0030E4FEA8E0E61
:105090000F2202FA0EF225EA0205194A90423FF465
:1050A00071AF02F58062904216D002F580629042A4
:1050B00014D002F58062904212D002F580629042D4
:1050C00010D002F5806290420ED002F580629042CC
:1050D0003FF456AF072256E7012254E7022252E777
:1050E000032250E704224EE705224CE703B030BD0F
:1050F000704700BF00380140003C014000380240CA
:10510000000002400AB18161704709048161704763
:1051100008B5054B5B69034200D108BD024B5861DD
:10512000FEF7C4FAF9E700BF003C014003685A6982
:1051300012F4806F01D1002070476FF480625A61D1
:1051400000230363202280F83D2080F83E30026C6B
:1051500042F00402026480F83C30012070472DE9DF
:10516000F04107460D4690461E4624E0FFF704FA3C
:10517000069BC01AB04200D8EEB900233B63202240
:1051800087F83D2087F83E303A6C42F020023A64BE
:1051900087F83C3001201EE03B689C6925EA040C3E
:1051A0001FFA8CFCBCFA8CFC4FEA5C1CE04511D168
:1051B000B6F1FF3FDAD1C5F30743012BECD13B68D1
:1051C0005B6925EA030C1FFA8CFCBCFA8CFC4FEAE5
:1051D0005C1CEBE70020BDE8F0812DE9F0410546BD
:1051E0000E46174698463DE01A6842F400721A606F
:1051F0002B686FF480625A6100232B63202285F8AC
:105200003D2085F83E302A6C42F004022A6485F87D
:105210003C30012034E0FFF7AFF9A0EB0800B842C2
:1052200000D8FFB900232B63202285F83D2085F8A4
:105230003E302A6C42F020022A6485F83C3001207E
:105240001EE02B689C6926EA0404A4B2003C18BF47
:105250000124A4B12B685A6912F4806FC4D1B7F14C
:10526000FF3FD8D1C6F30743012BEAD12B685C6915
:1052700026EA0404A4B2003C18BF0124E9E7002098
:10528000BDE8F08170B504460D46164623685B699B
:1052900013F0800F1CD12046FFF748FFD0B9B5F1BD
:1052A000FF3FF3D0FFF768F9801BA84201D8002D1B
:1052B000ECD100232363202284F83D2084F83E3083
:1052C000226C42F02002226484F83C30012000E08D
:1052D000002070BD0120FCE72DE9F04385B00446B5
:1052E0000D4691461F46DDF830800D9E0368196813
:1052F00041F4807119600096434600224FF001117D
:10530000FFF72DFF60B9236805F0FE051D613346E8
:10531000424626492046FFF760FF68B1012008E0B9
:1053200023681B6813F4807F02D04FF4007323645A
:10533000032005B0BDE8F0830023039323685A6976
:1053400003929B690393039B324641462046FFF735
:1053500099FF30B9012F0FD123685FFA89F61E61DA
:10536000E7E7236C042B01D00120E2E722681368F1
:1053700043F400731360F7E723684FEA19221A61B8
:10538000324641462046FFF77DFF20B923685FFA89
:1053900089F61E61CDE7236C042B01D00120C8E7FC
:1053A0002268136843F400731360F7E702000100FA
:1053B0002DE9F04784B004460D46164699460C9FE9
:1053C000DDF834800268136843F480631360036877
:1053D000196841F480711960CDF800803B460022C5
:1053E0004FF00111FFF7BBFE70B95FFA85FA236831
:1053F00005F0FE051D6143463A4641492046FFF748
:10540000ECFE68B1012008E023681B6813F4807F7C
:1054100002D04FF400732364032004B0BDE8F0878A
:105420000023039323685A6903929B690393039BA8
:10543000424639462046FFF725FF80B9B9F1010FF2
:1054400018D12368F6B21E61424639462046FFF75E
:1054500019FF68B3236C042B24D00120DDE7236CF3
:10546000042B01D00120D8E72268136843F40073AD
:105470001360F7E72368320A1A614246394620462C
:10548000FFF700FF18B92368F6B21E61DCE7236C52
:10549000042B01D00120C0E72268136843F4007395
:1054A0001360F7E72268136843F400731360D4E7CE
:1054B0002268136843F480731360CDF800803B4684
:1054C00000224FF001112046FFF749FE68B922681B
:1054D0004AF00103136143463A4609492046FFF763
:1054E0007CFE002899D0012097E723681B6813F4FD
:1054F000807F02D04FF40073236403208DE700BF48
:105500000200010070B504460D46164623685B692B
:1055100013F0040F1CD12046FFF708FED0B9B5F1F7
:10552000FF3FF3D0FFF728F8801BA84201D8002DD9
:10553000ECD100232363202284F83D2084F83E3000
:10554000226C42F02002226484F83C30012000E00A
:10555000002070BD0120FCE770B505460C461646DC
:105560002B68596911F0400F29D1596911F0100FBA
:1055700015D1FFF701F8801BA04201D8002CEFD114
:1055800000232B63202285F83D2085F83E302A6CCD
:1055900042F020022A6485F83C30012070BD6FF093
:1055A00010025A6100232B63202285F83D2085F8E4
:1055B0003E302A6C2A6485F83C300120EEE700205A
:1055C000ECE70000002800F0CC8070B5044690F8AD
:1055D0003D30002B77D0242384F83D3022681368B7
:1055E00023F0010313602268136843F4004313603F
:1055F0002268136823F40043136000F0A3FC626880
:105600005A4B9A4264D85A4B98428CBF00230123CC
:10561000002B40F0A8805749A1FB00318B0C256876
:105620006A6822F03F0242EA91426A6021680A6A8F
:1056300022F03F0266684D4DAE424FD8013313430E
:105640000B622168CA6922F44F4222F0FF026568AA
:10565000464B9D424CD8431E6D00B3FBF5F301331E
:1056600040F6FC70034278D0C3F30B031A43CA61BF
:1056700021680B6823F0C003E269206A02431343E8
:105680000B6021688B6823F4034323F0FF03226936
:10569000E068024313438B602168CB6823F0FF036B
:1056A0006269A06902431343CB602268136843F028
:1056B0000103136000202064202384F83D30206320
:1056C00084F83E0070BD80F83C30FEF71BFC82E79A
:1056D000294B98428CBF0023012399E74FF496751C
:1056E00005FB03F3254DA5FB03539B090133A6E7F7
:1056F000A668BEB9431E05EB450CB3FBFCF30133B2
:10570000C3F30B03B3FA83F35B0943BBC6B9431E70
:1057100005EB4505B3FBF5F30133C3F30B0343F48A
:105720000043A3E7431E05EB850C0CEB8C0CB3FB8D
:10573000FCF30133C3F30B03B3FA83F35B09E4E730
:10574000431E05EB850505EB8505B3FBF5F301333A
:10575000C3F30B0343F4404388E7042386E70123A4
:1057600084E7012070470120ACE700BFA08601005C
:105770007F841E0083DE1B43FF083D00D34D621073
:105780002DE9F04383B004460F46904699460C9E9F
:10579000FEF7F2FE054694F83D00C0B2202803D083
:1057A000022003B0BDE8F0830095192301224B4984
:1057B0002046FFF7D4FC002840F0898094F83C3064
:1057C000012B00F08680012384F83C3023681A689E
:1057D00012F0010F03D11A6842F001021A60226828
:1057E000136823F400631360212384F83D304023C1
:1057F00084F83E30002323640A9B6362BDF82C309A
:105800006385638D2385364BE362019500964B4695
:10581000424639462046FFF75FFD00285BD1238DC5
:10582000002B35D02A4631462046FFF72BFD20BB02
:10583000626A236812781A61626A531C6362218D5E
:10584000013989B22185638D9BB2013B9BB263858F
:105850002368586910F0040FE1D00029DFD0527896
:105860001A61636A01336362238D013B2385638D73
:105870009BB2013B9BB26385D1E7236C042B01D023
:1058800001208EE72268136843F400731360F7E782
:105890002A4631462046FFF735FE50B1236C042BD3
:1058A00001D001207DE72268136843F40073136080
:1058B000F7E72268136843F400731360202384F829
:1058C0003D30002384F83E3084F83C3069E7022004
:1058D00067E7022065E7012063E700BF02001000D0
:1058E0000000FFFF2DE9F04387B004460F469046C5
:1058F0009946109EFEF740FE054694F83D00C0B262
:10590000202804D00227384607B0BDE8F083009570
:105910001923012288492046FFF721FC002840F086
:10592000438194F83C30012B00F04081012384F83E
:105930003C3023681A6812F0010F03D11A6842F054
:1059400001021A602268136823F4006313602223A3
:1059500084F83D30402384F83E30002323640E9BBE
:105960006362BDF83C306385638D2385734BE362CE
:10597000019500964B46424639462046FFF718FDF2
:105980000746002840F01481238D5BB902932368F9
:105990005A6902929A690292029A1A6842F4007253
:1059A0001A6075E0012B0AD0022B1AD00023059350
:1059B00023685A6905929B690593059B68E02268F4
:1059C000136823F4806313600023039323685A69E8
:1059D00003929A690392039A1A6842F400721A6059
:1059E00056E02268136823F480631360226813680A
:1059F00043F4006313600023049323685A690492FC
:105A00009B690493049B43E02A4631462046FFF7F6
:105A1000A3FD002840F0CE8023681A69636A1A70DB
:105A2000636A01336362238D013B2385638D9BB2DF
:105A3000013B9BB263852BE0009533460022404931
:105A40002046FFF78CFB002840F0B68022681368E0
:105A500043F40073136023681A69636A1A70626AF8
:105A6000531C6362238D013B2385638D9BB2013BF5
:105A70009BB2638523681B695370636A0133636259
:105A8000238D013B2385638D9BB2013B9BB26385D4
:105A9000238D002B7FD0032B54D8012BB4D0022BA5
:105AA000CAD000953346002225492046FFF757FB10
:105AB000002840F083802268136823F48063136019
:105AC00023681A69636A1A70636A01336362238DFB
:105AD000013B2385638D9BB2013B9BB2638500959F
:105AE0003346002216492046FFF739FB002867D1CC
:105AF0002268136843F40073136023681A69636AA9
:105B00001A70626A531C6362238D013B2385638D87
