:020000040800F2
:100000000000022025400008F13E0008F33E0008F1
:10001000F53E0008F73E0008F93E00080000000029
:10002000000000000000000000000000FB3E00088F
:10003000FD3E000800000000FF3E0008013F0008F0
:1000400075400008754000087540000875400008BC
:1000500075400008754000087540000875400008AC
:100060007540000875400008093F00087540000809
:10007000153F0008754000087540000875400008ED
:10008000253F0008754000087540000875400008CD
:10009000754000087540000875400008754000086C
:1000A000754000087540000875400008754000085C
:1000B000754000087540000875400008754000084C
:1000C000754000087540000875400008353F00087D
:1000D000754000087540000875400008754000082C
:1000E000754000087540000875400008754000081C
:1000F000754000087540000875400008754000080C
:1001000075400008754000087540000875400008FB
:1001100075400008754000087540000875400008EB
:10012000453F00087540000875400008754000080C
:100130007540000800000000000000007540000845
:1001400075400008754000087540000875400008BB
:10015000553F0008754000087540000875400008CC
:10016000754000087540000875400008754000089B
:100170007540000875400008754000080000000048
:1001800000000000754000080000000000000000B2
:1001900075400008000000000000000075400008E5
:1001A0000000000000000000000000007540000892
:1001B000754000087540000875400008754000084B
:0401C000754000087E
:1002000081F0004102E000BF83F0004330B54FEAC7
:1002100041044FEA430594EA050F08BF90EA020F34
:100220001FBF54EA000C55EA020C7FEA645C7FEAC7
:10023000655C00F0E2804FEA5454D4EB5555B8BFEA
:100240006D420CDD2C4480EA020281EA030382EA5B
:10025000000083EA010180EA020281EA0303362DED
:1002600088BF30BD11F0004F4FEA01314FF4801CC0
:100270004CEA113102D0404261EB410113F0004FD2
:100280004FEA03334CEA133302D0524263EB430389
:1002900094EA050F00F0A780A4F10104D5F1200E27
:1002A0000DDB02FA0EFC22FA05F2801841F1000182
:1002B00003FA0EF2801843FA05F359410EE0A5F156
:1002C00020050EF1200E012A03FA0EFC28BF4CF087
:1002D000020C43FA05F3C01851EBE37101F000453D
:1002E00007D54FF0000EDCF1000C7EEB00006EEB4A
:1002F0000101B1F5801F1BD3B1F5001F0CD34908D4
:100300005FEA30004FEA3C0C04F101044FEA44522A
:1003100012F5800F80F09A80BCF1004F08BF5FEAB1
:10032000500C50F1000041EB045141EA050130BD91
:100330005FEA4C0C404141EB0101013C28BFB1F5A3
:10034000801FE9D291F0000F04BF01460020B1FAEE
:1003500081F308BF2033A3F10B03B3F120020CDAC1
:100360000C3208DD02F1140CC2F10C0201FA0CF09F
:1003700021FA02F10CE002F11402D8BFC2F1200C04
:1003800001FA02F120FA0CFCDCBF41EA0C019040BA
:10039000E41AA2BF01EB0451294330BD6FEA040403
:1003A0001F3C1CDA0C340EDC04F11404C4F12002EE
:1003B00020FA04F001FA02F340EA030021FA04F300
:1003C00045EA030130BDC4F10C04C4F1200220FA57
:1003D00002F001FA04F340EA0300294630BD21FA95
:1003E00004F0294630BD94F0000F83F4801306BF5B
:1003F00081F480110134013D4EE77FEA645C18BF4F
:100400007FEA655C29D094EA050F08BF90EA020FE5
:1004100005D054EA000C04BF1946104630BD91EADD
:10042000030F1EBF0021002030BD5FEA545C05D1E0
:100430004000494128BF41F0004130BD14F580041F
:100440003CBF01F5801130BD01F0004545F0FE4193
:1004500041F470014FF0000030BD7FEA645C1ABFC8
:10046000194610467FEA655C1CBF0B46024650EAFF
:10047000013406BF52EA033591EA030F41F400212B
:1004800030BD00BF90F0000F04BF0021704730B5B1
:100490004FF4806404F132044FF000054FF0000186
:1004A00050E700BF90F0000F04BF0021704730B547
:1004B0004FF4806404F1320410F0004548BF40421C
:1004C0004FF000013EE700BF42004FEAE2014FEA71
:1004D00031014FEA02701FBF12F07F4393F07F4F4C
:1004E00081F06051704732F07F4208BF704793F04F
:1004F0007F4F04BF41F40021704730B54FF4607462
:1005000001F0004521F000411CE700BF50EA010264
:1005100008BF704730B54FF000050AE050EA01020D
:1005200008BF704730B511F0004502D5404261EB7D
:1005300041014FF4806404F132045FEA915C3FF4BE
:10054000D8AE4FF003025FEADC0C18BF03325FEA5B
:10055000DC0C18BF033202EBDC02C2F1200300FA0C
:1005600003FC20FA02F001FA03FE40EA0E0021FA31
:1005700002F11444BDE600BF4FF0FF3C06E000BFAF
:100580004FF0010C02E000BF4FF0010C4DF804CD1C
:100590004FEA410C7FEA6C5C4FEA430C18BF7FEADC
:1005A0006C5C1BD001B050EA410C0CBF52EA430C0A
:1005B00091EA030F02BF90EA020F0020704710F18A
:1005C000000F91EA030F58BF994208BF90422CBF19
:1005D000D8176FEAE37040F0010070474FEA410C12
:1005E0007FEA6C5C02D150EA013C07D14FEA430C30
:1005F0007FEA6C5CD6D152EA033CD3D05DF8040BA1
:10060000704700BF8446104662468C4619466346D2
:1006100000E000BF01B5FFF7B7FF002848BF10F1A9
:10062000000F01BD4DF808EDFFF7F4FF0CBF0120EE
:1006300000205DF808FB00BF4DF808EDFFF7EAFF6A
:1006400034BF012000205DF808FB00BF4DF808ED25
:10065000FFF7E0FF94BF012000205DF808FB00BF1A
:100660004DF808EDFFF7CEFF94BF012000205DF8A4
:1006700008FB00BF4DF808EDFFF7C4FF34BF0120B1
:1006800000205DF808FB00BF80F0004002E000BFE2
:1006900081F0004142001FBF5FEA410392EA030F6D
:1006A0007FEA226C7FEA236C6AD04FEA1262D2EBB7
:1006B0001363C1BFD218414048404140B8BF5B42BC
:1006C000192B88BF704710F0004F40F4000020F055
:1006D0007F4018BF404211F0004F41F4000121F06B
:1006E0007F4118BF494292EA030F3FD0A2F10102B5
:1006F00041FA03FC10EB0C00C3F1200301FA03F1F3
:1007000000F0004302D5494260EB4000B0F5000F15
:1007100013D3B0F1807F06D340084FEA310102F1D4
:100720000102FE2A51D2B1F1004F40EBC25008BF86
:1007300020F0010040EA03007047490040EB000050
:10074000013A28BFB0F5000FEDD2B0FA80FCACF151
:10075000080CB2EB0C0200FA0CF0AABF00EBC2507E
:1007600052421843BCBFD0401843704792F0000F6C
:1007700081F4000106BF80F400000132013BB5E7BF
:100780004FEA41037FEA226C18BF7FEA236C21D035
:1007900092EA030F04D092F0000F08BF084670479A
:1007A00090EA010F1CBF0020704712F07F4F04D168
:1007B000400028BF40F00040704712F100723CBF7B
:1007C00000F50000704700F0004343F0FE4040F4A5
:1007D000000070477FEA226216BF08467FEA236363
:1007E0000146420206BF5FEA412390EA010F40F44E
:1007F000800070474FF0000304E000BF10F000439A
:1008000048BF40425FEA000C08BF704743F0964380
:1008100001464FF000001CE050EA010208BF70479B
:100820004FF000030AE000BF50EA010208BF704722
:1008300011F0004302D5404261EB41015FEA010C37
:1008400002BF84460146002043F0B64308BFA3F12F
:100850008053A3F50003BCFA8CF2083AA3EBC25311
:1008600010DB01FA02FC634400FA02FCC2F1200230
:10087000BCF1004F20FA02F243EB020008BF20F067
:100880000100704702F1200201FA02FCC2F12002CD
:1008900050EA4C0021FA02F243EB020008BF20EAC2
:1008A000DC7070474FF0FF0C1CEAD0521EBF1CEAF0
:1008B000D15392EA0C0F93EA0C0F6FD01A4480EADE
:1008C000010C400218BF5FEA41211ED04FF00063C7
:1008D00043EA501043EA5111A0FB01310CF00040F3
:1008E000B1F5000F3EBF490041EAD3715B0040EA19
:1008F000010062F17F02FD2A1DD8B3F1004F40EBE9
:10090000C25008BF20F00100704790F0000F0CF0BB
:10091000004C08BF49024CEA502040EA51207F3A7F
:10092000C2BFD2F1FF0340EAC250704740F400005A
:100930004FF00003013A5DDC12F1190FDCBF00F04B
:1009400000407047C2F10002410021FA02F1C2F1F9
:10095000200200FA02FC5FEA310040F1000053EA95
:100960004C0308BF20EADC70704792F0000F00F0E3
:10097000004C02BF400010F4000F013AF9D040EAE9
:100980000C0093F0000F01F0004C02BF490011F47D
:10099000000F013BF9D041EA0C018FE70CEAD1537B
:1009A00092EA0C0F18BF93EA0C0F0AD030F0004CFB
:1009B00018BF31F0004CD8D180EA010000F00040AF
:1009C000704790F0000F17BF90F0004F084691F06D
:1009D000000F91F0004F14D092EA0C0F01D14202A7
:1009E0000FD193EA0C0F03D14B0218BF084608D170
:1009F00080EA010000F0004040F0FE4040F40000BA
:100A0000704740F0FE4040F4400070474FF0FF0C4C
:100A10001CEAD0521EBF1CEAD15392EA0C0F93EA93
:100A20000C0F69D0A2EB030280EA010C49024FEAE5
:100A3000402037D04FF0805343EA111143EA10139E
:100A40000CF000408B4238BF5B0042F17D024FF456
:100A5000000C8B4224BF5B1A40EA0C00B3EB510F31
:100A600024BFA3EB510340EA5C00B3EB910F24BF1A
:100A7000A3EB910340EA9C00B3EBD10F24BFA3EB9F
:100A8000D10340EADC001B0118BF5FEA1C1CE0D167
:100A9000FD2A3FF650AF8B4240EBC25008BF20F01A
:100AA000010070470CF0004C4CEA50207F32C2BF6E
:100AB000D2F1FF0340EAC250704740F400004FF00B
:100AC0000003013A37E792F0000F00F0004C02BF3C
:100AD000400010F4000F013AF9D040EA0C0093F006
:100AE000000F01F0004C02BF490011F4000F013B60
:100AF000F9D041EA0C0195E70CEAD15392EA0C0FC8
:100B000008D142027FF47DAF93EA0C0F7FF470AFFF
:100B1000084676E793EA0C0F04D14B023FF44CAF42
:100B200008466EE730F0004C18BF31F0004CCAD1D7
:100B300030F000427FF45CAF31F000437FF43CAF13
:100B40005FE700BF4FF0FF3C06E000BF4FF0010C35
:100B500002E000BF4FF0010C4DF804CD4FEA400217
:100B60004FEA41037FEA226C18BF7FEA236C11D061
:100B700001B052EA530C18BF90EA010F58BFB2EB14
:100B8000030088BFC81738BF6FEAE17018BF40F094
:100B9000010070477FEA226C02D15FEA402C05D148
:100BA0007FEA236CE4D15FEA412CE1D05DF8040BCD
:100BB000704700BF844608466146FFE70FB5FFF760
:100BC000C9FF002848BF10F1000F0FBD4DF808ED18
:100BD000FFF7F4FF0CBF012000205DF808FB00BF09
:100BE0004DF808EDFFF7EAFF34BF012000205DF863
:100BF00008FB00BF4DF808EDFFF7E0FF94BF0120B0
:100C000000205DF808FB00BF4DF808EDFFF7D2FFAC
:100C100094BF012000205DF808FB00BF4DF808EDEF
:100C2000FFF7C8FF34BF012000205DF808FB00BFBC
:100C300042000ED2B2F1FE4F0BD34FF09E03B3EB46
:100C4000126209D44FEA002343F0004323FA02F072
:100C500070474FF00000704712F1610F01D142025E
:100C600002D14FF0FF3070474FF00000704700BFD7
:100C700053B94AB9002908BF00281CBF4FF0FF3103
:100C80004FF0FF3000F0E2B8ADF1080C6DE904CE92
:100C90003AF00CFBDDF804E0DDE9022304B0704714
:100CA00000F1340191E838009C46A6464CF8045DFA
:100CB00090E8FF0FE54600BD90EC210B704700BFA8
:100CC00080EC210B704700BF90EC200B704700BFF9
:100CD00080EC200B704700BFD0EC200B704700BFAA
:100CE000C0EC200B704700BFF0EC0201F0EC0211E9
:100CF000F0EC0221F0EC0231F0EC0241F0EC025198
:100D0000F0EC0261F0EC0271F0EC0281F0EC029187
:100D1000F0EC02A1F0EC02B1F0EC02C1F0EC02D177
:100D2000F0EC02E1F0EC02F1704700BFE0EC0201F0
:100D3000E0EC0211E0EC0221E0EC0231E0EC0241D7
:100D4000E0EC0251E0EC0261E0EC0271E0EC0281C7
:100D5000E0EC0291E0EC02A1E0EC02B1E0EC02C1B7
:100D6000E0EC02D1E0EC02E1E0EC02F1704700BF00
:100D7000B0FC0181B0FC0191B0FC01A1B0FC01B15B
:100D8000704700BFA0FC0181A0FC0191A0FC01A163
:100D9000A0FC01B1704700BFEC4600B52DE9005042
:100DA0002DE9FF1F4FF000032DE90C0001A93AF0D7
:100DB00037FDDDF840E012B0704700BFEC4600B5EB
:100DC0002DE900502DE9FF1F4FF000032DE90C0025
:100DD00001A93AF061FDDDF840E012B0704700BFB4
:100DE000EC4600B52DE900502DE9FF1F4FF0000340
:100DF0002DE90C0001A93AF071FDDDF840E012B0D8
:100E0000704700BFEC4600B52DE900502DE9FF1FEB
:100E10004FF000032DE90C0001AB3AF035FDDDF891
:100E200040E012B0704700BFEC4600B52DE900501D
:100E30002DE9FF1F4FF000032DE90C0001AA3AF045
:100E4000ADFDDDF840E012B0704700BF704700BF55
:100E50000000000000000000000000000000000092
:100E600002780B78012A28BF9A4240F0D8806DE9B9
:100E7000044540EA0104CDE902676FF0000C4FEA37
:100E800044721AB380EA010414F0070F6BD100F02A
:100E9000070420F0070004F0030521F007014FEAE2
:100EA000C505F0E8042314F0040FF1E804670CFA18
:100EB00005F462EA040266EA04060BD063EA04035E
:100EC000624667EA0407664604E000BFF0E80423D0
:100ED000F1E8046782FA4CF582EA0604A4FA8CF47D
:100EE0006CBB83FA4CF583EA0705A5FA8CF595B936
:100EF00050E9022351E9026782FA4CF582EA0604BE
:100F0000A4FA8CF483FA4CF583EA0705A5FA8CF56C
:100F10002543DBD09CB92DBAB5FA85F424F007043B
:100F200027FA04F1DDE9026723FA04F303F0FF0076
:100F300001F0FF01FDE80445A0EB0100704724BA71
:100F4000B4FA84F424F0070426FA04F1DDE9026718
:100F500022FA04F202F0FF0001F0FF01FDE804456F
:100F6000A0EB0100704714F0030F3CD110F0030414
:100F700028D150F8082B51F8083B82FA4CF582EA48
:100F80000305A5FA8CF55DB950F8042C51F8043C22
:100F900082FA4CF582EA0305A5FA8CF5002DE8D01B
:100FA0002DBAB5FA85F424F0070423FA04F122FAE5
:100FB00004F202F0FF0001F0FF01FDE80445A0EBA0
:100FC000010070474FEAC40420F0030050F8082BDA
:100FD00021F0030151F8083B0CFA04F462EA040220
:100FE00063EA0403C9E710F003041DD0A1EB040178
:100FF00020F00300E40750F8042B06D012D28B78BF
:101000005FFAA2F4E41A06D12BB1CB785FFAB2F4FE
:10101000E41A00D133B920465DF8104B7047A2EBBB
:101020000300704701F1040150F8042BCC0721F0B4
:10103000030151F8043B48D824D222F07F4482FABD
:101040004CF594EA1325A5FA8CF50AD165B951F847
:10105000043B84EA0204B4EB036F0ED150F8042B76
:10106000EBE74FEA132355E035F07F454DD1087883
:10107000FDE80445C0F1000070474FEA126203F03A
:10108000FF0347E002EA1C4482FA4CF594EA134558
:10109000A5FA8CF50AD165B951F8043B84EA02043B
:1010A000B4EB034F0CD150F8042BEBE74FEA13439A
:1010B00030E015EA1C4528D10B884FEA124229E09E
:1010C0004FEA124203EA1C4324E002F0FF0482FAD2
:1010D0004CF594EA1365A5FA8CF50AD165B951F877
:1010E000043B84EA0204B4EB032F09D150F8042B2B
:1010F000EBE74FEA13630DE015F0FF0F05D10B6826
:101100004FEA122223F07F4304E04FF00000FDE895
:101110000445704712BA1BBA82FA4CF482EA0304FF
:10112000A4FA8CF5B5FA85F402FA04F203FA04F392
:101130004FEA1260FDE80445A0EB1360704700BF62
:1011400001F0FF01102A2BDB10F0070F08D010F878
:10115000013B013A8B422DD010F0070F42B3F6D17C
:10116000F0B441EA012141EA014122F007047FF095
:1011700000070023F0E80256083C85EA010586EAEC
:10118000010685FA47F5A3FA87F586FA47F6A5FA28
:1011900087F68EB9EED1F0BC01F0FF0102F0070234
:1011A00032B110F8013B013A83EA010313B1F8D1DF
:1011B0000020704701387047002D06BF35460338C0
:1011C000073815F0010F07D1013015F4807F02BFF9
:1011D000013015F4C03F0130F0BC0138704700BF4A
:1011E000844641EA000313F003036DD1403A41D332
:1011F00051F8043B40F8043B51F8043B40F8043BF1
:1012000051F8043B40F8043B51F8043B40F8043BE0
:1012100051F8043B40F8043B51F8043B40F8043BD0
:1012200051F8043B40F8043B51F8043B40F8043BC0
:1012300051F8043B40F8043B51F8043B40F8043BB0
:1012400051F8043B40F8043B51F8043B40F8043BA0
:1012500051F8043B40F8043B51F8043B40F8043B90
:1012600051F8043B40F8043B51F8043B40F8043B80
:10127000403ABDD2303211D351F8043B40F8043B20
:1012800051F8043B40F8043B51F8043B40F8043B60
:1012900051F8043B40F8043B103AEDD20C3205D330
:1012A00051F8043B40F8043B043AF9D2043208D028
:1012B000D2071CBF11F8013B00F8013B01D30B889A
:1012C00003806046704700BF082A13D38B078DD078
:1012D00010F003038AD0C3F10403D21ADB071CBF4A
:1012E00011F8013B00F8013B80D331F8023B20F8B4
:1012F000023B7BE7043AD9D3013A11F8013B00F8ED
:10130000013BF9D20B7803704B7843708B78837074
:101310006046704700000000000000000000000070
:1013200000000000000000000000000000000000BD
:1013300000000000000000000000000000000000AD
:1013400030B490F800F020F007016FF0000C10F0BE
:10135000070491F820F040F048804FF000046FF04F
:101360000700D1E9002391F840F000F1080082FA6B
:101370004CF2A4FA8CF283FA4CF3A2FA8CF34BBB36
:10138000D1E9022382FA4CF200F10800A4FA8CF2AF
:1013900083FA4CF3A2FA8CF3E3B9D1E9042382FA7D
:1013A0004CF200F10800A4FA8CF283FA4CF3A2FA92
:1013B0008CF37BB9D1E9062301F1200182FA4CF2CA
:1013C00000F10800A4FA8CF283FA4CF3A2FA8CF331
:1013D000002BC6D0002A04BF04301A4612BAB2FA53
:1013E00082F200EBD20030BC7047D1E9002304F058
:1013F0000305C4F100004FEAC50514F0040F91F88D
:1014000040F00CFA05F562EA05021CBF63EA050329
:1014100062464FF00004AAE770B54FF0FF0C4CF4A1
:10142000E06C1CEA11541DBF1CEA135594EA0C0F22
:1014300095EA0C0F00F0DEF82C4481EA030621EA5D
:101440004C5123EA4C5350EA013518BF52EA033598
:1014500041F4801143F4801338D0A0FB02CE4FF04A
:101460000005E1FB02E506F00042E0FB03E54FF07A
:101470000006E1FB03569CF0000F18BF4EF0010E72
:10148000A4F1FF04B6F5007F64F5407404D25FEA6E
:101490004E0E6D4146EB060642EAC62141EA555121
:1014A0004FEAC52040EA5E504FEACE2EB4F1FD0C63
:1014B00088BFBCF5E06F1ED8BEF1004F08BF5FEAE1
:1014C000500E50F1000041EB045170BD06F0004693
:1014D00046EA010140EA020081EA0301B4EB5C0440
:1014E000C2BFD4EB0C0541EA045170BD41F4801138
:1014F0004FF0000E013C00F3AB8014F1360FDEBF5D
:10150000002001F0004170BDC4F10004203C35DA38
:101510000C341BDC04F11404C4F1200500FA05F3BB
:1015200020FA04F001FA05F240EA020001F000425C
:1015300021F0004110EBD37021FA04F642EB0601D2
:101540005EEA430E08BF20EAD37070BDC4F10C04FC
:10155000C4F1200500FA04F320FA05F001FA04F2C0
:1015600040EA020001F0004110EBD37041F10001AC
:101570005EEA430E08BF20EAD37070BDC4F12005B7
:1015800000FA05F24EEA020E20FA04F301FA05F21F
:1015900043EA020321FA04F001F0004121FA04F2C7
:1015A00020EA020000EBD3705EEA430E08BF20EA97
:1015B000D37070BD94F0000F0FD101F000464000D1
:1015C00041EB010111F4801F08BF013CF7D041EA53
:1015D000060195F0000F18BF704703F00046520057
:1015E00043EB030313F4801F08BF013DF7D043EA28
:1015F0000603704794EA0C0F0CEA135518BF95EADE
:101600000C0F0CD050EA410618BF52EA4306D1D164
:1016100081EA030101F000414FF0000070BD50EA83
:10162000410606BF1046194652EA430619D094EA0D
:101630000C0F02D150EA013613D195EA0C0F05D1F7
:1016400052EA03361CBF104619460AD181EA03014B
:1016500001F0004141F0FE4141F470014FF0000003
:1016600070BD41F0FE4141F4780170BD70B54FF09E
:10167000FF0C4CF4E06C1CEA11541DBF1CEA13551E
:1016800094EA0C0F95EA0C0F00F0A7F8A4EB050400
:1016900081EA030E52EA03354FEA013100F08880F7
:1016A0004FEA03334FF0805545EA131343EA1263C0
:1016B0004FEA022245EA111545EA10654FEA002675
:1016C0000EF000419D4208BF964244F1FD0404F52E
:1016D000407402D25B084FEA3202B61A65EB03058A
:1016E0005B084FEA32024FF480104FF4002CB6EB47
:1016F000020E75EB030E22BFB61A754640EA0C00C7
:101700005B084FEA3202B6EB020E75EB030E22BF06
:10171000B61A754640EA5C005B084FEA3202B6EB47
:10172000020E75EB030E22BFB61A754640EA9C0006
:101730005B084FEA3202B6EB020E75EB030E22BFD6
:10174000B61A754640EADC0055EA060E18D04FEA94
:10175000051545EA16754FEA06164FEAC30343EA34
:1017600052734FEAC2025FEA1C1CC0D111F4801F01
:101770000BD141EA00014FF000004FF0004CB6E7FA
:1017800011F4801F04BF01430020B4F1FD0C88BF99
:10179000BCF5E06F3FF6AFAEB5EB030C04BFB6EBA4
:1017A000020C5FEA500C50F1000041EB045170BD97
:1017B0000EF0004E4EEA113114EB5C04C2BFD4EBC4
:1017C0000C0541EA045170BD41F480114FF0000E48
:1017D000013C90E645EA060E8DE60CEA135594EAC4
:1017E0000C0F08BF95EA0C0F3FF43BAF94EA0C0FC7
:1017F0000AD150EA01347FF434AF95EA0C0F7FF43C
:1018000025AF104619462CE795EA0C0F06D152EA8F
:1018100003353FF4FDAE1046194622E750EA410673
:1018200018BF52EA43067FF4C5AE50EA41047FF484
:101830000DAF52EA43057FF4EBAE12E74FEA410CDD
:101840007FEA6C5C02D150EA013C0AD14FEA430CBA
:101850007FEA6C5C02D152EA033C02D14FF00000F7
:1018600070474FF0010070474FEA410212F5001235
:1018700015D211D56FF47873B3EB625212D94FEAD7
:10188000C12343F0004343EA505311F0004F23FAC1
:1018900002F018BF404270474FF00000704750EA16
:1018A000013005D111F0004008BF6FF000407047D3
:1018B0004FF00000704700BF4A0011D212F500122D
:1018C00011D20DD56FF47873B3EB62520ED44FEA98
:1018D000C12343F0004343EA505323FA02F0704718
:1018E0004FF00000704750EA013002D14FF0FF3056
:1018F00070474FF0000070474FEA4102B2F1E043F9
:1019000024BFB3F5001CDCF1FE5C0DD901F0004CE6
:101910004FEAC0024CEA5070B2F1004F40EB830036
:1019200008BF20F00100704711F0804F21D113F162
:101930003872BCBF01F00040704741F480114FEA9B
:101940005252C2F11802C2F1200C10FA0CF320FA24
:1019500002F018BF40F001004FEAC1234FEAD32341
:1019600003FA0CFC40EA0C0023FA02F34FEA4303AB
:10197000CCE77FEA625307D150EA01331EBF4FF034
:10198000FE4040F44000704701F0004040F0FE404F
:1019900040F40000704700BF4FEA40024FEA4103A5
:1019A0007FEA226C02D15FEA402C08D17FEA236CE7
:1019B00002D15FEA412C02D14FF0000070474FF096
:1019C000010070470348044B834202D0034B03B12C
:1019D00018477047781000207810002000000000A1
:1019E0000548064B1B1AD90F01EBA301491002D081
:1019F000034B03B11847704778100020781000207F
:101A00000000000010B5064C237843B9FFF7DAFF59
:101A1000044B13B10448AFF300800123237010BDC1
:101A2000781000200000000078FD040808B5054B80
:101A30001BB105490548AFF30080BDE80840FFF73A
:101A4000CFBF00BF000000007C10002078FD04081C
:101A5000002303704370837070470170427083707D
:101A60007047C170704710B50446FFF7F1FF64215D
:101A70002046FFF7F6FF204610BD82B000680190B7
:101A800000209DF8043063F307009DF8053063F3F0
:101A90000F209DF8063063F317409DF8073063F37D
:101AA0001F6002B070472DE9F0410F4616461D46F3
:101AB0000468D0F8048006E02B463246394654F8D4
:101AC000040BFFF7CAFFA045F6D1BDE8F08170B561
:101AD0000D460468466804E0294654F8040BFFF7F5
:101AE000C0FFA642F8D170BD10B5044600210068C1
:101AF00005F036FC0023237610BD000008B54368CE
:101B000002689B1AB1EBA30F00D208BD9A100148DE
:101B10001AF0AEFFB4FD040838B504460D460C308B
:101B2000FFF7ECFFE36853F8250038BD4068043840
:101B3000704703684268934200D043607047406832
:101B40000438704708B50846910005F025FF08BD28
:101B500010B5044601688268521A11B19210FFF75D
:101B6000F1FF204610BD10B50446FFF7F1FF2046F7
:101B700010BD10B584B08446019144680368E31A2F
:101B800098106FF0604EAEEBA3038B4210D303901E
:101B9000814210D803AB1B681844DCF80030E41A0B
:101BA000B0EBA40F09D3B0F1005F09D204B010BDAF
:101BB00010461AF045FF01ABEDE76FF06040F5E726
:101BC0006FF06040F2E708B50846910005F0E4FECA
:101BD00008BD10B5044601688268521A11B192100E
:101BE000FFF7F1FF204610BD10B50446FFF7F1FFE7
:101BF000204610BD10B584B0844601914468036846
:101C0000E31A98106FF0604EAEEBA3038B4210D333
:101C10000390814210D803AB1B681844DCF80030F5
:101C2000E41AB0EBA40F09D3B0F1005F09D204B0FD
:101C300010BD10461AF004FF01ABEDE76FF06040F5
:101C4000F5E76FF06040F2E708B5B1F1005F03D24D
:101C5000880006F0A1FA08BDB1F1804F01D31AF057
:101C6000B7FE1AF0A5FE00002DE9F84F05468A469A
:101C700093461E4A0121FFF77CFFD5F800806F686C
:101C8000AAEB0804814618B3002201462846FFF754
:101C9000DBFF0646DBF800303351002C1ADC04343D
:101CA0003444A7EB0A07002F1ADC3C44AA68A2EBD5
:101CB00008029210B8F1000F03D041462846FFF702
:101CC00041FF2E606C6006EB8906AE60BDE8F88FC0
:101CD0000026DFE72246414630463DF077FDDEE74D
:101CE0003A46514620463DF071FDDEE700FE04080D
:101CF00010B5044643688268934208D00A681A60A7
:101D00004368043343602046FFF710FF10BD0A46C6
:101D10001946FFF7A9FFF6E7F0B585B005460F466F
:101D2000694681E80C000023036043608360144629
:101D3000019E164400E00134B4420DD0237807EB35
:101D40000313039303A92846FFF7D2FFF3E72846BE
:101D5000FFF709FF05F022FE284605B0F0BDF0B5FB
:101D600083B005460F461646002404604460846034
:101D700000E00134A6420CDD07EB0413019301A936
:101D80002846FFF7B5FFF4E72846FFF7ECFE05F01D
:101D900005FE284603B0F0BD2DE9F04184B00646AB
:101DA000684680E806009DF8288003C886E805009C
:101DB00033720024F460346174613476F461346207
:101DC000746208E00546FFF74EFE039503A9384606
:101DD000FFF78EFF0134A0450EDD06F10C0704204D
:101DE00006F0DAF9EEE706F11C00FFF7FDFE3846D3
:101DF000FFF7B9FE05F0D2FD304604B0BDE8F08132
:101E000008B5B1F1005F03D2880006F0C5F908BD3E
:101E1000B1F1804F01D31AF0DBFD1AF0C9FD0000CB
:101E20002DE9F84F05468A4693461E4A0121FFF7E1
:101E3000E1FED5F800806F68AAEB0804814618B36C
:101E4000002201462846FFF7DBFF0646DBF800309C
:101E50003351002C1ADC04343444A7EB0A07002F5A
:101E60001ADC3C44AA68A2EB08029210B8F1000FF9
:101E700003D041462846FFF7A6FE2E606C6006EBB5
:101E80008906AE60BDE8F88F0026DFE722464146AE
:101E900030463DF09BFCDEE73A46514620463DF099
:101EA00095FCDEE700FE040810B50446436882682E
:101EB000934208D00A681A6043680433436020469E
:101EC000FFF73DFE10BD0A461946FFF7A9FFF6E7EA
:101ED0002DE9F04F89B007463B7E002BFCD107F17E
:101EE0001C063046FFF725FEFB68D7F8109010E07F
:101EF0001923069306A93046FFF7D6FF013C002CB4
:101F000005DB0123A3401D42F2D03323F1E708F1A2
:101F10000403984699453CD0D3F800A05046FFF7FB
:101F2000ACFD00909DF801505046FFF7A6FD0190D2
:101F30009DF8073003FB05F5DFF880B08BFB053516
:101F40006D112D045046FFF798FD02909DF8084052
:101F50005046FFF792FD03909DF80F3004FB03F30A
:101F60008BFB03235B1145EA03255046FFF785FDF4
:101F700004909DF812405046FFF77FFD05909DF8B4
:101F8000173003FB04F48BFB04B445EA64151724F3
:101F9000B5E70023079307A93046FFF785FFFA69E5
:101FA0003B6A9B1AC3F38F033979386805F08CF8C4
:101FB00001233B7609B0BDE8F08F00BF1F85EB51D0
:101FC000016002718360704770B504460846FEF7F1
:101FD00015FC0546A668B6F90000FEF70FFC0146A1
:101FE0002846FEF757FB0546B6F90200FEF706FC49
:101FF00001462846FEF70AFD4FF07F51FEF74AFBE7
:10200000054623681E68F06AFEF7F4FB2946FEF7D2
:1020100049FC0549FEF7FAFCFEF70AFE70632179D8
:10202000206804F0CFFF70BD0000A04170B50446E9
:1020300090F91830002B25DD01228188006802F01C
:102040002DFE0022A189A06802F028FE94F9180054
:102050000028B8BF4042C0B2FEF7D0FB0F49FEF7E0
:10206000D5FC054623691E68F06AFEF7C3FB2946C6
:10207000FEF718FCFEF7DCFD7063A18A206904F00E
:10208000A1FF70BD00228188006802F007FE0122D6
:10209000A189A06802F002FED8E700BF0000C84294
:1020A00008B50176FFF7C2FF08BD10B50446002150
:1020B000FFF7F6FF0022A188206802F0EFFD002262
:1020C000A189A06802F0EAFD10BD84B000B50DF151
:1020D000080C8CE80E008646BCE80F00AEE80F0046
:1020E0009CE803008EE803005DF804EB04B0704741
:1020F00010B590B0044681638287002280F83E20AC
:102100000493BDF84830ADF81430139B0693BDF826
:102110005030ADF81C30199B0893BDF86830ADF80D
:102120002430159B0A93BDF85830ADF82C30179B1E
:102130000C93BDF86030ADF834301B9B0E93BDF8A6
:102140007030ADF83C3007AB93E807008DE807002E
:1021500004AB0ECB2046FFF7B8FF10AB13E9070026
:102160008DE807000AAB0ECB04F11C00FFF7ADFFB2
:10217000204610B010BD08B50122818F806B02F09F
:102180008DFD08BD10B50446FFF78FFF04F11C005C
:10219000FFF78BFF0022A18FA06B02F07FFD10BD27
:1021A0000160002242608260C260704708B54268E8
:1021B0000368D21A914200D208BD01481AF058FCB7
:1021C000B4FD040803684268934200D0436070473E
:1021D00040680138704710B584B084460191446866
:1021E0000368E31A6FF00040C01A88420ED30393CD
:1021F00099420ED803AA10681844DCF80030E41A9B
:10220000844208D8002809DB04B010BD10461AF03B
:1022100017FC01AAEFE76FF00040F5E76FF0004010
:10222000F2E708B50846114605F0B6FB08BD10B543
:10223000044601688268521A09B1FFF7F2FF20468E
:1022400010BD10B50446FFF7F2FF204610BD08B5DB
:10225000081E02DB05F0A0FF08BD1AF0A9FB000074
:102260002DE9F84F05468A4693461D4A0121FFF79E
:10227000B2FFD5F800806F68AAEB0804814608B366
:10228000002201462846FFF7E2FF06469BF8003091
:102290003355002C18DC01343444A7EB0A07002F17
:1022A00018DC3C44AA68A2EB0802B8F1000F03D086
:1022B00041462846FFF7B5FF2E606C604E44AE6085
:1022C000BDE8F88F0026E1E72246414630463DF062
:1022D0007DFAE0E73A46514620463DF077FAE0E7DE
:1022E00000FE040810B5044643688268934208D093
:1022F0000A781A704368013343602046FFF768FF8D
:1023000010BD0A461946FFF7ABFFF6E72DE9F84F77
:1023100005468A4693461D4A0121FFF75CFFD5F822
:1023200000806F68AAEB0804814608B300220146CA
:102330002846FFF78CFF06469BF800303355002CEB
:1023400018DC01343444A7EB0A07002F18DC3C44A6
:10235000AA68A2EB0802B8F1000F03D04146284654
:10236000FFF75FFF2E606C604E44AE60BDE8F88FF3
:102370000026E1E72246414630463DF027FAE0E7F5
:102380003A46514620463DF021FAE0E700FE0408B7
:1023900008B543688268934205D00A781A7043688A
:1023A0000133436008BD0A461946FFF7AFFFF9E75E
:1023B000F0B589B007462022002168463DF086FA34
:1023C0003E1D3046FFF7FEFE4FF0FF330422694604
:1023D000386805F0EAF90024032C06DC0DEB040153
:1023E0003046FFF7D5FF0134F6E79DF8035001357D
:1023F000EDB24FF0FF332A4601A9386805F0D5F950
:10240000002405E0211D69443046FFF7C1FF013477
:10241000A542F7DC09B0F0BD38B515460C1A012C01
:1024200006DD2246014628463DF0D0F9281938BD80
:10243000012CFBD103781370F8E70000F8B5571AA8
:1024400011D404460D46164687B100223946FFF7DF
:10245000FEFE024622601744A76031462846FFF779
:10246000DBFF6060F8BD02481AF0EAFA0022F1E7EB
:102470001CFE040810B582B0044602AB03E9060056
:1024800000230360436083600A44FFF7D7FF04E042
:102490002046FFF7CCFE05F081FA204602B010BDC1
:1024A00030B589B004460D461D4B1B88ADF8183079
:1024B00006AB04930223059307AB04AA06CA01A83E
:1024C000FFF7D8FF8DF81D500DF11D0101A8FFF792
:1024D00009FF00238DF81E300DF11E0101A8FFF742
:1024E00001FFFA238DF81F300DF11F0101A8FFF73E
:1024F000F9FE0199029A521A4FF0FF3392B2206806
:1025000005F0E7F82046FFF753FF01A8FFF799FE13
:1025100009B030BD01A8FFF794FE05F03FFA00BFF7
:1025200090FD0408F8B504460D468121FFF7B8FF79
:10253000261D04213046FFF739FE63681F79052107
:102540003046FFF733FE63685B7943EA07232B804D
:10255000F8BD0020704700002DE9F04784B0054623
:102560004668B6F8013003F003088DF80880C3F31D
:1025700081078DF80970C3F3011E8DF80AE0C3F3DB
:10258000811C8DF80BC0C3F301208DF80C00321DA7
:1025900000231C4604E0D15C2144CCB201339BB241
:1025A000872BF8D93378AA2B02D1F378A34226D00F
:1025B0009B499C4824F0CEFE6B681B78AA2B0AD15D
:1025C0006B68DB78A3420BD1964824F05BFD0120B9
:1025D00004B0BDE8F0879449924824F0BBFEEFE7D1
:1025E0009249904824F0B6FE214624F073FF9049AA
:1025F00024F0B0FE6B68D97824F06CFFE4E7002388
:102600000193AA238DF804304FEA8C1343EA002388
:1026100043EA0E1343EA870348EA0303ADF80530A3
:10262000B8F1010F78D0B8F1020F7BD1AB68EA683E
:1026300012685A6000240421012F76D0022F24D181
:10264000AB680B44EA6802F1040A04333432DAF866
:102650000090DAF80480DAF80870DAF80C60C3F851
:102660000090C3F804809F60DE600AF1100A103306
:102670009245ECD1DAF80070DAF80460DAF8082054
:102680001F605E609A603C3189B2BEF1010F79D063
:10269000BEF1020F0ED1AB680B44EA68D2F840E0FD
:1026A000576C966CD26CC3F804E09F60DE601A61D0
:1026B000103189B2BCF1010F74D0BCF1020F1AD1F4
:1026C000AB680B44EE6806F1500204338036D2F852
:1026D0000080D2F804E0D2F808C0D768C3F80080C0
:1026E000C3F804E0C3F808C0DF6010321033B24210
:1026F000EDD1303189B201286FD002280AD1AB6800
:102700000B44EA68D2F88000D2F8842058609A60BE
:10271000083189B20B466FE0EB6872681A600424D6
:10272000002189E70024214686E7EB686A68224495
:1027300002F1040903F1040A3432D9F80030D9F85F
:102740000480D9F80870D9F80C60CAF80030CAF8CB
:102750000480CAF80870CAF80C6009F110090AF17F
:10276000100A9145E9D1D9F80060D9F80420D9F8C8
:102770000830CAF80060CAF80420CAF808303C34AF
:10278000A4B282E7EA686B682344D3F804E09F6848
:10279000DE681B69C2F840E057649664D364103465
:1027A000A4B287E7EA686E682644331D5032343697
:1027B000D3F80080D3F804E0D3F808C0DF68C2F88B
:1027C0000080C2F804E0C2F808C0D76010331032AD
:1027D000B342EDD13034A4B28DE7EA686B6823448C
:1027E00058689B68C2F88000C2F8843092E7AA68F3
:1027F0001A44002010710133872BF8D9AD682C1DC5
:1028000000231A4604E0E05C0244D2B201339BB2DA
:102810009942F8D88DF80720019B2B600020D7E65D
:1028200050FE0408A41B00206CFE040880FE04086F
:102830009CFE0408016042608360002313707047AF
:1028400010B586B0044664230293012301930DF171
:10285000170200921B22D0211A4802F00FFE68BB1B
:102860009DF8173003F0E0038DF8173022681288C6
:10287000B2F57A7F18D0B2F5FA6F1AD0B2F5FA7FB6
:1028800003D143F008038DF817306423029301232A
:1028900001930DF1170200921B22D021094802F08A
:1028A0003BFD68B906B010BD43F010038DF817303A
:1028B000EBE743F018038DF81730E6E70120F1E766
:1028C0000120EFE7C416002000B587B003689B78AD
:1028D0008DF8173064230293012301930DF1170241
:1028E00000921B22D021044802F016FD10B907B057
:1028F0005DF804FB0120FAE7C416002010B586B08D
:10290000044664230293012301930DF11702009200
:102910001C22D021194802F0B1FD50BB9DF81730A0
:1029200003F070038DF817302268D278082A16D089
:10293000102A19D0042A03D143F008038DF8173068
:1029400064230293012301930DF1170200921C22CC
:10295000D0210A4802F0E0FC68B906B010BD43F08F
:1029600010038DF81730EBE743F018038DF817309C
:10297000E6E70120F1E70120EFE700BFC4160020E1
:1029800010B586B004460A466423D021164802F0EA
:10299000E7FE10B1012006B010BD6268012313707C
:1029A0008DF817306422029201930DF11702009204
:1029B0006B22D0210C4802F0AFFC08B10120EAE7FD
:1029C0002046FFF781FF08B10120E4E72046FFF72A
:1029D00037FF08B10120DEE72046FFF78FFF002810
:1029E000D9D00120D7E700BFC41600202DE9F04F51
:1029F0008FB004460D46642302930E2301930AAB65
:102A0000009301233B22D021614802F037FD04905E
:102A1000002840F0BA809DF828309DF8290040EA4F
:102A2000032000B2ADF820009DF82A309DF82BA0BD
:102A30004AEA032A0FFA8AFAADF822A09DF82C3050
:102A40009DF82D9049EA03290FFA89F9ADF82490F1
:102A50009DF82E301B021BB29DF82F2043EA020B7B
:102A60009DF830309DF8318048EA03280FFA88F845
:102A7000ADF818809DF832309DF8337047EA03278F
:102A80003FB2ADF81A709DF834309DF8356046EAD3
:102A9000032636B2ADF81C60FDF7B0FE3D49FDF7E8
:102AA000B5FF05902368D878FDF7A4FE0146059888
:102AB000FDF7F8FE68605046FDF7A0FE3549FDF7CA
:102AC000A5FF82462368D878FDF794FE014650465C
:102AD000FDF7E8FEA8604846FDF790FE2D49FDF79A
:102AE00095FF81462368D878FDF784FE0146484665
:102AF000FDF7D8FEE8605846FDF780FE2649FDF751
:102B000085FF2649FDF7C6FD28604046FDF776FEA5
:102B10002049FDF77BFF804623681888FDF76AFE91
:102B200001464046FDF7BEFEA3681968FDF7B0FDFB
:102B300028613846FDF762FE1649FDF767FF074634
:102B400023681888FDF756FE01463846FDF7AAFEB1
:102B5000A3685968FDF79CFD68613046FDF74EFE9D
:102B60000C49FDF753FF064623681888FDF742FE1F
:102B700001463046FDF796FEA3689968FDF788FD8B
:102B8000A86104980FB0BDE8F08F01230493F8E723
:102B9000C416002000FEFF460000AA43B81E1242E1
:102BA00030B58BB005460024039404940594069434
:102BB00007940894099400940194029443680222B3
:102BC0001A7017E003A92846FFF710FF079900982D
:102BD000FDF760FD009008990198FDF75BFD0190FD
:102BE00009990298FDF756FD0290142001F096FA1B
:102BF0000134E4B22B681879A042E3D8FDF7FAFD5E
:102C000001460098FDF702FFAC682168FDF742FD20
:102C100020602B681879FDF7EDFD01460198FDF75E
:102C2000F5FEAC686168FDF735FD60602B681879CA
:102C3000FDF7E0FD01460298FDF7E8FEAC68A168EB
:102C4000FDF728FDA0606B6803221A700BB030BD41
:102C500001607B2280F83420704700000346026840
:102C6000E021118002689221917002683D21D170AB
:102C700002684FF4FA719180016800228A7101683C
:102C80000420C8711968642008721968012048720C
:102C900021490868D3F800C0CCF80A001868C2813E
:102CA000186841F2707CA0F810C0186840F6C41C87
:102CB000A0F812C04868D3F800C0CCF818008868A3
:102CC000D3F800C0CCF81C00C8681968C86119683E
:102CD0008720088419683220488419686E2081F89A
:102CE000240081F8252081F82620196881F8272002
:102CF00081F8282081F82920196881F82A2081F894
:102D00002B2081F82C201B6883F82D2083F82E209F
:102D100083F82F20704700BF94FD040870B58EB073
:102D20000023089302230C9307230A9301230B9398
:102D300090F834308DF80C3003689A788DF80D20B7
:102D4000DA788DF80E209A798DF80F20DA798DF8DF
:102D500010201A7A8DF811205A7A8DF812209A7A5A
:102D60008DF81320DA7A8DF814201A7B8DF815204F
:102D70005A7B8DF816201A7E8DF817205A7E8DF812
:102D800018209A7E8DF819201A7F8DF81A205A7F04
:102D90008DF81B209A7F8DF81C201A7D8DF81D2040
:102DA0005A7D8DF81E209A7D8DF81F201A88ADF867
:102DB00000209A88ADF80220B3F90E20ADF8042067
:102DC000B3F91020ADF80620B3F91230ADF8083091
:102DD00001F02EFD18B1012630460EB070BD2D4B0E
:102DE000F322DA600DA908A801F01AFE064610B910
:102DF00003AD294C08E001F033FD0126ECE7013476
:102E0000264B9C420DD8013508AB9D420DD00020C9
:102E10002A780346214601F05DFD0028EFD0012607
:102E2000EDE701F01DFD0126D6E76D4604E0023412
:102E30001A4B9C420ED802350DF10A039D420DD06B
:102E40002A8800232146012001F044FD0028EED00D
:102E50000126ECE701F004FD0126BDE701F000FDCD
:102E6000B0B900250C4C10E00D490E4824F072FA60
:102E7000294624F02FFB0C4924F06CFA14F8011BAE
:102E800024F028FB24F0FEF80135132DECDDA3E738
:102E90000126A1E7003C024000000608FFFF0708EA
:102EA000A8FE0408A41B0020B4FE04082DE9F0418C
:102EB00088B0002403940494059406940794009425
:102EC000474B1A6B42F004021A631A6B02F00402B9
:102ED0000092009A01941A6B42F001021A631A6B75
:102EE00002F001020192019A02941A6B42F002026E
:102EF0001A631B6B03F002030293029B394F2246B5
:102F00004FF49C71384601F0C9FE374E224640F618
:102F10000C01304601F0C2FE4FF48C73039301257F
:102F200004950594069403A9384601F0C3FD0323D4
:102F3000039304944FF00208CDF8148003A930469F
:102F400001F0B8FD0C2303930495CDF8148006948A
:102F50000DEB0301304601F0ADFD102303934FF458
:102F600088130493059503A9304601F0A3FD20239F
:102F7000039304950594CDF8188003A9384601F011
:102F800099FD0723039304940594DFF8608003A957
:102F9000404601F08FFD4FF44043039304940595A0
:102FA00003A9404601F086FD4FF400730393049497
:102FB000059403A9384601F07DFD4FF400630393A7
:102FC000112304930595069403A9304601F072FD80
:102FD000224621460A2001F0FBF808B0BDE8F08146
:102FE0000038024000080240000002400004024095
:102FF00010B582B0002400941A4B1A6B42F4800280
:103000001A631A6B02F480020092009A01941A6B00
:1030100042F400121A631B6B03F400130193019B2B
:10302000224621460C2001F0D3F80C2001F0E0F8F4
:1030300022462146102001F0CBF8102001F0D8F8EC
:1030400022462146382001F0C3F8382001F0D0F89C
:1030500022462146442001F0BBF8442001F0C8F884
:1030600002B010BD003802402DE9F04F9DB0814CF8
:1030700021468148FFF7ECFD804E81493046FFF73D
:103080008FF8804D2A468049304604F001FCA4F1B7
:103090005006A4F110033246211D7C48FFF7CAFBFD
:1030A0007B4B1A467B4942F8101B5A6003F19C0285
:1030B0009A60DE60784A1A60784B0C9300248DF891
:1030C0003440DFF8DC910923009323460CAA06CA9A
:1030D0004846FEF761FE734F2A463946484604F0DB
:1030E000D7FBDFF8C4A10EAA9AE8030082E8030028
:1030F000DFF8B88104230093012306CA4046FEF797
:103100004BFE2A463946404604F0C2FB214648465B
:10311000FEF702FD0146DFF898B101225846FEF79E
:103120001EFE644F2A463946584604F0B1FB012181
:103130004846FEF7F1FC0146DFF87C91082248463C
:10314000FEF70DFE2A463946484604F0A1FB21460B
:103150004046FEF7E1FC01468DF8484003238DF818
:10316000493012AB10934FF00209CDF84490DFF8CC
:103170004CB110AB0CCB5846FEF7CEFD2A46394673
:10318000584604F085FB21464046FEF7C5FC014643
:10319000BAF80830ADF8543015AB1393CDF8509011
:1031A000DFF81CB113AB0CCB5846FEF7B5FD2A4631
:1031B0003946584604F06CFB21464046FEF7ACFC0D
:1031C00001468DF8604001238DF8613018AB1693ED
:1031D000CDF85C90DFF8ECB016AB0CCB5846FEF7A0
:1031E0009BFD2A463946584604F052FB214640468C
:1031F000FEF792FC0146BAF80C30ADF86C301BAB10
:103200001993CDF86890DFF8C08019AB0CCB40461D
:10321000FEF782FD2A463946404604F039FB5E3609
:103220002A4D3346224629462948FEF7C9FE334631
:10323000042229462748FEF7C3FE274904230A93A0
:10324000264B0993089407934FF400730693059156
:103250004FF4807304930391102302930191082388
:1032600000930B4620221E48FEF742FF1DB0BDE82A
:10327000F08F00BF54130020CC120020BC1200209D
:10328000D013002000000020293A0008B0120020CE
:10329000841100206C1A0508781A050864150020AE
:1032A0005C110020433A0008A4FD040834110020FA
:1032B00028110020373A00081C11002010110020AE
:1032C00004110020F8100020EC100020D41400207D
:1032D000E0100020D4100020000802401C1500203F
:1032E0009410002000B583B001904FF6FF730122C7
:1032F00001A9064804F0EDF9054B1B680021986808
:1033000039F02EFD019803B05DF804FB8C1300200A
:103310004007002008B5044B834200D008BD034895
:10332000FEF7E2FBFAE700BF641500205C11002005
:10333000102800D0704738B5124B5B78022B00D0B4
:1033400038BD114B1B685D681049114824F002F824
:10335000ADB2294624F0C2F80E4923F0FBFF002449
:1033600009E00D4B2344197C094824F0B3F80B49BC
:1033700023F0F0FF0134A542F3DC054823F082FE80
:10338000DEE700BF041300200C160020B8FE04087E
:10339000A41B0020D8FE040884110020740705082F
:1033A0000C4B984200D0704710B504460A48FFF70E
:1033B000D3F828B18C220949204603F0BBF810BD90
:1033C000204603F035F98C220549204602F09AFF89
:1033D000F5E700BF6C160020841100209411002036
:1033E0002012002008B5044B984200D008BD8C2262
:1033F000024903F09FF8F9E76C16002094110020B1
:1034000008B50C490C4823F0A5FF23F03BFE002330
:103410001A46FF210948FEF746FB0948FEF758FD0A
:1034200000220421074801F039FC074B03225A709F
:1034300072B6FEE7DCFE0408A41B00202811002061
:103440005C110020000002400413002008B50A4867
:103450000A4B03604FF4E133436000238360C36091
:1034600003610C2242618361C36104F003F900B976
:1034700008BDFFF7C5FF00BF8C13002000100140FE
:1034800008B50B480B4B0360002343608360C360A7
:10349000036143614FF4007282610362436283629D
:1034A0000A23C36202F0CEFE00B908BDFFF7A8FFF1
:1034B0006C1600200030014000B58FB000230A9345
:1034C0000B930C930D930893099301930293039329
:1034D000049305930693079321484FF080420260BE
:1034E000436083606422C2600361836103F0D2FBA6
:1034F00050BB4FF480530A930AA9194803F0D4FC37
:1035000020BB174803F0F2FB10BB0023089309937C
:1035100008A9134803F09EFFE0B96023019300223D
:1035200002920392059201A90D4803F043FC98B959
:10353000082201A90A4803F03DFC78B9084800F0C8
:10354000E9FB0FB05DF804FBFFF75AFFFFF758FFE8
:10355000FFF756FFFFF754FFFFF752FFFFF750FF4B
:103560006415002000B58FB000230A930B930C93D1
:103570000D93089309930193029303930493059386
:10358000069307932248234A0260436083604FF604
:10359000FF72C2600361836103F07CFB58BB4FF490
:1035A00080530A930AA91A4803F07EFC28BB1848E6
:1035B00003F09CFB18BB00230893099308A9144847
:1035C00003F048FFE8B960230193002202920392BE
:1035D000059201A90E4803F0EDFBA0B904220DEB02
:1035E00002010B4803F0E6FB78B9094800F092FBB2
:1035F0000FB05DF804FBFFF703FFFFF701FFFFF7D4
:10360000FFFEFFF7FDFEFFF7FBFEFFF7F9FE00BF31
:103610001C1500200004004000B58FB000230A9361
:103620000B930C930D9308930993019302930393C7
:1036300004930593069307932248234A02601922B4
:10364000426083604FF6E752C2600361836103F01A
:1036500021FB58BB4FF480530A930AA9194803F081
:1036600023FC28BB174803F041FB18BB0023089339
:10367000099308A9134803F0EDFEE8B9602301930C
:10368000002202920392059201A90E4803F092FBD8
:10369000A0B904220DEB02010A4803F08BFB78B9B4
:1036A000084800F037FB0FB05DF804FBFFF7A8FEF9
:1036B000FFF7A6FEFFF7A4FEFFF7A2FEFFF7A0FEAE
:1036C000FFF79EFED41400200008004008B50A4809
:1036D0000A4B03604FF4E133436000238360C3600F
:1036E00003610C2242618361C36103F0C3FF00B92F
:1036F00008BDFFF785FE00BFD0130020004C00403E
:1037000008B50A480A4B03600A4B436000238360F4
:10371000C3604FF48042026143618361C36103620D
:1037200001F01CFD00B908BDFFF76AFEC4160020B9
:1037300000540040801A060000B595B034220021E4
:1037400007A83CF0C3F80023029303930493059366
:1037500006930093224A116C41F080511164126C5F
:1037600002F080520092009A01931E4A116841F4BF
:1037700040411160126802F440420192019A022213
:10378000079201210A9110210B910D920E930823AB
:103790000F93B423109311921292139207A802F080
:1037A00051FAB0B902F0A6F8A8B90F230293022388
:1037B0000393002304934FF4A05305934FF48053D5
:1037C0000693052102A802F0D3F830B915B05DF8D0
:1037D00004FBFFF715FEFFF713FEFFF711FE00BF16
:1037E000003802400070004070B500F06BFCFFF73D
:1037F000A3FFFFF75BFBFFF7FBFBFFF727FEFFF7DE
:103800003FFEFFF759FEFFF7ADFEFFF705FFFFF79D
:103810005DFFFFF775FF6F496F4823F09BFD23F0B5
:1038200031FC6E4B01225A706D4C05212046FEF78B
:103830004EF9FF23002211462046FEF734F969486D
:10384000FEF746FB6848FFF709FA03216748FFF7D0
:1038500097F808B1FFF7D4FD642000F05FFC644DD9
:1038600001224FF40061284601F018FA0A2000F006
:1038700055FC00224FF40061284601F00FFA8C221B
:103880005C495D4802F056FE5C4C2046FEF773FC36
:1038900000215B48FEF798FB00212046FEF700FC64
:1038A0000023FF2219464E48FEF7FDF84B4C94F8D2
:1038B000591094F85D3011FB03F1524EC9B23046F5
:1038C000FEF705F994F85C3094F85B2094F85A10F0
:1038D0003046FEF7E8F84348FEF7FAFA4A493E4810
:1038E00023F038FD23F0CEFB022363700122042174
:1038F000284601F0D3F93EE04048FEF743FC3FE0A4
:10390000364B93F88030002B48D1344B93F88130FC
:103910009BB1314C3D49204623F01CFD23F0B2FB06
:103920003248FFF73DF92D4B002283F881203849BA
:10393000204623F00FFD23F0A5FB364C21462B48F3
:10394000FFF754F804F138013348FEF7EBFD228FFE
:1039500094F973309BB2B4F86C105B1A1344A4F85A
:103960004830B4F982102648FEF72EFB94F98110F6
:103970002248FEF795FB194B93F88230002BBBD100
:10398000164B93F88230002BBAD1144B93F8833046
:10399000002BB5D01948FEF7EEFBB1E71F490E48E2
:1039A00023F0D8FC23F06EFB0F48FFF7B7F930B1D6
:1039B0001B49094823F0CEFC23F064FBA5E7074B25
:1039C000002283F880201749034823F0C3FC23F02A
:1039D00059FB9AE7F8FE0408A41B002004130020FA
:1039E000281100205C110020CC120020B012002011
:1039F00000000240941100206C160020941000205A
:103A0000E01000201C11002014FF0408C0FF04086F
:103A1000E8FF040808130020BC1200202CFF040853
:103A20004CFF040884FF040810B504460430FEF778
:103A300008FC204610BD10B50446FEF794F8204659
:103A400010BD10B504461C30FEF7CEF804F10C0092
:103A5000FEF789F8204610BD08B5FFF705FB08BD45
:103A600082B0002100910B4B5A6C42F480425A64A0
:103A70005A6C02F480420092009A01911A6C42F052
:103A800080521A641B6C03F080530193019B02B0B7
:103A9000704700BF0038024030B589B0002303935F
:103AA00004930593069307930268144B9A4201D03E
:103AB00009B030BD00250195114C236B43F0020382
:103AC0002363236B03F002030193019B4FF44073C4
:103AD000039312230493032306930423079303A958
:103AE000084800F0E7FF0295236C43F400132364B9
:103AF000236C03F400130293029BD9E700540040A7
:103B0000003802400004024030B589B0002303931E
:103B100004930593069307930268364B9A4201D0AB
:103B200009B030BD04460025019503F584335A6C75
:103B300042F480525A645A6C02F480520192019A03
:103B400002951A6B42F001021A631B6B03F001032A
:103B50000293029BE023039302230493032306931F
:103B60000523079303A9244800F0A4FF2348244B0E
:103B700003604FF0C06343608560C5604FF48063AD
:103B80000361456185614FF48073C3614FF48033F5
:103B90000362456200F0C8FB28BB184BE3649C63DA
:103BA0001848194B03604FF0C063436040238360A3
:103BB0000023C3604FF48062026143618361C3618B
:103BC0004FF480320262436200F0AEFB70B90D4BDD
:103BD000A3649C6300221146232000F0F9FA2320FD
:103BE00000F006FB9CE7FFF70BFCD6E7FFF708FCAD
:103BF000EDE700BF00300140000002400C1600203D
:103C000010640240AC1500208864024010B584B0F6
:103C10000368B3F1804F07D0374A934251D0374AF7
:103C200093425BD004B010BD044600230193344A94
:103C3000116C41F001011164126C02F00102019259
:103C4000019A3048304A02604FF0C0624260402220
:103C50008260C3604FF4806202614FF4805242611F
:103C60004FF480428261C3610362436200F05CFBF7
:103C700008BB244B63629C632448254B03604FF0D0
:103C8000C0634360402383600023C3604FF48062BD
:103C900002614FF4805242614FF480428261C361FD
:103CA0000362436200F040FB40B9184B23629C63FF
:103CB000E3629C63B6E7FFF7A3FBDAE7FFF7A0FB3D
:103CC000F3E7002302930E4B1A6C42F002021A64CF
:103CD0001B6C03F002030293029BA3E700230393F0
:103CE000074B1A6C42F004021A641B6C03F00403C5
:103CF0000393039B96E700BF0004004000080040C8
:103D0000003802407414002088600240141400201F
:103D100028600240F0B58BB000230593069307930B
:103D2000089309930368B3F1804F07D0394A93424F
:103D300034D0394A934254D00BB0F0BD00240194E2
:103D400003F50E331A6B42F002021A631A6B02F08B
:103D500002020192019A02941A6B42F001021A6364
:103D60001B6B03F001030293029B4FF480630593E6
:103D700002270697032608960125099505A92748D5
:103D800000F098FE4FF400430593069707940896B9
:103D9000099505A9224800F08DFECDE70025039581
:103DA000204B1A6B42F002021A631B6B03F00203F2
:103DB0000393039B10230593022406940323089383
:103DC0000994164E05A9304600F074FE2023059391
:103DD000069407950895099405A9304600F06AFEF7
:103DE000AAE7002304930F4B1A6B42F002021A63F6
:103DF0001B6B03F002030493049BC023059302236F
:103E0000069303220892099305A9044800F052FE84
:103E100092E700BF00040040000800400004024098
:103E2000000002400038024000B58BB0002305932B
:103E300006930793089309930368284A934205D091
:103E4000274A934226D00BB05DF804FB0021019174
:103E5000244B1A6C42F400221A641A6C02F40022F9
:103E60000192019A02911A6B42F004021A631B6BD1
:103E700003F004030293029B4FF440630593022373
:103E80000693032308930823099305A9164800F015
:103E900011FED8E700210391124B5A6C42F0100238
:103EA0005A645A6C02F010020392039A04911A6B3E
:103EB00042F001021A631B6B03F001030493049B9D
:103EC0004FF4C0630593022306930323089307234B
:103ED000099305A9054800F0EDFDB4E7004C00404A
:103EE000001001400038024000080240000002407B
:103EF000FEE7FEE7FEE7FEE7FEE770477047704724
:103F000008B500F0F9F808BD08B5102000F0CCFEA7
:103F100008BD000008B5024800F0FEFA08BD00BF69
:103F20001414002008B5024800F0F6FA08BD00BFDE
:103F30007414002008B5024802F060FC08BD00BF00
:103F40006C16002008B5024800F0E6FA08BD00BF74
:103F50000C16002008B5024800F0DEFA08BD00BFCC
:103F6000AC1500200120704708B53EF0E9FD16238E
:103F700003604FF0FF3008BD08B54FF0FF31FFF789
:103F8000F3FFFEE770B50C461646002506E0AFF3DA
:103F90000080214601F8010B01350C46B542F6DBE5
:103FA000304670BD70B50C461646002504E014F886
:103FB000010BFFF797F90135B542F8DB304670BDCC
:103FC0004FF0FF3070474FF400534B6000207047B4
:103FD000012070470020704710B503460C4A0D4978
:103FE0000D48006840B10C4800680344521A9342DF
:103FF00006D8094A136010BD0748084C0460F2E770
:104000003EF09EFD0C2303604FF0FF30F3E700BF4E
:1040100000000220000400001C170020B032002025
:1040200070470000DFF834D00D480E490E4A0023D7
:1040300002E0D458C4500433C4188C42F9D30B4A5C
:104040000B4C002301E013600432A242FBD3FFF7C4
:10405000E7FF3EF0E7FDFFF7C7FB704700000220D7
:104060000000002078100020940906087810002035
:10407000AC320020FEE7000010B504460E4B1A7863
:104080004FF47A73B3FBF2F30C4A1068B0FBF3F011
:1040900000F0BCF868B90F2C01D901200AE0002219
:1040A00021464FF0FF3000F093F8054B1C600020D4
:1040B00000E0012010BD00BF0C000020080000201F
:1040C0001000002008B50B4B1A6842F400721A6009
:1040D0001A6842F480621A601A6842F480721A60A8
:1040E000032000F063F80F20FFF7C6FFFFF7B8FCCE
:1040F000002008BD003C0240034A1168034B1B78B6
:104100000B441360704700BF201700200C000020F4
:10411000014B1868704700BF2017002038B50446CF
:10412000FFF7F6FF0546B4F1FF3F02D0044B1B78C2
:104130001C44FFF7EDFF401BA042FAD338BD00BF7F
:104140000C000020002808DB0901C9B200F1604022
:1041500000F5614080F80013704700F00F0009017E
:10416000C9B2014B1954704714ED00E000B500F0DE
:104170000700C0F1070CBCF1040F28BF4FF0040C7E
:10418000031D062B0FD9C31E4FF0FF3E0EFA0CF095
:1041900021EA000199400EFA03FE22EA0E0241EAEA
:1041A00002005DF804FB0023EEE70000074AD36835
:1041B00023F4E0631B041B0C000200F4E0600343E3
:1041C00043F0BF6343F40033D360704700ED00E079
:1041D00010B50446054BD868C0F30220FFF7C6FFB0
:1041E00001462046FFF7AEFF10BD00BF00ED00E026
:1041F000002807DB00F01F02400901239340024A18
:1042000042F82030704700BF00E100E00138B0F113
:10421000807F0BD24FF0E0235861054AF02182F8ED
:1042200023100020986107221A617047012070470F
:1042300000ED00E030B405682C6824F480242C6084
:10424000046863608368402B05D003689960036845
:10425000DA6030BC704703689A600368D960F8E799
:1042600010B40368D9B21039094AA2FB01421209FD
:10427000084CA25CC2655F2906D96FF309030433B9
:104280008365806D10BC70476FF309038365F8E7A1
:10429000ABAAAAAA941A0508836A826992B9012B6B
:1042A0000AD0022B02D00BB100207047C36A13F072
:1042B000807F28D100207047C36AB3F1C07F24D02B
:1042C00000207047B2F5005F09D0022B25D9032BDF
:1042D00025D1C36A13F0807F23D100207047032BC0
:1042E00003D8DFE803F01404140A00207047C36AFF
:1042F00013F0807F0DD100207047C36AB3F1C07FF7
:1043000009D000207047012070470120704701202C
:10431000704701207047012070470120704700203E
:10432000704701207047000070B50446FFF7F0FEAB
:10433000002C5BD00546022384F83530002384F836
:1043400034302268136823F00103136023681A686D
:1043500012F0010F0AD0FFF7DBFE431B052BF5D946
:1043600020236365032084F8350070BD1A68204956
:1043700011406268A0680243E0680243206902437A
:1043800060690243A0690243E0690243206A024374
:104390000A43616A04291ED01A602668756925F0EF
:1043A0000705636A1D43042B07D1A36A1D43E36A13
:1043B0001BB12046FFF770FF90B975612046FFF7EB
:1043C0004FFFE26D3F23934083600020606501232F
:1043D00084F83530C9E7E16A206B01430A43DBE723
:1043E00040236365012084F83500BEE70120BCE767
:1043F0003F8010F038B50446856D90F834000128F0
:104400002BD0012084F8340094F83500C0B2012884
:1044100004D0002384F83430022038BD022084F810
:104420003500002060652046FFF704FFE26D3F2362
:104430009340AB602268136843F016031360236C4B
:1044400023B12268136843F00803136022681368DD
:1044500043F0010313600020DFE70220DDE770B5C1
:104460000446866DFFF754FE94F83530DBB2022B1C
:1044700006D080236365002384F83430012070BDAA
:1044800005462268136823F01603136022685369F7
:1044900023F080035361236CE3B12268136823F097
:1044A000080313602268136823F001031360236874
:1044B0001B6813F0010F11D0FFF72AFE431B052BD9
:1044C000F5D920236365032084F83500002384F8A0
:1044D0003430D4E7A36C002BDFD1E3E7E26D3F2358
:1044E0009340B360012384F83530002084F8340011
:1044F000C5E790F83530DBB2022B03D0802343654B
:1045000001207047052380F835300268136823F0D6
:104510000103136000207047F0B583B00446002308
:104520000193724B1D68724BA3FB0535AD0A876D75
:104530003E68C26D08239340334210D003681A6866
:1045400012F0040F0BD01A6822F004021A60C26D38
:1045500008239340BB60436D43F001034365E26D64
:1045600001239340334209D02268526912F0800F30
:1045700004D0BB60636D43F002036365E26D042306
:104580009340334209D02268126812F0020F04D01F
:10459000BB60636D43F004036365E26D10239340D9
:1045A000334224D02268126812F0080F1FD0BB607B
:1045B00023681A6812F4802F0DD01B6813F4002FA3
:1045C00004D1236C9BB12046984710E0A36C73B1D3
:1045D000204698470BE01A6812F4807F03D11A68CE
:1045E00022F008021A60236C0BB120469847E26D56
:1045F00020239340334255D02268126812F0100FE6
:1046000050D0BB6094F83530DBB2052B0ED0236858
:104610001A6812F4802F33D01B6813F4002F2AD1AC
:10462000636C002B3ED0204698473BE0226813681D
:1046300023F0160313602268536923F0800353614B
:10464000236CA3B12268136823F008031360E26DA2
:104650003F239340BB60012384F83530002384F866
:104660003430236D002B3FD0204698473CE0A36CAC
:10467000002BE7D1EBE7E36BA3B12046984711E0AD
:104680001A6812F4807F09D11A6822F010021A60A9
:10469000012384F83530002384F83430E36B0BB108
:1046A00020469847636DFBB1636D13F0010F17D07F
:1046B000052384F835302268136823F00103136062
:1046C000019B01330193AB4204D823681B6813F0AC
:1046D000010FF5D1012384F83530002384F83430FC
:1046E000E36C0BB12046984703B0F0BD08000020F2
:1046F000B5814E1B10B409490C6924F440740C6157
:104700000C6944F440740C610C6944F001040C61C0
:104710000260BFF36F8F436010BC7047003C0240E3
:10472000074B1A6922F440721A611A6942F4007246
:104730001A611A6942F001021A610160704700BFF4
:10474000003C0240074B1A6922F440721A611A6950
:1047500042F480721A611A6942F001021A61018002
:10476000704700BF003C0240064B1A6922F44072B9
:104770001A611A691A611A6942F001021A6101701C
:10478000704700BF003C0240274BDB6813F0100F5E
:1047900007D0264AD36943F01003D361224B10227D
:1047A000DA60214BDB6813F0200F07D01F4AD36972
:1047B00043F00803D3611C4B2022DA601A4BDB68FC
:1047C00013F0400F07D0194AD36943F00403D361B3
:1047D000154B4022DA60144BDB6813F0800F07D0D2
:1047E000124AD36943F00203D3610F4B8022DA608F
:1047F0000D4BDB6813F4807F08D00C4AD36943F07B
:104800000103D361084B4FF48072DA60064BDB681A
:1048100013F0020F07D0054AD36943F02003D36198
:10482000014B0222DA607047003C0240241700204E
:10483000094B1B69002B01DB00207047064B074A20
:104840005A6002F188325A601B69002B01DB00209C
:1048500070470120704700BF003C024023016745BC
:10486000034A136943F0004313610020704700BFFF
:10487000003C024038B50446144B0022DA61FFF7D1
:1048800047FC0546124BDB6813F4803F0AD0B4F1B5
:10489000FF3FF7D024B1FFF73BFC401BA042F1D90A
:1048A00003200DE00A4BDB6813F0010F02D0084B28
:1048B0000122DA60064BDB6813F4F97F01D1002096
:1048C00038BDFFF761FF0120FAE700BF2417002081
:1048D000003C0240F8B516461B4A127E012A30D031
:1048E00004460D461F46184B01221A764CF25030F2
:1048F000FFF7C0FF90B9ACB1012C18D0022C1BD02F
:1049000032463B462846FFF7F5FE4CF25030FFF7A3
:10491000B1FF0E4A136923F0010313610A4B002211
:104920001A76F8BDF1B22846FFF71EFFEDE7B1B2E7
:104930002846FFF707FFE8E731462846FFF7F0FE75
:10494000E3E70220EDE700BF24170020003C02400F
:10495000074B1A6922F440721A611A6942F0040284
:104960001A611A6942EA002242F480321A617047E1
:10497000003C0240012905D0022906D039B14FF48C
:10498000407104E04FF4807101E04FF400710B4B73
:104990001A6922F440721A611A690A431A611A6983
:1049A00022F0F8021A611A6942EAC00040F00200DF
:1049B00018611A6942F480321A617047003C024063
:1049C000164B1B6813F4007F10D0144B1A6822F4A6
:1049D00000721A601A6842F400621A601A6822F4BF
:1049E00000621A601A6842F400721A600B4B1B686E
:1049F00013F4806F10D0094B1A6822F480621A6099
:104A00001A6842F480521A601A6822F480521A60BE
:104A10001A6842F480621A60704700BF003C02408E
:104A2000F8B5224B1B7E012B3ED004460E461F4B91
:104A300001221A764CF25030FFF71CFF074670BB7C
:104A40004FF0FF3333602368012B16D0A568E3686D
:104A5000A2681344AB4220D9217C2846FFF78AFF85
:104A60004CF25030FFF706FF114A136923F0FA03A6
:104A70001361074680B90135E9E76168207CFFF7DB
:104A800067FF4CF25030FFF7F5FE0746084A1369FE
:104A900023F00403136100E03560FFF791FF034B3F
:104AA00000221A763846F8BD0227FBE724170020BB
:104AB000003C024000230F2B00F2E68030B583B0AB
:104AC00068E085684FEA430E032404FA0EF425EAF1
:104AD0000405CC6804FA0EF42C438460446824EA8C
:104AE00002044A68C2F300129A40224342605FE027
:104AF000DC08083450F8242003F00705AD004FF01F
:104B00000F0E0EFA05FE22EA0E0E0A69AA4042EACC
:104B10000E0240F824205FE0062200E0002202FAA4
:104B20000EF22A430234594D45F82420584A94681D
:104B30006FEA0C0224EA0C05D1F804E01EF4801F91
:104B400001D04CEA0405524CA560E46802EA040571
:104B5000D1F804E01EF4001F01D04CEA04054C4CCF
:104B6000E560646802EA0405D1F804E01EF4003F41
:104B700001D04CEA0405464C6560246822404D682B
:104B800015F4803F01D04CEA0402414C226001330D
:104B90000F2B77D801229A400C6804EA020C32EA03
:104BA0000404F4D14C6804F00304013C012C88D9BE
:104BB0004A6802F00302032A09D0C4685D00032298
:104BC000AA4024EA02048A68AA402243C2604A68D2
:104BD00002F00302022A8BD004684FEA430E03223C
:104BE00002FA0EF224EA02044A6802F0030202FA10
:104BF0000EF2224302604A6812F4403FC7D00022FE
:104C00000192244A546C44F480445464526C02F47B
:104C100080420192019A9C08A51C1C4A52F825501A
:104C200003F0030E4FEA8E0E0F2202FA0EF225EA6F
:104C30000205194A90423FF471AF02F5806290423A
:104C400016D002F58062904214D002F58062904244
:104C500012D002F58062904210D002F5806290423C
:104C60000ED002F5806290423FF456AF072256E71D
:104C7000012254E7022252E7032250E704224EE7C2
:104C800005224CE703B030BD704700BF003801403B
:104C9000003C014000380240000002400AB181613E
:104CA000704709048161704708B5054B5B69034291
:104CB00000D108BD024B5861FEF73AFBF9E700BF8F
:104CC000003C014003685A6912F4806F01D1002052
:104CD00070476FF480625A6100230363202280F8DA
:104CE0003D2080F83E30026C42F00402026480F8FD
:104CF0003C30012070472DE9F04107460D469046B3
:104D00001E4624E0FFF704FA069BC01AB04200D802
:104D1000EEB900233B63202287F83D2087F83E3020
:104D20003A6C42F020023A6487F83C3001201EE0E1
:104D30003B689C6925EA040C1FFA8CFCBCFA8CFCCD
:104D40004FEA5C1CE04511D1B6F1FF3FDAD1C5F363
:104D50000743012BECD13B685B6925EA030C1FFA82
:104D60008CFCBCFA8CFC4FEA5C1CEBE70020BDE835
:104D7000F0812DE9F04105460E46174698463DE084
:104D80001A6842F400721A602B686FF480625A61EC
:104D900000232B63202285F83D2085F83E302A6CC5
:104DA00042F004022A6485F83C30012034E0FFF729
:104DB000AFF9A0EB0800B84200D8FFB900232B637D
:104DC000202285F83D2085F83E302A6C42F02002F2
:104DD0002A6485F83C3001201EE02B689C6926EA95
:104DE0000404A4B2003C18BF0124A4B12B685A6982
:104DF00012F4806FC4D1B7F1FF3FD8D1C6F3074397
:104E0000012BEAD12B685C6926EA0404A4B2003CB9
:104E100018BF0124E9E70020BDE8F08170B5044621
:104E20000D46164623685B6913F0800F1CD120469F
:104E3000FFF748FFD0B9B5F1FF3FF3D0FFF768F9AE
:104E4000801BA84201D8002DECD10023236320222F
:104E500084F83D2084F83E30226C42F02002226427
:104E600084F83C30012000E0002070BD0120FCE708
:104E70002DE9F04385B004460D4691461F46DDF806
:104E800030800D9E0368196841F4807119600096A6
:104E9000434600224FF00111FFF72DFF60B9236850
:104EA00005F0FE051D613346424626492046FFF7C0
:104EB00060FF68B1012008E023681B6813F4807F5D
:104EC00002D04FF400732364032005B0BDE8F083E3
:104ED0000023039323685A6903929B690393039BFE
:104EE000324641462046FFF799FF30B9012F0FD1D6
:104EF00023685FFA89F61E61E7E7236C042B01D073
:104F00000120E2E72268136843F400731360F7E7B7
:104F100023684FEA19221A61324641462046FFF7BC
:104F20007DFF20B923685FFA89F61E61CDE7236C07
:104F3000042B01D00120C8E72268136843F40073F2
:104F40001360F7E7020001002DE9F04784B0044642
:104F50000D46164699460C9FDDF8348002681368AA
:104F600043F4806313600368196841F48071196029
:104F7000CDF800803B4600224FF00111FFF7BBFE49
:104F800070B95FFA85FA236805F0FE051D61434696
:104F90003A4641492046FFF7ECFE68B1012008E09F
:104FA00023681B6813F4807F02D04FF400732364DE
:104FB000032004B0BDE8F0870023039323685A69F7
:104FC00003929B690393039B424639462046FFF7B1
:104FD00025FF80B9B9F1010F18D12368F6B21E611F
:104FE000424639462046FFF719FF68B3236C042B6D
:104FF00024D00120DDE7236C042B01D00120D8E769
:105000002268136843F400731360F7E72368320AD9
:105010001A61424639462046FFF700FF18B9236857
:10502000F6B21E61DCE7236C042B01D00120C0E73F
:105030002268136843F400731360F7E7226813686B
:1050400043F400731360D4E72268136843F4807359
:105050001360CDF800803B4600224FF0011120463E
:10506000FFF749FE68B922684AF00103136143461D
:105070003A4609492046FFF77CFE002899D00120D6
:1050800097E723681B6813F4807F02D04FF4007306
:10509000236403208DE700BF0200010070B50446C1
:1050A0000D46164623685B6913F0040F1CD1204699
:1050B000FFF708FED0B9B5F1FF3FF3D0FFF728F8AE
:1050C000801BA84201D8002DECD1002323632022AD
:1050D00084F83D2084F83E30226C42F020022264A5
:1050E00084F83C30012000E0002070BD0120FCE786
:1050F00070B505460C4616462B68596911F0400FED
:1051000029D1596911F0100F15D1FFF701F8801B53
:10511000A04201D8002CEFD100232B63202285F878
:105120003D2085F83E302A6C42F020022A6485F842
:105130003C30012070BD6FF010025A6100232B63D8
:10514000202285F83D2085F83E302A6C2A6485F8B7
:105150003C300120EEE70020ECE70000002800F0E2
:10516000CC8070B5044690F83D30002B77D02423D6
:1051700084F83D302268136823F00103136022682D
:10518000136843F4004313602268136823F4004358
:10519000136000F0A3FC62685A4B9A4264D85A4BE1
:1051A00098428CBF00230123002B40F0A880574970
:1051B000A1FB00318B0C25686A6822F03F0242EAAD
:1051C00091426A6021680A6A22F03F0266684D4D8A
:1051D000AE424FD8013313430B622168CA6922F4EF
:1051E0004F4222F0FF026568464B9D424CD8431E59
:1051F0006D00B3FBF5F3013340F6FC70034278D049
:10520000C3F30B031A43CA6121680B6823F0C00380
:10521000E269206A024313430B6021688B6823F420
:10522000034323F0FF032269E068024313438B60CA
:105230002168CB6823F0FF036269A069024313432E
:10524000CB602268136843F00103136000202064E0
:10525000202384F83D30206384F83E0070BD80F840
:105260003C30FEF719FC82E7294B98428CBF0023A3
:10527000012399E74FF4967505FB03F3254DA5FB34
:1052800003539B090133A6E7A668BEB9431E05EB8D
:10529000450CB3FBFCF30133C3F30B03B3FA83F305
:1052A0005B0943BBC6B9431E05EB4505B3FBF5F3EC
:1052B0000133C3F30B0343F40043A3E7431E05EBA1
:1052C000850C0CEB8C0CB3FBFCF30133C3F30B0329
:1052D000B3FA83F35B09E4E7431E05EB850505EBB1
:1052E0008505B3FBF5F30133C3F30B0343F44043EC
:1052F00088E7042386E7012384E701207047012023
:10530000ACE700BFA08601007F841E0083DE1B4344
:10531000FF083D00D34D62102DE9F04383B00446F1
:105320000F46904699460C9EFEF7F2FE054694F80D
:105330003D00C0B2202803D0022003B0BDE8F083B6
:105340000095192301224B492046FFF7D4FC002881
:1053500040F0898094F83C30012B00F086800123D6
:1053600084F83C3023681A6812F0010F03D11A68E0
:1053700042F001021A602268136823F4006313608C
:10538000212384F83D30402384F83E3000232364F9
:105390000A9B6362BDF82C306385638D2385364B91
:1053A000E362019500964B46424639462046FFF798
:1053B0005FFD00285BD1238D002B35D02A46314676
:1053C0002046FFF72BFD20BB626A236812781A6122
:1053D000626A531C6362218D013989B22185638D14
:1053E0009BB2013B9BB263852368586910F0040FA0
:1053F000E1D00029DFD052781A61636A0133636219
:10540000238D013B2385638D9BB2013B9BB263855A
:10541000D1E7236C042B01D001208EE722681368AA
:1054200043F400731360F7E72A4631462046FFF73E
:1054300035FE50B1236C042B01D001207DE722689A
:10544000136843F400731360F7E72268136843F4AA
:1054500000731360202384F83D30002384F83E302D
:1054600084F83C3069E7022067E7022065E7012005
:1054700063E700BF020010000000FFFF2DE9F043CA
:1054800087B004460F4690469946109EFEF740FEB0
:10549000054694F83D00C0B2202804D002273846C3
:1054A00007B0BDE8F0830095192301228849204602
:1054B000FFF721FC002840F0438194F83C30012B99
:1054C00000F04081012384F83C3023681A6812F010
:1054D000010F03D11A6842F001021A6022681368B2
:1054E00023F400631360222384F83D30402384F8C2
:1054F0003E30002323640E9B6362BDF83C3063851D
:10550000638D2385734BE362019500964B464246BB
:1055100039462046FFF718FD0746002840F0148161
:10552000238D5BB9029323685A6902929A690292A9
:10553000029A1A6842F400721A6075E0012B0AD0D0
:10554000022B1AD00023059323685A6905929B69A0
:105550000593059B68E02268136823F48063136059
:105560000023039323685A6903929A690392039A6A
:105570001A6842F400721A6056E02268136823F435
:10558000806313602268136843F400631360002390
:10559000049323685A6904929B690493049B43E033
:1055A0002A4631462046FFF7A3FD002840F0CE8072
:1055B00023681A69636A1A70636A01336362238D10
:1055C000013B2385638D9BB2013B9BB263852BE03E
:1055D00000953346002240492046FFF78CFB002807
:1055E00040F0B6802268136843F4007313602368A8
:1055F0001A69636A1A70626A531C6362238D013BE5
:105600002385638D9BB2013B9BB2638523681B6935
:105610005370636A01336362238D013B2385638D7D
:105620009BB2013B9BB26385238D002B7FD0032B64
:1056300054D8012BB4D0022BCAD000953346002297
:1056400025492046FFF757FB002840F08380226859
:10565000136823F48063136023681A69636A1A70FD
:10566000636A01336362238D013B2385638D9BB2A3
:10567000013B9BB2638500953346002216492046C4
:10568000FFF739FB002867D12268136843F40073E1
:10569000136023681A69636A1A70626A531C636232
:1056A000238D013B2385638D9BB2013B9BB26385B8
:1056B00023681B695370636A01336362238D013B66
:1056C0002385638D9BB2013B9BB26385ACE700BF32
:1056D000020010000000FFFF040001002A463146CE
:1056E0002046FFF705FD002838D123681A69636A50
:1056F0001A70626A531C6362238D013B2385638D9C
:105700009BB2013B9BB263852368596911F0040F7A
:105710008AD01B695370636A01336362238D013B36
:105720002385638D9BB2013B9BB263857CE720237D
:1057300084F83D30002384F83E3084F83C30AEE6F7
:105740000227ACE60227AAE60127A8E60127A6E67B
:105750000127A4E60127A2E60127A0E601279EE68D
:105760002DE9F04385B00446884691461D46FEF774
:10577000CFFC94F83D30DBB2202B03D0022005B0E3
:10578000BDE8F083064600901923012257492046C0
:10579000FFF7B1FA002840F0A08094F83C30012BCC
:1057A00000F09D80012384F83C3023681A6812F0D1
:1057B000010F03D11A6842F001021A6022681368CF
:1057C00023F400631360242384F83D30002727640A
:1057D000474BE36240E023681B6813F4807F02D0EC
:1057E0004FF4007323640320C9E7A02384F83D30FD
:1057F00022685369C3F340035269C2F3802294F8CC
:105800003DC05FFA8CFCBCF1A00F09D043B93AB996
:10581000FEF77EFC801BA842E7D8002DE8D1E4E724
:10582000202384F83D3023685A6912F0020F31D1E9
:105830001A6842F400721A6023686FF480625A6139
:1058400000961923012229492046FFF754FA00281F
:1058500049D101374F4538D22268136843F4807329
:10586000136000962B4600224FF001112046FFF7EF
:1058700042FA0028AFD1236808F0FE021A61FEF751
:1058800047FC064622685369C3F340035269C2F3DA
:105890008022B4E71A6842F400721A60002303936E
:1058A00023685A6903929B690393039B009619230B
:1058B00001220E492046FFF71EFA90B9202384F8F2
:1058C0003D30002384F83C3059E7202384F83D30F4
:1058D000002384F83C30012051E702204FE70220EA
:1058E0004DE701204BE7012049E700BF020010000F
:1058F0000000FFFF10B582B000230193194B1A6C12
:1059000042F080521A641B6C03F080530193019B98
:10591000154B01221A64FEF7FBFB0446134B5B6830
:1059200013F4803F08D1FEF7F3FB001BB0F57A7F3C
:10593000F4D9032002B010BD0B4B01225A64FEF7CC
:10594000E7FB0446094B5B6813F4003F07D1FEF701
:10595000DFFB001BB0F57A7FF4D90320EAE70020D3
:10596000E8E700BF0038024000000E42007000402F
:10597000002800F09B8070B50D4604464F4B1B6815
:1059800003F00F038B4208D2CBB24C4A137013685A
:1059900003F00F038B4240F08B80236813F0020F5B
:1059A00017D013F0040F04D0454A936843F4E05332
:1059B0009360236813F0080F04D0414A936843F4BE
:1059C000604393603E4A936823F0F003A1680B4361
:1059D0009360236813F0010F32D06368012B21D04C
:1059E0009A1E012A25D9364A126812F0020F61D098
:1059F00033498A6822F0030213438B60FEF788FB69
:105A000006462F4B9B6803F00C036268B3EB820FD2
:105A100016D0FEF77DFB801B41F288339842F0D907
:105A2000032042E0264A126812F4003FE0D1012030
:105A30003BE0234A126812F0007FD9D1012034E004
:105A40001E4B1B6803F00F03AB4207D9EAB21B4B96
:105A50001A701B6803F00F03AB422DD1236813F0BB
:105A6000040F06D0164A936823F4E053E1680B4311
:105A70009360236813F0080F07D0114A936823F44A
:105A80006043216943EAC103936000F047F80C4B7F
:105A90009B68C3F303130B4AD35CD8400A4B1860CE
:105AA0000A4B1868FEF7E8FA002070BD0120704725
:105AB0000120FAE70120F8E70120F6E7003C024068
:105AC00000380240841A0508080000201000002059
:105AD000014B1868704700BF0800002008B5FFF7A9
:105AE000F7FF044B9B68C3F38223034AD35CD8407F
:105AF00008BD00BF003802407C1A050808B5FFF752
:105B0000E7FF044B9B68C3F34233034AD35CD8409E
